:100000000C9469000C9491000C9491000C94910054
:100010000C9491000C9491000C9491000C9491001C
:100020000C9491000C9491000C9491000C9491000C
:100030000C9491000C9491000C9491000C949100FC
:100040000C94B20B0C9491000C94E90A0C941B0BC9
:100050000C9491000C9491000C9491000C949100DC
:100060000C9491000C949100000000090003020020
:10007000000405080000000000000000000000016E
:10008000020408102040800102040810200102042C
:100090000810204080400404040404040404020204
:1000A000020202020303030303030202030000002F
:1000B0000023002600290000000000250028002B56
:1000C0000000000000240027002A0000DC014B0B88
:1000D000E50111241FBECFEFD8E0DEBFCDBF11E098
:1000E000A0E0B1E0E4EEFDE102C005900D92AA3976
:1000F000B107D9F722E0AAE9B1E001C01D92AA3602
:10010000B207E1F710E0C8E6D0E004C02197FE0195
:100110000E94B70DC636D107C9F70E94A30B0C94F5
:10012000E50E0C940000DC01ED91FC910190F08152
:10013000E02D09948F929F92AF92BF92CF92DF925F
:10014000EF92FF920F931F93CF93DF936B017C018C
:10015000042F8AE991E00E947E091FEF180F802E7C
:10016000912CA12CB12C17FD26C0C12F012E000C03
:10017000DD0B60968091AF019091B001C81BD90B47
:100180008AE991E00E947E09BC01CE010E94620DC5
:10019000A7019601BC018AE991E00E9409098AE958
:1001A00091E00E94BD06002321F0C501B4010E9428
:1001B0002D0C1150D8CFDF91CF911F910F91FF904F
:1001C000EF90DF90CF90BF90AF909F908F90089569
:1001D000EF92FF920F931F93CF938AE991E00E94D1
:1001E0007E09CFEFC80F80E1E82EF12CC7FD30C0AB
:1001F0008091AF019091B001C11110C08701081B1F
:10020000190B8AE991E00E947E09BC01C8010E9495
:10021000620D20E03FEF40E050E013C00C2F0C2EA9
:10022000000C110B005F1F4F081B190B8AE991E0AE
:100230000E947E09BC01C8010E94620D20E030E0EE
:10024000A901BC018AE991E00E940909C150CECF01
:100250008AE991E00E94BD066CE271E080E090E0E6
:10026000CF911F910F91FF90EF900C942D0CF8946B
:100270001092B0001092800014BC14BEE0E0FFE3C6
:1002800009940F931F93CF93DF938091070190916F
:100290000801892B09F044C08091B1019091B2010D
:1002A00001968F3F910511F481E09FEF9093B20189
:1002B0008093B101C0E0D0E08AE991E00E947E091C
:1002C000C817D907F8F42091B1013091B201C901E2
:1002D00082509F4F8D3F914030F437FF05C03195DC
:1002E0002195310901C02FEF022F10E015950795D8
:1002F0001595079540E0BE018AE991E00E94B80893
:100300002196DACF8AE991E00E94BD0665E070E0AF
:1003100080E090E0DF91CF911F910F910C942D0C14
:10032000DF91CF911F910F9108950F931F93CF935A
:10033000DF938091B1019091B20197FF03C0919535
:10034000819591099093B2018093B1018091B1019F
:100350009091B2011816190654F501979093B201C5
:100360008093B101C0E0D0E08AE991E00E947E096B
:10037000C817D90788F42091B1013091B2018901E1
:10038000159507951595079540E0BE018AE991E01E
:100390000E94B8082196E8CF8AE991E00E94BD0644
:1003A00061E070E080E090E00E942D0CCFCFDF9103
:1003B000CF911F910F91089522E530E044E060E174
:1003C00070E08AE991E00C9498088AE991E00C9435
:1003D0002606CF93C1E080EC91E00E94C309892BEF
:1003E00009F496C080EC91E00E94DD098E32B1F4F0
:1003F0000E94FC0B6093B7017093B8018093B90120
:100400009093BA0180910701909108018230910583
:1004100011F0049701F780E090E004C0813629F4E0
:1004200086E090E00E94CC02D6CF803749F48091DC
:10043000070190910801039771F685E090E0F2CFF3
:100440008B3641F48091070190910801039703973F
:1004500010F6E1CF863619F484E090E0E3CF8335DF
:1004600019F4C093BF01B7CF833719F41092BF01BD
:10047000B2CF893659F462E670E080EC91E00E94D8
:10048000930080EC91E00E94670AA5CF813219F4B5
:100490001092060104C08F3351F4C093060180917D
:1004A000070190910801892B09F495CFB4CF982FBB
:1004B0009F7D9C34D1F480EC91E00E94C309892B8C
:1004C000D1F380EC91E00E94DD09813140F4282FC6
:1004D000082E000C330B3093B0012093AF018C3405
:1004E00009F079CF0E94E80076CF803309F073CF0E
:1004F00080EC91E00E94C309892BD1F380EC91E05C
:100500000E94DD09803209F066CFCF910C9437014B
:10051000CF910895DF92EF92FF920F931F93CF93A5
:10052000DF9311E0EE24E39480910701909108019C
:10053000049751F50E94E901F12EFE24C0E0D0E0BD
:10054000DF2CD1948AE991E00E947E09C817D9076F
:1005500050F400E020E04D2DBE018AE991E00E94B8
:10056000B8082196EFCF8AE991E00E94BD0664E6C3
:1005700070E080E090E00E942D0C111102C01F2D50
:10058000D3CF0E947A04FBCFDF91CF911F910F91BF
:10059000FF90EF90DF900895CF93DF9320910701B4
:1005A000309108012817390709F465C0EC010E9451
:1005B000950180910701909108010197E1F0C23007
:1005C000D10509F041C069E08AE991E00E9466081E
:1005D00060E084E00E94090D60E088E00E94090D5F
:1005E00060E084E10E94090D68EB7BE080E090E030
:1005F0000E942D0C03C0C230D10531F561E088E0C6
:100600000E94090D64E08AE991E00E9466088AE987
:1006100091E00E943A068AE991E00E94BD0664E6F4
:1006200070E080E090E00E942D0C61E084E10E9487
:10063000090D6CE271E080E090E00E942D0C60E01A
:1006400084E10E94090D0DC0C730D10551F464E664
:1006500070E080EC91E00E94930080EC91E00E94B9
:10066000670AD0930801C0930701249721F4DF9112
:10067000CF910C948A02DF91CF91089583E00E947C
:10068000380D20910701309108012130310529F4FE
:10069000892BB1F482E090E011C02230310541F4A1
:1006A0008130910569F490930801809307010895C2
:1006B000232B31F4019721F487E090E00C94CC02D5
:1006C000089526E040E056E960E070E080EC91E0BB
:1006D0000E94890A60E082E00E94CD0C60E083E025
:1006E0000E94CD0C61E082E00E94090D61E088E08B
:1006F0000E94CD0C61E084E10E94CD0C0E94FC0BB5
:100700006093B7017093B8018093B9019093BA01D7
:100710000C943E0364E770E080EC91E00E9493004B
:1007200080EC91E00E94670A83E090E00C94CC0298
:10073000EF92FF920F931F93CF93DF93CDB7DEB766
:1007400060970FB6F894DEBF0FBECDBF8E010F5F6E
:100750001F4F80E1F80111928A95E9F780E090E05F
:10076000AFEFB0E089839A83AB83BC8380E098E8E5
:10077000AFEFB0E08D839E83AF83B88780E49FEFB7
:10078000A0E0B0E089879A87AB87BC870E9495017B
:100790007E01FDE0EF0EF11CF801619171918191F4
:1007A00091918F014CE30E949A000E151F05A1F74D
:1007B0008FEF90E09093B2018093B10160960FB6F5
:1007C000F894DEBF0FBECDBFDF91CF911F910F9187
:1007D000FF90EF900C948A030F931F938091BF01B9
:1007E000882349F18091070190910801892B19F51F
:1007F0000E94FC0B0091BB011091BC012091BD0136
:100800003091BE01DC01CB01801B910BA20BB30B1D
:1008100088399A43A105B10570F00E94FC0B6093E2
:10082000BB017093BC018093BD019093BE011F91E9
:100830000F910C9498031F910F9108950F931F939C
:100840008091070190910801009721F00597029788
:1008500008F04DC082E00E94380D892B09F047C096
:100860000E94FC0B0091B3011091B4012091B501DD
:100870003091B601DC01CB01801B910BA20BB30BB5
:10088000883E9340A105B10590F10E94FC0B609356
:10089000B3017093B4018093B5019093B601809138
:1008A000070190910801009721F41F910F910C947A
:1008B00098038530910549F483E090E09093080116
:1008C0008093070163E670E008C0069781F41092F8
:1008D00008011092070161E670E080EC91E00E944F
:1008E000930080EC91E01F910F910C94670A1F9187
:1008F0000F9108950F931F930E94FC0B0091B70175
:100900001091B8012091B9013091BA01DC01CB01FD
:10091000801B910BA20BB30B2091070130910801B2
:100920002730310541F481329E44A105B105D8F04C
:1009300081E090E014C0409106014423A1F0A90198
:10094000415051094230510570F02430310559F0C1
:1009500081319742A105B10530F082E090E01F910E
:100960000F910C94CC021F910F910895AF92BF92FA
:10097000CF92DF92EF92FF920F931F93CF93C0E03D
:10098000C12CD12C80910701909108010597029705
:1009900018F0CC2309F44EC00E94E9010E941E0405
:1009A0000E943E03809107019091080105970297EC
:1009B00020F4CA3F20F4C75E02C0C111C9516C2F98
:1009C0008AE991E00E9482095601E12CF12C8AE922
:1009D00091E00E947E09E816F90640F5F501EF73F3
:1009E000FF27EE0FFF1FE75FFE4F208131818091CF
:1009F000070190910801059739F489011127159590
:100A000007951595079501C000E040E0B7018AE918
:100A100091E00E94B8088AE991E00E94BD068FEF3C
:100A2000E81AF80A88E0A80EB11CD1CF8FEFC81AD7
:100A3000D80AA8CF6FEF8AE991E0CF911F910F916B
:100A4000FF90EF90DF90CF90BF90AF900C94820911
:100A50006F927F928F929F92AF92BF92CF92DF92CE
:100A6000EF92FF920F931F93CF93DF938091070133
:100A7000909108018230910519F0079709F0C7C0DD
:100A80000E94FC0B4B015C01C0E0D0E0C12CD12CDA
:100A900066246394712C8091070190910801823043
:100AA000910531F18730910521F01C161D0694F057
:100AB0006FC00E94FC0BDC01CB0188199909AA09BF
:100AC000BB0981349C49A105B10520F07092080151
:100AD0006092070180910701909108018230910591
:100AE00039F0079729F01C161D062CF4259704C031
:100AF000CF3FD1050CF425960E94E9010E947A04AB
:100B00000E943E03E12CF12C8AE991E00E947E09CB
:100B1000E816F90698F58AE991E00E947E098C01B1
:100B20008AE991E00E947E09FC01C7018C199D09A8
:100B3000B8010E94620D282FCE01BF010E94620DF4
:100B4000269F402D11248091070190910801873044
:100B5000910529F0019719F0242F40E001C020E011
:100B600000E0B7018AE991E00E94B8088AE991E0C3
:100B70000E94BD068FEFE81AF80AC6CF6AE070E05F
:100B800080E090E00E942D0C2FEFC21AD20A83CF92
:100B90000197E9F569E08AE991E00E94660860E062
:100BA00084E00E94090D60E088E00E94090D61E088
:100BB00084E10E94090D66E970E080E090E00E9407
:100BC0002D0C60E084E10E94090D66E970E080E090
:100BD00090E00E942D0C61E084E10E94090D66E91D
:100BE00070E080E090E00E942D0C60E084E1DF91F5
:100BF000CF911F910F91FF90EF90DF90CF90BF901A
:100C0000AF909F908F907F906F900C94090DDF9123
:100C1000CF911F910F91FF90EF90DF90CF90BF90F9
:100C2000AF909F908F907F906F9008950E94EC03FB
:100C30000E941E040E943E030E94B6040E942805E2
:100C40000E94E9010E947A040C944101CF93DF9342
:100C5000EC0188859985009711F00E94550E8E81D0
:100C600087FD05C060E0DF91CF910C94CD0CDF9142
:100C7000CF910895CF93DF93EC018E8187FD07C05C
:100C800061E00E94CD0C60E08E810E94090D81E040
:100C90008983DF91CF910895EF92FF920F931F9375
:100CA000CF93DF93EC017B0188859985009711F044
:100CB0000E94550E9D858A85981719F084E090E072
:100CC00002C083E090E08E9D80018F9D100D9E9D5F
:100CD000100D11241D830C83C8010E94BD0D99873E
:100CE0008887009741F0A80160E070E00E94DE0E66
:100CF000FB82EA8204C01D821C821B821A82DF9161
:100D0000CF911F910F91FF90EF900895FC0131E07A
:100D100095858285981330E0CB0126E096958795DE
:100D20002A95E1F7282F23702587CB0144E096957B
:100D300087954A95E1F783708287AB015695479571
:100D40005695479543704387962F9370948791E00B
:100D50006F3F710511F008F090E090834085518558
:100D6000452B51F091E0281390E0391729F062816A
:100D70007381CF010C944C060895CF92DF92EF92CD
:100D8000FF920F931F93CF93DF93CDB7DEB72997D1
:100D90000FB6F894DEBF0FBECDBF8C01DC011896F4
:100DA0008D919C911997892B09F481C10E94080C9F
:100DB000F801C684D784E088F188DC01CB018C1966
:100DC0009D09AE09BF098C329140A105B10570F3B0
:100DD000F894D80114968D919C9115979A838983E4
:100DE00018960D90BC91A02D7D01EFEFEE1AFE0A32
:100DF0008C918987D8018C9152960D90BC91A02D31
:100E0000882309F41AC11D82AB32B10509F059C01B
:100E10009BB1F8018489982B98879BB18095892391
:100E20008F838F818E83898587FF02C088858E831B
:100E300058856F8149853E812D8189819A81D701AD
:100E40005BB9262F3BB900C046FD252F6BB900C00A
:100E50005BB9362F2BB900C045FD352F6BB900C0EB
:100E60005BB9262F3BB900C044FD252F6BB900C0EC
:100E70005BB9362F2BB900C043FD352F6BB900C0CD
:100E80005BB9262F3BB900C042FD252F6BB900C0CE
:100E90005BB9362F2BB900C041FD352F6BB900C0AF
:100EA0005BB9262F3BB900C040FD252F6BB90197D8
:100EB0005BB9362F2BB94D9147FD352F6BB901F634
:100EC000B8C0A532B10509F059C095B1F8018489BF
:100ED000982B988795B1809589238F838F818E83F6
:100EE000898587FF02C088858E8358856F814985F3
:100EF0003E812D8189819A81D70155B9262F35B937
:100F000000C046FD252F65B900C055B9362F25B95B
:100F100000C045FD352F65B900C055B9262F35B93C
:100F200000C044FD252F65B900C055B9362F25B93D
:100F300000C043FD352F65B900C055B9262F35B91E
:100F400000C042FD252F65B900C055B9362F25B91F
:100F500000C041FD352F65B900C055B9262F35B900
:100F600000C040FD252F65B9019755B9362F25B929
:100F70004D9147FD352F65B901F65BC0989709F093
:100F80008CC098B1F8018489982B988798B1809586
:100F900089238F838F818E83898587FF02C088850F
:100FA0008E8358856F8149853E812D8189819A8103
:100FB000D70158B9262F38B900C046FD252F68B98A
:100FC00000C058B9362F28B900C045FD352F68B983
:100FD00000C058B9262F38B900C044FD252F68B984
:100FE00000C058B9362F28B900C043FD352F68B965
:100FF00000C058B9262F38B900C042FD252F68B966
:1010000000C058B9362F28B900C041FD352F68B946
:1010100000C058B9262F38B900C040FD252F68B947
:10102000019758B9362F28B94D9147FD352F68B92A
:1010300001F649873E832D832EC09C91F801848957
:10104000982B98879C91809589238F838F818C839F
:1010500088E08B8358856F8149853B812C8189810C
:101060009A81F7015C9347FD252F2C93262F3A9503
:1010700031F0441F6C9300C000C000C0F3CF6C93EC
:10108000000038E04191019769F7F801B38BA28B1A
:1010900049873B832C839A83898378940E94080C28
:1010A000D8011E966D937D938D939C9351972996AD
:1010B0000FB6F894DEBF0FBECDBFDF91CF911F9169
:1010C0000F91FF90EF90DF90CF9008951F93CF93F3
:1010D000DF93EC01162F8981882331F08E8187FD03
:1010E00003C060E00E94CD0C1E838981882341F0FB
:1010F00061E0812F0E94CD0C60E0812F0E94090DDC
:10110000812F90E0FC01EA56FF4FE491F0E0EE0FF2
:10111000FF1FE954FF4F259134913B8B2A8BFC0133
:10112000E158FF4FE491EC8BDF91CF911F9108952F
:10113000EF92FF921F93CF93DF93EC017B01142F6B
:1011400019821F82198618861E861F86188A198A98
:10115000B9010E948606B701CE010E944C06612F9C
:10116000CE01DF91CF911F91FF90EF900C94660814
:101170000F931F93DC0112968D919C911397681722
:10118000790708F043C017968C911797882361F070
:10119000489FA0011124452F829F90011124232FE5
:1011A000809F80011124012F1D968C911D971A9606
:1011B0009C911A971896ED91FC911997891308C084
:1011C000CB01880F991F680F791F6E0F7F1F0AC010
:1011D000660F771F660F771F6E0F7F1FFB01E80FEB
:1011E000F11D10821A968C911A97FB01E80FF11DE0
:1011F00040831B968C911B97FB01E80FF11D208308
:101200001C968C91FB01E80FF11D00831F910F913B
:1012100008957F928F929F92AF92BF92CF92DF926A
:10122000EF92FF920F931F93CF93DF93FC01828184
:1012300093816817790708F053C04A01AA24BB2498
:10124000782CC32ED42EE52EFF24BC2DA22F87810F
:10125000882361F0889E40011124792C8C9D6001C7
:101260001124BD2D829F70011124AF2D9585D2854B
:10127000E084F1849D1308C0CB01880F991F680F8B
:10128000791F6E0D7F1D1CC0660F771F660F771FBD
:101290006E0D7F1D052F1127222733277B01E90EB5
:1012A000F11C811102C0202F09C090E0809F6001D5
:1012B000819FD00C909FD00C11242D2DE701288305
:1012C00082859B01280F311DE90178828385EB011E
:1012D000C80FD11DB8838485FB01E80FF11DA083E1
:1012E000DF91CF911F910F91FF90EF90DF90CF9002
:1012F000BF90AF909F908F907F900895FC01828166
:1013000093810895FF920F931F93CF93DF93EC0186
:10131000FF24F394F60E2F81F21679F108851985D2
:101320002150B9F06F3F59F430E040E050E06FEFEA
:101330007FEF80E090E00E94980DB9010CC08F2DE6
:1013400090E0982F88270197622F70E00E94620D2D
:1013500002C060E070E0F8014C815D81CF01801B2C
:10136000910B8417950740F44081469FC001479F29
:10137000900D11249193F0CFFF82DF91CF911F91B7
:101380000F91FF900895FC01918D228D892F90E09F
:10139000805C9F4F821B91098F7399270895FC01F0
:1013A000918D828D981731F0828DE80FF11D858D1A
:1013B00090E008958FEF9FEF0895FC01918D828D4D
:1013C000981761F0828DDF01A80FB11D5D968C9199
:1013D000928D9F5F9F73928F90E008958FEF9FEFA4
:1013E000089581E49BE0892B49F080E090E0892B0F
:1013F00029F00E94410B81110C9400000895FC011A
:10140000848DDF01A80FB11DA35ABF4F2C91848D8D
:1014100090E001968F739927848FA689B7892C93C2
:10142000A089B1898C9180648C93938D848D98135D
:1014300006C00288F389E02D80818F7D8083089526
:10144000EF92FF920F931F93CF93DF93EC0181E014
:10145000888F9B8D8C8D981305C0E889F9898081D0
:1014600085FD24C0F62E0B8D10E00F5F1F4F0F730C
:101470001127E02E8C8DE8120CC00FB607FCFACFB6
:10148000E889F989808185FFF5CFCE010E94FF09A7
:10149000F1CF8B8DFE01E80FF11DE35AFF4FF08273
:1014A0000B8FEA89FB898081806207C0EE89FF8902
:1014B0006083E889F98980818064808381E090E09D
:1014C000DF91CF911F910F91FF90EF900895CF93EF
:1014D000DF93EC01888D8823C9F0EA89FB8980813C
:1014E00085FD05C0A889B9898C9186FD0FC00FB60E
:1014F00007FCF5CF808185FFF2CFA889B9898C914F
:1015000085FFEDCFCE010E94FF09E7CFDF91CF919C
:101510000895CF92DF92EF92FF921F93CF93DF93C4
:10152000EC016A017B01122F60E874E88EE190E023
:10153000A70196010E94760DDA01C9010197A10960
:10154000B109B695A795979587959C01E889F98982
:1015500082E08083211580E13807A8F0E889F989C5
:10156000108260E472E48FE090E0A70196010E948F
:10157000760DDA01C9010197A109B109B695A795C0
:10158000979587959C01EC85FD853083EE85FF85D9
:101590002083188EEC89FD891083EA89FB8980817C
:1015A00080618083EA89FB89808188608083EA8901
:1015B000FB89808180688083EA89FB8980818F7DB7
:1015C0008083DF91CF911F91FF90EF90DF90CF90BC
:1015D00008951F920F920FB60F9211242F938F939D
:1015E0009F93EF93FF93E091D001F091D10180811F
:1015F000E091D601F091D70182FD12C090818091D7
:10160000D9018F5F8F732091DA01821751F0E09139
:10161000D901F0E0E054FE4F958F8093D90101C0CD
:101620008081FF91EF919F918F912F910F900FBE2D
:101630000F901F9018951F920F920FB60F921124C2
:101640002F933F934F935F936F937F938F939F93CA
:10165000AF93BF93EF93FF9380EC91E00E94FF095B
:10166000FF91EF91BF91AF919F918F917F916F917A
:101670005F914F913F912F910F900FBE0F901F9050
:10168000189580EC91E00E94C30921E0892B09F4B0
:1016900020E0822F0895E0ECF1E01382128288EEC0
:1016A00093E0A0E0B0E084839583A683B7838DE8C0
:1016B00091E09183808385EC90E09587848784EC2A
:1016C00090E09787868780EC90E0918B808B81EC0F
:1016D00090E0938B828B82EC90E0958B848B86ECF0
:1016E00090E0978B868B118E128E138E148E089538
:1016F000CF92DF92EF92FF920F931F93CF93DF93DE
:101700006C017A018B01C0E0D0E0CE15DF0581F0DD
:10171000D8016D918D01D601ED91FC910190F08180
:10172000E02DC6010995892B11F02196EECF7E019F
:10173000C701DF91CF911F910F91FF90EF90DF9044
:10174000CF90089508950E94690C0E94A20B0E94F8
:101750006103C1EFD9E00E9416062097E1F30E94D1
:10176000F109F9CF1F920F920FB60F9211242F9308
:101770003F938F939F93AF93BF9380915E0290911D
:101780005F02A0916002B091610230915D0226E09B
:10179000230F2D3720F40296A11DB11D05C029E8A5
:1017A000230F0396A11DB11D20935D0280935E025D
:1017B00090935F02A0936002B093610280916202F5
:1017C00090916302A0916402B09165020196A11DFF
:1017D000B11D8093620290936302A0936402B09360
:1017E0006502BF91AF919F918F913F912F910F9083
:1017F0000FBE0F901F9018952FB7F89460915E025E
:1018000070915F0280916002909161022FBF0895F4
:101810003FB7F8948091620290916302A0916402B4
:10182000B091650226B5A89B05C02F3F19F001961F
:10183000A11DB11D3FBFBA2FA92F982F8827820F56
:10184000911DA11DB11DBC01CD0143E0660F771FA5
:10185000881F991F4A95D1F708958F929F92AF9252
:10186000BF92CF92DF92EF92FF926B017C010E94B8
:10187000080C4B015C01C114D104E104F10401F135
:101880000E94610D0E94080CDC01CB0188199909A6
:10189000AA09BB09883E9340A105B10560F321E088
:1018A000C21AD108E108F10888EE880E83E0981E7C
:1018B000A11CB11CC114D104E104F10419F7DBCF60
:1018C000FF90EF90DF90CF90BF90AF909F908F9060
:1018D0000895789484B5826084BD84B5816084BDA8
:1018E00085B5826085BD85B5816085BDEEE6F0E099
:1018F000808181608083E1E8F0E0108280818260F5
:101900008083808181608083E0E8F0E08081816075
:101910008083E1EBF0E0808184608083E0EBF0E0A5
:10192000808181608083EAE7F0E080818460808349
:1019300080818260808380818E7F808380818068C7
:1019400080831092C1000895843081F028F48230A1
:1019500099F08330A1F008958830A9F08930B9F06A
:101960008530D1F4809180008F7D03C0809180000C
:101970008F7780938000089584B58F7702C084B5F7
:101980008F7D84BD08958091B0008F7703C08091D2
:10199000B0008F7D8093B0000895CF93DF9390E0E7
:1019A000FC01E158FF4F2491FC01EA56FF4F84915E
:1019B000882361F190E0880F991FFC01EF53FF4FDE
:1019C000C591D491FC01E954FF4FA591B4916111E7
:1019D00009C09FB7F8948881209582238883EC9171
:1019E0002E230BC0623061F49FB7F8948881322FA8
:1019F000309583238883EC912E2B2C939FBF06C0B8
:101A00008FB7F894E8812E2B28838FBFDF91CF9179
:101A100008951F93CF93DF93282F30E0F901E85901
:101A2000FF4F8491F901E158FF4FD491F901EA5633
:101A3000FF4FC491CC23C1F0162F81110E94A40C3A
:101A4000EC2FF0E0EE0FFF1FE954FF4FA591B4918A
:101A50009FB7F894111104C08C91D095D82302C07F
:101A6000EC91DE2BDC939FBFDF91CF911F91089506
:101A7000CF93DF93282F30E0F901E859FF4F84918D
:101A8000F901E158FF4FD491F901EA56FF4FC49193
:101A9000CC2391F081110E94A40CEC2FF0E0EE0F0A
:101AA000FF1FE355FF4FA591B491EC91ED2381E029
:101AB00090E021F480E002C080E090E0DF91CF91DF
:101AC00008950895AA1BBB1B51E107C0AA1FBB1FA5
:101AD000A617B70710F0A61BB70B881F991F5A95BA
:101AE000A9F780959095BC01CD010895A1E21A2E29
:101AF000AA1BBB1BFD010DC0AA1FBB1FEE1FFF1FB2
:101B0000A217B307E407F50720F0A21BB30BE40B01
:101B1000F50B661F771F881F991F1A9469F7609548
:101B20007095809590959B01AC01BD01CF01089502
:101B3000052E97FB1EF400940E94AF0D57FD07D0B1
:101B40000E94760D07FC03D04EF40C94AF0D509517
:101B50004095309521953F4F4F4F5F4F0895909599
:101B60008095709561957F4F8F4F9F4F0895EE0F31
:101B7000FF1F0590F491E02D09940F931F93CF93CD
:101B8000DF938230910510F482E090E0E0916802EA
:101B9000F091690220E030E0A0E0B0E0309719F168
:101BA000408151810281138148175907C8F0841779
:101BB000950769F4109731F012960C9312971396CB
:101BC0001C9327C0009368021093690222C021155C
:101BD000310519F04217530718F49A01BD01EF01BE
:101BE000DF01F801DBCF21153105F9F0281B390B96
:101BF0002430310580F48A819B816115710521F0C3
:101C0000FB019383828304C09093690280936802EE
:101C1000FE01329644C0FE01E20FF31F81939193BF
:101C200022503109398328833AC0209166023091CD
:101C30006702232B41F4209102013091030130937C
:101C40006702209366022091000130910101211565
:101C5000310541F42DB73EB7409104015091050183
:101C6000241B350BE0916602F0916702E217F3073F
:101C7000A0F42E1B3F0B2817390778F0AC014E5FFC
:101C80005F4F2417350748F04E0F5F1F50936702D0
:101C9000409366028193919302C0E0E0F0E0CF01AF
:101CA000DF91CF911F910F910895CF93DF9300970C
:101CB00009F481C0FC01329713821282A09168025C
:101CC000B0916902109781F420813181820F931FB6
:101CD00020916602309167022817390751F5F09379
:101CE0006702E093660267C0ED0120E030E0CE17A6
:101CF000DF0740F44A815B819E0141155105F1F0F7
:101D0000EA01F5CFD383C28340815181840F951FAF
:101D1000C817D90759F488819981840F951F0296B5
:101D2000918380838A819B819383828321153105EE
:101D300029F4F0936902E09368023DC0E901FB8356
:101D4000EA8349915991C40FD51FEC17FD0761F43F
:101D500080819181840F951F0296E9019983888380
:101D6000828193819B838A83E0E0F0E012968D91DB
:101D70009C911397009719F0FD01DC01F7CF8D912D
:101D80009C9111979D012E5F3F4F820F931F2091D1
:101D90006602309167022817390769F4309729F4F1
:101DA000109269021092680202C013821282B093EC
:101DB0006702A0936602DF91CF910895DC0101C014
:101DC0006D9341505040E0F7089510E0C8E6D0E030
:101DD00004C0FE010E94B70D2196C936D107C9F78C
:041DE000F894FFCFA5
:101DE40000006A028000010100400046004C0052DD
:101DF4000058005D00630068006C00710074007896
:101E0400007A007C007E007F007F007F007E007CE3
:101E1400007A007800740071006C00680063005D53
:101E240000580052004C0046004000390033002D99
:101E340000270022001C00170013000E000B0007EF
:101E44000005000300010000000000000001000381
:101E540000050007000B000E00130017001C0022F1
:101E64000027002D003300390000000000200A780C
:0A1E74000BC309DD09CF09670A005E
:00000001FF
