:100000000C9481040C94A9040C94A9040C94A904E4
:100010000C94A9040C94A9040C94A9040C94A904AC
:100020000C94A9040C94A9040C94A9040C94A9049C
:100030000C94A9040C94A9040C94A9040C94A9048C
:100040000C943B180C94A9040C9472170C94A417EC
:100050000C94A9040C94A9040C94A9040C94A9046C
:100060000C94A9040C94A90405A84CCDB2D44EB9A3
:100070003836A9020C50B9918688083CA6AAAA2A4B
:10008000BE000000803F0000102120423063408409
:1000900050A560C670E781089129A14AB16BC18C57
:1000A000D1ADE1CEF1EF123102103273225252B5CE
:1000B000429472F762D693398318B37BA35AD3BDA7
:1000C000C39CF3FFE3DE246234430420140164E69E
:1000D00074C744A45485A56AB54B85289509E5EEF7
:1000E000F5CFC5ACD58D365326721611063076D7AE
:1000F00066F6569546B4B75BA77A97198738F7DF47
:10010000E7FED79DC7BC48C458E5688678A7084075
:10011000186128023823C9CCD9EDE98EF9AF894896
:100120009969A90AB92B5AF54AD47AB76A961A710D
:100130000A503A332A12DBFDCBDCFBBFEB9E9B79E6
:100140008B58BB3BAB1A6CA67C874CE45CC52C225D
:100150003C030C601C41EDAEFD8FCDECDDCDAD2A36
:10016000BD0B8D689D497E976EB65ED54EF43E13ED
:100170002E321E510E70FF9FEFBEDFDDCFFCBF1B86
:10018000AF3A9F598F78918881A9B1CAA1EBD10C60
:10019000C12DF14EE16F108000A130C220E3500468
:1001A00040257046606783B99398A3FBB3DAC33DDB
:1001B000D31CE37FF35E02B1129022F332D24235B8
:1001C000521462777256B5EAA5CB95A88589F56E6B
:1001D000E54FD52CC50D34E224C314A00481746608
:1001E000644754244405A7DBB7FA879997B8E75FBB
:1001F000F77EC71DD73C26D336F2069116B0665758
:10020000767646155634D94CC96DF90EE92F99C842
:1002100089E9B98AA9AB584448657806682718C0A7
:1002200008E1388228A3CB7DDB5CEB3FFB1E8BF91A
:100230009BD8ABBBBB9A4A755A546A377A160AF1F7
:100240001AD02AB33A92FD2EED0FDD6CCD4DBDAA2A
:10025000AD8B9DE88DC97C266C075C644C453CA247
:100260002C831CE00CC1EF1FFF3ECF5DDF7CAF9BFA
:10027000BFBA8FD99FF86E177E364E555E742E9397
:100280003EB20ED11EF00000333166625553CCC42D
:10029000FFF5AAA6999789A9BA98EFCBDCFA456D24
:1002A000765C230F103E0373304265115620CFB7A2
:1002B000FC86A9D59AE48ADAB9EBECB8DF89461E48
:1002C000752F207C134D06E635D7608453B5CA22BE
:1002D000F913AC409F718F4FBC7EE92DDA1C438B24
:1002E00070BA25E916D8059536A463F750C6C951EA
:1002F000FA60AF339C028C3CBF0DEA5ED96F40F8C8
:1003000073C9269A15AB0DCC3EFD6BAE589FC10844
:10031000F239A76A945B8465B754E207D13648A1E5
:100320007B902EC31DF20EBF3D8E68DD5BECC27B61
:10033000F14AA41997288716B427E174D2454BD205
:1003400078E32DB01E810B2A381B6D485E79C7EE0D
:10035000F4DFA18C92BD8283B1B2E4E1D7D04E47E5
:100360007D7628251B1408593B686E3B5D0AC49DA9
:10037000F7ACA2FF91CE81F0B2C1E792D4A34D3485
:100380007E052B5618671B9828A97DFA4ECBD75CA3
:10039000E46DB13E820F9231A100F453C7625EF565
:1003A0006DC438970BA618EB2BDA7E894DB8D42F85
:1003B000E71EB24D817C9142A273F720C4115D8685
:1003C0006EB73BE408D51D7E2E4F7B1C482DD1BA5D
:1003D000E28BB7D884E994D7A7E6F2B5C184581365
:1003E0006B223E710D401E0D2D3C786F4B5ED2C9C5
:1003F000E1F8B4AB879A97A4A495F1C6C2F75B6005
:1004000068513D020E331654256570364307DA9065
:10041000E9A1BCF28FC39FFDACCCF99FCAAE5339A2
:100420006008355B066A1527261673454074D9E3C4
:10043000EAD2BF818CB09C8EAFBFFAECC9DD504AC6
:10044000637B3628051910B2238376D045E1DC762C
:10045000EF47BA148925991BAA2AFF79CC4855DFA2
:1004600066EE33BD008C13C120F075A34692DF0504
:10047000EC34B9678A569A68A959FC0ACF3B56AC46
:10048000659D30CE03FF000037306E605950DCC0F0
:10049000EBF0B2A08590A9A19E91C7C1F0F1756162
:1004A00042511B012C31436374532D031A339FA314
:1004B000A893F1C3C6F3EAC2DDF284A2B392360276
:1004C000013258626F5286C6B1F6E8A6DF965A0628
:1004D0006D36346603562F67185741077637F3A7F2
:1004E000C4979DC7AAF7C5A5F295ABC59CF519653C
:1004F0002E55770540356C045B3402643554B0C426
:1005000087F4DEA4E9941DAD2A9D73CD44FDC16D31
:10051000F65DAF0D983DB40C833CDA6CED5C68CCB5
:100520005FFC06AC319C5ECE69FE30AE079E820E4B
:10053000B53EEC6EDB5EF76FC05F990FAE3F2BAF41
:100540001C9F45CF72FF9B6BAC5BF50BC23B47AB6F
:10055000709B29CB1EFB32CA05FA5CAA6B9AEE0A85
:10056000D93A806AB75AD808EF38B668815804C8B3
:1005700033F86AA85D9871A946991FC928F9AD6931
:100580009A59C309F4393B5A0C6A553A620AE79AF8
:10059000D0AA89FABECA92FBA5CBFC9BCBAB4E3B43
:1005A000790B205B176B78394F0916592169A4F92B
:1005B00093C9CA99FDA9D198E6A8BFF888C80D5873
:1005C0003A6863385408BD9C8AACD3FCE4CC615CC7
:1005D000566C0F3C380C143D230D7A5D4D6DC8FDF3
:1005E000FFCDA69D91ADFEFFC9CF909FA7AF223F43
:1005F000150F4C5F7B6F575E606E393E0E0E8B9E03
:10060000BCAEE5FED2CE26F711C748977FA7FA37D2
:10061000CD079457A3678F56B866E136D606539632
:1006200064A63DF60AC6659452A40BF43CC4B954C2
:100630008E64D734E004CC35FB05A255956510F5E2
:1006400027C57E9549A5A0319701CE51F9617CF16E
:100650004BC1129125A109903EA067F050C0D55022
:10066000E260BB308C00E352D4628D32BA023F921A
:1006700008A251F266C24AF37DC3249313A39633B2
:10068000A103F853CF63000076B4ED689BDCCAF198
:10069000BC452799512D85C3F37768AB1E1F4F3298
:1006A0003986A25AD4EE1BA76D13F6CF807BD156A4
:1006B000A7E23C3E4A8A9E64E8D0730C05B8549584
:1006C0002221B9FDCF49374E41FADA26AC92FDBF5F
:1006D0008B0B10D76663B28DC4395FE52951787CE6
:1006E0000EC89514E3A02CE95A5DC181B735E61810
:1006F00090AC0B707DC4A92ADF9E444232F663DBC6
:10070000156F8EB3F8076E9C182883F4F540A46D1E
:10071000D2D949053FB1EB5F9DEB0637708321AE1F
:10072000571ACCC6BA72753B038F9853EEE7BFCA0F
:10073000C97E52A22416F0F8864C1D906B243A090B
:100740004CBDD761A1D559D22F66B4BAC20E93233E
:10075000E5977E4B08FFDC11AAA5317947CD16E05D
:100760006054FB888D3C427534C1AF1DD9A9888483
:10077000FE3065EC1358C7B6B1022ADE5C6A0D473D
:100780007BF3E02F969BDD38AB8C305046E417C9E5
:10079000617DFAA18C1558FB2E4FB593C327920AA1
:1007A000E4BE7F6209D6C69FB02B2BF75D430C6E6B
:1007B0007ADAE10697B2435C35E8AE34D88089AD89
:1007C000FF1964C51271EA769CC2071E71AA2087C0
:1007D0005633CDEFBB5B6FB5190182DDF469A544DB
:1007E000D3F0482C3E98F1D187651CB96A0D3B20A7
:1007F0004D94D648A0FC741202A6997AEFCEBEE3BF
:10080000C857538B253FB3A4C5105ECC28787955C3
:100810000FE1943DE289366740D3DB0FADBBFC9618
:100820008A2211FE674AA803DEB7456B33DF62F206
:1008300014468F9AF92E2DC05B74C0A8B61CE73100
:1008400091850A597CED84EAF25E69821F364E1B5F
:1008500038AFA373D5C70129779DEC419AF5CBD862
:10086000BD6C26B050049F4DE9F97225049155BC2A
:100870002308B8D4CE601A8E6C3AF7E68152D07F46
:10088000A6CB3D174BA300000009000302000004A3
:100890000508000000000000000000000001020444
:1008A00008102040800102040810200102040810F2
:1008B00020408040040404040404040402020202F0
:1008C00002020303030303030202030000000023E8
:1008D000002600290000000000250028002B000051
:1008E000000000240027002A0000D2059406FA0622
:1008F00040080A0AF30A5C0BAC0C880FC312D41729
:10090000E31211241FBECFEFD8E0DEBFCDBF12E04F
:10091000A0E0B1E0E2EFFCE302C005900D92A23846
:10092000B107D9F724E0A2E8B2E001C01D92A43DCE
:10093000B207E1F714E0C0E8D4E004C02197FE015B
:100940000E941B1DC537D107C9F70E942C180C94B3
:100950006C1E0C94000008959091FB0281E08927A1
:1009600008954130510521F4FB012081213611F019
:100970000C94021261E40E94F21181E008954F92FA
:100980005F926F927F928F929F92AF92BF92CF921F
:10099000DF92EF92FF920F931F93CF93DF93EC01BF
:1009A0008B85EF80F88409851A85882341F120E042
:1009B00030E0A901B701C8010E94B01B1816E4F489
:1009C0002DEC3CEC4CEC5CE3B701C8010E94581ADA
:1009D00087FF05C07E2D6F2D902F812F04C07DECE9
:1009E0006CEC9CEC8CE3272F362F492F582FB70146
:1009F000C8010E94EB1930C081E08C8731C020E033
:100A000030E040E85FE3B701C8010E94581A87FF51
:100A100027C09701A80160E070E080E89FE30E9492
:100A2000EB195B016C012AE037ED43E25CE30E94C5
:100A3000581A87FF05C0BA2DAB2DFC2DED2D04C033
:100A4000BAE0A7EDF3E2ECE39701A8016B2F7A2F50
:100A50008F2F9E2F0E94EC196F83788789879A8742
:100A6000CE010E945C100E94FE1A20E030E046E9B0
:100A700053E40E945D1A4B015C018AE094E00E94FD
:100A80003F16BC0180E090E00E94FE1A9B01AC0181
:100A90006BED7FE089EC90E40E945D1A2B013C0134
:100AA000E12CF12C8AE094E00E943F16E816F9064A
:100AB00078F5B7010F2C000C880B990B0E94001BD6
:100AC000A30192010E94B51BA50194010E94EC199B
:100AD0000E94221C9B01AC010E94B51B20E030E06B
:100AE0004FE753E40E94B51B2F81388549855A850D
:100AF0000E94B51B0E94CF1A262F00E040E0B701EC
:100B00008AE094E00E9479158FEFE81AF80ACACFBC
:100B10008AE094E0DF91CF911F910F91FF90EF90C9
:100B2000DF90CF90BF90AF909F908F907F906F900D
:100B30005F904F900C947E13CF93DF93EC018B85E5
:100B4000882351F08C85882379F061E6CE010E94DC
:100B5000F2118AEC92E011C082E00E94C119892B47
:100B600029F08B858111EECFCE0107C081E08B8704
:100B700063E6CE010E94F211F4CFDF91CF91089588
:100B8000CF93DF93EC010E94A50F1F821886198670
:100B90001A861E821B861C8661E4CE01DF91CF91EE
:100BA0000C94F2118CED91E0909383028093820279
:100BB0000895FC01168211861286089580E008953A
:100BC000EF92FF920F931F93CF93DF93EC018B0172
:100BD0007A010E940212EA94EF2831F4F801908120
:100BE0009E3211F491E09987DF91CF911F910F917F
:100BF000FF90EF900895AF92BF92CF92DF92EF9265
:100C0000FF920F931F93CF93DF93EC0129858F8180
:100C10009885222389F0181619064CF49C0185301A
:100C2000910514F024E030E0821B930B13C081E0A7
:100C30008A87E12CF12C11C08F3F9105D4F72FEF5B
:100C400030E0281B390B2530310514F024E030E06A
:100C5000820F931F98878F83ECCF8AE094E00E94E5
:100C60003F16E816F90660F58E815701A81AB108FB
:100C70008AE094E00E943F166C010F8118858AE09B
:100C800094E00E943F16FC01C501B6010E94B21C0F
:100C9000282FC801BF010E94B21C269F202D1124BD
:100CA000022F10E0159507951595079540E0B701BF
:100CB0008AE094E00E9479158FEFE81AF80ACDCF08
:100CC0008AE094E00E947E138E818F5F8E83DF9195
:100CD000CF911F910F91FF90EF90DF90CF90BF9039
:100CE000AF900895CF93DF93EC010E94920F00978D
:100CF00049F48985882339F08A85882321F0CAEC54
:100D0000D2E001C0EC01CE01DF91CF9108951092A5
:100D1000FB020E9485186093FC027093FD02809391
:100D2000FE029093FF020895EFE8F2E08CEE91E06E
:100D300091838083168210861782089508950895FE
:100D40009091FB0281E089270895CF93DF93EC0116
:100D50000E94920F0097A1F48CE00E94C119892B88
:100D600019F4CE010E948810CE010E945C106939EE
:100D70007A438105910530F48F81882331F002C0D8
:100D8000EC0108C0CAECD2E005C08E81882311F0C6
:100D9000CAEDD2E0CE01DF91CF910895CF93DF93DA
:100DA000EC010E94A50F1F821E82DF91CF91089552
:100DB000EF92FF920F931F93CF93DF93EC018B0180
:100DC0007A010E94021281110EC0EA94EF2859F4B0
:100DD000F80190819B3629F0903729F481E08E83C9
:100DE00002C081E08F83DF91CF911F910F91FF901F
:100DF000EF9008958CEF91E090939B0280939A027C
:100E000008959091FB0281E0892708950C940212C5
:100E10003F924F925F926F927F928F929F92AF928A
:100E2000BF92CF92DF92EF92FF920F931F93CF93D7
:100E3000DF9300D000D000D0CDB7DEB78C01FC012D
:100E4000868124E0829FE00DF11D112447845088A3
:100E500061887288C8010E945C10F801C780D08444
:100E6000E184F2840E94FE1A4B015C01F801668164
:100E700070E080E090E00E94001BA70196010E94B4
:100E8000B51B9B01AC01C501B4010E94EB19A70180
:100E900096010E945D1A6B017C018AE094E00E9439
:100EA0003F16BC0180E090E00E94FE1AA701960167
:100EB0000E94B51B69837A838B839C83312C8AE0E3
:100EC00094E00E943F16232D032C000C330B3E832D
:100ED0002D832817390708F043C0632D032C000C1D
:100EE000770B880B990B0E94001B9B01AC01698159
:100EF0007A818B819C810E94B01B9091210487FD97
:100F000012C0ED81FE81E90FF11DFE83ED838AE0C1
:100F100094E00E943F16BC018D819E810E94B21C0C
:100F2000A301920116C0F80183849484A584B68439
:100F30002D813E81290F311D3E832D838AE094E06F
:100F40000E943F16BC018D819E810E94B21CA501AA
:100F50009401BC018AE094E00E94CA153394AFCF9B
:100F60008AE094E00E947E1320E030E040E85FE3F6
:100F7000C701B6010E94B01B87FD0CC0F801438673
:100F800054866586768686818F5F833010F082E096
:100F9000F801868326960FB6F894DEBF0FBECDBF4C
:100FA000DF91CF911F910F91FF90EF90DF90CF9045
:100FB000BF90AF909F908F907F906F905F904F9079
:100FC0003F9008950F931F93CF93C0E00C2F0C2EEA
:100FD000000C110B8AE094E00E943F1608171907D5
:100FE00050F420E030E0A901B8018AE094E00E94CA
:100FF000CA15CF5FEBCF8AE094E0CF911F910F919C
:101000000C947E130F931F93CF93DF93EC010E94F8
:101010005C102091220430912304890120E030E00B
:10102000061717072807390730F464E7CE010E9436
:10103000F211CAE9D2E0CE01DF91CF911F910F9159
:101040000895CF93DF93EC010E94A50F60912204D5
:101050007091230480E090E00E94FE1A20E030E0CE
:1010600040E450E40E945D1A6F83788789879A87ED
:101070001E821B861C861D861E86DF91CF910895D9
:101080008CE092E09093A3028093A2028CE0ECECBF
:10109000F1E0A1EBB2E001900D928A95E1F708959D
:1010A0004F925F926F927F928F929F92AF92BF9278
:1010B000CF92DF92EF92FF920F931F93CF93DF9324
:1010C000FC0120813181DB01FD01BD0163707727C7
:1010D000672B19F48A01ED0115C04115510509F47A
:1010E00016C1C32FDD271196E081F0E0E227EE0F55
:1010F000FF1FEA57FF4F259134912C273D27415080
:101100005109E2CF0031110508F4DDC00051110989
:1011100088809980AA80BB8028253925F901FF277E
:10112000EE0FFF1FEA57F94FC590D490232F3327B6
:10113000F901EE0FFF1FEA57FB4F659174914A2C9E
:10114000512C612C712CFFEF5F1A6F0A7F0AF2019C
:10115000EE0FFF1FEA57FF4F259134918B2C9924F6
:10116000AA24BB24F401EE0FFF1FEA57FF4FE590BE
:10117000F4908C809D80AE80BF806C257D25682595
:10118000792526273727E226F326F701FF27EE0FDA
:10119000FF1FEA57F94F65907490EF2DFF27EE0F70
:1011A000FF1FEA57FB4F65917491CA2CD12CE12C9B
:1011B000F12C2FEFD21AE20AF20AF601EE0FFF1F0E
:1011C000EA57FF4F259134918B2C9924AA24BB24F4
:1011D000F401EE0FFF1FEA57FF4FE590F49088846B
:1011E0009984AA84BB8466257725682579252627D6
:1011F0003727E226F326F701FF27EE0FFF1FEA57F6
:10120000F94FC590D490EF2DFF27EE0FFF1FEA573F
:10121000FB4F659174914A2C512C612C712CEFEF8E
:101220005E1A6E0A7E0AF201EE0FFF1FEA57FF4FA9
:10123000259134918B2C9924AA24BB24F401EE0F20
:10124000FF1FEA57FF4FE590F4908C849D84AE8495
:10125000BF846C257D256825792526273727E2263A
:10126000F326F701FF27EE0FFF1FEA57F94F6590AE
:101270007490EF2DFF27EE0FFF1FEA57FB4F65918C
:101280007491CA2CD12CE12CF12CFFEFDF1AEF0A5C
:10129000FF0AF601EE0FFF1FEA57FF4F2591349129
:1012A0008B2C9924AA24BB24F401EE0FFF1FEA57CC
:1012B000FF4FE590F49066257725262737272E25C2
:1012C0003F2560961FCFBA01E4E076956795EA95D1
:1012D000E1F7FB01C4E0EE0FFF1FCA95E1F7AE0F87
:1012E000BF1F4E1B5F0BED01C40FD51FCA17DB07D5
:1012F00071F0032F1127ED91F0E0E227EE0FFF1FB1
:10130000EA57FF4F2591349120273127EFCFFC0179
:1013100031832083A90160E070E0B62FA52F942FC0
:101320008827AA27BB27452F562F672F7727842B7F
:10133000952BA62BB72BDF91CF911F910F91FF908B
:10134000EF90DF90CF90BF90AF909F908F907F9065
:101350006F905F904F9008952FEF3FEFFC01318326
:1013600020830C94500808954130510549F4FB0145
:1013700020812E3229F421E0FC01238781E00895A9
:1013800080E00895089580E00895EF92FF920F9312
:10139000CF93DF930E945C1026E930E040E050E0FC
:1013A0000E94DA1C790181E0E822FF24C0E0D0E04D
:1013B0008AE094E00E943F16C817D90778F400E04D
:1013C00020E0E114F10411F04FEF01C040E0BE0154
:1013D0008AE094E00E9479152196EACF8AE094E0B1
:1013E000DF91CF910F91FF90EF900C947E13FC0151
:1013F0002385222329F061E60E94F2118AEC92E013
:101400000895CF93DF93EC010E94A50F1B86DF9117
:10141000CF9108958CE192E09093BE028093BD023B
:10142000089508959091FB0281E089270895CF9354
:10143000DF93EC010E94920F009749F482E00E9432
:10144000C119892B31F08885811103C004C0EC01DA
:1014500002C0C2EAD2E0CE01DF91CF910895CF93CE
:10146000DF93EC010E94A50F18861F821E82DF9178
:10147000CF910895EF92FF920F931F93CF93DF9335
:10148000EC018B017A010E940212882311F081E0A5
:101490000AC0EA94EF2831F4F8018081843711F40E
:1014A00081E0888780E0DF91CF911F910F91FF90BD
:1014B000EF900895CF92DF92EF92FF920F931F93D8
:1014C000CF9397FF09C090958095709561957F4F58
:1014D0008F4F9F4FC0E001C0C1E0683621E0720726
:1014E0008105910534F028E631E040E050E00E94AB
:1014F000FC1C653B71058105910534F0645B710945
:101500008109910921E0C2276B357105810591059B
:1015100064F004EB10E020E030E068017901C61AC5
:10152000D70AE80AF90AC701B601660F771FFB015F
:10153000EA5FFE4F6081718180E090E0CC2339F05A
:101540000E94FE1A20E830E040E857E306C00E94FF
:10155000FE1A20E830E040E857EB0E94B51BCF911F
:101560001F910F91FF90EF90DF90CF900895FF9221
:101570000F931F93CF93DF930E945C1024E0969506
:101580008795779567952A95D1F70E945A0A9B010E
:10159000AC010E94B51B20E030E04FE753E40E940D
:1015A000B51B0E94CF1A162FF62EF694F694C0E0C3
:1015B000D0E08AE094E00E943F16C817D90750F4A3
:1015C0000F2D212F40E0BE018AE094E00E947915A2
:1015D0002196EFCF8AE094E0DF91CF911F910F9198
:1015E000FF900C947E138CE292E09093CB02809358
:1015F000CA02089580E00895089580E008950F9349
:101600001F93CF93DF93EC018C010E945C1021E0CB
:10161000693B7B408105910508F420E08E81822B97
:101620008E83882339F083E00E94C119892B11F43D
:101630000FE812E0C801DF91CF911F910F9108953B
:10164000CF93DF93EC010E94A50F1E82CE010E9472
:10165000161063E0CE010E94B10F69E08AE094E0C9
:101660000E94271560E084E00E94921960E088E003
:10167000DF91CF910C949219CF93DF93EC011092EC
:10168000FB0261E088E00E94921964E08AE094E045
:101690000E9427158AE094E00E94FB128AE094E001
:1016A0000E9443168AE094E00E947E1362E0CE011D
:1016B000DF91CF910C94B10F8CE392E09093D40220
:1016C0008093D302089508959091FB0281E08927C9
:1016D00008954F925F926F927F928F929F92AF92F6
:1016E000BF92CF92DF92EF92FF920F931F93CF930F
:1016F000DF93EC018B85EF80F88409851A858111D1
:1017000003C08D85882341F120E030E0A901B701B5
:10171000C8010E94B01B1816E4F42DEC3CEC4CEC14
:101720005CE3B701C8010E94581A87FF05C07E2DEF
:101730006F2D902F812F04C07DEC6CEC9CEC8CE322
:10174000272F362F492F582FB701C8010E94EB19B8
:1017500030C081E08C8731C020E030E040E85FE3BA
:10176000B701C8010E94581A87FF27C09701A80136
:1017700060E070E080E89FE30E94EB195B016C0180
:101780002AE037ED43E25CE30E94581A87FF05C068
:10179000BA2DAB2DFC2DED2D04C0BAE0A7EDF3E280
:1017A000ECE39701A8016B2F7A2F8F2F9E2F0E94B9
:1017B000EC196F83788789879A87CE010E945C1025
:1017C0000E94FE1A20E030E046E953E40E945D1AD0
:1017D0004B015C018AE094E00E943F16BC0180E06E
:1017E00090E00E94FE1A9B01AC016BED7FE089EC5A
:1017F00090E40E945D1A2B013C01E12CF12C8AE05F
:1018000094E00E943F16E816F906A0F5B7010F2CE8
:10181000000C880B990B0E94001BA30192010E94EF
:10182000B51BA50194010E94EC190E94221C9B018A
:10183000AC010E94B51B20E030E04FE753E40E946A
:10184000B51B2F81388549855A850E94B51B0E949A
:10185000CF1A262F062F10E0159507951595079599
:1018600040E0B7018AE094E00E9479158FEFE81A12
:10187000F80AC5CF8AE094E0DF91CF911F910F91D4
:10188000FF90EF90DF90CF90BF90AF909F908F90A0
:101890007F906F905F904F900C947E13CF93DF9367
:1018A000EC010E94920F0097B9F48D85811105C05B
:1018B00082E00E94C119892BA1F0CE010E945C1028
:1018C000613375478105910548F48B85882381F044
:1018D0008C85882369F002C0EC010AC0CAECD2E012
:1018E00007C081E08D8763E6CE010E94F211E5CF4B
:1018F000CE01DF91CF910895CF93DF93EC010E9449
:10190000A50F1D861F82188619861A861E821B86C1
:101910001C86DF91CF910895EF92FF920F931F9352
:10192000CF93DF93EC018B017A010E94021288238E
:1019300011F081E00AC0EA94EF2831F4F8018081C7
:101940008B3611F481E08B8780E0DF91CF911F917E
:101950000F91FF90EF9008958CE492E09093DB025A
:101960008093DA020895CF93DF93EC018091EC022B
:101970009091ED028C179D07C1F0009739F0DC01C2
:10198000ED91FC910084F185E02D0995D093ED0255
:10199000C093EC02209749F0E881F9810680F78135
:1019A000E02DCE01DF91CF910994DF91CF91089581
:1019B00014BE0FB6F894A89580916000886180935A
:1019C0006000109260000FBE61E084E10E94561931
:1019D00060E084E10E94921961E08BE00E94561958
:1019E00061E08BE00E94921960E082E00E9456194B
:1019F00061E082E00E94921960E083E00E94561943
:101A000061E083E00E94921961E088E00E9456192B
:101A100026E040E056E960E070E08AE294E00E944F
:101A200012178AE294E0909303048093020480EBFF
:101A30009EE0909305048093040410920704109292
:101A4000060483ED92E00C94B30C2F923F924F92D8
:101A50005F926F927F928F929F92AF92BF92CF923E
:101A6000DF92EF92FF920F931F93CF93DF9300D0FB
:101A700000D000D0CDB7DEB78C018DB79EB79A836A
:101A8000898348019EEF891A990AD4018D919C910E
:101A9000892B09F4BCC0F801F3957F01C8018C5F64
:101AA0009E4F9C838B8328019AEF491A9EEF590A17
:101AB00080E2D82ED4018D919C91DC01ED91FC91B6
:101AC0000480F581E02D0995181619060CF09FC0C9
:101AD000F40180819181DC01ED91FC910680F78118
:101AE000E02D0995803209F07FC0AB81BC81ED917A
:101AF000FC91309731F4D2018D919C91892B09F49E
:101B00006FC06DB67EB6D7016D917C918DB79EB7D3
:101B1000861B970B0FB6F8949EBF0FBE8DBF019624
:101B20006130710549F4D8012C91203341F4DC0176
:101B30002C9341E050E042C061157105E9F140E0AD
:101B400050E020E030E026173707C0F5D801A20F9B
:101B5000B31FCC90D901AC0DB11D6A177B0718F4E7
:101B6000B1E0CB1229C02F5F3F4F5801A20EB31E28
:101B7000DC01A40FB51FBE83AD83332433943C1422
:101B800070F44F5F5F4F2F5F3F4FD5012D905D0188
:101B9000AD81BE812D92BE83AD833394F0CFBFEF74
:101BA000CB1689F26217730771F2DC01A40FB51F1F
:101BB000DC924F5F5F4FC7CF40E050E0309719F0A5
:101BC000BA01099508C0D201ED91FC91309719F046
:101BD000BC01C80109950FB6F8947EBE0FBE6DBE5C
:101BE000F7011182108266CFD7012D913C91119798
:101BF000A9014F5F5F4F4F3F510511F008F05ACFD9
:101C00004D935C93F801E20FF31F808353CFE9817A
:101C1000FA810FB6F894FEBF0FBEEDBF26960FB641
:101C2000F894DEBF0FBECDBFDF91CF911F910F9112
:101C3000FF90EF90DF90CF90BF90AF909F908F90EC
:101C40007F906F905F904F903F902F900895CF922C
:101C5000DF92EF92FF92CF93DF938091EC0290910D
:101C6000ED02009749F0DC01ED91FC910284F385CF
:101C7000E02D0995C82F01C0C1E06C2F84E10E94BE
:101C80009219CC23F9F00E948518C090FC02D090E4
:101C9000FD02E090FE02F090FF02DC01CB018C1906
:101CA0009D09AE09BF0981319742A105B10550F0E8
:101CB00083ED92E0DF91CF91FF90EF90DF90CF9096
:101CC0000C94B30C8091EC029091ED020097F1F12D
:101CD000DC01ED91FC910480F581E02D0995EC018A
:101CE0000E948518C090E802D090E902E090EA02D4
:101CF000F090EB029B01AC012C193D094E095F09E4
:101D000069017A0132E2C316D104E104F104D8F08A
:101D100080E093E00E94250D0E9485186093E80200
:101D20007093E9028093EA029093EB028091EC02B7
:101D30009091ED02DC01ED91FC910280F381E02DA8
:101D4000B701A6010995CE010E94B30C80E093E093
:101D5000DF91CF91FF90EF90DF90CF900C94250D05
:101D60000F931F93CF93DF93EC018B0161307105CB
:101D700069F58881803379F08936D9F08E3231F572
:101D80000E9485186093FC027093FD028093FE020E
:101D90009093FF021BC0F8941092B0001092800044
:101DA00014BC14BEE0E0FFE3DF91CF911F910F91CF
:101DB000099462E68AE294E00E94A9168AE294E01D
:101DC000DF91CF911F910F910C94F0168091EC024E
:101DD0009091ED02009769F0DC01ED91FC9101908A
:101DE000F081E02DA801BE01DF91CF911F910F91ED
:101DF0000994DF91CF911F910F91089580E008958C
:101E00000895089581E00895AF92BF92CF92DF9236
:101E1000EF92FF920F931F93CF93DF93EC012985ED
:101E20008F819885222351F01816190614F4019712
:101E300009C081E08A87E12CF12C07C08F3F910512
:101E4000D4F7019698878F83F6CF8AE094E00E94BA
:101E50003F16E816F90660F58E8190E09595879516
:101E6000959587955701A81AB90A8AE094E00E94CF
:101E70003F166C010F8118858AE094E00E943F169E
:101E8000FC01C501B6010E94B21C282FC801BF0188
:101E90000E94B21C269F402D112400E020E0B701D3
:101EA0008AE094E00E9479158FEFE81AF80ACDCF06
:101EB0008AE094E00E947E138E818F5F8E83DF9193
:101EC000CF911F910F91FF90EF90DF90CF90BF9037
:101ED000AF900895CF93DF93EC010E94A50FCE0140
:101EE0000E94CD0F18861F821E8219861A8664E60C
:101EF000CE010E94F2110E9485186093FC0270933B
:101F0000FD028093FE029093FF02DF91CF9108952E
:101F1000EEEEF2E08CE592E09183808316821086EB
:101F20001782089583E00E94C119019759F08091AA
:101F3000F9029091FA02009739F01092FA02109289
:101F4000F90208958EEE92E00895CF93DF93EC01AD
:101F50000E9485186A837B838C839D83DF91CF9158
:101F60000895CF93C62FCC23B1F061E084E10E94A5
:101F7000921964E670E080E090E00E94B61860E09C
:101F800084E10E94921964E670E080E090E00E9493
:101F9000B618C150E8CFCF910895FF920F931F93C9
:101FA000CF93DF938091C001882311F149E050E085
:101FB0006FE174E088E094E00E94AC0990932904FA
:101FC000809328040FE114E0C0E0D0E0F801F19024
:101FD0008F01CE010E94561EF81621F06F2DCE0102
:101FE0000E945E1E2196CB30D10581F71092C00170
:101FF000DF91CF911F910F91FF900895CF93DF93C1
:10200000CFE1D4E0698170E08AE094E00E940D1392
:10201000E881F0E0EE0FFF1FE454FE4F6081718114
:102020008AE094E0DF91CF910C944713EF92FF92F6
:102030000F931F93CF93DF938C018FE1E82E84E001
:10204000F82EC0E0D0E0CE010E94561EF701819329
:102050007F012196CB30D105B1F71092C00149E044
:1020600050E06FE174E088E094E00E94AC092091B8
:1020700028043091290482179307A9F08BE0E1EC42
:10208000F1E0AFE1B4E001900D928A95E1F749E00B
:1020900050E06FE174E088E094E00E94AC09909316
:1020A000290480932804C801DF91CF911F910F91DB
:1020B000FF90EF900C94FE0F0F931F93CF93DF933D
:1020C000EC010E9485180A811B812C813D81601BD7
:1020D000710B820B930BDF91CF911F910F9108959C
:1020E000FB018081823090F48181813278F4838198
:1020F000948189399A4350F481E045815681678102
:102100007085413452446F40710508F080E00895B5
:10211000CF92DF92EF92FF920F931F9368E070E0EF
:1021200080E090E00E94B61860E08BE00E94921977
:102130000E9491186B017C010E949118DC01CB0177
:102140008C199D09AE09BF09009124041091250442
:10215000209126043091270480179107A207B30726
:1021600058F361E08BE01F910F91FF90EF90DF90AB
:10217000CF900C949219EF92FF920F931F93CF93ED
:102180007B01C0E08AE094E00E943F162C2F0C2EC9
:10219000000C330B2817390740F500912104C111B9
:1021A0000EC010E08AE094E00E943F16BC01C80116
:1021B0000E94B21C20E03FEF40E050E00FC0C90198
:1021C000800F911D8C018AE094E00E943F16BC01B3
:1021D000C8010E94B21C20E030E0A901BC018AE0E5
:1021E00094E00E94CA15CF5FCDCF8AE094E00E94B0
:1021F0007E13B70180E090E00E94B618C0E00C2F7B
:102200000C2E000C110B8AE094E00E943F16081778
:10221000190750F420E030E0A901B8018AE094E009
:102220000E94CA15CF5FEBCF8AE094E0CF911F9157
:102230000F91FF90EF900C947E134F925F926F92EC
:102240007F928F929F92AF92BF92CF92DF92EF9246
:10225000FF920F931F93CF93DF93CDB7DEB75B0150
:10226000FA010DB71EB78E5F9E4F3C01DC01ED9069
:10227000FC90E114F10409F466C0672B09F463C013
:10228000309709F460C0CA016EEF70E00E94B21C82
:10229000CF010196680F791F8DB79EB7861B970BEC
:1022A0000FB6F8949EBF0FBE8DBF6DB77EB76F5F40
:1022B0007F4F412C512C21E030E09924939480E011
:1022C00090E0D5018D905D01BFEF4B1A5B0AA9012B
:1022D0004F5F5F4FA0E28A1206C0860F971FDC0196
:1022E0009C92C90116C06B01C20ED31ED6018C92FE
:1022F0009394BFEF9B1629F0E415F50569F09A0158
:10230000E0CF860F971FDC019C92CA01A9014E5FA6
:102310005F4F99249394F0CFFB01E80FF91F90824F
:10232000D701ED91FC910280F381E02DC701099561
:10233000F30180819181DC01ED91FC910190F081AC
:10234000E02D60E209950FB6F8941EBF0FBE0DBFD9
:102350000FB6F8941EBF0FBE0DBFDF91CF911F9136
:102360000F91FF90EF90DF90CF90BF90AF909F9034
:102370008F907F906F905F904F900895CF93DF93F1
:10238000CDB7DEB72C970FB6F894DEBF0FBECDBF2A
:1023900084E289838BE0EFE1F4E0DE0112960190A4
:1023A0000D928A95E1F74CE050E0BE016F5F7F4FE0
:1023B00080E093E00E941D118AE294E00E94F016F2
:1023C0002C960FB6F894DEBF0FBECDBFDF91CF9134
:1023D000089550E080E093E00E941D118AE294E0AD
:1023E0000C94F016CF93DF931F92CDB7DEB76983BD
:1023F00041E0BE016F5F7F4F0E94E9110F90DF91B6
:10240000CF910895EF92FF920F931F93CF93DF9395
:102410004115510509F4ACC0EB018C0188818E3364
:1024200009F49CC048F48432B1F08C3309F474C0D0
:10243000813209F09DC05BC0813651F0863609F4C7
:102440004FC08F3309F094C0C8010E94BE1192C0E2
:1024500082E892E047C04C30510521F042E068E646
:1024600072E013C07B018FEFE81AF80A49E050E0F0
:10247000B70188E094E00E94AC092A853B85821769
:10248000930739F042E06BE672E0C8010E94E9115F
:1024900071C0B701C8010E947010C82F811104C01B
:1024A00042E06EE672E0F1CF4BE050E0B7018FE121
:1024B00094E00E94421E892B71F081E08093C0015C
:1024C0008BE0F701AFE1B4E001900D928A95E1F75E
:1024D000C8010E94FE0F6BE6C8010E94F2114BC0BA
:1024E0008DEB92E09093FA028093F90243C0423060
:1024F000510509F03FC081E09981911180E08093FE
:10250000FB020E9485186093FC027093FD02809389
:10251000FE029093FF022EC080912104811103C01E
:102520008091200401C081508093210449E050E053
:102530006FE174E088E094E00E94AC099093290474
:102540008093280481E08093C001C8010E94BE11DD
:1025500060E971E0C8010E94BB100CC080912104A9
:1025600090E001966091200470E00E94C61CDCCFD0
:10257000C0E001C0C1E08C2FDF91CF911F910F917E
:10258000FF90EF9008952091BC013091BD0144E08F
:1025900060E170E08AE094E00E94591588E094E0E0
:1025A0000E94B309109201041092000410920304D7
:1025B0001092020410920504109204041092070471
:1025C0001092060408958AE094E00C94E712CF93E9
:1025D000DF93EC0188859985009711F00E94B91D61
:1025E0008E8187FD05C060E0DF91CF910C94561974
:1025F000DF91CF910895CF93DF93EC018E8187FD1A
:1026000007C061E00E94561960E08E810E94921915
:1026100081E08983DF91CF910895EF92FF920F932C
:102620001F93CF93DF93EC017B01888599850097F9
:1026300011F00E94B91D9D858A85981719F084E0D4
:1026400090E002C083E090E08E9D80018F9D100D90
:102650009E9D100D11241D830C83C8010E94211D15
:1026600099878887009741F0A80160E070E00E9498
:102670004F1EFB82EA8204C01D821C821B821A82CA
:10268000DF91CF911F910F91FF90EF900895FC0182
:1026900031E095858285981330E0CB0126E0969550
:1026A00087952A95E1F7282F23702587CB0144E0F1
:1026B000969587954A95E1F783708287AB01569589
:1026C00047955695479543704387962F9370948707
:1026D00091E06F3F710511F008F090E09083408524
:1026E0005185452B51F091E0281390E0391729F0DE
:1026F00062817381CF010C940D130895CF92DF9204
:10270000EF92FF920F931F93CF93DF93CDB7DEB776
:1027100029970FB6F894DEBF0FBECDBF8C01DC0148
:1027200018968D919C911997892B09F481C10E946B
:102730009118F801C684D784E088F188DC01CB01C8
:102740008C199D09AE09BF098C329140A105B105D4
:1027500070F3F894D80114968D919C9115979A83F3
:10276000898318960D90BC91A02D7D01EFEFEE1A94
:10277000FE0A8C918987D8018C9152960D90BC915C
:10278000A02D882309F41AC11D82AB32B10509F0CE
:1027900059C09BB1F8018489982B98879BB180958B
:1027A00089238F838F818E83898587FF02C08885E7
:1027B0008E8358856F8149853E812D8189819A81DB
:1027C000D7015BB9262F3BB900C046FD252F6BB959
:1027D00000C05BB9362F2BB900C045FD352F6BB952
:1027E00000C05BB9262F3BB900C044FD252F6BB953
:1027F00000C05BB9362F2BB900C043FD352F6BB934
:1028000000C05BB9262F3BB900C042FD252F6BB934
:1028100000C05BB9362F2BB900C041FD352F6BB915
:1028200000C05BB9262F3BB900C040FD252F6BB916
:1028300001975BB9362F2BB94D9147FD352F6BB9F9
:1028400001F6B8C0A532B10509F059C095B1F8013B
:102850008489982B988795B1809589238F838F8160
:102860008E83898587FF02C088858E8358856F8116
:1028700049853E812D8189819A81D70155B9262FBD
:1028800035B900C046FD252F65B900C055B9362FB2
:1028900025B900C045FD352F65B900C055B9262FB3
:1028A00035B900C044FD252F65B900C055B9362F94
:1028B00025B900C043FD352F65B900C055B9262F95
:1028C00035B900C042FD252F65B900C055B9362F76
:1028D00025B900C041FD352F65B900C055B9262F77
:1028E00035B900C040FD252F65B9019755B9362F80
:1028F00025B94D9147FD352F65B901F65BC0989715
:1029000009F08CC098B1F8018489982B988798B108
:10291000809589238F838F818E83898587FF02C06D
:1029200088858E8358856F8149853E812D81898177
:102930009A81D70158B9262F38B900C046FD252FF6
:1029400068B900C058B9362F28B900C045FD352FE9
:1029500068B900C058B9262F38B900C044FD252FEA
:1029600068B900C058B9362F28B900C043FD352FCB
:1029700068B900C058B9262F38B900C042FD252FCC
:1029800068B900C058B9362F28B900C041FD352FAD
:1029900068B900C058B9262F38B900C040FD252FAE
:1029A00068B9019758B9362F28B94D9147FD352F91
:1029B00068B901F649873E832D832EC09C91F801AA
:1029C0008489982B98879C91809589238F838F8108
:1029D0008C8388E08B8358856F8149853B812C816E
:1029E00089819A81F7015C9347FD252F2C93262F2F
:1029F0003A9531F0441F6C9300C000C000C0F3CF83
:102A00006C93000038E04191019769F7F801B38BAE
:102A1000A28B49873B832C839A83898378940E9475
:102A20009118D8011E966D937D938D939C93519729
:102A300029960FB6F894DEBF0FBECDBFDF91CF91C0
:102A40001F910F91FF90EF90DF90CF9008951F930B
:102A5000CF93DF93EC01162F8981882331F08E818B
:102A600087FD03C060E00E9456191E838981882378
:102A700041F061E0812F0E94561960E0812F0E9491
:102A80009219812F90E0FC01EC54F74FE491F0E0B3
:102A9000EE0FFF1FEB52F74F259134913B8B2A8BA2
:102AA000FC01E356F74FE491EC8BDF91CF911F913E
:102AB0000895EF92FF921F93CF93DF93EC017B0178
:102AC000142F19821F82198618861E861F86188A5F
:102AD000198AB9010E944713B701CE010E940D1354
:102AE000612FCE01DF91CF911F91FF90EF900C9459
:102AF00027150F931F93DC0112968D919C911397CC
:102B00006817790708F043C017968C9117978823A8
:102B100061F0489FA0011124452F829F900111244C
:102B2000232F809F80011124012F1D968C911D97CA
:102B30001A969C911A971896ED91FC911997891302
:102B400008C0CB01880F991F680F791F6E0F7F1F78
:102B50000AC0660F771F660F771F6E0F7F1FFB017E
:102B6000E80FF11D10821A968C911A97FB01E80F5D
:102B7000F11D40831B968C911B97FB01E80FF11D03
:102B800020831C968C91FB01E80FF11D00831F919F
:102B90000F9108957F928F929F92AF92BF92CF92A2
:102BA000DF92EF92FF920F931F93CF93DF93FC017D
:102BB000828193816817790708F053C04A01AA24DB
:102BC000BB24782CC32ED42EE52EFF24BC2DA22F9F
:102BD0008781882361F0889E40011124792C8C9D87
:102BE00060011124BD2D829F70011124AF2D9585A8
:102BF000D285E084F1849D1308C0CB01880F991F12
:102C0000680F791F6E0D7F1D1CC0660F771F660F42
:102C1000771F6E0D7F1D052F1127222733277B017C
:102C2000E90EF11C811102C0202F09C090E0809FA5
:102C30006001819FD00C909FD00C11242D2DE701B5
:102C4000288382859B01280F311DE90178828385C5
:102C5000EB01C80FD11DB8838485FB01E80FF11D7E
:102C6000A083DF91CF911F910F91FF90EF90DF90A4
:102C7000CF90BF90AF909F908F907F900895FC0170
:102C8000828193810895FC014481558160E070E068
:102C9000808591850C944F1EFC01918D228D892F8A
:102CA00090E0805C9F4F821B91098F739927089554
:102CB000FC01918D828D981731F0828DE80FF11D06
:102CC000858D90E008958FEF9FEF0895FC01918D21
:102CD000828D981761F0828DDF01A80FB11D5D967E
:102CE0008C91928D9F5F9F73928F90E008958FEFEC
:102CF0009FEF08958AEC97E1892B49F080E090E0FE
:102D0000892B29F00E94CA1781110C9400000895A4
:102D1000FC01848DDF01A80FB11DA35ABF4F2C9178
:102D2000848D90E001968F739927848FA689B78947
:102D30002C93A089B1898C9180648C93938D848D20
:102D4000981306C00288F389E02D80818F7D8083EF
:102D50000895EF92FF920F931F93CF93DF93EC01AF
:102D600081E0888F9B8D8C8D981305C0E889F98947
:102D7000808185FD24C0F62E0B8D10E00F5F1F4F64
:102D80000F731127E02E8C8DE8120CC00FB607FCD4
:102D9000FACFE889F989808185FFF5CFCE010E94BD
:102DA0008816F1CF8B8DFE01E80FF11DE35AFF4F1E
:102DB000F0820B8FEA89FB898081806207C0EE89EF
:102DC000FF896083E889F98980818064808381E05C
:102DD00090E0DF91CF911F910F91FF90EF900895B8
:102DE000CF93DF93EC01888D8823C9F0EA89FB89B2
:102DF000808185FD05C0A889B9898C9186FD0FC0A9
:102E00000FB607FCF5CF808185FFF2CFA889B9897D
:102E10008C9185FFEDCFCE010E948816E7CFDF9120
:102E2000CF910895CF92DF92EF92FF921F93CF93AD
:102E3000DF93EC016A017B01122F60E874E88EE1F8
:102E400090E0A70196010E94DA1CDA01C9010197FE
:102E5000A109B109B695A795979587959C01E88931
:102E6000F98982E08083211580E13807A8F0E8899C
:102E7000F989108260E472E48FE090E0A701960186
:102E80000E94DA1CDA01C9010197A109B109B695BE
:102E9000A795979587959C01EC85FD853083EE85F8
:102EA000FF852083188EEC89FD891083EA89FB89D0
:102EB000808180618083EA89FB898081886080834A
:102EC000EA89FB89808180688083EA89FB89808127
:102ED0008F7D8083DF91CF911F91FF90EF90DF90E6
:102EE000CF9008951F920F920FB60F9211242F9337
:102EF0008F939F93EF93FF93E0913A04F0913B04FB
:102F00008081E0914004F091410482FD12C09081E3
:102F1000809143048F5F8F7320914404821751F096
:102F2000E0914304F0E0E65DFB4F958F809343040E
:102F300001C08081FF91EF919F918F912F910F9010
:102F40000FBE0F901F9018951F920F920FB60F9201
:102F500011242F933F934F935F936F937F938F939E
:102F60009F93AF93BF93EF93FF938AE294E00E9405
:102F70008816FF91EF91BF91AF919F918F917F91B3
:102F80006F915F914F913F912F910F900FBE0F90D6
:102F90001F9018958AE294E00E944C1621E0892B3C
:102FA00009F420E0822F0895EAE2F4E0138212820D
:102FB00088EE93E0A0E0B0E084839583A683B78396
:102FC00085E792E09183808385EC90E09587848704
:102FD00084EC90E09787868780EC90E0918B808BE3
:102FE00081EC90E0938B828B82EC90E0958B848BCC
:102FF00086EC90E0978B868B118E128E138E148E3A
:103000000895CF92DF92EF92FF920F931F93CF9389
:10301000DF936C017A018B01C0E0D0E0CE15DF05B3
:1030200081F0D8016D918D01D601ED91FC91019057
:10303000F081E02DC6010995892B11F02196EECF84
:103040007E01C701DF91CF911F910F91FF90EF900B
:10305000DF90CF90089508950E94F2180E942B18D7
:103060000E94D80CCAE7D6E10E94270E2097E1F310
:103070000E947A16F9CF1F920F920FB60F92112469
:103080002F933F938F939F93AF93BF938091C804E7
:103090009091C904A091CA04B091CB043091C704A7
:1030A00026E0230F2D3720F40296A11DB11D05C087
:1030B00029E8230F0396A11DB11D2093C704809317
:1030C000C8049093C904A093CA04B093CB04809120
:1030D000CC049091CD04A091CE04B091CF04019680
:1030E000A11DB11D8093CC049093CD04A093CE0478
:1030F000B093CF04BF91AF919F918F913F912F914A
:103100000F900FBE0F901F9018952FB7F8946091F5
:10311000C8047091C9048091CA049091CB042FBF58
:1031200008953FB7F8948091CC049091CD04A0917C
:10313000CE04B091CF0426B5A89B05C02F3F19F04F
:103140000196A11DB11D3FBFBA2FA92F982F882727
:10315000820F911DA11DB11DBC01CD0143E0660F81
:10316000771F881F991F4A95D1F708958F929F92D4
:10317000AF92BF92CF92DF92EF92FF926B017C01F0
:103180000E9491184B015C01C114D104E104F104C7
:1031900001F10E94EA190E949118DC01CB01881903
:1031A0009909AA09BB09883E9340A105B10560F3BE
:1031B00021E0C21AD108E108F10888EE880E83E008
:1031C000981EA11CB11CC114D104E104F10419F72B
:1031D000DBCFFF90EF90DF90CF90BF90AF909F90AC
:1031E0008F900895789484B5826084BD84B58160A1
:1031F00084BD85B5826085BD85B5816085BDEEE6FF
:10320000F0E0808181608083E1E8F0E010828081DD
:1032100082608083808181608083E0E8F0E080814B
:1032200081608083E1EBF0E0808184608083E0EB6B
:10323000F0E0808181608083EAE7F0E08081846053
:10324000808380818260808380818E7F8083808183
:10325000806880831092C1000895843081F028F442
:10326000823099F08330A1F008958830A9F0893038
:10327000B9F08530D1F4809180008F7D03C08091BA
:1032800080008F7780938000089584B58F7702C087
:1032900084B58F7D84BD08958091B0008F7703C081
:1032A0008091B0008F7D8093B0000895CF93DF931D
:1032B00090E0FC01E356F74F2491FC01EC54F74FEA
:1032C0008491882361F190E0880F991FFC01E152FD
:1032D000F74FC591D491FC01EB52F74FA591B491F2
:1032E000611109C09FB7F894888120958223888353
:1032F000EC912E230BC0623061F49FB7F894888163
:10330000322F309583238883EC912E2B2C939FBFF3
:1033100006C08FB7F894E8812E2B28838FBFDF91EA
:10332000CF9108951F93CF93DF93282F30E0F901B9
:10333000EA57F74F8491F901E356F74FD491F90119
:10334000EC54F74FC491CC23C1F0162F81110E9489
:103350002D19EC2FF0E0EE0FFF1FEB52F74FA59168
:10336000B4919FB7F894111104C08C91D095D823D3
:1033700002C0EC91DE2BDC939FBFDF91CF911F91B8
:103380000895CF93DF93282F30E0F901EA57F74FE4
:103390008491F901E356F74FD491F901EC54F74FBA
:1033A000C491CC2391F081110E942D19EC2FF0E0F3
:1033B000EE0FFF1FE553F74FA591B491EC91ED236C
:1033C00081E090E021F480E002C080E090E0DF91B5
:1033D000CF91089508955058BB27AA270E94031A39
:1033E0000C94761B0E94681B38F00E946F1B20F023
:1033F00039F49F3F19F426F40C94651B0EF4E09504
:10340000E7FB0C945F1BE92F0E94871B58F3BA1748
:10341000620773078407950720F079F4A6F50C94EA
:10342000A91B0EF4E0950B2EBA2FA02D0B01B901AC
:1034300090010C01CA01A0011124FF27591B99F02A
:10344000593F50F4503E68F11A16F040A22F232F36
:10345000342F4427585FF3CF469537952795A79586
:10346000F0405395C9F77EF41F16BA0B620B730B2D
:10347000840BBAF09150A1F0FF0FBB1F661F771F9E
:10348000881FC2F70EC0BA0F621F731F841F48F453
:10349000879577956795B795F7959E3F08F0B0CFDC
:1034A0009395880F08F09927EE0F979587950895C3
:1034B0000E943B1B08F481E008950E94711A0C944D
:1034C000761B0E946F1B58F00E94681B40F029F485
:1034D0005F3F29F00C945F1B51110C94AA1B0C94B4
:1034E000651B0E94871B68F39923B1F3552391F361
:1034F000951B550BBB27AA2762177307840738F063
:103500009F5F5F4F220F331F441FAA1FA9F335D0BF
:103510000E2E3AF0E0E832D091505040E695001C73
:10352000CAF72BD0FE2F29D0660F771F881FBB1F2D
:10353000261737074807AB07B0E809F0BB0B802D0B
:10354000BF01FF2793585F4F3AF09E3F510578F037
:103550000C945F1B0C94AA1B5F3FE4F3983ED4F3DA
:10356000869577956795B795F7959F5FC9F7880F0B
:10357000911D9695879597F90895E1E0660F771F5D
:10358000881FBB1F621773078407BA0720F0621BEE
:10359000730B840BBA0BEE1F88F7E09508950E9419
:1035A0008F1B88F09F5798F0B92F9927B751B0F02B
:1035B000E1F0660F771F881F991F1AF0BA95C9F7B7
:1035C00014C0B13091F00E94A91BB1E008950C9491
:1035D000A91B672F782F8827B85F39F0B93FCCF344
:1035E000869577956795B395D9F73EF49095809534
:1035F000709561957F4F8F4F9F4F0895E89409C054
:1036000097FB3EF490958095709561957F4F8F4F15
:103610009F4F9923A9F0F92F96E9BB279395F6952B
:10362000879577956795B795F111F8CFFAF4BB0FA9
:1036300011F460FF1BC06F5F7F4F8F4F9F4F16C00D
:10364000882311F096E911C0772321F09EE8872F97
:10365000762F05C0662371F096E8862F70E060E053
:103660002AF09A95660F771F881FDAF7880F9695CC
:10367000879597F90895990F0008550FAA0BE0E870
:10368000FEEF16161706E807F907C0F01216130624
:10369000E407F50798F0621B730B840B950B39F464
:1036A0000A2661F0232B242B252B21F408950A26CA
:1036B00009F4A140A6958FEF811D811D089597F90A
:1036C0009F6780E870E060E008959FEF80EC0895C8
:1036D00000240A94161617061806090608950024F1
:1036E0000A9412161306140605060895092E03946B
:1036F000000C11F4882352F0BB0F40F4BF2B11F4DF
:1037000060FF04C06F5F7F4F8F4F9F4F089557FD3D
:103710009058440F551F59F05F3F71F04795880F3F
:1037200097FB991F61F09F3F79F0879508951216D6
:1037300013061406551FF2CF4695F1DF08C0161682
:1037400017061806991FF1CF869571056105089433
:103750000895E894BB2766277727CB0197F908954A
:103760000E943B1B08F48FEF08950E94C81B0C9425
:10377000761B0E94681B38F00E946F1B20F0952377
:1037800011F00C945F1B0C94651B11240C94AA1B64
:103790000E94871B70F3959FC1F3950F50E0551F52
:1037A000629FF001729FBB27F00DB11D639FAA2796
:1037B000F00DB11DAA1F649F6627B00DA11D661FE5
:1037C000829F2227B00DA11D621F739FB00DA11D06
:1037D000621F839FA00D611D221F749F3327A00DC0
:1037E000611D231F849F600D211D822F762F6A2F5C
:1037F00011249F5750409AF0F1F088234AF0EE0FC1
:10380000FF1FBB1F661F771F881F91505040A9F7ED
:103810009E3F510580F00C945F1B0C94AA1B5F3FE8
:10382000E4F3983ED4F3869577956795B795F79529
:10383000E7959F5FC1F7FE2B880F911D96958795A1
:1038400097F908959F930E942C1C0F9007FCEE5F40
:103850000C94551C0C94651B0E948F1BD8F3E894A4
:10386000E0E0BB279F57F0F02AED3FE049EC06C0AF
:10387000EE0FBB0F661F771F881F28F0B23A620752
:103880007307840728F0B25A620B730B840BE3951D
:103890009A9572F7803830F49A95BB0F661F771FA0
:1038A000881FD2F790480C946B1CEF93E0FF07C081
:1038B000A2EA2AED3FE049EC5FEB0E94031A0E9466
:1038C000761B0F90039401FC9058E8E6F0E00C940E
:1038D000771C9F3F31F0915020F48795779567953D
:1038E000B795880F911D9695879597F908959F93A1
:1038F0008F937F936F93FF93EF939B01AC010E9493
:10390000B51BEF91FF910E948B1C2F913F914F911E
:103910005F910C94B51BDF93CF931F930F93FF928E
:10392000EF92DF927B018C01689406C0DA2EEF01E2
:103930000E94C81BFE01E894A591259135914591FF
:103940005591A6F3EF010E94031AFE019701A80109
:10395000DA9469F7DF90EF90FF900F911F91CF916C
:10396000DF910895AA1BBB1B51E107C0AA1FBB1F13
:10397000A617B70710F0A61BB70B881F991F5A95FB
:10398000A9F780959095BC01CD01089597FB072E6E
:1039900016F4009407D077FD09D00E94B21C07FCF2
:1039A00005D03EF4909581959F4F0895709561954F
:1039B0007F4F0895A1E21A2EAA1BBB1BFD010DC06B
:1039C000AA1FBB1FEE1FFF1FA217B307E407F507CF
:1039D00020F0A21BB30BE40BF50B661F771F881FAB
:1039E000991F1A9469F760957095809590959B0141
:1039F000AC01BD01CF010895052E97FB1EF4009484
:103A00000E94131D57FD07D00E94DA1C07FC03D04B
:103A10004EF40C94131D50954095309521953F4FD1
:103A20004F4F5F4F089590958095709561957F4FAA
:103A30008F4F9F4F0895EE0FFF1F0590F491E02DDB
:103A400009940F931F93CF93DF938230910510F465
:103A500082E090E0E091D204F091D30420E030E0E5
:103A6000A0E0B0E0309719F14081518102811381CB
:103A700048175907C8F08417950769F4109731F073
:103A800012960C93129713961C9327C00093D2049E
:103A90001093D30422C02115310519F042175307A2
:103AA00018F49A01BD01EF01DF01F801DBCF211508
:103AB0003105F9F0281B390B2430310580F48A8157
:103AC0009B816115710521F0FB019383828304C002
:103AD0009093D3048093D204FE01329644C0FE0139
:103AE000E20FF31F81939193225031093983288388
:103AF0003AC02091D0043091D104232B41F420917D
:103B00000201309103013093D1042093D00420911D
:103B10000001309101012115310541F42DB73EB767
:103B20004091040150910501241B350BE091D00414
:103B3000F091D104E217F307A0F42E1B3F0B2817D6
:103B4000390778F0AC014E5F5F4F2417350748F016
:103B50004E0F5F1F5093D1044093D00481939193F3
:103B600002C0E0E0F0E0CF01DF91CF911F910F9113
:103B70000895CF93DF93009709F481C0FC01329739
:103B800013821282A091D204B091D304109781F4D1
:103B900020813181820F931F2091D0043091D10474
:103BA0002817390751F5F093D104E093D00467C08A
:103BB000ED0120E030E0CE17DF0740F44A815B8161
:103BC0009E0141155105F1F0EA01F5CFD383C2837F
:103BD00040815181840F951FC817D90759F48881F6
:103BE0009981840F951F0296918380838A819B819E
:103BF000938382832115310529F4F093D304E09354
:103C0000D2043DC0E901FB83EA8349915991C40F75
:103C1000D51FEC17FD0761F480819181840F951FFA
:103C20000296E90199838883828193819B838A83A9
:103C3000E0E0F0E012968D919C911397009719F0B7
:103C4000FD01DC01F7CF8D919C9111979D012E5FB5
:103C50003F4F820F931F2091D0043091D104281739
:103C6000390769F4309729F41092D3041092D204E2
:103C700002C013821282B093D104A093D004DF91CA
:103C8000CF910895FB01DC0104C08D910190801952
:103C900021F441505040C8F7881B990B0895DC016E
:103CA00001C06D9341505040E0F70895F999FECF5F
:103CB00092BD81BDF89A992780B50895262FF9996C
:103CC000FECF1FBA92BD81BD20BD0FB6F894FA9AFF
:103CD000F99A0FBE0196089514E0C0E8D4E004C03C
:103CE000FE010E941B1D2196C138D107C9F7F89427
:023CF000FFCF04
:103CF2000000D404800000007804EF08660DDB1198
:103D02005016C21A331FA1230C28742CD93039350E
:103D12009639EE3D42429046D94A1B4F58538E5730
:103D2200BE5BE65F07641F68306C397038742F78A9
:103D32001C7C0080D983A8876D8B278FD5927996BA
:103D4200109A9B9D1BA18DA4F3A74BAB97AED4B148
:103D520004B526B839BB3EBE34C11BC4F2C6BAC9CB
:103D620073CC1BCFB3D13BD4B2D619D96EDBB3DD42
:103D7200E6DF08E218E416E603E8DDE9A5EB5BED11
:103D8200FEEE8FF00DF277F3CFF414F646F764F8F7
:103D92006FF967FA4BFB1BFCD8FC81FD17FE98FEFE
:103DA20006FF5FFFA5FFD7FFF5FFFFFF5200D2001E
:103DB20001001000B80B1027000000000000FF00F7
:103DC2000088FF0000FF000000000000B104BF04F3
:103DD2009C05C005AB04AC0400000000E005FB0537
:103DE2007206D9058706DE0500000000D8069E0689
:103DF200A506CE069F06A0060000000006070807DB
:103E020002082108E207010700000000B409C50901
:103E1200F709010AC209C309000000003A0AB70AF9
:103E2200170A2F0A110A120A00000000FA0AFC0AF5
:103E3200FF0A200B3C0BFD0A000000008C0C690BF2
:103E42004E0C7C0C630B640B00000000FE0E040F92
:103E5200000F6A0F010F020F453100453200453352
:103E62000000000000A91601184C1666165816F03C
:023E7200160038
:00000001FF
