:100000000C9481040C94A9040C94A9040C94A904E4
:100010000C94A9040C9487170C94A9040C94A904BB
:100020000C94A9040C94A9040C94A9040C94A9049C
:100030000C94A9040C94A9040C94A9040C94A9048C
:100040000C94C1190C94A9040C94F8180C942A1956
:100050000C94A9040C94A9040C94A9040C94A9046C
:100060000C94A9040C94A90405A84CCDB2D44EB9A3
:100070003836A9020C50B9918688083CA6AAAA2A4B
:10008000BE000000803F0000102120423063408409
:1000900050A560C670E781089129A14AB16BC18C57
:1000A000D1ADE1CEF1EF123102103273225252B5CE
:1000B000429472F762D693398318B37BA35AD3BDA7
:1000C000C39CF3FFE3DE246234430420140164E69E
:1000D00074C744A45485A56AB54B85289509E5EEF7
:1000E000F5CFC5ACD58D365326721611063076D7AE
:1000F00066F6569546B4B75BA77A97198738F7DF47
:10010000E7FED79DC7BC48C458E5688678A7084075
:10011000186128023823C9CCD9EDE98EF9AF894896
:100120009969A90AB92B5AF54AD47AB76A961A710D
:100130000A503A332A12DBFDCBDCFBBFEB9E9B79E6
:100140008B58BB3BAB1A6CA67C874CE45CC52C225D
:100150003C030C601C41EDAEFD8FCDECDDCDAD2A36
:10016000BD0B8D689D497E976EB65ED54EF43E13ED
:100170002E321E510E70FF9FEFBEDFDDCFFCBF1B86
:10018000AF3A9F598F78918881A9B1CAA1EBD10C60
:10019000C12DF14EE16F108000A130C220E3500468
:1001A00040257046606783B99398A3FBB3DAC33DDB
:1001B000D31CE37FF35E02B1129022F332D24235B8
:1001C000521462777256B5EAA5CB95A88589F56E6B
:1001D000E54FD52CC50D34E224C314A00481746608
:1001E000644754244405A7DBB7FA879997B8E75FBB
:1001F000F77EC71DD73C26D336F2069116B0665758
:10020000767646155634D94CC96DF90EE92F99C842
:1002100089E9B98AA9AB584448657806682718C0A7
:1002200008E1388228A3CB7DDB5CEB3FFB1E8BF91A
:100230009BD8ABBBBB9A4A755A546A377A160AF1F7
:100240001AD02AB33A92FD2EED0FDD6CCD4DBDAA2A
:10025000AD8B9DE88DC97C266C075C644C453CA247
:100260002C831CE00CC1EF1FFF3ECF5DDF7CAF9BFA
:10027000BFBA8FD99FF86E177E364E555E742E9397
:100280003EB20ED11EF00000333166625553CCC42D
:10029000FFF5AAA6999789A9BA98EFCBDCFA456D24
:1002A000765C230F103E0373304265115620CFB7A2
:1002B000FC86A9D59AE48ADAB9EBECB8DF89461E48
:1002C000752F207C134D06E635D7608453B5CA22BE
:1002D000F913AC409F718F4FBC7EE92DDA1C438B24
:1002E00070BA25E916D8059536A463F750C6C951EA
:1002F000FA60AF339C028C3CBF0DEA5ED96F40F8C8
:1003000073C9269A15AB0DCC3EFD6BAE589FC10844
:10031000F239A76A945B8465B754E207D13648A1E5
:100320007B902EC31DF20EBF3D8E68DD5BECC27B61
:10033000F14AA41997288716B427E174D2454BD205
:1003400078E32DB01E810B2A381B6D485E79C7EE0D
:10035000F4DFA18C92BD8283B1B2E4E1D7D04E47E5
:100360007D7628251B1408593B686E3B5D0AC49DA9
:10037000F7ACA2FF91CE81F0B2C1E792D4A34D3485
:100380007E052B5618671B9828A97DFA4ECBD75CA3
:10039000E46DB13E820F9231A100F453C7625EF565
:1003A0006DC438970BA618EB2BDA7E894DB8D42F85
:1003B000E71EB24D817C9142A273F720C4115D8685
:1003C0006EB73BE408D51D7E2E4F7B1C482DD1BA5D
:1003D000E28BB7D884E994D7A7E6F2B5C184581365
:1003E0006B223E710D401E0D2D3C786F4B5ED2C9C5
:1003F000E1F8B4AB879A97A4A495F1C6C2F75B6005
:1004000068513D020E331654256570364307DA9065
:10041000E9A1BCF28FC39FFDACCCF99FCAAE5339A2
:100420006008355B066A1527261673454074D9E3C4
:10043000EAD2BF818CB09C8EAFBFFAECC9DD504AC6
:10044000637B3628051910B2238376D045E1DC762C
:10045000EF47BA148925991BAA2AFF79CC4855DFA2
:1004600066EE33BD008C13C120F075A34692DF0504
:10047000EC34B9678A569A68A959FC0ACF3B56AC46
:10048000659D30CE03FF000037306E605950DCC0F0
:10049000EBF0B2A08590A9A19E91C7C1F0F1756162
:1004A00042511B012C31436374532D031A339FA314
:1004B000A893F1C3C6F3EAC2DDF284A2B392360276
:1004C000013258626F5286C6B1F6E8A6DF965A0628
:1004D0006D36346603562F67185741077637F3A7F2
:1004E000C4979DC7AAF7C5A5F295ABC59CF519653C
:1004F0002E55770540356C045B3402643554B0C426
:1005000087F4DEA4E9941DAD2A9D73CD44FDC16D31
:10051000F65DAF0D983DB40C833CDA6CED5C68CCB5
:100520005FFC06AC319C5ECE69FE30AE079E820E4B
:10053000B53EEC6EDB5EF76FC05F990FAE3F2BAF41
:100540001C9F45CF72FF9B6BAC5BF50BC23B47AB6F
:10055000709B29CB1EFB32CA05FA5CAA6B9AEE0A85
:10056000D93A806AB75AD808EF38B668815804C8B3
:1005700033F86AA85D9871A946991FC928F9AD6931
:100580009A59C309F4393B5A0C6A553A620AE79AF8
:10059000D0AA89FABECA92FBA5CBFC9BCBAB4E3B43
:1005A000790B205B176B78394F0916592169A4F92B
:1005B00093C9CA99FDA9D198E6A8BFF888C80D5873
:1005C0003A6863385408BD9C8AACD3FCE4CC615CC7
:1005D000566C0F3C380C143D230D7A5D4D6DC8FDF3
:1005E000FFCDA69D91ADFEFFC9CF909FA7AF223F43
:1005F000150F4C5F7B6F575E606E393E0E0E8B9E03
:10060000BCAEE5FED2CE26F711C748977FA7FA37D2
:10061000CD079457A3678F56B866E136D606539632
:1006200064A63DF60AC6659452A40BF43CC4B954C2
:100630008E64D734E004CC35FB05A255956510F5E2
:1006400027C57E9549A5A0319701CE51F9617CF16E
:100650004BC1129125A109903EA067F050C0D55022
:10066000E260BB308C00E352D4628D32BA023F921A
:1006700008A251F266C24AF37DC3249313A39633B2
:10068000A103F853CF63000076B4ED689BDCCAF198
:10069000BC452799512D85C3F37768AB1E1F4F3298
:1006A0003986A25AD4EE1BA76D13F6CF807BD156A4
:1006B000A7E23C3E4A8A9E64E8D0730C05B8549584
:1006C0002221B9FDCF49374E41FADA26AC92FDBF5F
:1006D0008B0B10D76663B28DC4395FE52951787CE6
:1006E0000EC89514E3A02CE95A5DC181B735E61810
:1006F00090AC0B707DC4A92ADF9E444232F663DBC6
:10070000156F8EB3F8076E9C182883F4F540A46D1E
:10071000D2D949053FB1EB5F9DEB0637708321AE1F
:10072000571ACCC6BA72753B038F9853EEE7BFCA0F
:10073000C97E52A22416F0F8864C1D906B243A090B
:100740004CBDD761A1D559D22F66B4BAC20E93233E
:10075000E5977E4B08FFDC11AAA5317947CD16E05D
:100760006054FB888D3C427534C1AF1DD9A9888483
:10077000FE3065EC1358C7B6B1022ADE5C6A0D473D
:100780007BF3E02F969BDD38AB8C305046E417C9E5
:10079000617DFAA18C1558FB2E4FB593C327920AA1
:1007A000E4BE7F6209D6C69FB02B2BF75D430C6E6B
:1007B0007ADAE10697B2435C35E8AE34D88089AD89
:1007C000FF1964C51271EA769CC2071E71AA2087C0
:1007D0005633CDEFBB5B6FB5190182DDF469A544DB
:1007E000D3F0482C3E98F1D187651CB96A0D3B20A7
:1007F0004D94D648A0FC741202A6997AEFCEBEE3BF
:10080000C857538B253FB3A4C5105ECC28787955C3
:100810000FE1943DE289366740D3DB0FADBBFC9618
:100820008A2211FE674AA803DEB7456B33DF62F206
:1008300014468F9AF92E2DC05B74C0A8B61CE73100
:1008400091850A597CED84EAF25E69821F364E1B5F
:1008500038AFA373D5C70129779DEC419AF5CBD862
:10086000BD6C26B050049F4DE9F97225049155BC2A
:100870002308B8D4CE601A8E6C3AF7E68152D07F46
:10088000A6CB3D174BA300000009000302000004A3
:100890000508000000000000000000000001020444
:1008A00008102040800102040810200102040810F2
:1008B00020408040040404040404040402020202F0
:1008C00002020303030303030202030000000023E8
:1008D000002600290000000000250028002B000051
:1008E000000000240027002A0000D205B7067E077A
:1008F000E708B60A9F0B0A0C5A0D761093135A1983
:10090000B31311241FBECFEFD8E0DEBFCDBF12E07E
:10091000A0E0B1E0EEEFFFE302C005900D92A23936
:10092000B107D9F724E0A2E9B2E001C01D92A93FC6
:10093000B207E1F714E0C0E8D4E004C02197FE015B
:100940000E94A11EC537D107C9F70E94B2190C94A5
:10095000F21F0C94000008959091160381E08927FE
:1009600008954130510521F4FB012081213611F019
:100970000C94C71261E40E94B71281E008954F926F
:100980005F926F927F928F929F92AF92BF92CF921F
:10099000DF92EF92FF920F931F93CF93DF93EC01BF
:1009A0008B85EF80F88409851A85882341F120E042
:1009B00030E0A901B701C8010E94361D1816E4F401
:1009C0002DEC3CEC4CEC5CE3B701C8010E94DE1B53
:1009D00087FF05C07E2D6F2D902F812F04C07DECE9
:1009E0006CEC9CEC8CE3272F362F492F582FB70146
:1009F000C8010E94711B30C081E08C8731C020E0AB
:100A000030E040E85FE3B701C8010E94DE1B87FFCA
:100A100027C09701A80160E070E080E89FE30E9492
:100A2000711B5B016C012AE037ED43E25CE30E943D
:100A3000DE1B87FF05C0BA2DAB2DFC2DED2D04C0AC
:100A4000BAE0A7EDF3E2ECE39701A8016B2F7A2F50
:100A50008F2F9E2F0E94721B6F83788789879A87BA
:100A6000CE010E944D110E94841C20E030E046E936
:100A700053E40E94E31B4B015C0185E294E00E9479
:100A80000F17BC0180E090E00E94841C9B01AC0128
:100A90006BED7FE089EC90E40E94E31B2B013C01AD
:100AA000E12CF12C85E294E00E940F17E816F9067C
:100AB00078F5B7010F2C000C880B990B0E94861C4F
:100AC000A30192010E943B1DA50194010E94721B8B
:100AD0000E94A81D9B01AC010E943B1D20E030E05C
:100AE0004FE753E40E943B1D2F81388549855A8585
:100AF0000E943B1D0E94551C262F00E040E0B701DC
:100B000085E294E00E9449168FEFE81AF80ACACFEE
:100B100085E294E0DF91CF911F910F91FF90EF90CC
:100B2000DF90CF90BF90AF909F908F907F906F900D
:100B30005F904F900C944E14CF93DF93EC018B8514
:100B4000882351F08C85882379F061E6CE010E94DC
:100B5000B71282EE92E011C082E00E94471B892BFF
:100B600029F08B858111EECFCE0107C081E08B8704
:100B700063E6CE010E94B712F4CFDF91CF910895C2
:100B8000CF93DF93EC010E9496101F82188619867E
:100B90001A861E821B861C8661E4CE01DF91CF91EE
:100BA0000C94B7128DEE91E0909393028093920291
:100BB0000895FC0116821782108611861486158608
:100BC000089580E00895EF92FF920F931F93CF93C3
:100BD000DF93EC018B017A010E94C712EA94EF289F
:100BE00031F4F80190819E3211F481E08C87DF911D
:100BF000CF911F910F91FF90EF9008954F925F92C8
:100C00006F927F928F929F92AF92BF92CF92DF921C
:100C1000EF92FF920F931F93CF93DF93EC012C85FC
:100C20008A859B85222391F0181619064CF49C01A5
:100C30008530910514F024E030E0821B930B14C042
:100C400081E08D87412C512C320111C08F3F9105DD
:100C5000CCF72FEF30E0281B390B2530310514F08D
:100C600024E030E0820F931F9B878A87EBCF85E2D9
:100C700094E00E940F1748165906B8F58E819F819F
:100C8000A885B98553014201881A990AAA0ABB0AA4
:100C900085E294E00E940F178C01EA84FB8485E2D0
:100CA00094E00E940F176C01980140E050E0C501EC
:100CB000B4010E94601E262FC701B6010E94381E93
:100CC000269F202D1124022F10E0159507951595CC
:100CD000079540E0B20185E294E00E9449168FEF4B
:100CE000481A580A680A780AC2CF85E294E00E943E
:100CF0004E148E819F81A885B9850196A11DB11DD5
:100D00008E839F83A887B987DF91CF911F910F9121
:100D1000FF90EF90DF90CF90BF90AF909F908F901B
:100D20007F906F905F904F900895CF93DF93EC0189
:100D30000E948310009749F48C85882339F08D85B3
:100D4000882321F0C2EED2E001C0EC01CE01DF9198
:100D5000CF910895109216030E940B1A6093170307
:100D6000709318038093190390931A030895EFE981
:100D7000F2E08DEF91E091838083168217821086D6
:100D8000118613861286089508959091160381E0C6
:100D9000892708952B9A81E08093B5020E94171A43
:100DA0006093B6027093B7028093B8029093B90231
:100DB0000895CF92DF92EF92FF920F931F93CF93FC
:100DC000DF938C018091B502882319F10E94171AD4
:100DD000C090B602D090B702E090B802F090B9028D
:100DE000DC01CB018C199D09AE09BF09C0903F04FD
:100DF000D0904004E0904104F09042048C159D0591
:100E0000AE05BF0518F360E08BE00E94181B10923E
:100E1000B502E801C8010E944D1169397A43810584
:100E2000910518F48F81882319F0C2EED2E005C035
:100E30008E81882311F0C2EFD2E0CE01DF91CF91F5
:100E40001F910F91FF90EF90DF90CF900895CF9377
:100E5000DF93EC010E9496101F821E821092B50251
:100E60000E945E178AEC96E09093CE018093CD01AC
:100E7000E9E4F4E082818068828342E060E882E015
:100E8000DF91CF910C941D178CE197E19093CE01E7
:100E90008093CD01E6E4F4E082818F778283E9E4F8
:100EA000F4E082818F77828360E882E00E944317BA
:100EB00060E08BE00C94181BEF92FF920F931F934E
:100EC000CF93DF93EC018B017A010E94C71281114D
:100ED0000EC0EA94EF2859F4F80190819B3629F06E
:100EE000903729F481E08E8302C081E08F83DF9107
:100EF000CF911F910F91FF90EF9008958DE092E0B8
:100F00009093AE028093AD0208959091160381E014
:100F1000892708950C94C7123F924F925F926F9267
:100F20007F928F929F92AF92BF92CF92DF92EF9279
:100F3000FF920F931F93CF93DF9300D000D000D088
:100F4000CDB7DEB78C01DC0116968C91F801B4E0C8
:100F50008B9FE00DF11D112487859089A189B289AD
:100F600089839A83AB83BC83C8010E944D11D80149
:100F70001796CD90DD90ED90FC901A970E94841CFE
:100F80004B015C01F801668170E080E090E00E9416
:100F9000861CA70196010E943B1D9B01AC01C50167
:100FA000B4010E94711BA70196010E94E31B6B0113
:100FB0007C0185E294E00E940F179E838D8385E279
:100FC00094E00E940F173C012D813E81B90180E021
:100FD00090E00E94841C4B015C01B30180E090E032
:100FE0000E94841CA70196010E943B1D9B01AC013D
:100FF000C501B4010E94711B2B013C01312C85E21B
:1010000094E00E940F17A32D032C000CBB0BBE8392
:10101000AD83A817B90708F045C0632D032C000C59
:10102000770B880B990B0E94861C9B01AC01C301B6
:10103000B2010E94DE1B90913C0487FF14C0ED8139
:10104000FE81E90FF11DFE83ED8385E294E00E94AD
:101050000F17BC018D819E810E94381E29813A8123
:101060004B815C8118C0D8011B968D909D90AD90EE
:10107000BC901E97ED81FE81E90FF11DFE83ED838B
:1010800085E294E00E940F17BC018D819E810E9431
:10109000381EA5019401BC0185E294E00E949A16D5
:1010A0003394ADCF85E294E00E944E1420E030E00E
:1010B00040E85FE3C701B6010E94361D87FD11C0FD
:1010C00089819A81AB81BC81F80183879487A58748
:1010D000B68786818F5F833010F4868302C082E0FA
:1010E000868326960FB6F894DEBF0FBECDBFDF9184
:1010F000CF911F910F91FF90EF90DF90CF90BF9015
:10110000AF909F908F907F906F905F904F903F90A7
:1011100008950F931F93CF93C0E00C2F0C2E000C5B
:10112000110B85E294E00E940F170817190750F47D
:1011300020E030E0A901B80185E294E00E949A160F
:10114000CF5FEBCF85E294E0CF911F910F910C948C
:101150004E140F931F93CF93DF93EC010E944D1118
:1011600020913D0430913E04890120E030E00617D3
:1011700017072807390730F464E7CE010E94B71239
:10118000CDEAD2E0CE01DF91CF911F910F9108956A
:10119000CF93DF93EC010E94961060913D04709113
:1011A0003E0480E090E00E94841C20E030E040E4B7
:1011B00050E40E94E31B6F83788789879A871E8299
:1011C0001B861C861D861E86DF91CF9108958DE1BA
:1011D00092E09093BB028093BA028CE0EDEDF1E0D7
:1011E000A9ECB2E001900D928A95E1F708954F9233
:1011F0005F926F927F928F929F92AF92BF92CF92A7
:10120000DF92EF92FF920F931F93CF93DF93FC0136
:1012100020813181DB01FD01BD0163707727672BE0
:1012200019F48A01ED0115C04115510509F416C1E3
:10123000C32FDD271196E081F0E0E227EE0FFF1FBC
:10124000EA57FF4F259134912C273D2741505109F2
:10125000E2CF0031110508F4DDC00051110988808A
:101260009980AA80BB8028253925F901FF27EE0F38
:10127000FF1FEA57F94FC590D490232F3327F90168
:10128000EE0FFF1FEA57FB4F659174914A2C512CCA
:10129000612C712CFFEF5F1A6F0A7F0AF201EE0FCB
:1012A000FF1FEA57FF4F259134918B2C9924AA24D4
:1012B000BB24F401EE0FFF1FEA57FF4FE590F490B7
:1012C0008C809D80AE80BF806C257D25682579252A
:1012D00026273727E226F326F701FF27EE0FFF1F09
:1012E000EA57F94F65907490EF2DFF27EE0FFF1F1F
:1012F000EA57FB4F65917491CA2CD12CE12CF12C4B
:101300002FEFD21AE20AF20AF601EE0FFF1FEA5798
:10131000FF4F259134918B2C9924AA24BB24F401EE
:10132000EE0FFF1FEA57FF4FE590F49088849984F1
:10133000AA84BB8466257725682579252627372743
:10134000E226F326F701FF27EE0FFF1FEA57F94FBA
:10135000C590D490EF2DFF27EE0FFF1FEA57FB4FEC
:10136000659174914A2C512C612C712CEFEF5E1A0F
:101370006E0A7E0AF201EE0FFF1FEA57FF4F25911A
:1013800034918B2C9924AA24BB24F401EE0FFF1F67
:10139000EA57FF4FE590F4908C849D84AE84BF841F
:1013A0006C257D256825792526273727E226F32613
:1013B000F701FF27EE0FFF1FEA57F94F6590749072
:1013C000EF2DFF27EE0FFF1FEA57FB4F659174913A
:1013D000CA2CD12CE12CF12CFFEFDF1AEF0AFF0A07
:1013E000F601EE0FFF1FEA57FF4F259134918B2C2A
:1013F0009924AA24BB24F401EE0FFF1FEA57FF4FE4
:10140000E590F49066257725262737272E253F255A
:1014100060961FCFBA01E4E076956795EA95E1F70B
:10142000FB01C4E0EE0FFF1FCA95E1F7AE0FBF1F2F
:101430004E1B5F0BED01C40FD51FCA17DB0771F000
:10144000032F1127ED91F0E0E227EE0FFF1FEA577F
:10145000FF4F2591349120273127EFCFFC013183B5
:101460002083A90160E070E0B62FA52F942F882774
:10147000AA27BB27452F562F672F7727842B952B1D
:10148000A62BB72BDF91CF911F910F91FF90EF907B
:10149000DF90CF90BF90AF909F908F907F906F9094
:1014A0005F904F9008952FEF3FEFFC013183208331
:1014B0000C94F7080895089580E00895FC012385B1
:1014C000222329F061E60E94B71282EE92E008958D
:1014D000EF92FF920F93CF93DF930E944D1126E975
:1014E00030E040E050E00E94601E790181E0E82297
:1014F000FF24C0E0D0E085E294E00E940F17C817F7
:10150000D90778F400E020E0E114F10411F04FEF86
:1015100001C040E0BE0185E294E00E944916219698
:10152000EACF85E294E0DF91CF910F91FF90EF90A9
:101530000C944E14CF93DF93EC010E9496101B86FF
:10154000DF91CF9108954130510571F4FB01208165
:101550002E3229F421E0FC01238781E0089526360C
:1015600019F466E40E94B71280E008958DE292E0DB
:101570009093D6028093D502089508959091160312
:1015800081E089270895CF93DF93EC010E948310B7
:10159000009749F482E00E94471B892B31F088852F
:1015A000811103C004C0EC0102C0CAEBD2E0CE013D
:1015B000DF91CF910895CF93DF93EC010E949610B5
:1015C00018861F821E82DF91CF910895EF92FF92BD
:1015D0000F931F93CF93DF93EC018B017A010E944D
:1015E000C712882311F081E00AC0EA94EF2831F491
:1015F000F8018081843711F481E0888780E0DF91F1
:10160000CF911F910F91FF90EF900895CF92DF92AD
:10161000EF92FF920F931F93CF9397FF09C090957E
:101620008095709561957F4F8F4F9F4FC0E001C0AF
:10163000C1E0683621E072078105910534F028E6A3
:1016400031E040E050E00E94821E653B710581055B
:10165000910534F0645B71098109910921E0C22789
:101660006B3571058105910564F004EB10E020E015
:1016700030E068017901C61AD70AE80AF90AC701F9
:10168000B601660F771FFB01EA5FFE4F6081718133
:1016900080E090E0CC2339F00E94841C20E830E008
:1016A00040E857E306C00E94841C20E830E040E890
:1016B00057EB0E943B1DCF911F910F91FF90EF9030
:1016C000DF90CF900895FF920F931F93CF93DF93F6
:1016D0000E944D1124E096958795779567952A95F8
:1016E000D1F70E94060B9B01AC010E943B1D20E03C
:1016F00030E04FE753E40E943B1D0E94551C162F1B
:10170000F62EF694F694C0E0D0E085E294E00E94D4
:101710000F17C817D90750F40F2D212F40E0BE0135
:1017200085E294E00E9449162196EFCF85E294E08D
:10173000DF91CF911F910F91FF900C944E148DE388
:1017400092E09093E3028093E202089580E008958E
:10175000089580E008950F931F93CF93DF93EC01DA
:101760008C010E944D1121E0693B7B408105910570
:1017700008F420E08E81822B8E83882339F083E069
:101780000E94471B892B11F40FE912E0C801DF9179
:10179000CF911F910F910895CF93DF93EC010E9499
:1017A0009610CE010E9407111E8263E0CE010E94B6
:1017B000A21069E085E294E00E94F71560E084E001
:1017C0000E94181B60E088E0DF91CF910C94181BF9
:1017D000CF93DF93EC010E9407111092160361E092
:1017E00088E00E94181B64E085E294E00E94F715EF
:1017F00085E294E00E94CB1385E294E00E941317E7
:1018000085E294E00E944E1462E0CE01DF91CF9118
:101810000C94A2108DE492E09093EC028093EB0282
:10182000089508959091160381E0892708954F92B5
:101830005F926F927F928F929F92AF92BF92CF9260
:10184000DF92EF92FF920F931F93CF93DF93EC0100
:101850008B85EF80F88409851A85811103C08D85F9
:10186000882341F120E030E0A901B701C8010E94BE
:10187000361D1816E4F42DEC3CEC4CEC5CE3B7019F
:10188000C8010E94DE1B87FF05C07E2D6F2D902FA3
:10189000812F04C07DEC6CEC9CEC8CE3272F362F61
:1018A000492F582FB701C8010E94711B30C081E039
:1018B0008C8731C020E030E040E85FE3B701C80129
:1018C0000E94DE1B87FF27C09701A80160E070E03F
:1018D00080E89FE30E94711B5B016C012AE037EDF9
:1018E00043E25CE30E94DE1B87FF05C0BA2DAB2DEF
:1018F000FC2DED2D04C0BAE0A7EDF3E2ECE3970177
:10190000A8016B2F7A2F8F2F9E2F0E94721B6F833F
:10191000788789879A87CE010E944D110E94841C86
:1019200020E030E046E953E40E94E31B4B015C01F8
:1019300085E294E00E940F17BC0180E090E00E94D5
:10194000841C9B01AC016BED7FE089EC90E40E946C
:10195000E31B2B013C01E12CF12C85E294E00E9479
:101960000F17E816F906A0F5B7010F2C000C880B2D
:10197000990B0E94861CA30192010E943B1DA501A8
:1019800094010E94721B0E94A81D9B01AC010E9441
:101990003B1D20E030E04FE753E40E943B1D2F81C8
:1019A000388549855A850E943B1D0E94551C262F6B
:1019B000062F10E0159507951595079540E0B7019E
:1019C00085E294E00E9449168FEFE81AF80AC5CF25
:1019D00085E294E0DF91CF911F910F91FF90EF90FE
:1019E000DF90CF90BF90AF909F908F907F906F903F
:1019F0005F904F900C944E14CF93DF93EC010E94B4
:101A000083100097B9F48D85811105C082E00E9492
:101A1000471B892BA1F0CE010E944D116133754700
:101A20008105910548F48B85882381F08C85882376
:101A300069F002C0EC010AC0C2EED2E007C081E04A
:101A40008D8763E6CE010E94B712E5CFCE01DF910C
:101A5000CF910895CF93DF93EC010E9496101D86DD
:101A60001F82188619861A861E821B861C86DF91A5
:101A7000CF910895EF92FF920F931F93CF93DF932F
:101A8000EC018B017A010E94C712882311F081E0DA
:101A90000AC0EA94EF2831F4F80180818B3611F402
:101AA00081E08B8780E0DF91CF911F910F91FF90B4
:101AB000EF9008958DE592E09093F3028093F20207
:101AC0000895CF93DF93EC01809104039091050377
:101AD0008C179D07C1F0009739F0DC01ED91FC9166
:101AE0000084F185E02D0995D0930503C09304038C
:101AF000209749F0E881F9810680F781E02DCE0139
:101B0000DF91CF910994DF91CF91089514BE0FB664
:101B1000F894A8958091600088618093600010928D
:101B200060000FBE61E084E10E94DC1A60E084E1A5
:101B30000E94181B60E082E00E94DC1A61E082E0F3
:101B40000E94181B60E083E00E94DC1A61E083E0E1
:101B50000E94181B60E087E00E94DC1A61E087E0C9
:101B60000E94181B61E08BE00E94DC1A60E08BE0B1
:101B70000E94181B61E088E00E94DC1A26E040E029
:101B800056E960E070E08FE494E00E9498188FE4DA
:101B900094E090931E0480931D048FE69FE0909341
:101BA000200480931F04109222041092210483E0E9
:101BB0000E94471B892B49F48BEE92E0909305031A
:101BC000809304038FE992E002C08BEE92E00C94C4
:101BD000610D2F923F924F925F926F927F928F9200
:101BE0009F92AF92BF92CF92DF92EF92FF920F93AC
:101BF0001F93CF93DF9300D000D000D0CDB7DEB7D6
:101C00008C018DB79EB79A83898348019EEF891A0C
:101C1000990AD4018D919C91892B09F4BCC0F801DB
:101C2000F3957F01C8018C5F9E4F9C838B832801B5
:101C30009AEF491A9EEF590A80E2D82ED4018D916D
:101C40009C91DC01ED91FC910480F581E02D0995DA
:101C5000181619060CF09FC0F40180819181DC01F7
:101C6000ED91FC910680F781E02D0995803209F015
:101C70007FC0AB81BC81ED91FC91309731F4D201F2
:101C80008D919C91892B09F46FC06DB67EB6D701FA
:101C90006D917C918DB79EB7861B970B0FB6F8940C
:101CA0009EBF0FBE8DBF01966130710549F4D8010A
:101CB0002C91203341F4DC012C9341E050E042C0F0
:101CC00061157105E9F140E050E020E030E02617B1
:101CD0003707C0F5D801A20FB31FCC90D901AC0DC6
:101CE000B11D6A177B0718F4B1E0CB1229C02F5F32
:101CF0003F4F5801A20EB31EDC01A40FB51FBE83D7
:101D0000AD83332433943C1470F44F5F5F4F2F5FE7
:101D10003F4FD5012D905D01AD81BE812D92BE83D7
:101D2000AD833394F0CFBFEFCB1689F26217730700
:101D300071F2DC01A40FB51FDC924F5F5F4FC7CF7C
:101D400040E050E0309719F0BA01099508C0D2017F
:101D5000ED91FC91309719F0BC01C80109950FB6BF
:101D6000F8947EBE0FBE6DBEF7011182108266CF61
:101D7000D7012D913C911197A9014F5F5F4F4F3FC4
:101D8000510511F008F05ACF4D935C93F801E20F22
:101D9000F31F808353CFE981FA810FB6F894FEBF19
:101DA0000FBEEDBF26960FB6F894DEBF0FBECDBFB7
:101DB000DF91CF911F910F91FF90EF90DF90CF9027
:101DC000BF90AF909F908F907F906F905F904F905B
:101DD0003F902F900895CF92DF92EF92FF92CF9392
:101DE000DF938091040390910503009709F457C095
:101DF000DC01ED91FC910284F385E02D09958111C0
:101E00004EC080910403909105030097F1F1DC012D
:101E1000ED91FC910480F581E02D0995EC010E9483
:101E20000B1AC0900003D0900103E0900203F090E1
:101E300003039B01AC012C193D094E095F0969019F
:101E40007A0132E2C316D104E104F104D8F08BE147
:101E500093E00E94E90D0E940B1A609300037093B7
:101E600001038093020390930303809104039091F4
:101E70000503DC01ED91FC910280F381E02DB701B7
:101E8000A6010995CE010E94610D8BE193E0DF91DF
:101E9000CF91FF90EF90DF90CF900C94E90D0E94CE
:101EA0000B1AC0901703D0901803E0901903F0901C
:101EB0001A03DC01CB018C199D09AE09BF098939D0
:101EC0009A43A105B10508F49CCF8BEE92E0DF9117
:101ED000CF91FF90EF90DF90CF900C94610D0F9316
:101EE0001F93CF93DF93EC018B016130710569F58E
:101EF0008881803379F08936D9F08E3231F50E94AD
:101F00000B1A60931703709318038093190390932F
:101F10001A031BC0F8941092B0001092800014BCF9
:101F200014BEE0E0FFE3DF91CF911F910F91099480
:101F300062E68FE494E00E942F188FE494E0DF9132
:101F4000CF911F910F910C9476188091040390917A
:101F50000503009769F0DC01ED91FC910190F0819F
:101F6000E02DA801BE01DF91CF911F910F9109943F
:101F7000DF91CF911F910F91089580E0089508950A
:101F8000089581E008954F925F926F927F928F92B1
:101F90009F92AF92BF92CF92DF92EF92FF920F93F8
:101FA0001F93CF93DF93EC012C858A859B85222399
:101FB00091F0181619064CF49C018530910514F027
:101FC00024E030E0821B930B14C081E08D87412C0C
:101FD000512C320111C08F3F9105CCF72FEF30E02B
:101FE000281B390B2530310514F024E030E0820F36
:101FF000931F9B878A87EBCF85E294E00E940F179F
:102000004816590690F58E819F81A885B9855301A0
:102010004201881A990AAA0ABB0A85E294E00E9442
:102020000F178C01EA84FB8485E294E00E940F176D
:102030006C01980140E050E0C501B4010E94601EAF
:10204000262FC701B6010E94381E269F402D11245D
:1020500000E020E0B20185E294E00E9449168FEF93
:10206000481A580A680A780AC7CF85E294E00E94A5
:102070004E148E819F81A885B9850196A11DB11D41
:102080008E839F83A887B987DF91CF911F910F918E
:10209000FF90EF90DF90CF90BF90AF909F908F9088
:1020A0007F906F905F904F900895CF93DF93EC01F6
:1020B0000E949610CE010E94BE101B861A861E82B8
:1020C0001F82188619861C861D8664E6CE010E9432
:1020D000B7120E940B1A6093170370931803809332
:1020E000190390931A03DF91CF910895E6E0F3E08E
:1020F0008DE692E091838083168217821086118686
:1021000013861286089583E00E94471B019759F0B9
:102110008091140390911503009739F010921503E4
:1021200010921403089586E093E00895CF93DF930F
:10213000EC010E940B1A6A837B838C839D83DF9161
:10214000CF910895CF93C62FCC23B1F061E084E105
:102150000E94181B64E670E080E090E00E943C1A48
:1021600060E084E10E94181B64E670E080E090E08B
:102170000E943C1AC150E8CFCF910895FF920F936F
:102180001F93CF93DF938091C001882311F14AE020
:1021900050E06AE374E083E294E00E94530A909373
:1021A0004504809344040AE314E0C0E0D0E0F80161
:1021B000F1908F01CE010E94DC1FF81621F06F2DE7
:1021C000CE010E94E41F2196CC30D10581F71092F8
:1021D000C001DF91CF911F910F91FF900895CF9390
:1021E000DF93CAE3D4E0698170E085E294E00E9465
:1021F000DD13E881F0E0EE0FFF1FE454FE4F608135
:10220000718185E294E0DF91CF910C941714EF92E5
:10221000FF920F931F93CF93DF938C018AE3E82EF5
:1022200084E0F82EC0E0D0E0CE010E94DC1FF70170
:1022300081937F012196CC30D105B1F71092C00176
:102240004AE050E06AE374E083E294E00E94530ABB
:10225000209144043091450482179307A9F08CE043
:10226000E1ECF1E0AAE3B4E001900D928A95E1F788
:102270004AE050E06AE374E083E294E00E94530A8B
:102280009093450480934404C801DF91CF911F913E
:102290000F91FF90EF900C94EF100F931F93CF933B
:1022A000DF93EC010E940B1A0A811B812C813D8176
:1022B000601B710B820B930BDF91CF911F910F91DC
:1022C0000895FB018081823090F48181813278F41D
:1022D0008381948189399A4350F481E04581568104
:1022E00067817085413452446F40710508F080E089
:1022F0000895FF920F931F93CF93DF938B01F12CDF
:10230000CF2D0F2C000CDD0B85E294E00E940F17FF
:10231000C817D90778F585E294E00E940F179C0151
:102320002150310990913C04C217D30779F4C90FA9
:10233000D11D85E294E00E940F17BC01CE010E94DE
:10234000381E20E03FEF40E050E00DC0C90FD11D26
:1023500085E294E00E940F17BC01CE010E94381E56
:1023600020E030E0A901BC0185E294E00E949A16C9
:10237000F394C6CF85E294E00E944E14B80180E049
:1023800090E00E943C1AC0E00C2F0C2E000C110BA8
:1023900085E294E00E940F170817190750F420E017
:1023A00030E0A901B80185E294E00E949A16CF5F5F
:1023B000EBCF85E294E0DF91CF911F910F91FF90D9
:1023C0000C944E144F925F926F927F928F929F92D5
:1023D000AF92BF92CF92DF92EF92FF920F931F9333
:1023E000CF93DF93CDB7DEB75B01FA010DB71EB710
:1023F0008E5F9E4F3C01DC01ED90FC90E114F104F6
:1024000009F466C0672B09F463C0309709F460C013
:10241000CA016EEF70E00E94381ECF010196680F6E
:10242000791F8DB79EB7861B970B0FB6F8949EBF8A
:102430000FBE8DBF6DB77EB76F5F7F4F412C512CA4
:1024400021E030E09924939480E090E0D5018D90D4
:102450005D01BFEF4B1A5B0AA9014F5F5F4FA0E21E
:102460008A1206C0860F971FDC019C92C90116C014
:102470006B01C20ED31ED6018C929394BFEF9B16B4
:1024800029F0E415F50569F09A01E0CF860F971F52
:10249000DC019C92CA01A9014E5F5F4F992493947D
:1024A000F0CFFB01E80FF91F9082D701ED91FC916D
:1024B0000280F381E02DC7010995F30180819181AC
:1024C000DC01ED91FC910190F081E02D60E2099535
:1024D0000FB6F8941EBF0FBE0DBF0FB6F8941EBF07
:1024E0000FBE0DBFDF91CF911F910F91FF90EF9025
:1024F000DF90CF90BF90AF909F908F907F906F9024
:102500005F904F900895CF93DF93CDB7DEB72D97AF
:102510000FB6F894DEBF0FBECDBF84E289838CE096
:10252000EAE3F4E0DE01129601900D928A95E1F75C
:102530004DE050E0BE016F5F7F4F8BE193E00E9462
:10254000E2118FE494E00E9476182D960FB6F8946D
:10255000DEBF0FBECDBFDF91CF91089550E08BE17C
:1025600093E00E94E2118FE494E00C947618CF93EC
:10257000DF931F92CDB7DEB7698341E0BE016F5F85
:102580007F4F0E94AE120F90DF91CF910895EF928E
:10259000FF920F931F93CF93DF934115510509F4D9
:1025A000B7C0EB018C0188818C3309F48FC048F4EB
:1025B000833209F4AFC0843261F1813209F0A8C0DE
:1025C0006DC08F3309F47EC068F48E3309F0A0C06B
:1025D00080913C0490E0019660913B0470E00E9481
:1025E0004C1E7CC0813671F0863609F091C085EDB5
:1025F00092E0909315038093140366E4C8010E944F
:10260000B71288C082E992E0909315038093140377
:1026100081C04D30510521F042E069E772E013C0FE
:102620007B018FEFE81AF80A4AE050E0B70183E235
:1026300094E00E94530A2B853C858217930739F05A
:1026400042E06CE772E0C8010E94AE1263C0B701BD
:10265000C8010E946111C82F811104C042E06FE7D8
:1026600072E0F1CF4CE050E0B7018AE394E00E94C1
:10267000C81F892B71F081E08093C0018CE0F701C5
:10268000AAE3B4E001900D928A95E1F7C8010E9497
:10269000EF106BE6C8010E94B7123DC042305105F1
:1026A000C9F581E09981911180E0809316030E9421
:1026B0000B1A609317037093180380931903909378
:1026C0001A0328C0C8010E94831224C080913C04D0
:1026D000811103C080913B0401C0815080933C0470
:1026E0004AE050E06AE374E083E294E00E94530A17
:1026F000909345048093440481E08093C001C80115
:102700000E94831260E971E0C8010E94791102C041
:10271000C0E001C0C1E08C2FDF91CF911F910F91DC
:10272000FF90EF9008952091BC013091BD0144E0ED
:1027300060E170E085E294E00E94291683E294E073
:102740000E945A0A10921C0410921B0410921E043C
:1027500010921D041092200410921F041092220463
:1027600010922104089585E294E00C94B713CF935E
:10277000DF93EC0188859985009711F00E943F1F37
:102780008E8187FD05C060E0DF91CF910C94DC1A4B
:10279000DF91CF910895CF93DF93EC018E8187FD78
:1027A00007C061E00E94DC1A60E08E810E94181B65
:1027B00081E08983DF91CF910895EF92FF920F938B
:1027C0001F93CF93DF93EC017B0188859985009758
:1027D00011F00E943F1F9D858A85981719F084E0AB
:1027E00090E002C083E090E08E9D80018F9D100DEF
:1027F0009E9D100D11241D830C83C8010E94A71EED
:1028000099878887009741F0A80160E070E00E94F6
:10281000D51FFB82EA8204C01D821C821B821A82A1
:10282000DF91CF911F910F91FF90EF900895FC01E0
:1028300031E095858285981330E0CB0126E09695AE
:1028400087952A95E1F7282F23702587CB0144E04F
:10285000969587954A95E1F783708287AB015695E7
:1028600047955695479543704387962F9370948765
:1028700091E06F3F710511F008F090E09083408582
:102880005185452B51F091E0281390E0391729F03C
:1028900062817381CF010C94DD130895CF92DF9292
:1028A000EF92FF920F931F93CF93DF93CDB7DEB7D5
:1028B00029970FB6F894DEBF0FBECDBF8C01DC01A7
:1028C00018968D919C911997892B09F481C10E94CA
:1028D000171AF801C684D784E088F188DC01CB019F
:1028E0008C199D09AE09BF098C329140A105B10533
:1028F00070F3F894D80114968D919C9115979A8352
:10290000898318960D90BC91A02D7D01EFEFEE1AF2
:10291000FE0A8C918987D8018C9152960D90BC91BA
:10292000A02D882309F41AC11D82AB32B10509F02C
:1029300059C09BB1F8018489982B98879BB18095E9
:1029400089238F838F818E83898587FF02C0888545
:102950008E8358856F8149853E812D8189819A8139
:10296000D7015BB9262F3BB900C046FD252F6BB9B7
:1029700000C05BB9362F2BB900C045FD352F6BB9B0
:1029800000C05BB9262F3BB900C044FD252F6BB9B1
:1029900000C05BB9362F2BB900C043FD352F6BB992
:1029A00000C05BB9262F3BB900C042FD252F6BB993
:1029B00000C05BB9362F2BB900C041FD352F6BB974
:1029C00000C05BB9262F3BB900C040FD252F6BB975
:1029D00001975BB9362F2BB94D9147FD352F6BB958
:1029E00001F6B8C0A532B10509F059C095B1F8019A
:1029F0008489982B988795B1809589238F838F81BF
:102A00008E83898587FF02C088858E8358856F8174
:102A100049853E812D8189819A81D70155B9262F1B
:102A200035B900C046FD252F65B900C055B9362F10
:102A300025B900C045FD352F65B900C055B9262F11
:102A400035B900C044FD252F65B900C055B9362FF2
:102A500025B900C043FD352F65B900C055B9262FF3
:102A600035B900C042FD252F65B900C055B9362FD4
:102A700025B900C041FD352F65B900C055B9262FD5
:102A800035B900C040FD252F65B9019755B9362FDE
:102A900025B94D9147FD352F65B901F65BC0989773
:102AA00009F08CC098B1F8018489982B988798B167
:102AB000809589238F838F818E83898587FF02C0CC
:102AC00088858E8358856F8149853E812D818981D6
:102AD0009A81D70158B9262F38B900C046FD252F55
:102AE00068B900C058B9362F28B900C045FD352F48
:102AF00068B900C058B9262F38B900C044FD252F49
:102B000068B900C058B9362F28B900C043FD352F29
:102B100068B900C058B9262F38B900C042FD252F2A
:102B200068B900C058B9362F28B900C041FD352F0B
:102B300068B900C058B9262F38B900C040FD252F0C
:102B400068B9019758B9362F28B94D9147FD352FEF
:102B500068B901F649873E832D832EC09C91F80108
:102B60008489982B98879C91809589238F838F8166
:102B70008C8388E08B8358856F8149853B812C81CC
:102B800089819A81F7015C9347FD252F2C93262F8D
:102B90003A9531F0441F6C9300C000C000C0F3CFE1
:102BA0006C93000038E04191019769F7F801B38B0D
:102BB000A28B49873B832C839A83898378940E94D4
:102BC000171AD8011E966D937D938D939C93519700
:102BD00029960FB6F894DEBF0FBECDBFDF91CF911F
:102BE0001F910F91FF90EF90DF90CF9008951F936A
:102BF000CF93DF93EC01162F8981882331F08E81EA
:102C000087FD03C060E00E94DC1A1E83898188234F
:102C100041F061E0812F0E94DC1A60E0812F0E9468
:102C2000181B812F90E0FC01EC54F74FE491F0E089
:102C3000EE0FFF1FEB52F74F259134913B8B2A8B00
:102C4000FC01E356F74FE491EC8BDF91CF911F919C
:102C50000895EF92FF921F93CF93DF93EC017B01D6
:102C6000142F19821F82198618861E861F86188ABD
:102C7000198AB9010E941714B701CE010E94DD1311
:102C8000612FCE01DF91CF911F91FF90EF900C94B7
:102C9000F7150F931F93DC0112968D919C9113975A
:102CA0006817790708F043C017968C911797882307
:102CB00061F0489FA0011124452F829F90011124AB
:102CC000232F809F80011124012F1D968C911D9729
:102CD0001A969C911A971896ED91FC911997891361
:102CE00008C0CB01880F991F680F791F6E0F7F1FD7
:102CF0000AC0660F771F660F771F6E0F7F1FFB01DD
:102D0000E80FF11D10821A968C911A97FB01E80FBB
:102D1000F11D40831B968C911B97FB01E80FF11D61
:102D200020831C968C91FB01E80FF11D00831F91FD
:102D30000F9108957F928F929F92AF92BF92CF9200
:102D4000DF92EF92FF920F931F93CF93DF93FC01DB
:102D5000828193816817790708F053C04A01AA2439
:102D6000BB24782CC32ED42EE52EFF24BC2DA22FFD
:102D70008781882361F0889E40011124792C8C9DE5
:102D800060011124BD2D829F70011124AF2D958506
:102D9000D285E084F1849D1308C0CB01880F991F70
:102DA000680F791F6E0D7F1D1CC0660F771F660FA1
:102DB000771F6E0D7F1D052F1127222733277B01DB
:102DC000E90EF11C811102C0202F09C090E0809F04
:102DD0006001819FD00C909FD00C11242D2DE70114
:102DE000288382859B01280F311DE9017882838524
:102DF000EB01C80FD11DB8838485FB01E80FF11DDD
:102E0000A083DF91CF911F910F91FF90EF90DF9002
:102E1000CF90BF90AF909F908F907F900895FC01CE
:102E2000828193810895FC014481558160E070E0C6
:102E3000808591850C94D51F0895982F813039F0A5
:102E400020F0823051F489B103C083B101C086B152
:102E5000E42FF0E0E45BFB4F8083E92FF0E0E559DD
:102E6000FF4F8081682B60834091680021E030E053
:102E7000B90102C0660F771F9A95E2F7CB01842B48
:102E8000809368000895E82FF0E0E559FF4F9081A6
:102E9000609569236083908191110FC04091680013
:102EA00021E030E0B90102C0660F771F8A95E2F792
:102EB000CB01809584238093680008950895E09164
:102EC000DB01F091DC010994E091D901F091DA0184
:102ED0000994E091D701F091D8010994E091D501CE
:102EE000F091D6010994E091D301F091D4010994B5
:102EF000E091D101F091D2010994E091CF01F091DC
:102F0000D0010994E091CD01F091CE0109941F9276
:102F10000F920FB60F9211242F933F934F935F930D
:102F20006F937F938F939F93AF93BF93CF93EF93C1
:102F3000FF9329B1C0914E04822F8C2790914804B1
:102F4000922330914B04C323C92BC82320934E04F2
:102F5000C4FD0E947317C5FD0E947817C6FD0E942C
:102F60007D17C7FD0E948217C0FD0E945F17C1FD3B
:102F70000E946417C2FD0E946917C3FD0E946E176C
:102F8000FF91EF91CF91BF91AF919F918F917F91E1
:102F90006F915F914F913F912F910F900FBE0F90C6
:102FA0001F901895FC01918D228D892F90E0805CF7
:102FB0009F4F821B91098F7399270895FC01918D72
:102FC000828D981731F0828DE80FF11D858D90E08C
:102FD00008958FEF9FEF0895FC01918D828D9817D2
:102FE00061F0828DDF01A80FB11D5D968C91928DED
:102FF0009F5F9F73928F90E008958FEF9FEF0895EA
:1030000080E599E1892B49F080E090E0892B29F057
:103010000E94501981110C9400000895FC01848DC8
:10302000DF01A80FB11DA35ABF4F2C91848D90E0F2
:1030300001968F739927848FA689B7892C93A089CD
:10304000B1898C9180648C93938D848D981306C084
:103050000288F389E02D80818F7D80830895EF922F
:10306000FF920F931F93CF93DF93EC0181E0888F42
:103070009B8D8C8D981305C0E889F989808185FD29
:1030800024C0F62E0B8D10E00F5F1F4F0F7311271A
:10309000E02E8C8DE8120CC00FB607FCFACFE88941
:1030A000F989808185FFF5CFCE010E940E18F1CFFE
:1030B0008B8DFE01E80FF11DE35AFF4FF0820B8F5D
:1030C000EA89FB898081806207C0EE89FF8960837D
:1030D000E889F98980818064808381E090E0DF91D4
:1030E000CF911F910F91FF90EF900895CF93DF93B1
:1030F000EC01888D8823C9F0EA89FB89808185FDF0
:1031000005C0A889B9898C9186FD0FC00FB607FC50
:10311000F5CF808185FFF2CFA889B9898C9185FF91
:10312000EDCFCE010E940E18E7CFDF91CF91089529
:10313000CF92DF92EF92FF921F93CF93DF93EC0138
:103140006A017B01122F60E874E88EE190E0A7012C
:1031500096010E94601EDA01C9010197A109B10917
:10316000B695A795979587959C01E889F98982E09E
:103170008083211580E13807A8F0E889F989108259
:1031800060E472E48FE090E0A70196010E94601E67
:10319000DA01C9010197A109B109B695A7959795DB
:1031A00087959C01EC85FD853083EE85FF85208326
:1031B000188EEC89FD891083EA89FB898081806102
:1031C0008083EA89FB89808188608083EA89FB8922
:1031D000808180688083EA89FB8980818F7D8083FC
:1031E000DF91CF911F91FF90EF90DF90CF900895E6
:1031F0001F920F920FB60F9211242F938F939F93CC
:10320000EF93FF93E0915F04F09160048081E0917F
:103210006504F091660482FD12C09081809168047B
:103220008F5F8F7320916904821751F0E0916804D9
:10323000F0E0E15BFB4F958F8093680401C08081D3
:10324000FF91EF919F918F912F910F900FBE0F9053
:103250001F9018951F920F920FB60F9211242F9363
:103260003F934F935F936F937F938F939F93AF930E
:10327000BF93EF93FF938FE494E00E940E18FF91A9
:10328000EF91BF91AF919F918F917F916F915F91DE
:103290004F913F912F910F900FBE0F901F90189557
:1032A0008FE494E00E94D21721E0892B09F420E0FA
:1032B000822F0895EFE4F4E01382128288EE93E007
:1032C000A0E0B0E084839583A683B78386E892E08C
:1032D0009183808385EC90E09587848784EC90E0EF
:1032E0009787868780EC90E0918B808B81EC90E0D3
:1032F000938B828B82EC90E0958B848B86EC90E0B4
:10330000978B868B118E128E138E148E0895CF920A
:10331000DF92EF92FF920F931F93CF93DF936C0195
:103320007A018B01C0E0D0E0CE15DF0581F0D80135
:103330006D918D01D601ED91FC910190F081E02D10
:10334000C6010995892B11F02196EECF7E01C701A8
:10335000DF91CF911F910F91FF90EF90DF90CF9071
:10336000089508950E94781A0E94B1190E94860D4E
:10337000C0E0D8E10E94EB0E2097E1F30E94001814
:10338000F9CF1F920F920FB60F9211242F933F93F4
:103390008F939F93AF93BF938091ED049091EE0430
:1033A000A091EF04B091F0043091EC0426E0230FDB
:1033B0002D3720F40296A11DB11D05C029E8230F69
:1033C0000396A11DB11D2093EC048093ED0490930E
:1033D000EE04A093EF04B093F0048091F104909177
:1033E000F204A091F304B091F4040196A11DB11D63
:1033F0008093F1049093F204A093F304B093F40447
:10340000BF91AF919F918F913F912F910F900FBEE0
:103410000F901F9018952FB7F8946091ED0470915C
:10342000EE048091EF049091F0042FBF08953FB710
:10343000F8948091F1049091F204A091F304B0917A
:10344000F40426B5A89B05C02F3F19F00196A11DD5
:10345000B11D3FBFBA2FA92F982F8827820F911D2A
:10346000A11DB11DBC01CD0143E0660F771F881F70
:10347000991F4A95D1F708958F929F92AF92BF926C
:10348000CF92DF92EF92FF926B017C010E94171A9C
:103490004B015C01C114D104E104F10401F10E946B
:1034A000701B0E94171ADC01CB0188199909AA091F
:1034B000BB09883E9340A105B10560F321E0C21A23
:1034C000D108E108F10888EE880E83E0981EA11C5F
:1034D000B11CC114D104E104F10419F7DBCFFF9052
:1034E000EF90DF90CF90BF90AF909F908F90089516
:1034F000789484B5826084BD84B5816084BD85B5CF
:10350000826085BD85B5816085BDEEE6F0E0808195
:1035100081608083E1E8F0E01082808182608083B6
:10352000808181608083E0E8F0E080818160808339
:10353000E1EBF0E0808184608083E0EBF0E080816B
:1035400081608083EAE7F0E080818460808380810D
:103550008260808380818E7F808380818068808389
:103560001092C1000895843081F028F4823099F0DF
:103570008330A1F008958830A9F08930B9F0853002
:10358000D1F4809180008F7D03C0809180008F777F
:1035900080938000089584B58F7702C084B58F7DB5
:1035A00084BD08958091B0008F7703C08091B000F2
:1035B0008F7D8093B0000895CF93DF9390E0FC015E
:1035C000E356F74F2491FC01EC54F74F8491882384
:1035D00061F190E0880F991FFC01E152F74FC5910E
:1035E000D491FC01EB52F74FA591B491611109C040
:1035F0009FB7F8948881209582238883EC912E23AD
:103600000BC0623061F49FB7F8948881322F3095F7
:1036100083238883EC912E2B2C939FBF06C08FB7FA
:10362000F894E8812E2B28838FBFDF91CF910895E6
:103630001F93CF93DF93282F30E0F901EA57F74F1C
:103640008491F901E356F74FD491F901EC54F74F07
:10365000C491CC23C1F0162F81110E94B31AEC2F14
:10366000F0E0EE0FFF1FEB52F74FA591B4919FB71B
:10367000F894111104C08C91D095D82302C0EC911C
:10368000DE2BDC939FBFDF91CF911F910895CF93E5
:10369000DF93282F30E0F901EA57F74F8491F901C1
:1036A000E356F74FD491F901EC54F74FC491CC2372
:1036B00091F081110E94B31AEC2FF0E0EE0FFF1F82
:1036C000E553F74FA591B491EC91ED2381E090E0A3
:1036D00021F480E002C080E090E0DF91CF91089576
:1036E00008955058BB27AA270E94891B0C94FC1CE4
:1036F0000E94EE1C38F00E94F51C20F039F49F3F28
:1037000019F426F40C94EB1C0EF4E095E7FB0C94F2
:10371000E51CE92F0E940D1D58F3BA1762077307C5
:103720008407950720F079F4A6F50C942F1D0EF46C
:10373000E0950B2EBA2FA02D0B01B90190010C01C1
:10374000CA01A0011124FF27591B99F0593F50F4D9
:10375000503E68F11A16F040A22F232F342F442731
:10376000585FF3CF469537952795A795F040539529
:10377000C9F77EF41F16BA0B620B730B840BBAF0F9
:103780009150A1F0FF0FBB1F661F771F881FC2F764
:103790000EC0BA0F621F731F841F48F48795779578
:1037A0006795B795F7959E3F08F0B0CF9395880F32
:1037B00008F09927EE0F9795879508950E94C11CF0
:1037C00008F481E008950E94F71B0C94FC1C0E94F1
:1037D000F51C58F00E94EE1C40F029F45F3F29F0E0
:1037E0000C94E51C51110C94301D0C94EB1C0E94A0
:1037F0000D1D68F39923B1F3552391F3951B550BD8
:10380000BB27AA2762177307840738F09F5F5F4FB3
:10381000220F331F441FAA1FA9F335D00E2E3AF0F2
:10382000E0E832D091505040E695001CCAF72BD00A
:10383000FE2F29D0660F771F881FBB1F261737075B
:103840004807AB07B0E809F0BB0B802DBF01FF278D
:1038500093585F4F3AF09E3F510578F00C94E51C69
:103860000C94301D5F3FE4F3983ED4F38695779532
:103870006795B795F7959F5FC9F7880F911D969546
:10388000879597F90895E1E0660F771F881FBB1FA2
:10389000621773078407BA0720F0621B730B840B4F
:1038A000BA0BEE1F88F7E09508950E94151D88F069
:1038B0009F5798F0B92F9927B751B0F0E1F0660FF4
:1038C000771F881F991F1AF0BA95C9F714C0B13035
:1038D00091F00E942F1DB1E008950C942F1D672FC9
:1038E000782F8827B85F39F0B93FCCF38695779564
:1038F0006795B395D9F73EF490958095709561954D
:103900007F4F8F4F9F4F0895E89409C097FB3EF477
:1039100090958095709561957F4F8F4F9F4F99231C
:10392000A9F0F92F96E9BB279395F695879577959A
:103930006795B795F111F8CFFAF4BB0F11F460FF5A
:103940001BC06F5F7F4F8F4F9F4F16C0882311F0B2
:1039500096E911C0772321F09EE8872F762F05C0C6
:10396000662371F096E8862F70E060E02AF09A9561
:10397000660F771F881FDAF7880F9695879597F956
:103980000895990F0008550FAA0BE0E8FEEF1616F0
:103990001706E807F907C0F012161306E407F50743
:1039A00098F0621B730B840B950B39F40A2661F0B7
:1039B000232B242B252B21F408950A2609F4A1405A
:1039C000A6958FEF811D811D089597F99F6780E867
:1039D00070E060E008959FEF80EC089500240A9461
:1039E0001616170618060906089500240A941216DA
:1039F0001306140605060895092E0394000C11F40D
:103A0000882352F0BB0F40F4BF2B11F460FF04C0B9
:103A10006F5F7F4F8F4F9F4F089557FD9058440F12
:103A2000551F59F05F3F71F04795880F97FB991F1D
:103A300061F09F3F79F087950895121613061406DA
:103A4000551FF2CF4695F1DF08C016161706180667
:103A5000991FF1CF86957105610508940895E89442
:103A6000BB2766277727CB0197F908950E94C11CD1
:103A700008F48FEF08950E944E1D0C94FC1C0E94C8
:103A8000EE1C38F00E94F51C20F0952311F00C94E8
:103A9000E51C0C94EB1C11240C94301D0E940D1D90
:103AA00070F3959FC1F3950F50E0551F629FF00191
:103AB000729FBB27F00DB11D639FAA27F00DB11DAA
:103AC000AA1F649F6627B00DA11D661F829F222733
:103AD000B00DA11D621F739FB00DA11D621F839FBA
:103AE000A00D611D221F749F3327A00D611D231F90
:103AF000849F600D211D822F762F6A2F11249F57DE
:103B000050409AF0F1F088234AF0EE0FFF1FBB1FE0
:103B1000661F771F881F91505040A9F79E3F51059F
:103B200080F00C94E51C0C94301D5F3FE4F3983E4C
:103B3000D4F3869577956795B795F795E7959F5F49
:103B4000C1F7FE2B880F911D9695879597F90895DB
:103B50009F930E94B21D0F9007FCEE5F0C94DB1D3B
:103B60000C94EB1C0E94151DD8F3E894E0E0BB27F1
:103B70009F57F0F02AED3FE049EC06C0EE0FBB0F77
:103B8000661F771F881F28F0B23A62077307840701
:103B900028F0B25A620B730B840BE3959A9572F777
:103BA000803830F49A95BB0F661F771F881FD2F7B5
:103BB00090480C94F11DEF93E0FF07C0A2EA2AEDB4
:103BC0003FE049EC5FEB0E94891B0E94FC1C0F90B8
:103BD000039401FC9058E8E6F0E00C94FD1D9F3F33
:103BE00031F0915020F4879577956795B795880FB8
:103BF000911D9695879597F908959F938F937F933D
:103C00006F93FF93EF939B01AC010E943B1DEF91DB
:103C1000FF910E94111E2F913F914F915F910C9443
:103C20003B1DDF93CF931F930F93FF92EF92DF9291
:103C30007B018C01689406C0DA2EEF010E944E1DB4
:103C4000FE01E894A5912591359145915591A6F3F2
:103C5000EF010E94891BFE019701A801DA9469F720
:103C6000DF90EF90FF900F911F91CF91DF9108951A
:103C7000AA1BBB1B51E107C0AA1FBB1FA617B70792
:103C800010F0A61BB70B881F991F5A95A9F78095AE
:103C90009095BC01CD01089597FB072E16F4009472
:103CA00007D077FD09D00E94381E07FC05D03EF4EE
:103CB000909581959F4F0895709561957F4F0895D8
:103CC000A1E21A2EAA1BBB1BFD010DC0AA1FBB1F20
:103CD000EE1FFF1FA217B307E407F50720F0A21B92
:103CE000B30BE40BF50B661F771F881F991F1A94FF
:103CF00069F760957095809590959B01AC01BD0129
:103D0000CF010895052E97FB1EF400940E94991E82
:103D100057FD07D00E94601E07FC03D04EF40C94A0
:103D2000991E50954095309521953F4F4F4F5F4FCD
:103D3000089590958095709561957F4F8F4F9F4F17
:103D40000895EE0FFF1F0590F491E02D09940F9355
:103D50001F93CF93DF938230910510F482E090E0BF
:103D6000E091F704F091F80420E030E0A0E0B0E04A
:103D7000309719F140815181028113814817590709
:103D8000C8F08417950769F4109731F012960C93D8
:103D9000129713961C9327C00093F7041093F8040E
:103DA00022C02115310519F04217530718F49A0162
:103DB000BD01EF01DF01F801DBCF21153105F9F07D
:103DC000281B390B2430310580F48A819B816115D1
:103DD000710521F0FB019383828304C09093F80462
:103DE0008093F704FE01329644C0FE01E20FF31FF8
:103DF0008193919322503109398328833AC02091CD
:103E0000F5043091F604232B41F420910201309106
:103E100003013093F6042093F504209100013091C2
:103E200001012115310541F42DB73EB74091040140
:103E300050910501241B350BE091F504F091F60437
:103E4000E217F307A0F42E1B3F0B2817390778F071
:103E5000AC014E5F5F4F2417350748F04E0F5F1FD0
:103E60005093F6044093F5048193919302C0E0E0EF
:103E7000F0E0CF01DF91CF911F910F910895CF9383
:103E8000DF93009709F481C0FC01329713821282FC
:103E9000A091F704B091F804109781F4208131814A
:103EA000820F931F2091F5043091F60428173907EB
:103EB00051F5F093F604E093F50467C0ED0120E0BE
:103EC00030E0CE17DF0740F44A815B819E01411547
:103ED0005105F1F0EA01F5CFD383C28340815181CE
:103EE000840F951FC817D90759F488819981840FC9
:103EF000951F0296918380838A819B81938382831D
:103F00002115310529F4F093F804E093F7043DC03E
:103F1000E901FB83EA8349915991C40FD51FEC173E
:103F2000FD0761F480819181840F951F0296E9015C
:103F300099838883828193819B838A83E0E0F0E088
:103F400012968D919C911397009719F0FD01DC0159
:103F5000F7CF8D919C9111979D012E5F3F4F820F5E
:103F6000931F2091F5043091F6042817390769F45E
:103F7000309729F41092F8041092F70402C01382CB
:103F80001282B093F604A093F504DF91CF910895C7
:103F9000FB01DC0104C08D910190801921F4415096
:103FA0005040C8F7881B990B0895DC0101C06D9340
:103FB00041505040E0F70895F999FECF92BD81BD80
:103FC000F89A992780B50895262FF999FECF1FBA40
:103FD00092BD81BD20BD0FB6F894FA9AF99A0FBE32
:103FE0000196089514E0C0E8D4E004C0FE010E94E8
:0E3FF000A11E2196C138D107C9F7F894FFCF62
:103FFE000000F904800000007804EF08660DDB1164
:10400E005016C21A331FA1230C28742CD9303935FF
:10401E009639EE3D42429046D94A1B4F58538E5721
:10402E00BE5BE65F07641F68306C397038742F789A
:10403E001C7C0080D983A8876D8B278FD5927996AB
:10404E00109A9B9D1BA18DA4F3A74BAB97AED4B139
:10405E0004B526B839BB3EBE34C11BC4F2C6BAC9BC
:10406E0073CC1BCFB3D13BD4B2D619D96EDBB3DD33
:10407E00E6DF08E218E416E603E8DDE9A5EB5BED02
:10408E00FEEE8FF00DF277F3CFF414F646F764F8E8
:10409E006FF967FA4BFB1BFCD8FC81FD17FE98FEEF
:1040AE0006FF5FFFA5FFD7FFF5FFFFFF5200D2000F
:1040BE0001001000B80B102700000000001C171C98
:1040CE00171C171C171C171C171C171C170000FF9A
:1040DE00000088FF0000FF000000000000B104BFD8
:1040EE00049C05C005AB04AC0400000000E305FE13
:1040FE00059506D905AA06E105000000005C07C477
:10410E0006D90627074407C506000000008A078C5B
:10411E0007A908C8088908850700000000A30A68D7
:10412E000A5E0A9A0A5B0A5C0A00000000E60A634D
:10413E000BC30ADB0ABD0ABE0A00000000A60BA8CC
:10414E000BAB0BCC0BE80BA90B000000003A0D17C4
:10415E000CFC0C2A0D110C120C00000000BD0FC33C
:10416E000FBF0F5510C00FC10F453100453200452E
:10417E003300000000002F188719D217EC17DE1736
:02418E007618A1
:00000001FF
