:100000000C9469040C9491040C9491040C94910444
:100010000C9491040C9491040C9491040C9491040C
:100020000C9491040C9491040C9491040C949104FC
:100030000C9491040C9491040C9491040C949104EC
:100040000C9482150C9491040C94B9140C94EB1438
:100050000C9491040C9491040C9491040C949104CC
:100060000C9491040C949104000010212042306300
:10007000408450A560C670E781089129A14AB16B00
:10008000C18CD1ADE1CEF1EF1231021032732252A8
:1000900052B5429472F762D693398318B37BA35A50
:1000A000D3BDC39CF3FFE3DE246234430420140178
:1000B00064E674C744A45485A56AB54B85289509A0
:1000C000E5EEF5CFC5ACD58D365326721611063048
:1000D00076D766F6569546B4B75BA77A97198738F0
:1000E000F7DFE7FED79DC7BC48C458E5688678A708
:1000F0000840186128023823C9CCD9EDE98EF9AF40
:1001000089489969A90AB92B5AF54AD47AB76A96E7
:100110001A710A503A332A12DBFDCBDCFBBFEB9E8F
:100120009B798B58BB3BAB1A6CA67C874CE45CC5B7
:100130002C223C030C601C41EDAEFD8FCDECDDCDDF
:10014000AD2ABD0B8D689D497E976EB65ED54EF487
:100150003E132E321E510E70FF9FEFBEDFDDCFFC2F
:10016000BF1BAF3A9F598F78918881A9B1CAA1EB83
:10017000D10CC12DF14EE16F108000A130C220E3FF
:10018000500440257046606783B99398A3FBB3DAA7
:10019000C33DD31CE37FF35E02B1129022F332D24F
:1001A0004235521462777256B5EAA5CB95A8858977
:1001B000F56EE54FD52CC50D34E224C314A004819F
:1001C0007466644754244405A7DBB7FA879997B847
:1001D000E75FF77EC71DD73C26D336F2069116B0EF
:1001E0006657767646155634D94CC96DF90EE92F07
:1001F00099C889E9B98AA9AB58444865780668273F
:1002000018C008E1388228A3CB7DDB5CEB3FFB1EE6
:100210008BF99BD8ABBBBB9A4A755A546A377A168E
:100220000AF11AD02AB33A92FD2EED0FDD6CCD4DB6
:10023000BDAAAD8B9DE88DC97C266C075C644C45DE
:100240003CA22C831CE00CC1EF1FFF3ECF5DDF7C86
:10025000AF9BBFBA8FD99FF86E177E364E555E742E
:100260002E933EB20ED11EF000003331666255531C
:10027000CCC4FFF5AAA6999789A9BA98EFCBDCFA66
:10028000456D765C230F103E037330426511562096
:10029000CFB7FC86A9D59AE48ADAB9EBECB8DF8946
:1002A000461E752F207C134D06E635D7608453B566
:1002B000CA22F913AC409F718F4FBC7EE92DDA1C26
:1002C000438B70BA25E916D8059536A463F750C656
:1002D000C951FA60AF339C028C3CBF0DEA5ED96F06
:1002E00040F873C9269A15AB0DCC3EFD6BAE589FF6
:1002F000C108F239A76A945B8465B754E207D13626
:1003000048A17B902EC31DF20EBF3D8E68DD5BECD5
:10031000C27BF14AA41997288716B427E174D24505
:100320004BD278E32DB01E810B2A381B6D485E79C5
:10033000C7EEF4DFA18C92BD8283B1B2E4E1D7D0E5
:100340004E477D7628251B1408593B686E3B5D0A95
:10035000C49DF7ACA2FF91CE81F0B2C1E792D4A3C5
:100360004D347E052B5618671B9828A97DFA4ECB75
:10037000D75CE46DB13E820F9231A100F453C762A5
:100380005EF56DC438970BA618EB2BDA7E894DB855
:10039000D42FE71EB24D817C9142A273F720C41185
:1003A0005D866EB73BE408D51D7E2E4F7B1C482D25
:1003B000D1BAE28BB7D884E994D7A7E6F2B5C18465
:1003C00058136B223E710D401E0D2D3C786F4B5E15
:1003D000D2C9E1F8B4AB879A97A4A495F1C6C2F745
:1003E0005B6068513D020E33165425657036430735
:1003F000DA90E9A1BCF28FC39FFDACCCF99FCAAEE5
:1004000053396008355B066A152726167345407414
:10041000D9E3EAD2BF818CB09C8EAFBFFAECC9DDC4
:10042000504A637B3628051910B2238376D045E104
:10043000DC76EF47BA148925991BAA2AFF79CC48A4
:1004400055DF66EE33BD008C13C120F075A34692D4
:10045000DF05EC34B9678A569A68A959FC0ACF3B84
:1004600056AC659D30CE03FF000037306E605950AA
:10047000DCC0EBF0B2A08590A9A19E91C7C1F0F1BC
:10048000756142511B012C31436374532D031A33A0
:100490009FA3A893F1C3C6F3EAC2DDF284A2B3928C
:1004A0003602013258626F5286C6B1F6E8A6DF9670
:1004B0005A066D36346603562F671857410776374C
:1004C000F3A7C4979DC7AAF7C5A5F295ABC59CF540
:1004D00019652E55770540356C045B34026435543C
:1004E000B0C487F4DEA4E9941DAD2A9D73CD44FD0C
:1004F000C16DF65DAF0D983DB40C833CDA6CED5CDC
:1005000068CC5FFC06AC319C5ECE69FE30AE079EC7
:10051000820EB53EEC6EDB5EF76FC05F990FAE3FAB
:100520002BAF1C9F45CF72FF9B6BAC5BF50BC23BA7
:1005300047AB709B29CB1EFB32CA05FA5CAA6B9AAB
:10054000EE0AD93A806AB75AD808EF38B6688158A7
:1005500004C833F86AA85D9871A946991FC928F99B
:10056000AD699A59C309F4393B5A0C6A553A620A83
:10057000E79AD0AA89FABECA92FBA5CBFC9BCBAB6B
:100580004E3B790B205B176B78394F09165921695F
:10059000A4F993C9CA99FDA9D198E6A8BFF888C85B
:1005A0000D583A6863385408BD9C8AACD3FCE4CC3F
:1005B000615C566C0F3C380C143D230D7A5D4D6D1B
:1005C000C8FDFFCDA69D91ADFEFFC9CF909FA7AFFF
:1005D000223F150F4C5F7B6F575E606E393E0E0EEB
:1005E0008B9EBCAEE5FED2CE26F711C748977FA7FB
:1005F000FA37CD079457A3678F56B866E136D6060B
:10060000539664A63DF60AC6659452A40BF43CC406
:10061000B9548E64D734E004CC35FB05A2559565FA
:1006200010F527C57E9549A5A0319701CE51F961F6
:100630007CF14BC1129125A109903EA067F050C0FA
:10064000D550E260BB308C00E352D4628D32BA02E6
:100650003F9208A251F266C24AF37DC3249313A3CA
:100660009633A103F853CF63000076B4ED689BDCAA
:10067000CAF1BC452799512D85C3F37768AB1E1F7E
:100680004F323986A25AD4EE1BA76D13F6CF807B6A
:10069000D156A7E23C3E4A8A9E64E8D0730C05B866
:1006A00054952221B9FDCF49374E41FADA26AC9252
:1006B000FDBF8B0B10D76663B28DC4395FE529513E
:1006C000787C0EC89514E3A02CE95A5DC181B7353A
:1006D000E61890AC0B707DC4A92ADF9E444232F626
:1006E00063DB156F8EB3F8076E9C182883F4F54012
:1006F000A46DD2D949053FB1EB5F9DEB06377083FE
:1007000021AE571ACCC6BA72753B038F9853EEE7E9
:10071000BFCAC97E52A22416F0F8864C1D906B24E5
:100720003A094CBDD761A1D559D22F66B4BAC20ED1
:100730009323E5977E4B08FFDC11AAA5317947CDBD
:1007400016E06054FB888D3C427534C1AF1DD9A9B9
:100750008884FE3065EC1358C7B6B1022ADE5C6AA5
:100760000D477BF3E02F969BDD38AB8C305046E491
:1007700017C9617DFAA18C1558FB2E4FB593C3277D
:10078000920AE4BE7F6209D6C69FB02B2BF75D4369
:100790000C6E7ADAE10697B2435C35E8AE34D88065
:1007A00089ADFF1964C51271EA769CC2071E71AA51
:1007B00020875633CDEFBB5B6FB5190182DDF4693D
:1007C000A544D3F0482C3E98F1D187651CB96A0D39
:1007D0003B204D94D648A0FC741202A6997AEFCE25
:1007E000BEE3C857538B253FB3A4C5105ECC287811
:1007F00079550FE1943DE289366740D3DB0FADBBFD
:10080000FC968A2211FE674AA803DEB7456B33DFE8
:1008100062F214468F9AF92E2DC05B74C0A8B61CE4
:10082000E73191850A597CED84EAF25E69821F36D0
:100830004E1B38AFA373D5C70129779DEC419AF5BC
:10084000CBD8BD6C26B050049F4DE9F972250491B8
:1008500055BC2308B8D4CE601A8E6C3AF7E68152A4
:10086000D07FA6CB3D174BA3000000090003020078
:100870000004050800000000000000000000000166
:100880000204081020408001020408102001020424
:1008900008102040804004040404040404040202FC
:1008A0000202020203030303030302020300000027
:1008B0000023002600290000000000250028002B4E
:1008C0000000000000240027002A0000AC081B15CF
:1008D000CB0811241FBECFEFD8E0DEBFCDBF11E0A3
:1008E000A0E0B1E0EEE3F5E302C005900D92A23B7B
:1008F000B107D9F723E0A2EBB1E001C01D92A839FE
:10090000B207E1F714E0C8E6D4E004C02197FE0185
:100910000E944119C636D107C9F70E9473150C947D
:10092000921A0C940000FC018081823090F4818145
:10093000813278F48381948189399A4350F481E03B
:100940004581568167817085413452446F407105FD
:1009500008F080E00895CF93DF93C1EDD2E0698184
:1009600070E08CEB92E00E945410E881F0E0EE0F12
:10097000FF1FEC5EFE4F608171818CEB92E0DF9196
:10098000CF910C948E10FF920F931F93CF93DF9310
:100990008091DC02882311F149E050E061ED72E0C2
:1009A00082EB91E00E9426109093DB028093DA02A2
:1009B00001ED12E0C0E0D0E0F801F1908F01CE012E
:1009C0000E947C1AF81621F06F2DCE010E94841A25
:1009D0002196CB30D10581F71092DC02DF91CF91C7
:1009E0001F910F91FF9008950F931F93CF93DF9363
:1009F00001ED12E0C0E0D0E0CE010E947C1AF801C7
:100A000081938F012196CB30D105B1F71092DC0292
:100A100049E050E061ED72E082EB91E00E94261027
:100A20002091DA023091DB0282179307A9F08BE064
:100A3000E6E0F1E0A1EDB2E001900D928A95E1F7D8
:100A400049E050E061ED72E082EB91E00E942610F7
:100A50009093DB028093DA02DF91CF911F910F9187
:100A60000C94AB04CF92DF92EF92FF920F931F93FF
:100A700068E070E080E090E00E94FD1560E08BE0AF
:100A80000E94D9160E94D8156B017C010E94D815CE
:100A9000DC01CB018C199D09AE09BF090091D6027A
:100AA0001091D7022091D8023091D9028017910776
:100AB000A207B30758F361E08BE01F910F91FF90FD
:100AC000EF90DF90CF900C94D9167F928F929F92E7
:100AD000AF92BF92CF92DF92EF92FF920F931F934C
:100AE000CF93DF934B015C01C091D402D091D5022A
:100AF0008CEB92E00E948613BC01660F771F680F93
:100B0000791FCE010E94F7188B016B01E12CF12CAB
:100B10008CEB92E00E94861377247A94780E77FC0F
:100B20002AC08CEB92E00E9486132091D302C72D3D
:100B3000072C000CDD0BC21BD109C80FD91F8CEB91
:100B400092E00E948613BC01CE010E94F718A50115
:100B50009401BC018CEB92E00E9411138CEB92E0AB
:100B60000E94C5100115110521F0C701B6010E94B0
:100B7000FD157A94D4CFDF91CF911F910F91FF9003
:100B8000EF90DF90CF90BF90AF909F908F907F902D
:100B90000895FF920F931F93CF93DF938C01F12C55
:100BA000CF2D0F2C000CDD0B8CEB92E00E948613F6
:100BB000C817D907D8F58CEB92E00E9486130197ED
:100BC000C817D907B9F48CEB92E00E9486132091E4
:100BD000D302C21BD109C80FD91F8CEB92E00E942F
:100BE0008613BC01CE010E94F71820E03FEF40E0E1
:100BF00050E015C08CEB92E00E9486132091D30246
:100C0000C21BD109C80FD91F8CEB92E00E9486133A
:100C1000BC01CE010E94F71820E030E0A901BC0120
:100C20008CEB92E00E941113F394BACF8CEB92E01C
:100C30000E94C510B80180E090E00E94FD15C0E060
:100C40000C2F0C2E000C110B8CEB92E00E948613E3
:100C50000817190750F420E030E0A901B8018CEB27
:100C600092E00E941113CF5FEBCF8CEB92E0DF910B
:100C7000CF911F910F91FF900C94C510F894109292
:100C8000B0001092800014BC14BEE0E0FFE30994B1
:100C90000F931F93CF93DF938091120190911301D3
:100CA000892B09F04CC08091DF029091E0020196FF
:100CB0008F3F910511F481E09FEF9093E0028093C4
:100CC000DF028091DF029091E0029093DE02809338
:100CD000DD02C0E0D0E08CEB92E00E948613C817E2
:100CE000D907F8F42091DF023091E002C901825067
:100CF0009F4F8D3F914030F437FF05C031952195CE
:100D0000310901C02FEF022F10E0159507951595B9
:100D1000079540E0BE018CEB92E00E94C012219644
:100D2000DACF8CEB92E00E94C51065E070E080E0C5
:100D300090E0DF91CF911F910F910C94FD15DF9101
:100D4000CF911F910F9108950F931F93CF93DF932E
:100D50008091DF029091E00297FF03C09195819509
:100D600091099093E0028093DF028091DD029091DF
:100D7000DE0297FF03C09195819591099093DE0261
:100D80008093DD028091DF029091E002181619062F
:100D9000BCF501979093E0028093DF028091DD0221
:100DA0009091DE02181619062CF401979093DE023A
:100DB0008093DD02C0E0D0E08CEB92E00E948613CD
:100DC000C817D90790F40091DD021091DE02159545
:100DD0000795159507952091DF0240E0BE018CEB49
:100DE00092E00E94C0122196E7CF8CEB92E00E9425
:100DF000C51061E070E080E090E00E94FD15C2CF78
:100E0000DF91CF911F910F9108954F925F926F9252
:100E10007F928F929F92AF92BF92CF92DF92EF928A
:100E2000FF920F931F93CF93DF93CDB7DEB75B0194
:100E3000FA010DB71EB78E5F9E4F3C01DC01ED90AD
:100E4000FC90E114F10409F466C0672B09F463C057
:100E5000309709F460C0CA016EEF70E00E94F71885
:100E6000CF010196680F791F8DB79EB7861B970B30
:100E70000FB6F8949EBF0FBE8DBF6DB77EB76F5F84
:100E80007F4F412C512C21E030E09924939480E055
:100E900090E0D5018D905D01BFEF4B1A5B0AA9016F
:100EA0004F5F5F4FA0E28A1206C0860F971FDC01DA
:100EB0009C92C90116C06B01C20ED31ED6018C9242
:100EC0009394BFEF9B1629F0E415F50569F09A019C
:100ED000E0CF860F971FDC019C92CA01A9014E5FEB
:100EE0005F4F99249394F0CFFB01E80FF91F908294
:100EF000D701ED91FC910280F381E02DC7010995A6
:100F0000F30180819181DC01ED91FC910190F081F0
:100F1000E02D60E209950FB6F8941EBF0FBE0DBF1D
:100F20000FB6F8941EBF0FBE0DBFDF91CF911F917A
:100F30000F91FF90EF90DF90CF90BF90AF909F9078
:100F40008F907F906F905F904F9008952F923F9277
:100F50004F925F926F927F928F929F92AF92BF92C9
:100F6000CF92DF92EF92FF920F931F93CF93DF9375
:100F700000D000D000D0CDB7DEB78C018DB79EB7C2
:100F80009A83898348019EEF891A990AD4018D9129
:100F90009C91892B09F4BCC0F801F3957F01C8012D
:100FA0008C5F9E4F9C838B8328019AEF491A9EEF9A
:100FB000590A80E2D82ED4018D919C91DC01ED91EB
:100FC000FC910480F581E02D0995181619060CF0A6
:100FD0009FC0F40180819181DC01ED91FC9106803C
:100FE000F781E02D0995803209F07FC0AB81BC818B
:100FF000ED91FC91309731F4D2018D919C91892B28
:1010000009F46FC06DB67EB6D7016D917C918DB736
:101010009EB7861B970B0FB6F8949EBF0FBE8DBF71
:1010200001966130710549F4D8012C91203341F4C7
:10103000DC012C9341E050E042C061157105E9F1FB
:1010400040E050E020E030E026173707C0F5D80137
:10105000A20FB31FCC90D901AC0DB11D6A177B074D
:1010600018F4B1E0CB1229C02F5F3F4F5801A20EF8
:10107000B31EDC01A40FB51FBE83AD8333243394AC
:101080003C1470F44F5F5F4F2F5F3F4FD5012D90A1
:101090005D01AD81BE812D92BE83AD833394F0CFCF
:1010A000BFEFCB1689F26217730771F2DC01A40F50
:1010B000B51FDC924F5F5F4FC7CF40E050E03097E5
:1010C00019F0BA01099508C0D201ED91FC91309751
:1010D00019F0BC01C80109950FB6F8947EBE0FBE89
:1010E0006DBEF7011182108266CFD7012D913C9120
:1010F0001197A9014F5F5F4F4F3F510511F008F065
:101100005ACF4D935C93F801E20FF31F808353CFC6
:10111000E981FA810FB6F894FEBF0FBEEDBF2696A7
:101120000FB6F894DEBF0FBECDBFDF91CF911F91F8
:101130000F91FF90EF90DF90CF90BF90AF909F9076
:101140008F907F906F905F904F903F902F90089579
:1011500084EB91E00C94A6072091140130911501C5
:1011600044E060E170E08CEB92E00E94A0121092EB
:10117000B5021092B4021092B7021092B602109209
:10118000B9021092B8021092BB021092BA0282EB1E
:1011900091E00C942D108CEB92E00C942E10462FC5
:1011A00050E0BC0184EB91E00E9405078EEE92E0D6
:1011B0000C943714CF93DF931F92CDB7DEB789839A
:1011C00061E0CE0101960E94CF080F90DF91CF9190
:1011D0000895CF93DF9320911201309113012817C6
:1011E000390709F44BC0EC010E94A406809112015A
:1011F000909113010197B9F0C230D10569F569E00A
:101200008CEB92E00E946E1260E084E00E94D9169E
:1012100060E088E00E94D91668EB7BE080E090E017
:101220000E94FD1503C0C230D105B1F461E088E031
:101230000E94D91664E08CEB92E00E946E128CEB57
:1012400092E00E9442108CEB92E00E948A138CEB99
:1012500092E00E94C51008C0C730D10529F484E689
:101260000E94DA080E94C304D0931301C0931201B4
:10127000249721F4DF91CF910C94C10ADF91CF9193
:10128000089583E00E940817209112013091130104
:101290002130310529F4892BA1F482E090E00FC0C0
:1012A0002230310541F48130910559F490931301B6
:1012B000809312010895019721F487E090E00C9447
:1012C000E908089514BE0FB6F894A89580916000BF
:1012D000886180936000109260000FBE61E084E13D
:1012E0000E949D1660E084E10E94D91661E08BE0C7
:1012F0000E949D1661E08BE00E94D91660E082E0BA
:101300000E949D1660E083E00E949D1661E082E0ED
:101310000E94D91661E088E00E949D160E94CC15BB
:101320006093E5027093E6028093E7029093E802EF
:101330000E9441090E94F40426E040E056E960E082
:1013400070E08EEE92E00E9459148EEE92E090933F
:10135000B7028093B60283E79DE09093B902809331
:10136000B8021092BB021092BA0208950F931F9315
:101370000E94CC150091E5021091E6022091E7024F
:101380003091E802DC01CB01801B910BA20BB30B67
:1013900020911201309113012730310541F4813140
:1013A0009742A105B105D8F081E090E014C04091CA
:1013B00011014423A1F0A9014150510942305105C6
:1013C00070F02430310559F081369A4EA105B105EF
:1013D00030F082E090E01F910F910C94E9081F918A
:1013E0000F9108956F927F928F929F92AF92BF92CA
:1013F000CF92DF92EF92FF920F931F93CF93DF93E1
:1014000080911201909113018230910519F0079794
:1014100009F0A8C00E94CC154B015C01C0E0D0E0EF
:10142000C12CD12C66246394712C8091120190916F
:1014300013018230910531F18730910521F01C169E
:101440001D0694F06CC00E94CC15DC01CB018819FC
:101450009909AA09BB0981349C49A105B10520F06D
:101460007092130160921201809112019091130108
:101470008230910539F0079729F01C161D062CF4CF
:10148000259704C0CF3FD1050CF425960E94A808EB
:101490000E94B6090E944109E12CF12C8CEB92E0EC
:1014A0000E948613E816F90660F58CEB92E00E9424
:1014B00086138C018CEB92E00E948613FC01C7011D
:1014C0008C199D09B8010E94F718282FCE01BF0181
:1014D0000E94F718269F402D1124809112019091AF
:1014E00013018730910511F00197B1F500E020E07C
:1014F000B7018CEB92E00E94C0128FEFE81AF80A55
:10150000CDCF8CEB92E00E94C5106AE070E080E0E5
:1015100090E00E94FD152FEFC21AD20A86CF0197E4
:1015200009F569E08CEB92E00E946E1260E084E0C5
:101530000E94D91660E088E0DF91CF911F910F9152
:10154000FF90EF90DF90CF90BF90AF909F908F90E3
:101550007F906F900C94D916042F06950695242F32
:1015600040E0C6CFDF91CF911F910F91FF90EF9098
:10157000DF90CF90BF90AF909F908F907F906F90B3
:101580000895DF92EF92FF920F931F93CF93DF9313
:1015900011E0EE24E39480911201909113010497DD
:1015A00051F50E94A808F12EFE24C0E0D0E0DF2C07
:1015B000D1948CEB92E00E948613C817D90750F49F
:1015C00000E020E04D2DBE018CEB92E00E94C012A5
:1015D0002196EFCF8CEB92E00E94C51064E670E09C
:1015E00080E090E00E94FD15111102C01F2DD3CFA5
:1015F0000E94B609FBCFDF91CF911F910F91FF9011
:10160000EF90DF900895CF931092E0021092DF02E6
:101610001092DE021092DD028CEB92E00E948613A3
:10162000CFEFC80FC7FD0DC06C2F0C2E000C770B31
:1016300020E030E0A9018CEB92E00E941113C15030
:10164000F1CF8CEB92E00E94C51083E090E00E9405
:10165000E90884E7CF910C94DA08EF92FF920F9398
:101660001F93CF93DF93CDB7DEB760970FB6F89493
:10167000DEBF0FBECDBF8E010F5F1F4F80E1F801AF
:1016800011928A95E9F780E090E0AFEFB0E08983AE
:101690009A83AB83BC8380E098E8AFEFB0E08D83A2
:1016A0009E83AF83B88780E09FEFA0E0B0E089879A
:1016B0009A87AB87BC870E94A4067E01FDE0EF0EEF
:1016C000F11CF80161917191819191918F010E94BA
:1016D00065050E151F05A9F78FEF90E09093E002C6
:1016E0008093DF021092DE021092DD0260960FB648
:1016F000F894DEBF0FBECDBFDF91CF911F910F9148
:10170000FF90EF900C94030B0F931F938091ED02C9
:10171000882349F18091120190911301892B19F5C9
:101720000E94CC150091E9021091EA022091EB028F
:101730003091EC02DC01CB01801B910BA20BB30BAF
:1017400088399A43A105B10570F00E94CC156093C9
:10175000E9027093EA028093EB029093EC021F91EE
:101760000F910C942D0B1F910F9108950F931F93C0
:101770008091120190911301009721F00597029733
:1017800008F045C082E00E940817892B09F03FC08D
:101790000E94CC150091E1021091E2022091E30237
:1017A0003091E402DC01CB01801B910BA20BB30B47
:1017B000883E9340A105B10550F10E94CC1560937D
:1017C000E1027093E2028093E3029093E40280913D
:1017D000120190911301009721F41F910F910C9425
:1017E0002D0B8530910541F483E090E09093130137
:1017F0008093120183E607C0069749F41092130103
:101800001092120181E61F910F910C94DA081F913A
:101810000F9108953F924F925F926F927F928F92B5
:101820009F92AF92BF92CF92DF92EF92FF920F936F
:101830001F93CF93DF9300D000D01F92CDB7DEB7B8
:1018400020911201309113013A83298310E0512C29
:10185000412C312CC12CD12C80911201909113017B
:101860000597029760F020E030E0A901612F752D07
:10187000842D932D0E94851818160CF0E2C00E944A
:10188000A8080E94B60B0E94410980911201909114
:10189000130105970297A8F520E030E040E85FE3E8
:1018A000612F752D842D932D0E949F1787FF57C0A0
:1018B000212F352D442D532D60E070E080E89FE30B
:1018C0000E943217F62E072F8D839B832DEC3CEC64
:1018D0004CEC5DE30E949F1787FF02C08F2D06C06E
:1018E0008DEC0CEC3CEC3D839DE39B83282F302F4B
:1018F0004D815B81612F752D842D932D0E943317AF
:101900002AC020E030E0A901612F752D842D932D90
:101910000E94851818161CF52DEC3CEC4CEC5CE391
:10192000612F752D842D932D0E949F1787FF05C071
:10193000712F652D942D832D04C07DEC6CEC9CECF7
:101940008CE3272F362F492F582F612F752D842D8B
:10195000932D0E943217162F572E482E392E5601DE
:10196000E12CF12C8CEB92E00E948613E816F9062C
:1019700008F059C0F501EF73FF27EE0FFF1FEF5D71
:10198000FE4F2081318133273C832B8389819A81CB
:10199000059739F4B9017595679575956795062F83
:1019A00001C000E08CEB92E00E9486132091D302EC
:1019B0004701821A9108880E991E8CEB92E00E94D2
:1019C00086133C01602F70E080E090E00E94D51704
:1019D000212F352D442D532D0E948A180E94A417C3
:1019E000062F2B813C81B901330F880B990B0E9484
:1019F000D517212F352D442D532D0E948A180E9472
:101A0000A417262FC401B3010E94F71840E0BC01BF
:101A10008CEB92E00E94C0123FEFE31AF30A88E0D9
:101A2000A80EB11C9FCF8CEB92E00E94C51065E020
:101A300070E080E090E00E94FD159FEFC91AD90A7E
:101A40000BCF0F900F900F900F900F90DF91CF91D1
:101A50001F910F91FF90EF90DF90CF90BF90AF90CC
:101A60009F908F907F906F905F904F903F900895E0
:101A70000E94840B0E94B60B0E9441090E940A0C2E
:101A80000E94F2090E94A8080E94B6090C94480618
:101A9000CF93DF93CDB7DEB72C970FB6F894DEBFA8
:101AA0000FBECDBF84E289838BE0E1EDF2E0DE0181
:101AB000129601900D928A95E1F74CE050E0BE013C
:101AC0006F5F7F4F84EB91E00E9405078EEE92E0FE
:101AD0000E9437142C960FB6F894DEBF0FBECDBF10
:101AE000DF91CF9108950F931F93CF93DF93EC0174
:101AF0006115710509F449C198819F3309F42BC11F
:101B0000B0F49E3209F49DC040F4933269F19432EE
:101B1000A9F1913209F039C10DC19C3309F46FC0AC
:101B20009E3309F471C0903309F02FC125C1963658
:101B300009F4D6C050F4933509F4DEC0913609F4A7
:101B4000A5C09C3409F021C10CC19B3609F4BBC06F
:101B500020F4993609F4DEC018C1903709F4A5C005
:101B6000933709F4D1C011C16130710509F00DC17D
:101B7000DF91CF911F910F910C9432056C3071055C
:101B800021F062E088E191E012C08E010F5F1F4FEB
:101B900049E050E0B80182EB91E00E9426102A85CE
:101BA0003B858217930749F062E08BE191E0DF917A
:101BB000CF911F910F910C94CF08C8010E949304FC
:101BC000811104C062E08EE191E0F1CF4BE050E082
:101BD000B80181ED92E00E94681A892B71F081E0D2
:101BE0008093DC028BE0FE013196A1EDB2E0019022
:101BF0000D928A95E1F70E94AB048BE650C080916C
:101C0000D30290E0019704C08091D30290E0019646
:101C10006091D20270E00E940B198093D30249E0D8
:101C200050E061ED72E082EB91E00E94261090930B
:101C3000DB028093DA0281E08093DC0280E991E0AC
:101C400095C06130710509F0A0C084E10E940817B9
:101C500061E0892B09F060E084E10E94D9160E94BE
:101C6000CC156093E5027093E6028093E7029093AF
:101C7000E80280911201909113018230910519F0D0
:101C8000049709F082C080E090E030C061307105B7
:101C900009F07BC086E090E00E94E90881E4DF91D2
:101CA000CF911F910F910C94DA086130710509F002
:101CB0006CC08091120190911301039709F065C0E7
:101CC00085E090E013C06130710509F05EC080913D
:101CD0001201909113010397039708F056C0D3CFD8
:101CE0006130710509F051C084E090E0DF91CF913F
:101CF0001F910F910C94E9086130710509F045C0FE
:101D000081E08093ED0241C061307105F1F51092E0
:101D1000ED023BC061307105C1F562E68EEE92E0E6
:101D20000E94F0138EEE92E0DF91CF911F910F9100
:101D30000C9437146230710541F581E0998191115D
:101D400001C080E0809311018091120190911301F4
:101D5000892BD9F098CFDF91CF911F910F910C94DF
:101D6000480D6330710589F489819A81DF91CF91A3
:101D70001F910F910C94C9056130710531F4DF9109
:101D8000CF911F910F910C943E06DF91CF911F913F
:101D90000F9108954F925F926F927F928F929F92D0
:101DA000AF92BF92CF92DF92EF92FF920F931F9369
:101DB000CF93DF93FC0120813181DB01FD01BD0167
:101DC00063707727672B19F48A01ED0115C041155F
:101DD000510509F416C1C32FDD271196E081F0E00B
:101DE000E227EE0FFF1FE859FF4F259134912C2772
:101DF0003D2741505109E2CF0031110508F4DDC003
:101E00000051110988809980AA80BB802825392536
:101E1000F901FF27EE0FFF1FE859F94FC590D49045
:101E2000232F3327F901EE0FFF1FE859FB4F659170
:101E300074914A2C512C612C712CFFEF5F1A6F0AA0
:101E40007F0AF201EE0FFF1FE859FF4F25913491F1
:101E50008B2C9924AA24BB24F401EE0FFF1FE85910
:101E6000FF4FE590F4908C809D80AE80BF806C2504
:101E70007D256825792526273727E226F326F701D1
:101E8000FF27EE0FFF1FE859F94F65907490EF2D73
:101E9000FF27EE0FFF1FE859FB4F65917491CA2C85
:101EA000D12CE12CF12C2FEFD21AE20AF20AF60122
:101EB000EE0FFF1FE859FF4F259134918B2C992489
:101EC000AA24BB24F401EE0FFF1FE859FF4FE59051
:101ED000F49088849984AA84BB8466257725682534
:101EE000792526273727E226F326F701FF27EE0F6D
:101EF000FF1FE859F94FC590D490EF2DFF27EE0F43
:101F0000FF1FE859FB4F659174914A2C512C612CAD
:101F1000712CEFEF5E1A6E0A7E0AF201EE0FFF1FC0
:101F2000E859FF4F259134918B2C9924AA24BB2486
:101F3000F401EE0FFF1FE859FF4FE590F4908C84F9
:101F40009D84AE84BF846C257D2568257925262750
:101F50003727E226F326F701FF27EE0FFF1FE85988
:101F6000F94F65907490EF2DFF27EE0FFF1FE85992
:101F7000FB4F65917491CA2CD12CE12CF12CFFEF11
:101F8000DF1AEF0AFF0AF601EE0FFF1FE859FF4FB5
:101F9000259134918B2C9924AA24BB24F401EE0FB3
:101FA000FF1FE859FF4FE590F49066257725262717
:101FB00037272E253F2560961FCFBA01E4E076959E
:101FC0006795EA95E1F7FB01C4E0EE0FFF1FCA95A4
:101FD000E1F7AE0FBF1F4E1B5F0BED01C40FD51F06
:101FE000CA17DB0771F0032F1127ED91F0E0E2270C
:101FF000EE0FFF1FE859FF4F25913491202731271D
:10200000EFCFFC0131832083A90160E070E0B62F9F
:10201000A52F942F8827AA27BB27452F562F672F38
:102020007727842B952BA62BB72BDF91CF911F9170
:102030000F91FF90EF90DF90CF90BF90AF909F9067
:102040008F907F906F905F904F9008952FEF3FEFAC
:10205000FC01318320830C94CA0E0895CF93DF9343
:10206000EC0188859985009711F00E94DF198E8117
:1020700087FD05C060E0DF91CF910C949D16DF9144
:10208000CF910895CF93DF93EC018E8187FD07C038
:1020900061E00E949D1660E08E810E94D91681E069
:1020A0008983DF91CF910895EF92FF920F931F9351
:1020B000CF93DF93EC017B0188859985009711F020
:1020C0000E94DF199D858A85981719F084E090E0B9
:1020D00002C083E090E08E9D80018F9D100D9E9D3B
:1020E000100D11241D830C83C8010E944719998784
:1020F0008887009741F0A80160E070E00E94751A9F
:10210000FB82EA8204C01D821C821B821A82DF913C
:10211000CF911F910F91FF90EF900895FC0131E056
:1021200095858285981330E0CB0126E096958795BA
:102130002A95E1F7282F23702587CB0144E0969557
:1021400087954A95E1F783708287AB01569547954D
:102150005695479543704387962F9370948791E0E7
:102160006F3F710511F008F090E090834085518534
:10217000452B51F091E0281390E0391729F0628146
:102180007381CF010C9454100895CF92DF92EF9297
:10219000FF920F931F93CF93DF93CDB7DEB72997AD
:1021A0000FB6F894DEBF0FBECDBF8C01DC011896D0
:1021B0008D919C911997892B09F481C10E94D815A2
:1021C000F801C684D784E088F188DC01CB018C1942
:1021D0009D09AE09BF098C329140A105B10570F38C
:1021E000F894D80114968D919C9115979A838983C0
:1021F00018960D90BC91A02D7D01EFEFEE1AFE0A0E
:102200008C918987D8018C9152960D90BC91A02D0C
:10221000882309F41AC11D82AB32B10509F059C0F7
:102220009BB1F8018489982B98879BB1809589236D
:102230008F838F818E83898587FF02C088858E83F7
:1022400058856F8149853E812D8189819A81D70189
:102250005BB9262F3BB900C046FD252F6BB900C0E6
:102260005BB9362F2BB900C045FD352F6BB900C0C7
:102270005BB9262F3BB900C044FD252F6BB900C0C8
:102280005BB9362F2BB900C043FD352F6BB900C0A9
:102290005BB9262F3BB900C042FD252F6BB900C0AA
:1022A0005BB9362F2BB900C041FD352F6BB900C08B
:1022B0005BB9262F3BB900C040FD252F6BB90197B4
:1022C0005BB9362F2BB94D9147FD352F6BB901F610
:1022D000B8C0A532B10509F059C095B1F80184899B
:1022E000982B988795B1809589238F838F818E83D2
:1022F000898587FF02C088858E8358856F814985CF
:102300003E812D8189819A81D70155B9262F35B912
:1023100000C046FD252F65B900C055B9362F25B937
:1023200000C045FD352F65B900C055B9262F35B918
:1023300000C044FD252F65B900C055B9362F25B919
:1023400000C043FD352F65B900C055B9262F35B9FA
:1023500000C042FD252F65B900C055B9362F25B9FB
:1023600000C041FD352F65B900C055B9262F35B9DC
:1023700000C040FD252F65B9019755B9362F25B905
:102380004D9147FD352F65B901F65BC0989709F06F
:102390008CC098B1F8018489982B988798B1809562
:1023A00089238F838F818E83898587FF02C08885EB
:1023B0008E8358856F8149853E812D8189819A81DF
:1023C000D70158B9262F38B900C046FD252F68B966
:1023D00000C058B9362F28B900C045FD352F68B95F
:1023E00000C058B9262F38B900C044FD252F68B960
:1023F00000C058B9362F28B900C043FD352F68B941
:1024000000C058B9262F38B900C042FD252F68B941
:1024100000C058B9362F28B900C041FD352F68B922
:1024200000C058B9262F38B900C040FD252F68B923
:10243000019758B9362F28B94D9147FD352F68B906
:1024400001F649873E832D832EC09C91F801848933
:10245000982B98879C91809589238F838F818C837B
:1024600088E08B8358856F8149853B812C818981E8
:102470009A81F7015C9347FD252F2C93262F3A95DF
:1024800031F0441F6C9300C000C000C0F3CF6C93C8
:10249000000038E04191019769F7F801B38BA28BF6
:1024A00049873B832C839A83898378940E94D8152B
:1024B000D8011E966D937D938D939C935197299689
:1024C0000FB6F894DEBF0FBECDBFDF91CF911F9145
:1024D0000F91FF90EF90DF90CF9008951F93CF93CF
:1024E000DF93EC01162F8981882331F08E8187FDDF
:1024F00003C060E00E949D161E838981882341F0FD
:1025000061E0812F0E949D1660E0812F0E94D91604
:10251000812F90E0FC01EA56F74FE491F0E0EE0FD6
:10252000FF1FE954F74F259134913B8B2A8BFC0117
:10253000E158F74FE491EC8BDF91CF911F91089513
:10254000EF92FF921F93CF93DF93EC017B01142F47
:1025500019821F82198618861E861F86188A198A74
:10256000B9010E948E10B701CE010E945410612F54
:10257000CE01DF91CF911F91FF90EF900C946E12DE
:102580000F931F93DC0112968D919C9113976817FE
:10259000790708F043C017968C911797882361F04C
:1025A000489FA0011124452F829F90011124232FC1
:1025B000809F80011124012F1D968C911D971A96E2
:1025C0009C911A971896ED91FC911997891308C060
:1025D000CB01880F991F680F791F6E0F7F1F0AC0EC
:1025E000660F771F660F771F6E0F7F1FFB01E80FC7
:1025F000F11D10821A968C911A97FB01E80FF11DBC
:1026000040831B968C911B97FB01E80FF11D2083E3
:102610001C968C91FB01E80FF11D00831F910F9117
:1026200008957F928F929F92AF92BF92CF92DF9246
:10263000EF92FF920F931F93CF93DF93FC01828160
:1026400093816817790708F053C04A01AA24BB2474
:10265000782CC32ED42EE52EFF24BC2DA22F8781EB
:10266000882361F0889E40011124792C8C9D6001A3
:102670001124BD2D829F70011124AF2D9585D28527
:10268000E084F1849D1308C0CB01880F991F680F67
:10269000791F6E0D7F1D1CC0660F771F660F771F99
:1026A0006E0D7F1D052F1127222733277B01E90E91
:1026B000F11C811102C0202F09C090E0809F6001B1
:1026C000819FD00C909FD00C11242D2DE7012883E1
:1026D00082859B01280F311DE90178828385EB01FA
:1026E000C80FD11DB8838485FB01E80FF11DA083BD
:1026F000DF91CF911F910F91FF90EF90DF90CF90DE
:10270000BF90AF909F908F907F900895FC01828141
:1027100093810895FC014481558160E070E08085DB
:1027200091850C94751AFC01918D228D892F90E072
:10273000805C9F4F821B91098F7399270895FC013C
:10274000918D828D981731F0828DE80FF11D858D66
:1027500090E008958FEF9FEF0895FC01918D828D99
:10276000981761F0828DDF01A80FB11D5D968C91E5
:10277000928D9F5F9F73928F90E008958FEF9FEFF0
:10278000089581E195E1892B49F080E090E0892B63
:1027900029F00E94111581110C9400000895FC018C
:1027A000848DDF01A80FB11DA35ABF4F2C91848DDA
:1027B00090E001968F739927848FA689B7892C930F
:1027C000A089B1898C9180648C93938D848D9813AA
:1027D00006C00288F389E02D80818F7D8083089573
:1027E000EF92FF920F931F93CF93DF93EC0181E061
:1027F000888F9B8D8C8D981305C0E889F98980811D
:1028000085FD24C0F62E0B8D10E00F5F1F4F0F7358
:102810001127E02E8C8DE8120CC00FB607FCFACF02
:10282000E889F989808185FFF5CFCE010E94CF1319
:10283000F1CF8B8DFE01E80FF11DE35AFF4FF082BF
:102840000B8FEA89FB898081806207C0EE89FF894E
:102850006083E889F98980818064808381E090E0E9
:10286000DF91CF911F910F91FF90EF900895CF933B
:10287000DF93EC01888D8823C9F0EA89FB89808188
:1028800085FD05C0A889B9898C9186FD0FC00FB65A
:1028900007FCF5CF808185FFF2CFA889B9898C919B
:1028A00085FFEDCFCE010E94CF13E7CFDF91CF910F
:1028B0000895CF92DF92EF92FF921F93CF93DF9311
:1028C000EC016A017B01122F60E874E88EE190E070
:1028D000A70196010E941F19DA01C9010197A109F8
:1028E000B109B695A795979587959C01E889F989CF
:1028F00082E08083211580E13807A8F0E889F98912
:10290000108260E472E48FE090E0A70196010E94DB
:102910001F19DA01C9010197A109B109B695A79557
:10292000979587959C01EC85FD853083EE85FF8525
:102930002083188EEC89FD891083EA89FB898081C8
:1029400080618083EA89FB89808188608083EA894D
:10295000FB89808180688083EA89FB8980818F7D03
:102960008083DF91CF911F91FF90EF90DF90CF9008
:1029700008951F920F920FB60F9211242F938F93E9
:102980009F93EF93FF93E091FE02F091FF0280810D
:10299000E0910403F091050382FD12C090818091C3
:1029A00007038F5F8F7320910803821751F0E09126
:1029B0000703F0E0E251FD4F958F8093070301C0BC
:1029C0008081FF91EF919F918F912F910F900FBE7A
:1029D0000F901F9018951F920F920FB60F9211240F
:1029E0002F933F934F935F936F937F938F939F9317
:1029F000AF93BF93EF93FF938EEE92E00E94CF13BD
:102A0000FF91EF91BF91AF919F918F917F916F91C6
:102A10005F914F913F912F910F900FBE0F901F909C
:102A200018958EEE92E00E94931321E0892B09F411
:102A300020E0822F0895EEEEF2E01382128288EEFB
:102A400093E0A0E0B0E084839583A683B78385EA12
:102A500091E09183808385EC90E09587848784EC76
:102A600090E09787868780EC90E0918B808B81EC5B
:102A700090E0938B828B82EC90E0958B848B86EC3C
:102A800090E0978B868B118E128E138E148E089584
:102A9000CF92DF92EF92FF920F931F93CF93DF932A
:102AA0006C017A018B01C0E0D0E0CE15DF0581F02A
:102AB000D8016D918D01D601ED91FC910190F081CD
:102AC000E02DC6010995892B11F02196EECF7E01EC
:102AD000C701DF91CF911F910F91FF90EF90DF9091
:102AE000CF90089508950E9439160E9472150E9491
:102AF0006209C1ECD3E10E94380D2097E1F30E94F6
:102B0000C113F9CF1F920F920FB60F9211242F937A
:102B10003F938F939F93AF93BF9380918C0390913A
:102B20008D03A0918E03B0918F0330918B0326E02B
:102B3000230F2D3720F40296A11DB11D05C029E8F1
:102B4000230F0396A11DB11D20938B0380938C034B
:102B500090938D03A0938E03B0938F038091900385
:102B600090919103A0919203B09193030196A11DBE
:102B7000B11D8093900390939103A0939203B0931F
:102B80009303BF91AF919F918F913F912F910F90A0
:102B90000FBE0F901F9018952FB7F89460918C037B
:102BA00070918D0380918E0390918F032FBF0895B4
:102BB0003FB7F8948091900390919103A091920374
:102BC000B091930326B5A89B05C02F3F19F001963D
:102BD000A11DB11D3FBFBA2FA92F982F8827820FA3
:102BE000911DA11DB11DBC01CD0143E0660F771FF2
:102BF000881F991F4A95D1F708958F929F92AF929F
:102C0000BF92CF92DF92EF92FF926B017C010E9404
:102C1000D8154B015C01C114D104E104F10401F1A8
:102C20000E9431170E94D815DC01CB01881999093F
:102C3000AA09BB09883E9340A105B10560F321E0D4
:102C4000C21AD108E108F10888EE880E83E0981EC8
:102C5000A11CB11CC114D104E104F10419F7DBCFAC
:102C6000FF90EF90DF90CF90BF90AF909F908F90AC
:102C70000895789484B5826084BD84B5816084BDF4
:102C800085B5826085BD85B5816085BDEEE6F0E0E5
:102C9000808181608083E1E8F0E010828081826041
:102CA0008083808181608083E0E8F0E080818160C2
:102CB0008083E1EBF0E0808184608083E0EBF0E0F2
:102CC000808181608083EAE7F0E080818460808396
:102CD00080818260808380818E7F80838081806814
:102CE00080831092C1000895843081F028F48230EE
:102CF00099F08330A1F008958830A9F08930B9F0B7
:102D00008530D1F4809180008F7D03C08091800058
:102D10008F7780938000089584B58F7702C084B543
:102D20008F7D84BD08958091B0008F7703C080911E
:102D3000B0008F7D8093B0000895CF93DF9390E033
:102D4000FC01E158F74F2491FC01EA56F74F8491BA
:102D5000882361F190E0880F991FFC01EF53F74F32
:102D6000C591D491FC01E954F74FA591B49161113B
:102D700009C09FB7F8948881209582238883EC91BD
:102D80002E230BC0623061F49FB7F8948881322FF4
:102D9000309583238883EC912E2B2C939FBF06C004
:102DA0008FB7F894E8812E2B28838FBFDF91CF91C6
:102DB00008951F93CF93DF93282F30E0F901E8594E
:102DC000F74F8491F901E158F74FD491F901EA5690
:102DD000F74FC491CC23C1F0162F81110E947416B5
:102DE000EC2FF0E0EE0FFF1FE954F74FA591B491DF
:102DF0009FB7F894111104C08C91D095D82302C0CC
:102E0000EC91DE2BDC939FBFDF91CF911F91089552
:102E1000CF93DF93282F30E0F901E859F74F8491E1
:102E2000F901E158F74FD491F901EA56F74FC491EF
:102E3000CC2391F081110E947416EC2FF0E0EE0F7C
:102E4000FF1FE355F74FA591B491EC91ED2381E07D
:102E500090E021F480E002C080E090E0DF91CF912B
:102E6000089508955058BB27AA270E944A170C942A
:102E70004B180E943D1838F00E94441820F039F495
:102E80009F3F19F426F40C943A180EF4E095E7FBF2
:102E90000C943418E92F0E945C1858F3BA17620793
:102EA00073078407950720F079F4A6F50C947E1833
:102EB0000EF4E0950B2EBA2FA02D0B01B901900155
:102EC0000C01CA01A0011124FF27591B99F0593F99
:102ED00050F4503E68F11A16F040A22F232F342FE1
:102EE0004427585FF3CF469537952795A795F0402F
:102EF0005395C9F77EF41F16BA0B620B730B840B44
:102F0000BAF09150A1F0FF0FBB1F661F771F881FFB
:102F1000C2F70EC0BA0F621F731F841F48F4879553
:102F200077956795B795F7959E3F08F0B0CF939545
:102F3000880F08F09927EE0F9795879508950E94BE
:102F4000101808F481E008950E94641888F09F57D3
:102F500098F0B92F9927B751B0F0E1F0660F771FBD
:102F6000881F991F1AF0BA95C9F714C0B13091F0B3
:102F70000E947E18B1E008950C947E18672F782F78
:102F80008827B85F39F0B93FCCF386957795679578
:102F9000B395D9F73EF490958095709561957F4FE4
:102FA0008F4F9F4F0895E89409C097FB3EF490958A
:102FB0008095709561957F4F8F4F9F4F9923A9F012
:102FC000F92F96E9BB279395F695879577956795A1
:102FD000B795F111F8CFFAF4BB0F11F460FF1BC0E5
:102FE0006F5F7F4F8F4F9F4F16C0882311F096E978
:102FF00011C0772321F09EE8872F762F05C0662326
:1030000071F096E8862F70E060E02AF09A95660FDE
:10301000771F881FDAF7880F9695879597F9089597
:10302000990F0008550FAA0BE0E8FEEF16161706D9
:10303000E807F907C0F012161306E407F50798F041
:10304000621B730B840B950B39F40A2661F0232B5A
:10305000242B252B21F408950A2609F4A140A695D6
:103060008FEF811D811D089597F99F6780E870E0BB
:1030700060E008959FEF80EC089500240A941616EE
:10308000170618060906089500240A941216130656
:10309000140605060895092E0394000C11F48823E4
:1030A00052F0BB0F40F4BF2B11F460FF04C06F5F00
:1030B0007F4F8F4F9F4F089557FD9058440F551FD6
:1030C00059F05F3F71F04795880F97FB991F61F0AA
:1030D0009F3F79F087950895121613061406551F21
:1030E000F2CF4695F1DF08C0161617061806991F8D
:1030F000F1CF86957105610508940895E894BB2782
:1031000066277727CB0197F908950E94101808F4D5
:103110008FEF08950E949D180C944B180E943D1843
:1031200038F00E94441820F0952311F00C943418C4
:103130000C943A1811240C947F180E945C1870F3B8
:10314000959FC1F3950F50E0551F629FF001729F4C
:10315000BB27F00DB11D639FAA27F00DB11DAA1F5B
:10316000649F6627B00DA11D661F829F2227B00DA8
:10317000A11D621F739FB00DA11D621F839FA00D33
:10318000611D221F749F3327A00D611D231F849F83
:10319000600D211D822F762F6A2F11249F575040DA
:1031A0009AF0F1F088234AF0EE0FFF1FBB1F661F55
:1031B000771F881F91505040A9F79E3F510580F01E
:1031C0000C9434180C947F185F3FE4F3983ED4F3CA
:1031D000869577956795B795F795E7959F5FC1F7C2
:1031E000FE2B880F911D9695879597F90895AA1B38
:1031F000BB1B51E107C0AA1FBB1FA617B70710F0E2
:10320000A61BB70B881F991F5A95A9F78095909513
:10321000BC01CD01089597FB072E16F4009407D04A
:1032200077FD09D00E94F71807FC05D03EF4909571
:1032300081959F4F0895709561957F4F0895A1E204
:103240001A2EAA1BBB1BFD010DC0AA1FBB1FEE1F20
:10325000FF1FA217B307E407F50720F0A21BB30B6B
:10326000E40BF50B661F771F881F991F1A9469F7E7
:1032700060957095809590959B01AC01BD01CF0143
:103280000895EE0FFF1F0590F491E02D09940F9320
:103290001F93CF93DF938230910510F482E090E08A
:1032A000E0919603F091970320E030E0A0E0B0E0D9
:1032B000309719F1408151810281138148175907D4
:1032C000C8F08417950769F4109731F012960C93A3
:1032D000129713961C9327C000939603109397039D
:1032E00022C02115310519F04217530718F49A012D
:1032F000BD01EF01DF01F801DBCF21153105F9F048
:10330000281B390B2430310580F48A819B8161159B
:10331000710521F0FB019383828304C0909397038E
:1033200080939603FE01329644C0FE01E20FF31F24
:103330008193919322503109398328833AC0209197
:10334000940330919503232B41F420910201309195
:103350000301309395032093940320910001309151
:1033600001012115310541F42DB73EB7409104010B
:1033700050910501241B350BE0919403F0919503C6
:10338000E217F307A0F42E1B3F0B2817390778F03C
:10339000AC014E5F5F4F2417350748F04E0F5F1F9B
:1033A00050939503409394038193919302C0E0E07E
:1033B000F0E0CF01DF91CF911F910F910895CF934E
:1033C000DF93009709F481C0FC01329713821282C7
:1033D000A0919603B0919703109781F420813181D9
:1033E000820F931F2091940330919503281739077A
:1033F00051F5F0939503E093940367C0ED0120E04D
:1034000030E0CE17DF0740F44A815B819E01411511
:103410005105F1F0EA01F5CFD383C2834081518198
:10342000840F951FC817D90759F488819981840F93
:10343000951F0296918380838A819B8193838283E7
:103440002115310529F4F0939703E09396033DC0CD
:10345000E901FB83EA8349915991C40FD51FEC1709
:10346000FD0761F480819181840F951F0296E90127
:1034700099838883828193819B838A83E0E0F0E053
:1034800012968D919C911397009719F0FD01DC0124
:10349000F7CF8D919C9111979D012E5F3F4F820F29
:1034A000931F20919403309195032817390769F4ED
:1034B000309729F4109297031092960302C013825A
:1034C0001282B0939503A0939403DF91CF91089556
:1034D000FB01DC0104C08D910190801921F4415061
:1034E0005040C8F7881B990B0895DC0101C06D930B
:1034F00041505040E0F70895F999FECF92BD81BD4B
:10350000F89A992780B50895262FF999FECF1FBA0A
:1035100092BD81BD20BD0FB6F894FA9AF99A0FBEFC
:103520000196089514E0C8E6D4E004C0FE010E94AC
:0E35300041192196C936D107C9F7F894FFCF8B
:10353E00000098038000001000B80B102700000058
:10354E00000101005200D2004531004532004533E2
:10355E0000400046004C00520058005D00630068B9
:10356E00006C007100740078007A007C007E007F91
:10357E00007F007F007E007C007A0078007400716E
:10358E00006C00680063005D00580052004C00465D
:10359E00004000390033002D00270022001C0017C8
:1035AE000013000E000B00070005000300010000D1
:1035BE00000000000001000300050007000B000ED4
:1035CE0000130017001C00220027002D00330039C5
:1035DE000000000000F01348159313AD139F13372E
:0235EE001400C7
:00000001FF
