:100000000C9469000C9491000C9491000C94910054
:100010000C9491000C9491000C9491000C9491001C
:100020000C9491000C9491000C9491000C9491000C
:100030000C9491000C9491000C9491000C949100FC
:100040000C94550F0C9491000C948C0E0C94BE0ED5
:100050000C9491000C9491000C9491000C949100DC
:100060000C9491000C949100000000090003020020
:10007000000405080000000000000000000000016E
:10008000020408102040800102040810200102042C
:100090000810204080400404040404040404020204
:1000A000020202020303030303030202030000002F
:1000B0000023002600290000000000250028002B56
:1000C0000000000000240027002A00000604EE0EB5
:1000D000220411241FBECFEFD8E0DEBFCDBF11E058
:1000E000A0E0B1E0E0ECF8E202C005900D92A23A87
:1000F000B107D9F723E0A2EAB1E001C01D92A6380A
:10010000B207E1F710E0C8E6D0E004C02197FE0195
:100110000E940F13C636D107C9F70E94460F0C94F0
:1001200053140C9400009091C702981719F091E0B5
:100130009093C8028093C702E82FF0E0EE0FFF1FF4
:10014000E35FFE4F608171818EEA92E00C94610A58
:10015000DC01ED91FC910190F081E02D09948091FA
:10016000C802882331F06091C70284E090E00E94C9
:1001700045148091C602882331F06091C50283E066
:1001800090E00E9445148091C402882331F0609170
:10019000C30285E090E00E9445141092C8021092BC
:1001A000C6021092C40208958B3008F08AE0909144
:1001B000C302981719F091E09093C4028093C30290
:1001C00048EE53E0849F9001859F300D1124C901B2
:1001D000330FAA0BBB0B8093070190930801A093E8
:1001E0000901B0930A010895CF92DF92EF92FF9236
:1001F0000F931F938091A2019091A301A091A4015C
:10020000B091A501B7FD2DC068E070E080E090E0FE
:100210000E94D00F60E08BE00E94AC100E94AB0FF8
:100220006B017C010E94AB0FDC01CB018C199D0995
:10023000AE09BF090091A2011091A3012091A40170
:100240003091A50180179107A207B30758F361E029
:100250008BE01F910F91FF90EF90DF90CF900C9467
:10026000AC101F910F91FF90EF90DF90CF90089509
:100270008132910510F080E290E02091C50230E0DB
:100280002817390719F021E02093C6028093C50290
:10029000BC018EEA92E00C94270A823010F40C9490
:1002A000930008954F925F926F927F928F929F92E8
:1002B000AF92BF92CF92DF92EF92FF92CF93DF93F4
:1002C0006B017C018090070190900801A0900901CA
:1002D000B0900A018EEA92E00E94590D9C01220F13
:1002E000331F820F931F9C0140E050E0C501B40111
:1002F0000E94DE1229013A018EEA92E00E94590D15
:10030000BB24BA94B80EB7FC2EC08EEA92E00E94CD
:10031000590D2091C9023091CA02CB2D0B2C000C33
:10032000DD0BC21BD30BC80FD91F8EEA92E00E94CF
:10033000590DBC01CE010E94CA12A7019601BC0151
:100340008EEA92E00E94E40C8EEA92E00E94980A03
:10035000411451046104710421F0C301B2010E94EF
:10036000D00FBA94D0CFDF91CF91FF90EF90DF9074
:10037000CF90BF90AF909F908F907F906F905F9045
:100380004F9008950F931F93CF93DF9310E0C12FE9
:10039000012E000CDD0B8EEA92E00E94590DC81769
:1003A000D90708F03FC08EEA92E00E94590D0197EC
:1003B000C817D907C9F48EEA92E00E94590D20911E
:1003C000C9023091CA02C21BD30BC80FD91F8EEAD3
:1003D00092E00E94590DBC01CE010E94CA1220E099
:1003E0003FEF40E050E017C08EEA92E00E94590DC6
:1003F0002091C9023091CA02C21BD30BC80FD91F6A
:100400008EEA92E00E94590DBC01CE010E94CA12F0
:1004100020E030E0A901BC018EEA92E00E94E40CE9
:100420001F5FB5CF8EEA92E00E94980A68EE73E0F3
:1004300080E090E00E94D00FC0E00C2F0C2E000C4A
:10044000110B8EEA92E00E94590D0817190750F41B
:1004500020E030E0A901B8018EEA92E00E94E40CAD
:10046000CF5FEBCF8EEA92E0DF91CF911F910F919A
:100470000C94980AF8941092B0001092800014BC6A
:1004800014BEE0E0FFE309940F931F93CF93DF9333
:1004900080910B0190910C01892B09F050C0809143
:1004A000CD029091CE0201968F3F910511F481E02B
:1004B0009FEF9093CE028093CD028091CD029091D8
:1004C000CE029093CC028093CB02C0E0D0E08EEAC3
:1004D00092E00E94590DC817D90738F52091CD0236
:1004E0003091CE02C90182509F4F8D3F914030F430
:1004F00037FF05C031952195310901C02FEF022F3B
:1005000010E0159507951595079540E0BE018EEA18
:1005100092E00E94930C8EEA92E00E94980A8EEA82
:1005200092E00E94980A2196D2CF65E070E080E0C8
:1005300090E0DF91CF911F910F910C94D00FDF913C
:10054000CF911F910F9108950F931F93CF93DF9336
:100550008091CD029091CE0297FF03C09195819535
:1005600091099093CE028093CD028091CB0290911D
:10057000CC0297FF03C09195819591099093CC028D
:100580008093CB028091CD029091CE02181619066D
:10059000BCF501979093CE028093CD028091CB025F
:1005A0009091CC02181619062CF401979093CC0266
:1005B0008093CB02C0E0D0E08EEA92E00E94590D19
:1005C000C817D90790F40091CB021091CC02159571
:1005D0000795159507952091CD0240E0BE018EEA62
:1005E00092E00E94930C2196E7CF8EEA92E00E945F
:1005F000980A61E070E080E090E00E94D00FC2CFE6
:10060000DF91CF911F910F9108952F923F924F92BA
:100610005F926F927F928F929F92AF92BF92CF9292
:10062000DF92EF92FF920F931F93CF93DF9300D04F
:1006300000D000D0CDB7DEB78C012DB73EB73A83DE
:1006400029834C013EEF831A930AD4018D919C912A
:10065000892B09F4B7C0F801F3957F0198012C5F4D
:100660003E4F3C832B8328013AEF431A3EEF530A57
:1006700080E2D82ED4018D919C91DC01ED91FC910A
:100680000480F581E02D0995181619060CF09AC022
:10069000F40180819181DC01ED91FC910680F7816C
:1006A000E02D0995803209F07AC0EB81FC81019040
:1006B000F081E02DFE83ED83EF2B31F4D2018D919B
:1006C0009C91892B09F467C06DB67EB6F701408115
:1006D00051812DB73EB7241B350B0FB6F8943EBFA2
:1006E0000FBE2DBF8DB79EB7019641155105C9F1BB
:1006F000A0E0B0E020E030E024173507A8F5B8010D
:10070000620F731FFB01C080B9016C0D711D46178C
:10071000570718F4F1E0CF1224C02F5F3F4F580164
:10072000A20EB31EBC016A0F7B1F332433943C140A
:1007300058F411962F5F3F4FF50121905F01FB01A7
:100740002192BF013394F3CFFFEFCF16A9F24217E6
:10075000530791F2BC016A0F7B1FFB01D0821196F7
:10076000CBCF40E050E001C0AD012D813E8121158D
:10077000310521F0BA01F901099508C0D201ED91C6
:10078000FC91309719F0BC01C80109950FB6F89497
:100790007EBE0FBE6DBEF701118210826BCFD701F6
:1007A0002D913C911197A9014F5F5F4F4F3F51052C
:1007B00011F008F05FCF4D935C93F801E20FF31F47
:1007C000808358CFE981FA810FB6F894FEBF0FBE3F
:1007D000EDBF26960FB6F894DEBF0FBECDBFDF91FA
:1007E000CF911F910F91FF90EF90DF90CF90BF902E
:1007F000AF909F908F907F906F905F904F903F90C1
:100800002F90089586EA91E00C94050320910D0144
:1008100030910E0144E060E170E08EEA92E00E94C7
:10082000730C1092A7021092A6021092A9021092C5
:10083000A8021092AB021092AA021092AD0210927E
:10084000AC0208958EEA92E00C94010A0F931F9374
:10085000CF93DF9320910B0130910C0128173907BA
:1008600009F471C0EC010E94A40280910B019091E7
:100870000C010197C1F0C230D10509F049C069E00F
:100880008EEA92E00E94410C60E084E00E94AC108D
:1008900060E088E00E94AC1068EB7BE080E090E0D4
:1008A0000E94D00F03C0C230D10591F561E088E00D
:1008B0000E94AC1064E08EEA92E00E94410C8EEA45
:1008C00092E00E94150A83E090E00E943D14082FF8
:1008D00084E090E00E943D14182F0F3F19F0802F04
:1008E00090E002C080E190E00E9438011F3F21F0BB
:1008F000812F0E944D0103C080E00E9493008EEA88
:1009000092E00E945D0D8EEA92E00E94980A0FC06C
:10091000C730D10561F464E670E08CED92E00E948E
:10092000A8008CED92E00E940A0E0E94AF00D093C6
:100930000C01C0930B01249731F4DF91CF911F91EB
:100940000F910C942706DF91CF911F910F9108957D
:1009500083E00E94DB1020910B0130910C012130CB
:10096000310529F4892BA1F482E090E00FC02230F8
:10097000310541F48130910559F490930C01809335
:100980000B010895019721F487E090E00C94260470
:10099000089514BE0FB6F894A89580916000886100
:1009A00080936000109260000FBE61E08BE00E94B7
:1009B000701061E08BE00E94AC1060E082E00E9469
:1009C000701060E083E00E94701061E082E00E949D
:1009D000AC1061E088E00E9470100E949F0F60934D
:1009E000D3027093D4028093D5029093D6020E94D2
:1009F000A80485E090E00E943D148F3F09F483E055
:100A00000E94D40026E040E056E960E070E08CED02
:100A100092E00E942C0E8CED92E09093A9028093BC
:100A2000A80289E696E09093AB028093AA02109206
:100A3000AD021092AC0208950F931F930E949F0F76
:100A40000091D3021091D4022091D5023091D602A8
:100A5000DC01CB01801B910BA20BB30B20910B018E
:100A600030910C012730310541F481319742A105C5
:100A7000B105D8F081E090E014C040910601442314
:100A8000A1F0A901415051094230510570F02430C4
:100A9000310559F081369A4EA105B10530F082E05A
:100AA00090E01F910F910C9426041F910F910895CF
:100AB0006F927F928F929F92AF92BF92CF92DF926E
:100AC000EF92FF920F931F93CF93DF9380910B01CF
:100AD00090910C018230910519F0079709F0A8C098
:100AE0000E949F0F4B015C01C0E0D0E0C12CD12CD3
:100AF00066246394712C80910B0190910C018230DB
:100B0000910531F18730910521F01C161D0694F0F6
:100B10006CC00E949F0FDC01CB0188199909AA09BA
:100B2000BB0981349C49A105B10520F070920C01EC
:100B300060920B0180910B0190910C018230910524
:100B400039F0079729F01C161D062CF4259704C0D0
:100B5000CF3FD1050CF425960E9402040E941C058B
:100B60000E94A804E12CF12C8EEA92E00E94590D1B
:100B7000E816F90680F58EEA92E00E94590D8C0184
:100B80008EEA92E00E94590DFC01C7018C199D0963
:100B9000B8010E94CA12282FCE01BF010E94CA12BA
:100BA000269F402D112480910B0190910C018730DC
:100BB000910511F00197B1F500E020E0B7018EEA50
:100BC00092E00E94930C8EEA92E00E94980A8FEFC6
:100BD000E81AF80AC9CF6AE070E080E090E00E946D
:100BE000D00F2FEFC21AD20A86CF019709F569E01C
:100BF0008EEA92E00E94410C60E084E00E94AC101A
:100C000060E088E0DF91CF911F910F91FF90EF900E
:100C1000DF90CF90BF90AF909F908F907F906F901C
:100C20000C94AC10042F06950695242F40E0C6CFF7
:100C3000DF91CF911F910F91FF90EF90DF90CF90B8
:100C4000BF90AF909F908F907F906F900895DF92AC
:100C5000EF92FF920F931F93CF93DF9311E0EE2457
:100C6000E39480910B0190910C01049751F50E943F
:100C70000204F12EFE24C0E0D0E0DF2CD1948EEAF5
:100C800092E00E94590DC817D90750F400E020E007
:100C90004D2DBE018EEA92E00E94930C2196EFCF7B
:100CA0008EEA92E00E94980A64E670E080E090E0AC
:100CB0000E94D00F111102C01F2DD3CF0E941C051E
:100CC000FBCFDF91CF911F910F91FF90EF90DF90BD
:100CD0000895EF92FF920F931F93CF9361157105C3
:100CE00009F433C1FC01C081C33509F4AAC08C01E9
:100CF000C435E0F4CE3209F45AC048F4C332C1F12D
:100D0000C43209F440C0C13209F01FC1BCC0CE33A7
:100D100009F406C120F4C03309F40DC116C1CF3364
:100D200009F4B8C0CC3409F4C4C00FC1CB3609F4FF
:100D300074C078F4C33609F4DAC020F4C13609F47B
:100D400051C003C1C63609F475C0C93609F488C05C
:100D5000FCC0C03709F453C020F4CC3609F4A9C054
:100D6000F4C0C33709F475C0C43709F4CDC0EDC071
:100D70006130710509F0E9C0CF911F910F91FF908B
:100D8000EF900C94F4006230710509F0DEC0FC01B4
:100D9000218130E0ACE2B1E00E9400136093A20137
:100DA0007093A3018093A4019093A501CEC06130FC
:100DB000710509F0CAC00E949F0F6093D30270931F
:100DC000D4028093D5029093D60280910B0190912A
:100DD0000C018230910519F0049709F0B6C080E04B
:100DE00090E006C06130710509F0AFC086E090E088
:100DF000CF911F910F91FF90EF900C9426046130DA
:100E0000710509F0A2C080910B0190910C0103972C
:100E100009F09BC085E090E0EBCF6130710509F0EF
:100E200094C080910B0190910C010397039708F0F7
:100E30008CC0D5CF6130710509F087C084E090E0A7
:100E4000D7CF6130710509F080C081E08093DB026B
:100E50007CC06130710509F078C01092DB0275C06A
:100E60006130710509F071C062E670E08CED92E0CE
:100E70000E94A8008CED92E0CF911F910F91FF90FE
:100E8000EF900C940A0E6130710509F05EC010926B
:100E9000060107C06130710509F057C081E08093F9
:100EA000060180910B0190910C01892B09F44DC032
:100EB00096CF6230710509F048C0F801E180F12C4D
:100EC0008EEA92E00E94590D8E159F0538F0F801C8
:100ED000818190E09093CA028093C902CC34A9F535
:100EE000CF911F910F91FF90EF900C94C20162304F
:100EF000710559F5FC01818190E0CF911F910F910F
:100F0000FF90EF900C94380162307105F1F4FC0110
:100F10008181CF911F910F91FF90EF900C944D0123
:100F20006230710591F48EE3CF911F910F91FF9084
:100F3000EF900C94D4006130710539F4CF911F917A
:100F40000F91FF90EF900C943A02CF911F910F9167
:100F5000FF90EF900895CF931092CE021092CD02A1
:100F60001092CC021092CB028EEA92E00E94590DB0
:100F7000CFEFC80FC7FD0DC06C2F0C2E000C770BE8
:100F800020E030E0A9018EEA92E00E94E40CC1501A
:100F9000F1CF8EEA92E00E94980A83E090E00E94EE
:100FA000260464E770E08CED92E00E94A8008CEDCE
:100FB00092E0CF910C940A0EEF92FF920F931F9341
:100FC000CF93DF93CDB7DEB760970FB6F894DEBF4F
:100FD0000FBECDBF8E010F5F1F4F80E1F801119250
:100FE0008A95E9F780E090E0AFEFB0E089839A83DB
:100FF000AB83BC8380E098E8AFEFB0E08D839E8345
:10100000AF83B88780E09FEFA0E0B0E089879A8740
:10101000AB87BC870E94A4027E01FDE0EF0EF11CAD
:10102000F80161917191819191918F010E9452011A
:101030000E151F05A9F78FEF90E09093CE028093D5
:10104000CD021092CC021092CB0260960FB6F894AB
:10105000DEBF0FBECDBFDF91CF911F910F91FF90EB
:10106000EF900C94AB070F931F938091DB028823C2
:1010700049F180910B0190910C01892B19F50E9487
:101080009F0F0091D7021091D8022091D902309180
:10109000DA02DC01CB01801B910BA20BB30B883968
:1010A0009A43A105B10570F00E949F0F6093D7028B
:1010B0007093D8028093D9029093DA021F910F9116
:1010C0000C94DC071F910F9108950F931F9380914B
:1010D0000B0190910C01009721F00597029708F001
:1010E0004DC082E00E94DB10892B09F047C00E94AE
:1010F0009F0F0091CF021091D0022091D102309128
:10110000D202DC01CB01801B910BA20BB30B883EFA
:101110009340A105B10590F10E949F0F6093CF020B
:101120007093D0028093D1029093D20280910B01F0
:1011300090910C01009721F41F910F910C94DC0702
:101140008530910549F483E090E090930C01809301
:101150000B0163E670E008C0069781F410920C0161
:1011600010920B0161E670E08CED92E00E94A80005
:101170008CED92E01F910F910C940A0E1F910F912C
:1011800008953F924F925F926F927F928F929F92BB
:10119000AF92BF92CF92DF92EF92FF920F931F9385
:1011A000CF93DF9300D000D01F92CDB7DEB7209150
:1011B0000B0130910C013A83298310E0512C412C12
:1011C000312CC12CD12C80910B0190910C010597F1
:1011D000029760F020E030E0A901612F752D842D89
:1011E000932D0E94581218160CF0E4C00E940204BD
:1011F0000E9465080E94A80480910B0190910C0147
:1012000005970297A8F520E030E040E85FE3612F02
:10121000752D842D932D0E94721187FF57C0212FA9
:10122000352D442D532D60E070E080E89FE30E944F
:101230000511F62E072F8D839B832DEC3CEC4CEC97
:101240005DE30E94721187FF02C08F2D06C08DECF6
:101250000CEC3CEC3D839DE39B83282F302F4D818C
:101260005B81612F752D842D932D0E9406112AC05C
:1012700020E030E0A901612F752D842D932D0E946F
:10128000581218161CF52DEC3CEC4CEC5CE3612F6D
:10129000752D842D932D0E94721187FF05C0712F2B
:1012A000652D942D832D04C07DEC6CEC9CEC8CE3BF
:1012B000272F362F492F582F612F752D842D932DD1
:1012C0000E940511162F572E482E392E5601E12C5B
:1012D000F12C8EEA92E00E94590DE816F90608F00A
:1012E0005BC0F501EF73FF27EE0FFF1FEF5EFE4FB0
:1012F0002081318133273C832B8389819A81059713
:1013000039F4B9017595679575956795062F01C0F4
:1013100000E08EEA92E00E94590D2091C9023091BE
:10132000CA024701821A930A880E991E8EEA92E039
:101330000E94590D3C01602F70E080E090E00E9417
:10134000A811212F352D442D532D0E945D120E948E
:101350007711062F2B813C81B901330F880B990B34
:101360000E94A811212F352D442D532D0E945D126E
:101370000E947711262FC401B3010E94CA1240E0D7
:10138000BC018EEA92E00E94930C3FEFE31AF30A4D
:1013900088E0A80EB11C9DCF8EEA92E00E94980AC8
:1013A00065E070E080E090E00E94D00F9FEFC91AE6
:1013B000D90A09CF0F900F900F900F900F90DF91E7
:1013C000CF911F910F91FF90EF90DF90CF90BF9042
:1013D000AF909F908F907F906F905F904F903F90D5
:1013E00008950E9433080E9465080E94A8040E9484
:1013F000C1080E9458050E9402040E941C050C941A
:101400004402CF93DF93EC0188859985009711F012
:101410000E94AD138E8187FD05C060E0DF91CF9102
:101420000C947010DF91CF910895CF93DF93EC016E
:101430008E8187FD07C061E00E94701060E08E81A0
:101440000E94AC1081E08983DF91CF910895EF92E3
:10145000FF920F931F93CF93DF93EC017B0188855D
:101460009985009711F00E94AD139D858A85981784
:1014700019F084E090E002C083E090E08E9D80014E
:101480008F9D100D9E9D100D11241D830C83C8018E
:101490000E94151399878887009741F0A80160E0A2
:1014A00070E00E943614FB82EA8204C01D821C8216
:1014B0001B821A82DF91CF911F910F91FF90EF90C5
:1014C0000895FC0131E095858285981330E0CB01C9
:1014D00026E0969587952A95E1F7282F2370258792
:1014E000CB0144E0969587954A95E1F78370828712
:1014F000AB01569547955695479543704387962F70
:101500009370948791E06F3F710511F008F090E0BF
:10151000908340855185452B51F091E0281390E050
:10152000391729F062817381CF010C94270A08953D
:10153000CF92DF92EF92FF920F931F93CF93DF939F
:10154000CDB7DEB729970FB6F894DEBF0FBECDBF7B
:101550008C01DC0118968D919C911997892B09F4C7
:1015600081C10E94AB0FF801C684D784E088F1885E
:10157000DC01CB018C199D09AE09BF098C32914069
:10158000A105B10570F3F894D80114968D919C9142
:1015900015979A83898318960D90BC91A02D7D0193
:1015A000EFEFEE1AFE0A8C918987D8018C91529642
:1015B0000D90BC91A02D882309F41AC11D82AB3275
:1015C000B10509F059C09BB1F8018489982B98871F
:1015D0009BB1809589238F838F818E83898587FF37
:1015E00002C088858E8358856F8149853E812D8113
:1015F00089819A81D7015BB9262F3BB900C046FD8E
:10160000252F6BB900C05BB9362F2BB900C045FD43
:10161000352F6BB900C05BB9262F3BB900C044FD24
:10162000252F6BB900C05BB9362F2BB900C043FD25
:10163000352F6BB900C05BB9262F3BB900C042FD06
:10164000252F6BB900C05BB9362F2BB900C041FD07
:10165000352F6BB900C05BB9262F3BB900C040FDE8
:10166000252F6BB901975BB9362F2BB94D9147FDEB
:10167000352F6BB901F6B8C0A532B10509F059C0D4
:1016800095B1F8018489982B988795B18095892325
:101690008F838F818E83898587FF02C088858E83A3
:1016A00058856F8149853E812D8189819A81D70135
:1016B00055B9262F35B900C046FD252F65B900C0A4
:1016C00055B9362F25B900C045FD352F65B900C085
:1016D00055B9262F35B900C044FD252F65B900C086
:1016E00055B9362F25B900C043FD352F65B900C067
:1016F00055B9262F35B900C042FD252F65B900C068
:1017000055B9362F25B900C041FD352F65B900C048
:1017100055B9262F35B900C040FD252F65B9019771
:1017200055B9362F25B94D9147FD352F65B901F6CD
:101730005BC0989709F08CC098B1F8018489982B08
:10174000988798B1809589238F838F818E8389852F
:1017500087FF02C088858E8358856F8149853E81C9
:101760002D8189819A81D70158B9262F38B900C0B7
:1017700046FD252F68B900C058B9362F28B900C0DA
:1017800045FD352F68B900C058B9262F38B900C0BB
:1017900044FD252F68B900C058B9362F28B900C0BC
:1017A00043FD352F68B900C058B9262F38B900C09D
:1017B00042FD252F68B900C058B9362F28B900C09E
:1017C00041FD352F68B900C058B9262F38B900C07F
:1017D00040FD252F68B9019758B9362F28B94D918A
:1017E00047FD352F68B901F649873E832D832EC00A
:1017F0009C91F8018489982B98879C9180958923E6
:101800008F838F818C8388E08B8358856F81498596
:101810003B812C8189819A81F7015C9347FD252FBB
:101820002C93262F3A9531F0441F6C9300C000C0D2
:1018300000C0F3CF6C93000038E04191019769F745
:10184000F801B38BA28B49873B832C839A838983CE
:1018500078940E94AB0FD8011E966D937D938D9363
:101860009C93519729960FB6F894DEBF0FBECDBF5B
:10187000DF91CF911F910F91FF90EF90DF90CF906C
:1018800008951F93CF93DF93EC01162F898188234E
:1018900031F08E8187FD03C060E00E9470101E83CE
:1018A0008981882341F061E0812F0E94701060E0FF
:1018B000812F0E94AC10812F90E0FC01EA56FF4F6F
:1018C000E491F0E0EE0FFF1FE954FF4F25913491B2
:1018D0003B8B2A8BFC01E158FF4FE491EC8BDF91AD
:1018E000CF911F910895EF92FF921F93CF93DF93B3
:1018F000EC017B01142F19821F82198618861E861F
:101900001F86188A198AB9010E94610AB701CE019F
:101910000E94270A612FCE01DF91CF911F91FF9086
:10192000EF900C94410C0F931F93DC0112968D9154
:101930009C9113976817790708F043C017968C910C
:101940001797882361F0489FA0011124452F829F9B
:1019500090011124232F809F80011124012F1D96B7
:101960008C911D971A969C911A971896ED91FC915F
:101970001997891308C0CB01880F991F680F791F29
:101980006E0F7F1F0AC0660F771F660F771F6E0FDF
:101990007F1FFB01E80FF11D10821A968C911A9798
:1019A000FB01E80FF11D40831B968C911B97FB01F7
:1019B000E80FF11D20831C968C91FB01E80FF11DAF
:1019C00000831F910F9108957F928F929F92AF9203
:1019D000BF92CF92DF92EF92FF920F931F93CF931C
:1019E000DF93FC01828193816817790708F053C067
:1019F0004A01AA24BB24782CC32ED42EE52EFF2422
:101A0000BC2DA22F8781882361F0889E400111247C
:101A1000792C8C9D60011124BD2D829F70011124B1
:101A2000AF2D9585D285E084F1849D1308C0CB014C
:101A3000880F991F680F791F6E0D7F1D1CC0660FE0
:101A4000771F660F771F6E0D7F1D052F1127222729
:101A500033277B01E90EF11C811102C0202F09C040
:101A600090E0809F6001819FD00C909FD00C11244A
:101A70002D2DE701288382859B01280F311DE90167
:101A800078828385EB01C80FD11DB8838485FB0163
:101A9000E80FF11DA083DF91CF911F910F91FF906F
:101AA000EF90DF90CF90BF90AF909F908F907F90FE
:101AB0000895FC01828193810895FC014481558140
:101AC00060E070E0808591850C943614FC01918D66
:101AD000228D892F90E0805C9F4F821B91098F732C
:101AE00099270895FC01918D828D981731F0828D90
:101AF000E80FF11D858D90E008958FEF9FEF089519
:101B0000FC01918D828D981761F0828DDF01A80F05
:101B1000B11D5D968C91928D9F5F9F73928F90E027
:101B200008958FEF9FEF089584EE9EE0892B49F092
:101B300080E090E0892B29F00E94E40E81110C9442
:101B400000000895FC01848DDF01A80FB11DA35A88
:101B5000BF4F2C91848D90E001968F739927848FCD
:101B6000A689B7892C93A089B1898C9180648C93C4
:101B7000938D848D981306C00288F389E02D8081AF
:101B80008F7D80830895EF92FF920F931F93CF93E1
:101B9000DF93EC0181E0888F9B8D8C8D981305C0BD
:101BA000E889F989808185FD24C0F62E0B8D10E02F
:101BB0000F5F1F4F0F731127E02E8C8DE8120CC0A2
:101BC0000FB607FCFACFE889F989808185FFF5CF48
:101BD000CE010E94A20DF1CF8B8DFE01E80FF11D09
:101BE000E35AFF4FF0820B8FEA89FB898081806284
:101BF00007C0EE89FF896083E889F9898081806464
:101C0000808381E090E0DF91CF911F910F91FF9051
:101C1000EF900895CF93DF93EC01888D8823C9F06E
:101C2000EA89FB89808185FD05C0A889B9898C91E5
:101C300086FD0FC00FB607FCF5CF808185FFF2CF80
:101C4000A889B9898C9185FFEDCFCE010E94A20DA4
:101C5000E7CFDF91CF910895CF92DF92EF92FF927D
:101C60001F93CF93DF93EC016A017B01122F60E891
:101C700074E88EE190E0A70196010E94DE12DA017D
:101C8000C9010197A109B109B695A79597958795BF
:101C90009C01E889F98982E08083211580E1380779
:101CA000A8F0E889F989108260E472E48FE090E09E
:101CB000A70196010E94DE12DA01C9010197A1096C
:101CC000B109B695A795979587959C01EC85FD85FB
:101CD0003083EE85FF852083188EEC89FD89108383
:101CE000EA89FB89808180618083EA89FB89808120
:101CF00088608083EA89FB89808180688083EA89A3
:101D0000FB8980818F7D8083DF91CF911F91FF9030
:101D1000EF90DF90CF9008951F920F920FB60F9221
:101D200011242F938F939F93EF93FF93E091EC02F5
:101D3000F091ED028081E091F202F091F30282FDD8
:101D400012C090818091F5028F5F8F732091F6020F
:101D5000821751F0E091F502F0E0E452FD4F958FCB
:101D60008093F50201C08081FF91EF919F918F9147
:101D70002F910F900FBE0F901F9018951F920F92EA
:101D80000FB60F9211242F933F934F935F936F934E
:101D90007F938F939F93AF93BF93EF93FF938CEDBC
:101DA00092E00E94A20DFF91EF91BF91AF919F91A0
:101DB0008F917F916F915F914F913F912F910F90F4
:101DC0000FBE0F901F9018958CED92E00E94660D4B
:101DD00021E0892B09F420E0822F0895ECEDF2E058
:101DE0001382128288EE93E0A0E0B0E084839583B2
:101DF000A683B78385E991E09183808385EC90E0A9
:101E00009587848784EC90E09787868780EC90E0C4
:101E1000918B808B81EC90E0938B828B82EC90E0B5
:101E2000958B848B86EC90E0978B868B118E128E2F
:101E3000138E148E0895CF92DF92EF92FF920F933C
:101E40001F93CF93DF936C017A018B01C0E0D0E048
:101E5000CE15DF0581F0D8016D918D01D601ED9190
:101E6000FC910190F081E02DC6010995892B11F0BC
:101E70002196EECF7E01C701DF91CF911F910F9187
:101E8000FF90EF90DF90CF90089508950E940C107E
:101E90000E94450F0E94C904C4E9DDE00E94F109D7
:101EA0002097E1F30E94940DF9CF1F920F920FB685
:101EB0000F9211242F933F938F939F93AF93BF93D0
:101EC00080917A0390917B03A0917C03B0917D0374
:101ED0003091790326E0230F2D3720F40296A11DBF
:101EE000B11D05C029E8230F0396A11DB11D209344
:101EF000790380937A0390937B03A0937C03B09340
:101F00007D0380917E0390917F03A0918003B09127
:101F100081030196A11DB11D80937E0390937F03E1
:101F2000A0938003B0938103BF91AF919F918F9154
:101F30003F912F910F900FBE0F901F9018952FB7C4
:101F4000F89460917A0370917B0380917C03909167
:101F50007D032FBF08953FB7F89480917E03909141
:101F60007F03A0918003B091810326B5A89B05C093
:101F70002F3F19F00196A11DB11D3FBFBA2FA92F08
:101F8000982F8827820F911DA11DB11DBC01CD0185
:101F900043E0660F771F881F991F4A95D1F7089570
:101FA0008F929F92AF92BF92CF92DF92EF92FF9269
:101FB0006B017C010E94AB0F4B015C01C114D10489
:101FC000E104F10401F10E9404110E94AB0FDC0155
:101FD000CB0188199909AA09BB09883E9340A1053C
:101FE000B10560F321E0C21AD108E108F10888EEDA
:101FF000880E83E0981EA11CB11CC114D104E10419
:10200000F10419F7DBCFFF90EF90DF90CF90BF90F6
:10201000AF909F908F900895789484B5826084BD2E
:1020200084B5816084BD85B5826085BD85B58160DC
:1020300085BDEEE6F0E0808181608083E1E8F0E03C
:102040001082808182608083808181608083E0E86B
:10205000F0E0808181608083E1EBF0E0808184604A
:102060008083E0EBF0E0808181608083EAE7F0E04C
:1020700080818460808380818260808380818E7F84
:1020800080838081806880831092C10008958430AD
:1020900081F028F4823099F08330A1F008958830DF
:1020A000A9F08930B9F08530D1F4809180008F7D1E
:1020B00003C0809180008F7780938000089584B55D
:1020C0008F7702C084B58F7D84BD08958091B00064
:1020D0008F7703C08091B0008F7D8093B00008950A
:1020E000CF93DF9390E0FC01E158FF4F2491FC0176
:1020F000EA56FF4F8491882361F190E0880F991F81
:10210000FC01EF53FF4FC591D491FC01E954FF4FFF
:10211000A591B491611109C09FB7F8948881209569
:1021200082238883EC912E230BC0623061F49FB729
:10213000F8948881322F309583238883EC912E2B5D
:102140002C939FBF06C08FB7F894E8812E2B28836D
:102150008FBFDF91CF9108951F93CF93DF93282FE7
:1021600030E0F901E859FF4F8491F901E158FF4F40
:10217000D491F901EA56FF4FC491CC23C1F0162F38
:1021800081110E944710EC2FF0E0EE0FFF1FE95481
:10219000FF4FA591B4919FB7F894111104C08C9191
:1021A000D095D82302C0EC91DE2BDC939FBFDF914A
:1021B000CF911F910895CF93DF93282F30E0F9013D
:1021C000E859FF4F8491F901E158FF4FD491F9018B
:1021D000EA56FF4FC491CC2391F081110E94471021
:1021E000EC2FF0E0EE0FFF1FE355FF4FA591B491E8
:1021F000EC91ED2381E090E021F480E002C080E0EA
:1022000090E0DF91CF91089508955058BB27AA27F9
:102210000E941D110C941E120E94101238F00E9490
:10222000171220F039F49F3F19F426F40C940D1284
:102230000EF4E095E7FB0C940712E92F0E942F1291
:1022400058F3BA17620773078407950720F079F4EB
:10225000A6F50C9451120EF4E0950B2EBA2FA02D7A
:102260000B01B90190010C01CA01A0011124FF2743
:10227000591B99F0593F50F4503E68F11A16F0403E
:10228000A22F232F342F4427585FF3CF469537953D
:102290002795A795F0405395C9F77EF41F16BA0B02
:1022A000620B730B840BBAF09150A1F0FF0FBB1FB0
:1022B000661F771F881FC2F70EC0BA0F621F731FF9
:1022C000841F48F4879577956795B795F7959E3F56
:1022D00008F0B0CF9395880F08F09927EE0F9795E7
:1022E000879508950E94E31108F481E008950E9403
:1022F000371288F09F5798F0B92F9927B751B0F04F
:10230000E1F0660F771F881F991F1AF0BA95C9F779
:1023100014C0B13091F00E945112B1E008950C94B4
:102320005112672F782F8827B85F39F0B93FCCF367
:10233000869577956795B395D9F73EF490958095F6
:10234000709561957F4F8F4F9F4F0895E89409C016
:1023500097FB3EF490958095709561957F4F8F4FD8
:102360009F4F9923A9F0F92F96E9BB279395F695EE
:10237000879577956795B795F111F8CFFAF4BB0F6C
:1023800011F460FF1BC06F5F7F4F8F4F9F4F16C0D0
:10239000882311F096E911C0772321F09EE8872F5A
:1023A000762F05C0662371F096E8862F70E060E016
:1023B0002AF09A95660F771F881FDAF7880F96958F
:1023C000879597F90895990F0008550FAA0BE0E833
:1023D000FEEF16161706E807F907C0F012161306E7
:1023E000E407F50798F0621B730B840B950B39F427
:1023F0000A2661F0232B242B252B21F408950A268D
:1024000009F4A140A6958FEF811D811D089597F9CC
:102410009F6780E870E060E008959FEF80EC08958A
:1024200000240A94161617061806090608950024B3
:102430000A9412161306140605060895092E03942D
:10244000000C11F4882352F0BB0F40F4BF2B11F4A1
:1024500060FF04C06F5F7F4F8F4F9F4F089557FD00
:102460009058440F551F59F05F3F71F04795880F02
:1024700097FB991F61F09F3F79F087950895121699
:1024800013061406551FF2CF4695F1DF08C0161645
:1024900017061806991FF1CF8695710561050894F6
:1024A0000895E894BB2766277727CB0197F908950D
:1024B0000E94E31108F48FEF08950E9470120C94AB
:1024C0001E120E94101238F00E94171220F095235D
:1024D00011F00C9407120C940D1211240C9452124A
:1024E0000E942F1270F3959FC1F3950F50E0551F76
:1024F000629FF001729FBB27F00DB11D639FAA2759
:10250000F00DB11DAA1F649F6627B00DA11D661FA7
:10251000829F2227B00DA11D621F739FB00DA11DC8
:10252000621F839FA00D611D221F749F3327A00D82
:10253000611D231F849F600D211D822F762F6A2F1E
:1025400011249F5750409AF0F1F088234AF0EE0F83
:10255000FF1FBB1F661F771F881F91505040A9F7B0
:102560009E3F510580F00C9407120C9452125F3F6D
:10257000E4F3983ED4F3869577956795B795F795EC
:10258000E7959F5FC1F7FE2B880F911D9695879564
:1025900097F90895AA1BBB1B51E107C0AA1FBB1FD7
:1025A000A617B70710F0A61BB70B881F991F5A95DF
:1025B000A9F780959095BC01CD010895A1E21A2E4E
:1025C000AA1BBB1BFD010DC0AA1FBB1FEE1FFF1FD7
:1025D000A217B307E407F50720F0A21BB30BE40B27
:1025E000F50B661F771F881F991F1A9469F760956E
:1025F0007095809590959B01AC01BD01CF01089528
:10260000A29FB001B39FC001A39F700D811D112433
:10261000911DB29F700D811D1124911D0895EE0F23
:10262000FF1F0590F491E02D09940F931F93CF9312
:10263000DF938230910510F482E090E0E091840312
:10264000F091850320E030E0A0E0B0E0309719F190
:10265000408151810281138148175907C8F08417BE
:10266000950769F4109731F012960C931297139610
:102670001C9327C0009384031093850322C0211567
:10268000310519F04217530718F49A01BD01EF0103
:10269000DF01F801DBCF21153105F9F0281B390BDB
:1026A0002430310580F48A819B816115710521F008
:1026B000FB019383828304C09093850380938403FA
:1026C000FE01329644C0FE01E20FF31F8193919305
:1026D00022503109398328833AC0209182033091F6
:1026E0008303232B41F420910201309103013093A5
:1026F0008303209382032091000130910101211571
:10270000310541F42DB73EB74091040150910501C8
:10271000241B350BE0918203F0918303E217F3074A
:10272000A0F42E1B3F0B2817390778F0AC014E5F41
:102730005F4F2417350748F04E0F5F1F50938303F8
:10274000409382038193919302C0E0E0F0E0CF01D7
:10275000DF91CF911F910F910895CF93DF93009751
:1027600009F481C0FC01329713821282A091840384
:10277000B0918503109781F420813181820F931FDE
:1027800020918203309183032817390751F5F09384
:102790008303E093820367C0ED0120E030E0CE17B1
:1027A000DF0740F44A815B819E0141155105F1F03C
:1027B000EA01F5CFD383C28340815181840F951FF5
:1027C000C817D90759F488819981840F951F0296FB
:1027D000918380838A819B81938382832115310534
:1027E00029F4F0938503E09384033DC0E901FB8362
:1027F000EA8349915991C40FD51FEC17FD0761F485
:1028000080819181840F951F0296E90199838883C5
:10281000828193819B838A83E0E0F0E012968D9120
:102820009C911397009719F0FD01DC01F7CF8D9172
:102830009C9111979D012E5F3F4F820F931F209116
:102840008203309183032817390769F4309729F4FC
:10285000109285031092840302C013821282B093F7
:102860008303A0938203DF91CF910895DC0101C01F
:102870006D9341505040E0F70895F999FECF92BD15
:1028800081BDF89A992780B50895262FF999FECF32
:102890001FBA92BD81BD20BD0FB6F894FA9AF99A7D
:1028A0000FBE0196089510E0C8E6D0E004C0FE0116
:1028B0000E940F132196C936D107C9F7F894FFCFAC
:1028C00000008603800001B80B000001005200D216
:1028D00000400046004C00520058005D0063006854
:1028E000006C007100740078007A007C007E007F2C
:1028F000007F007F007E007C007A00780074007109
:10290000006C00680063005D00580052004C0046F7
:10291000004000390033002D00270022001C001762
:102920000013000E000B000700050003000100006B
:10293000000000000001000300050007000B000E6E
:1029400000130017001C00220027002D003300395F
:102950000000000000C30D1B0F660D800D720D0AF4
:022960000E0067
:00000001FF
