:100000000C9469000C9491000C9491000C94910054
:100010000C9491000C9491000C9491000C9491001C
:100020000C9491000C9491000C9491000C9491000C
:100030000C9491000C94900A0C9491000C949100F3
:100040000C94A60C0C9491000C94DD0B0C940F0CEA
:100050000C9491000C9491000C9491000C949100DC
:100060000C9491000C949100000000090003020020
:10007000000405080000000000000000000000016E
:10008000020408102040800102040810200102042C
:100090000810204080400404040404040404020204
:1000A000020202020303030303030202030000002F
:1000B0000023002600290000000000250028002B56
:1000C0000000000000240027002A000050023F0C1E
:1000D000590211241FBECFEFD8E0DEBFCDBF11E023
:1000E000A0E0B1E0E4E0F3E202C005900D92AE3989
:1000F000B107D9F722E0AEE9B1E001C01D92A33704
:10010000B207E1F710E0C8E6D0E004C02197FE0195
:100110000E944710C636D107C9F70E94970C0C946D
:1001200075110C94000061E08BE00E94FD0D1092AF
:100130006F000895DC01ED91FC910190F081E02DBC
:10014000099460E08BE00E94FD0D80910701909181
:100150000801A0910901B0910A010097A105B1051C
:1001600009F463C062E0880F991FAA1FBB1F6A953C
:10017000D1F7009721E0A207B10520F421E02093F8
:10018000C60142C0009728E0A207B10558F422E05A
:100190002093C60153E0B695A795979587955A95F4
:1001A000D1F732C0009720E4A207B10558F423E04C
:1001B0002093C60146E0B695A795979587954A95F1
:1001C000D1F722C00097A10521E0B20740F424E056
:1001D0002093C601892F9A2FAB2FBB2715C00097FC
:1001E000A10524E0B20758F425E02093C6012AE0D7
:1001F000B695A795979587952A95D1F705C085E07F
:100200008093C6018FEF9FEF9093C8018093C70141
:100210008091C7019091C8019093870080938600D8
:100220008091C60180618093810083E990E0909382
:10023000C5018093C40181E080936F0008958F927F
:100240009F92AF92BF92CF92DF92EF92FF920F9365
:100250001F93CF93DF936B017C01042F8EE991E014
:100260000E944B0A1FEF180F802E912CA12CB12C4D
:1002700017FD26C0C12F012E000CDD0B609680916A
:10028000B3019091B401C81BD90B8EE991E00E9493
:100290004B0ABC01CE010E94F20FA7019601BC01DE
:1002A0008EE991E00E94D6098EE991E00E948A07CA
:1002B000002321F0C501B4010E94210D1150D8CFB7
:1002C000DF91CF911F910F91FF90EF90DF90CF9032
:1002D000BF90AF909F908F900895EF92FF920F93F1
:1002E0001F93CF938EE991E00E944B0ACFEFC80F86
:1002F00080E1E82EF12CC7FD30C08091B3019091D0
:10030000B401C11110C08701081B190B8EE991E0DF
:100310000E944B0ABC01C8010E94F20F20E03FEF8F
:1003200040E050E013C00C2F0C2E000C110B005FAE
:100330001F4F081B190B8EE991E00E944B0ABC016C
:10034000C8010E94F20F20E030E0A901BC018EE953
:1003500091E00E94D609C150CECF8EE991E00E9473
:100360008A076CE271E080E090E0CF911F910F91DD
:10037000FF90EF900C94210DF8941092B000109221
:10038000800014BC14BEE0E0FFE309940F93CF9308
:10039000DF9380910B0190910C01892BF1F58091F5
:1003A000B5019091B60101968F3F910511F481E05E
:1003B0009FEF9093B6018093B501C0E0D0E08EE945
:1003C00091E00E944B0AC817D907D0F42091B501DB
:1003D0003091B601C90182509F4F8D3F914030F45A
:1003E00037FF05C031952195310901C02FEF00E09D
:1003F00040E0BE018EE991E00E9485092196DFCFA1
:100400008EE991E00E948A0765E070E080E090E06C
:10041000DF91CF910F910C94210DDF91CF910F912E
:1004200008950F93CF93DF938091B5019091B6011A
:1004300097FF03C09195819591099093B6018093A0
:10044000B5018091B5019091B6011816190624F5F1
:1004500001979093B6018093B501C0E0D0E08EE99A
:1004600091E00E944B0AC817D90758F400E0209188
:10047000B50140E0BE018EE991E00E948509219618
:10048000EECF8EE991E00E948A0761E070E080E0A3
:1004900090E00E94210DD5CFDF91CF910F9108956B
:1004A00022E530E044E060E170E08EE991E00C94F8
:1004B00065098EE991E00C94F306CF93C1E089ECD5
:1004C00091E00E94B70A892B09F4CFC089EC91E032
:1004D0000E94D10A833239F480910B0190910C0172
:1004E000039769F729C0843259F589EC91E00E949D
:1004F000B70A892BD1F389EC91E00E94D10A682FC9
:10050000880F770B880B990B0E94F90E20E030E0E2
:100510004FE753E40E94560E20E030E44CE156E4ED
:100520000E94850F0E94C80E609307017093080116
:100530008093090190930A0180E00E94A100BFCF3F
:100540008E32B9F40E94F00C6093BB017093BC0131
:100550008093BD019093BE0180910B0190910C019D
:100560008230910519F0049709F0A9CF80E090E05E
:1005700004C0813629F486E090E00E9479039FCF81
:10058000803751F480910B0190910C01039709F091
:1005900096CF85E090E0F1CF8B3649F480910B0146
:1005A00090910C010397039708F089CFDFCF86362F
:1005B00019F484E090E0E1CF833519F4C093C301CE
:1005C0007ECF833719F41092C30179CF893659F45D
:1005D00062E670E089EC91E00E949A0089EC91E07B
:1005E0000E945B0B6CCF813219F41092060104C09B
:1005F0008F3351F4C093060180910B0190910C014F
:10060000892B09F45CCFB2CF982F9F7D9C34D1F415
:1006100089EC91E00E94B70A892BD1F389EC91E033
:100620000E94D10A813140F4282F082E000C330B90
:100630003093B4012093B3018C3409F040CF0E9471
:100640006D013DCF803309F03ACF89EC91E00E94F3
:10065000B70A892BD1F389EC91E00E94D10A80324C
:1006600009F02DCFCF910C94BC01CF910895DF926A
:10067000EF92FF920F931F93CF93DF9311E0EE243D
:10068000E39480910B0190910C01049751F50E9425
:100690005D02F12EFE24C0E0D0E0DF2CD1948EE983
:1006A00091E00E944B0AC817D90750F400E020E0FF
:1006B0004D2DBE018EE991E00E9485092196EFCF74
:1006C0008EE991E00E948A0764E670E080E090E0A5
:1006D0000E94210D111102C01F2DD3CF0E94490588
:1006E000FBCFDF91CF911F910F91FF90EF90DF90A3
:1006F0000895CF93DF9320910B0130910C012817BF
:10070000390709F469C0EC01039711F00E949300C6
:100710000E94110280910B0190910C010197E1F070
:10072000C230D10509F041C069E08EE991E00E9434
:10073000330960E084E00E94FD0D60E088E00E94E3
:10074000FD0D60E084E10E94FD0D68EB7BE080E040
:1007500090E00E94210D03C0C230D10531F561E067
:1007600088E00E94FD0D64E08EE991E00E9433096B
:100770008EE991E00E9407078EE991E00E948A07C6
:1007800064E670E080E090E00E94210D61E084E189
:100790000E94FD0D6CE271E080E090E00E94210D6E
:1007A00060E084E10E94FD0D0DC0C730D10551F419
:1007B00064E670E089EC91E00E949A0089EC91E097
:1007C0000E945B0BD0930C01C0930B01249721F482
:1007D000DF91CF910C943703DF91CF91089583E09F
:1007E0000E942C0E20910B0130910C01213031051B
:1007F00029F4892BB1F482E090E011C02230310558
:1008000041F48130910569F490930C0180930B01C0
:100810000895232B31F4019721F487E090E00C94A4
:100820007903089526E040E056E960E070E089EC45
:1008300091E00E947D0B61E08BE00E94C10D61E0C0
:100840008BE00E94FD0D60E082E00E94C10D60E03F
:1008500083E00E94C10D61E082E00E94FD0D61E035
:1008600088E00E94C10D61E084E10E94C10D0E94F8
:10087000F00C6093BB017093BC018093BD01909319
:10088000BE010E94EF03E1E8F0E080E18083109276
:10089000800083E08093C60184E294EF9093C801C6
:1008A0008093C701909387008093860083E18083C3
:1008B000089583E090E00E94790364E770E089EC9A
:1008C00091E00E949A0089EC91E00C945B0BEF920E
:1008D000FF920F931F93CF93DF93CDB7DEB760974F
:1008E0000FB6F894DEBF0FBECDBF8E010F5F1F4F56
:1008F00080E1F80111928A95E9F780E090E0AFEF8E
:10090000B0E089839A83AB83BC8380E098E8AFEF43
:10091000B0E08D839E83AF83B88780E09FEFA0E037
:10092000B0E089879A87AB87BC870E9411027E015D
:10093000FDE0EF0EF11CF8016191719181919191AF
:100940008F014CE30E941F010E151F05A1F78FEFC9
:1009500090E09093B6018093B50160960FB6F8943D
:10096000DEBF0FBECDBFDF91CF911F910F91FF90E2
:10097000EF900C9459040F931F938091C301882327
:1009800049F180910B0190910C01892B19F50E947E
:10099000F00C0091BF011091C0012091C101309174
:1009A000C201DC01CB01801B910BA20BB30B883978
:1009B0009A43A105B10570F00E94F00C6093BF014D
:1009C0007093C0018093C1019093C2011F910F9158
:1009D0000C9467041F910F9108950F931F938091BA
:1009E0000B0190910C01009721F00597029708F0F8
:1009F0004DC082E00E942C0E892B09F047C00E9456
:100A0000F00C0091B7011091B8012091B90130911B
:100A1000BA01DC01CB01801B910BA20BB30B883E0A
:100A20009340A105B10590F10E94F00C6093B701CD
:100A30007093B8018093B9019093BA0180910B0132
:100A400090910C01009721F41F910F910C94670471
:100A50008530910549F483E090E090930C018093F8
:100A60000B0163E670E008C0069781F410920C0158
:100A700010920B0161E670E089EC91E00E949A000F
:100A800089EC91E01F910F910C945B0B1F910F91DA
:100A900008950F931F930E94F00C0091BB011091D9
:100AA000BC012091BD013091BE01DC01CB01801B56
:100AB000910BA20BB30B20910B0130910C0127304D
:100AC000310541F481329E44A105B105D8F081E0A1
:100AD00090E014C0409106014423A1F0A9014150C7
:100AE00051094230510570F02430310559F08131FF
:100AF0009742A105B10530F082E090E01F910F917F
:100B00000C9479031F910F910895AF92BF92CF92E9
:100B1000DF92EF92FF920F931F93CF93C0E0C12C0F
:100B2000D12C80910B0190910C010597029718F040
:100B3000CC2309F44CC00E945D020E94ED04809118
:100B40000B0190910C010597029720F4CA3F20F405
:100B5000C75E02C0C111C9516C2F8EE991E00E949D
:100B60004F0A5601E12CF12C8EE991E00E944B0ACC
:100B7000E816F90640F5F501EF73FF27EE0FFF1FAA
:100B8000E35FFE4F2081318180910B0190910C0138
:100B9000059739F48901112715950795159507953E
:100BA00001C000E040E0B7018EE991E00E948509B4
:100BB0008EE991E00E948A078FEFE81AF80A88E030
:100BC000A80EB11CD1CF8FEFC81AD80AAACF6FEFE9
:100BD0008EE991E0CF911F910F91FF90EF90DF9000
:100BE000CF90BF90AF900C944F0A6F927F928F92EC
:100BF0009F92AF92BF92CF92DF92EF92FF920F93AC
:100C00001F93CF93DF9380910B0190910C01823061
:100C1000910519F0079709F0C7C00E94F00C4B012D
:100C20005C01C0E0D0E0C12CD12C66246394712C0F
:100C300080910B0190910C018230910531F1873048
:100C4000910521F01C161D0694F06FC00E94F00C57
:100C5000DC01CB0188199909AA09BB0981349C4997
:100C6000A105B10520F070920C0160920B018091FA
:100C70000B0190910C018230910539F0079729F012
:100C80001C161D062CF4259704C0CF3FD1050CF48B
:100C900025960E945D020E9449050E94EF03E12C07
:100CA000F12C8EE991E00E944B0AE816F90698F5BE
:100CB0008EE991E00E944B0A8C018EE991E00E943E
:100CC0004B0AFC01C7018C199D09B8010E94F20F63
:100CD000282FCE01BF010E94F20F269F402D112424
:100CE00080910B0190910C018730910529F00197BB
:100CF00019F0242F40E001C020E000E0B7018EE9A8
:100D000091E00E9485098EE991E00E948A078FEFA9
:100D1000E81AF80AC6CF6AE070E080E090E00E942E
:100D2000210D2FEFC21AD20A83CF0197E9F569E0AE
:100D30008EE991E00E94330960E084E00E94FD0D9D
:100D400060E088E00E94FD0D61E084E10E94FD0DFD
:100D500066E970E080E090E00E94210D60E084E1AF
:100D60000E94FD0D66E970E080E090E00E94210D98
:100D700061E084E10E94FD0D66E970E080E090E0B2
:100D80000E94210D60E084E1DF91CF911F910F91CE
:100D9000FF90EF90DF90CF90BF90AF909F908F909B
:100DA0007F906F900C94FD0DDF91CF911F910F916B
:100DB000FF90EF90DF90CF90BF90AF909F908F907B
:100DC0007F906F9008950E94BB040E94ED040E94E2
:100DD000EF030E9485050E94F5050E945D020E94B6
:100DE00049050C94C601CF93DF93EC018885998562
:100DF000009711F00E94E5108E8187FD05C060E02C
:100E0000DF91CF910C94C10DDF91CF910895CF93D5
:100E1000DF93EC018E8187FD07C061E00E94C10D68
:100E200060E08E810E94FD0D81E08983DF91CF918A
:100E30000895EF92FF920F931F93CF93DF93EC01EE
:100E40007B0188859985009711F00E94E5109D85AA
:100E50008A85981719F084E090E002C083E090E062
:100E60008E9D80018F9D100D9E9D100D11241D8360
:100E70000C83C8010E944D1099878887009741F024
:100E8000A80160E070E00E946E11FB82EA8204C05B
:100E90001D821C821B821A82DF91CF911F910F91BC
:100EA000FF90EF900895FC0131E0958582859813BD
:100EB00030E0CB0126E0969587952A95E1F7282F1B
:100EC00023702587CB0144E0969587954A95E1F7F5
:100ED00083708287AB015695479556954795437029
:100EE0004387962F9370948791E06F3F710511F0BF
:100EF00008F090E0908340855185452B51F091E0BA
:100F0000281390E0391729F062817381CF010C9486
:100F100019070895CF92DF92EF92FF920F931F93DC
:100F2000CF93DF93CDB7DEB729970FB6F894DEBF26
:100F30000FBECDBF8C01DC0118968D919C91199745
:100F4000892B09F481C10E94FC0CF801C684D78466
:100F5000E088F188DC01CB018C199D09AE09BF093D
:100F60008C329140A105B10570F3F894D801149624
:100F70008D919C9115979A83898318960D90BC91B9
:100F8000A02D7D01EFEFEE1AFE0A8C918987D80122
:100F90008C9152960D90BC91A02D882309F41AC112
:100FA0001D82AB32B10509F059C09BB1F8018489AB
:100FB000982B98879BB1809589238F838F818E830F
:100FC000898587FF02C088858E8358856F81498512
:100FD0003E812D8189819A81D7015BB9262F3BB94A
:100FE00000C046FD252F6BB900C05BB9362F2BB969
:100FF00000C045FD352F6BB900C05BB9262F3BB94A
:1010000000C044FD252F6BB900C05BB9362F2BB94A
:1010100000C043FD352F6BB900C05BB9262F3BB92B
:1010200000C042FD252F6BB900C05BB9362F2BB92C
:1010300000C041FD352F6BB900C05BB9262F3BB90D
:1010400000C040FD252F6BB901975BB9362F2BB936
:101050004D9147FD352F6BB901F6B8C0A532B105EA
:1010600009F059C095B1F8018489982B988795B1FA
:10107000809589238F838F818E83898587FF02C026
:1010800088858E8358856F8149853E812D81898130
:101090009A81D70155B9262F35B900C046FD252FB5
:1010A00065B900C055B9362F25B900C045FD352FAB
:1010B00065B900C055B9262F35B900C044FD252FAC
:1010C00065B900C055B9362F25B900C043FD352F8D
:1010D00065B900C055B9262F35B900C042FD252F8E
:1010E00065B900C055B9362F25B900C041FD352F6F
:1010F00065B900C055B9262F35B900C040FD252F70
:1011000065B9019755B9362F25B94D9147FD352F52
:1011100065B901F65BC0989709F08CC098B1F801E9
:101120008489982B988798B1809589238F838F81A4
:101130008E83898587FF02C088858E8358856F815D
:1011400049853E812D8189819A81D70158B9262F01
:1011500038B900C046FD252F68B900C058B9362FF0
:1011600028B900C045FD352F68B900C058B9262FF1
:1011700038B900C044FD252F68B900C058B9362FD2
:1011800028B900C043FD352F68B900C058B9262FD3
:1011900038B900C042FD252F68B900C058B9362FB4
:1011A00028B900C041FD352F68B900C058B9262FB5
:1011B00038B900C040FD252F68B9019758B9362FBE
:1011C00028B94D9147FD352F68B901F649873E830F
:1011D0002D832EC09C91F8018489982B98879C912F
:1011E000809589238F838F818C8388E08B835885BA
:1011F0006F8149853B812C8189819A81F7015C93BC
:1012000047FD252F2C93262F3A9531F0441F6C93E0
:1012100000C000C000C0F3CF6C93000038E04191E3
:10122000019769F7F801B38BA28B49873B832C8325
:101230009A83898378940E94FC0CD8011E966D9342
:101240007D938D939C93519729960FB6F894DEBFAA
:101250000FBECDBFDF91CF911F910F91FF90EF9007
:10126000DF90CF9008951F93CF93DF93EC01162F5B
:101270008981882331F08E8187FD03C060E00E9460
:10128000C10D1E838981882341F061E0812F0E9476
:10129000C10D60E0812F0E94FD0D812F90E0FC01C7
:1012A000EA56FF4FE491F0E0EE0FFF1FE954FF4FC5
:1012B000259134913B8B2A8BFC01E158FF4FE4913F
:1012C000EC8BDF91CF911F910895EF92FF921F93C6
:1012D000CF93DF93EC017B01142F19821F821986B3
:1012E00018861E861F86188A198AB9010E9453071C
:1012F000B701CE010E941907612FCE01DF91CF9176
:101300001F91FF90EF900C9433090F931F93DC0112
:1013100012968D919C9113976817790708F043C036
:1013200017968C911797882361F0489FA00111248C
:10133000452F829F90011124232F809F800111242B
:10134000012F1D968C911D971A969C911A971896AD
:10135000ED91FC911997891308C0CB01880F991F53
:10136000680F791F6E0F7F1F0AC0660F771F660F09
:10137000771F6E0F7F1FFB01E80FF11D10821A9679
:101380008C911A97FB01E80FF11D40831B968C91FD
:101390001B97FB01E80FF11D20831C968C91FB012C
:1013A000E80FF11D00831F910F9108957F928F9296
:1013B0009F92AF92BF92CF92DF92EF92FF920F93E4
:1013C0001F93CF93DF93FC01828193816817790784
:1013D00008F053C04A01AA24BB24782CC32ED42E73
:1013E000E52EFF24BC2DA22F8781882361F0889EE3
:1013F00040011124792C8C9D60011124BD2D829F08
:1014000070011124AF2D9585D285E084F1849D1360
:1014100008C0CB01880F991F680F791F6E0D7F1DC3
:101420001CC0660F771F660F771F6E0D7F1D052F7F
:101430001127222733277B01E90EF11C811102C0FD
:10144000202F09C090E0809F6001819FD00C909F69
:10145000D00C11242D2DE701288382859B01280FB4
:10146000311DE90178828385EB01C80FD11DB88356
:101470008485FB01E80FF11DA083DF91CF911F91BF
:101480000F91FF90EF90DF90CF90BF90AF909F9023
:101490008F907F900895FC01828193810895FF923F
:1014A0000F931F93CF93DF93EC01FF24F394F60E79
:1014B0002F81F21679F1088519852150B9F06F3F17
:1014C00059F430E040E050E06FEF7FEF80E090E0D3
:1014D0000E942810B9010CC08F2D90E0982F88270A
:1014E0000197622F70E00E94F20F02C060E070E08E
:1014F000F8014C815D81CF01801B910B841795070A
:1015000040F44081469FC001479F900D1124919364
:10151000F0CFFF82DF91CF911F910F91FF9008953F
:101520001F920F920FB60F9211242F933F934F9358
:101530005F936F937F938F939F93AF93BF93EF933B
:10154000FF93E091C401F091C5010995FF91EF91DE
:10155000BF91AF919F918F917F916F915F914F91CB
:101560003F912F910F900FBE0F901F901895FC0187
:10157000918D228D892F90E0805C9F4F821B910975
:101580008F7399270895FC01918D828D981731F002
:10159000828DE80FF11D858D90E008958FEF9FEF0C
:1015A0000895FC01918D828D981761F0828DDF0185
:1015B000A80FB11D5D968C91928D9F5F9F73928F46
:1015C00090E008958FEF9FEF089585E39CE0892BCD
:1015D00049F080E090E0892B29F00E94350C8111C0
:1015E0000C9400000895FC01848DDF01A80FB11D4B
:1015F000A35ABF4F2C91848D90E001968F73992749
:10160000848FA689B7892C93A089B1898C91806435
:101610008C93938D848D981306C00288F389E02DF6
:1016200080818F7D80830895EF92FF920F931F93A7
:10163000CF93DF93EC0181E0888F9B8D8C8D981385
:1016400005C0E889F989808185FD24C0F62E0B8DBF
:1016500010E00F5F1F4F0F731127E02E8C8DE812E3
:101660000CC00FB607FCFACFE889F989808185FFA5
:10167000F5CFCE010E94F30AF1CF8B8DFE01E80F6A
:10168000F11DE35AFF4FF0820B8FEA89FB898081BD
:10169000806207C0EE89FF896083E889F9898081CB
:1016A0008064808381E090E0DF91CF911F910F9162
:1016B000FF90EF900895CF93DF93EC01888D8823FE
:1016C000C9F0EA89FB89808185FD05C0A889B989AF
:1016D0008C9186FD0FC00FB607FCF5CF808185FF8A
:1016E000F2CFA889B9898C9185FFEDCFCE010E94F8
:1016F000F30AE7CFDF91CF910895CF92DF92EF9277
:10170000FF921F93CF93DF93EC016A017B01122FAD
:1017100060E874E88EE190E0A70196010E9406104F
:10172000DA01C9010197A109B109B695A795979565
:1017300087959C01E889F98982E08083211580E101
:101740003807A8F0E889F989108260E472E48FE034
:1017500090E0A70196010E940610DA01C9010197E5
:10176000A109B109B695A795979587959C01EC8538
:10177000FD853083EE85FF852083188EEC89FD89F9
:101780001083EA89FB89808180618083EA89FB89F3
:10179000808188608083EA89FB898081806880837A
:1017A000EA89FB8980818F7D8083DF91CF911F91B2
:1017B000FF90EF90DF90CF9008951F920F920FB699
:1017C0000F9211242F938F939F93EF93FF93E091A8
:1017D000D901F091DA018081E091DF01F091E0011F
:1017E00082FD12C090818091E2018F5F8F73209102
:1017F000E301821751F0E091E201F0E0E753FE4F80
:10180000958F8093E20101C08081FF91EF919F91BC
:101810008F912F910F900FBE0F901F9018951F92D0
:101820000F920FB60F9211242F933F934F935F9314
:101830006F937F938F939F93AF93BF93EF93FF9398
:1018400089EC91E00E94F30AFF91EF91BF91AF9173
:101850009F918F917F916F915F914F913F912F91C8
:101860000F900FBE0F901F90189589EC91E00E9489
:10187000B70A21E0892B09F420E0822F0895E9ECD2
:10188000F1E01382128288EE93E0A0E0B0E084835E
:101890009583A683B78381E991E09183808385EC6A
:1018A00090E09587848784EC90E09787868780EC2A
:1018B00090E0918B808B81EC90E0938B828B82EC1B
:1018C00090E0958B848B86EC90E0978B868B118EC5
:1018D000128E138E148E0895CF92DF92EF92FF92A4
:1018E0000F931F93CF93DF936C017A018B01C0E0BC
:1018F000D0E0CE15DF0581F0D8016D918D01D601C4
:10190000ED91FC910190F081E02DC6010995892BA4
:1019100011F02196EECF7E01C701DF91CF911F918B
:101920000F91FF90EF90DF90CF90089508950E945F
:101930005D0D0E94960C0E941204C5EEDAE00E9432
:10194000E3062097E1F30E94E50AF9CF1F920F9278
:101950000FB60F9211242F933F938F939F93AF93C2
:10196000BF938091670290916802A0916902B09143
:101970006A023091660226E0230F2D3720F402968A
:10198000A11DB11D05C029E8230F0396A11DB11D9E
:10199000209366028093670290936802A093690285
:1019A000B0936A0280916B0290916C02A0916D02DB
:1019B000B0916E020196A11DB11D80936B029093B0
:1019C0006C02A0936D02B0936E02BF91AF919F9194
:1019D0008F913F912F910F900FBE0F901F901895F0
:1019E0002FB7F89460916702709168028091690244
:1019F00090916A022FBF08953FB7F89480916B02CF
:101A000090916C02A0916D02B0916E0226B5A89BD8
:101A100005C02F3F19F00196A11DB11D3FBFBA2F80
:101A2000A92F982F8827820F911DA11DB11DBC01E0
:101A3000CD0143E0660F771F881F991F4A95D1F7A4
:101A400008958F929F92AF92BF92CF92DF92EF92C2
:101A5000FF926B017C010E94FC0C4B015C01C114E4
:101A6000D104E104F10401F10E94550E0E94FC0C26
:101A7000DC01CB0188199909AA09BB09883E93406A
:101A8000A105B10560F321E0C21AD108E108F1080F
:101A900088EE880E83E0981EA11CB11CC114D104ED
:101AA000E104F10419F7DBCFFF90EF90DF90CF90C6
:101AB000BF90AF909F908F900895789484B5826086
:101AC00084BD84B5816084BD85B5826085BD85B5E2
:101AD000816085BDEEE6F0E0808181608083E1E891
:101AE000F0E01082808182608083808181608083C9
:101AF000E0E8F0E0808181608083E1EBF0E08081CC
:101B000084608083E0EBF0E0808181608083EAE79D
:101B1000F0E0808184608083808182608083808126
:101B20008E7F80838081806880831092C1000895B9
:101B3000843081F028F4823099F08330A1F0089548
:101B40008830A9F08930B9F08530D1F480918000D7
:101B50008F7D03C0809180008F77809380000895EF
:101B600084B58F7702C084B58F7D84BD0895809140
:101B7000B0008F7703C08091B0008F7D8093B0005C
:101B80000895CF93DF9390E0FC01E158FF4F24913B
:101B9000FC01EA56FF4F8491882361F190E0880FA1
:101BA000991FFC01EF53FF4FC591D491FC01E954FB
:101BB000FF4FA591B491611109C09FB7F894888136
:101BC000209582238883EC912E230BC0623061F430
:101BD0009FB7F8948881322F309583238883EC91C6
:101BE0002E2B2C939FBF06C08FB7F894E8812E2B25
:101BF00028838FBFDF91CF9108951F93CF93DF93F9
:101C0000282F30E0F901E859FF4F8491F901E1589C
:101C1000FF4FD491F901EA56FF4FC491CC23C1F094
:101C2000162F81110E94980DEC2FF0E0EE0FFF1F90
:101C3000E954FF4FA591B4919FB7F894111104C0D6
:101C40008C91D095D82302C0EC91DE2BDC939FBF02
:101C5000DF91CF911F910895CF93DF93282F30E02C
:101C6000F901E859FF4F8491F901E158FF4FD491F0
:101C7000F901EA56FF4FC491CC2391F081110E94E3
:101C8000980DEC2FF0E0EE0FFF1FE355FF4FA591ED
:101C9000B491EC91ED2381E090E021F480E002C06A
:101CA00080E090E0DF91CF91089508950E946A0E40
:101CB0000C944B0F0E94440F58F00E943D0F40F0CF
:101CC00029F45F3F29F00C94340F51110C947F0FCD
:101CD0000C943A0F0E945C0F68F39923B1F35523DB
:101CE00091F3951B550BBB27AA276217730784072F
:101CF00038F09F5F5F4F220F331F441FAA1FA9F3C5
:101D000035D00E2E3AF0E0E832D091505040E695B2
:101D1000001CCAF72BD0FE2F29D0660F771F881F13
:101D2000BB1F261737074807AB07B0E809F0BB0B06
:101D3000802DBF01FF2793585F4F3AF09E3F51051A
:101D400078F00C94340F0C947F0F5F3FE4F3983ECF
:101D5000D4F3869577956795B795F7959F5FC9F703
:101D6000880F911D9695879597F90895E1E0660F84
:101D7000771F881FBB1F621773078407BA0720F0FD
:101D8000621B730B840BBA0BEE1F88F7E095089566
:101D90000E94640F88F09F5798F0B92F9927B75188
:101DA000B0F0E1F0660F771F881F991F1AF0BA95FF
:101DB000C9F714C0B13091F00E947E0FB1E00895D0
:101DC0000C947E0F672F782F8827B85F39F0B93FC2
:101DD000CCF3869577956795B395D9F73EF49095B2
:101DE0008095709561957F4F8F4F9F4F0895E89430
:101DF00009C097FB3EF490958095709561957F4F53
:101E00008F4F9F4F9923A9F0F92F96E9BB27939500
:101E1000F695879577956795B795F111F8CFFAF410
:101E2000BB0F11F460FF1BC06F5F7F4F8F4F9F4F41
:101E300016C0882311F096E911C0772321F09EE89F
:101E4000872F762F05C0662371F096E8862F70E005
:101E500060E02AF09A95660F771F881FDAF7880FDF
:101E60009695879597F9089597F99F6780E870E0B0
:101E700060E008959FEF80EC089500240A94161600
:101E8000170618060906089500240A941216130668
:101E9000140605060895092E0394000C11F48823F6
:101EA00052F0BB0F40F4BF2B11F460FF04C06F5F12
:101EB0007F4F8F4F9F4F089557FD9058440F551FE8
:101EC00059F05F3F71F04795880F97FB991F61F0BC
:101ED0009F3F79F087950895121613061406551F33
:101EE000F2CF4695F1DF08C0161617061806991F9F
:101EF000F1CF86957105610508940895E894BB2794
:101F000066277727CB0197F908950E94980F0C94C4
:101F10004B0F0E943D0F38F00E94440F20F0952394
:101F200011F00C94340F0C943A0F11240C947F0F81
:101F30000E945C0F70F3959FC1F3950F50E0551F01
:101F4000629FF001729FBB27F00DB11D639FAA270E
:101F5000F00DB11DAA1F649F6627B00DA11D661F5D
:101F6000829F2227B00DA11D621F739FB00DA11D7E
:101F7000621F839FA00D611D221F749F3327A00D38
:101F8000611D231F849F600D211D822F762F6A2FD4
:101F900011249F5750409AF0F1F088234AF0EE0F39
:101FA000FF1FBB1F661F771F881F91505040A9F766
:101FB0009E3F510580F00C94340F0C947F0F5F3FCF
:101FC000E4F3983ED4F3869577956795B795F795A2
:101FD000E7959F5FC1F7FE2B880F911D969587951A
:101FE00097F90895AA1BBB1B51E107C0AA1FBB1F8D
:101FF000A617B70710F0A61BB70B881F991F5A9595
:10200000A9F780959095BC01CD010895A1E21A2E03
:10201000AA1BBB1BFD010DC0AA1FBB1FEE1FFF1F8C
:10202000A217B307E407F50720F0A21BB30BE40BDC
:10203000F50B661F771F881F991F1A9469F7609523
:102040007095809590959B01AC01BD01CF010895DD
:10205000052E97FB1EF400940E943F1057FD07D0F9
:102060000E94061007FC03D04EF40C943F105095CC
:102070004095309521953F4F4F4F5F4F0895909574
:102080008095709561957F4F8F4F9F4F0895EE0F0C
:10209000FF1F0590F491E02D09940F931F93CF93A8
:1020A000DF938230910510F482E090E0E0917102BC
:1020B000F091720220E030E0A0E0B0E0309719F13A
:1020C000408151810281138148175907C8F0841754
:1020D000950769F4109731F012960C9312971396A6
:1020E0001C9327C0009371021093720222C0211525
:1020F000310519F04217530718F49A01BD01EF0199
:10210000DF01F801DBCF21153105F9F0281B390B70
:102110002430310580F48A819B816115710521F09D
:10212000FB019383828304C09093720280937102B7
:10213000FE01329644C0FE01E20FF31F819391939A
:1021400022503109398328833AC020916F0230919F
:102150007002232B41F4209102013091030130934E
:10216000700220936F02209100013091010121152E
:10217000310541F42DB73EB740910401509105015E
:10218000241B350BE0916F02F0917002E217F30708
:10219000A0F42E1B3F0B2817390778F0AC014E5FD7
:1021A0005F4F2417350748F04E0F5F1F50937002A2
:1021B00040936F028193919302C0E0E0F0E0CF0181
:1021C000DF91CF911F910F910895CF93DF930097E7
:1021D00009F481C0FC01329713821282A09171022E
:1021E000B0917202109781F420813181820F931F88
:1021F00020916F02309170022817390751F5F09342
:102200007002E0936F0267C0ED0120E030E0CE176E
:10221000DF0740F44A815B819E0141155105F1F0D1
:10222000EA01F5CFD383C28340815181840F951F8A
:10223000C817D90759F488819981840F951F029690
:10224000918380838A819B819383828321153105C9
:1022500029F4F0937202E09371023DC0E901FB831F
:10226000EA8349915991C40FD51FEC17FD0761F41A
:1022700080819181840F951F0296E901998388835B
:10228000828193819B838A83E0E0F0E012968D91B6
:102290009C911397009719F0FD01DC01F7CF8D9108
:1022A0009C9111979D012E5F3F4F820F931F2091AC
:1022B0006F02309170022817390769F4309729F4BA
:1022C000109272021092710202C013821282B093B5
:1022D0007002A0936F02DF91CF910895DC0101C0DD
:1022E0006D9341505040E0F7089510E0C8E6D0E00B
:1022F00004C0FE010E9447102196C936D107C9F7D4
:04230000F894FFCF7F
:102304000000730280000150C30000010040004639
:10231400004C00520058005D00630068006C0071BE
:1023240000740078007A007C007E007F007F007FCC
:10233400007E007C007A007800740071006C0068F4
:102344000063005D00580052004C00460040003914
:102354000033002D00270022001C00170013000E7C
:10236400000B00070005000300010000000000004E
:102374000001000300050007000B000E0013001706
:10238400001C00220027002D00330039000000004B
:0E23940000140B6C0CB70AD10AC30A5B0B00D5
:00000001FF
