:100000000C9469000C9491000C9491000C94910054
:100010000C9491000C9491000C9491000C9491001C
:100020000C9491000C9491000C9491000C9491000C
:100030000C9491000C9491000C9491000C949100FC
:100040000C944B0C0C9491000C94820B0C94B40BFC
:100050000C9491000C9491000C9491000C949100DC
:100060000C9491000C949100000000090003020020
:10007000000405080000000000000000000000016E
:10008000020408102040800102040810200102042C
:100090000810204080400404040404040404020204
:1000A000020202020303030303030202030000002F
:1000B0000023002600290000000000250028002B56
:1000C0000000000000240027002A00001B02E40BAF
:1000D000240211241FBECFEFD8E0DEBFCDBF11E058
:1000E000A0E0B1E0E2E6F2E202C005900D92AA398A
:1000F000B107D9F722E0AAE9B1E001C01D92AC3600
:10010000B207E1F710E0C8E6D0E004C02197FE0195
:100110000E94F60FC636D107C9F70E943C0C0C941A
:1001200024110C940000DC01ED91FC910190F08110
:10013000E02D09948F929F92AF92BF92CF92DF925F
:10014000EF92FF920F931F93CF93DF936B017C018C
:10015000042F8AE991E00E94580A1FEF180F802EA1
:10016000912CA12CB12C17FD26C0C12F012E000C03
:10017000DD0B60968091AF019091B001C81BD90B47
:100180008AE991E00E94580ABC01CE010E94C00F8A
:10019000A7019601BC018AE991E00E94E3098AE97E
:1001A00091E00E949707002321F0C501B4010E944D
:1001B000C60C1150D8CFDF91CF911F910F91FF90B6
:1001C000EF90DF90CF90BF90AF909F908F90089569
:1001D0000F931F93CF93DF9310E0C12F012E000CDC
:1001E000DD0B8AE991E00E94580AC817D907A0F5EB
:1001F0008AE991E00E94580AAC01415051092091CE
:10020000AF013091B001C417D50789F40F96EC0106
:10021000C21BD30B8AE991E00E94580ABC01CE01AF
:100220000E94C00F20E03FEF40E050E00EC060961B
:10023000C21BD30B8AE991E00E94580ABC01CE018F
:100240000E94C00F20E030E0A901BC018AE991E0E2
:100250000E94E3091F5FC1CF8AE991E00E949707DE
:1002600068EE73E080E090E00E94C60CC0E00C2FC6
:100270000C2E000C110B8AE991E00E94580A081715
:10028000190750F420E030E0A901B8018AE991E0B3
:100290000E94E309CF5FEBCF8AE991E0DF91CF9134
:1002A0001F910F910C949707F8941092B000109240
:1002B000800014BC14BEE0E0FFE309940F931F9389
:1002C000CF93DF938091070190910801892B09F06A
:1002D0004CC08091B3019091B40101968F3F91057C
:1002E00011F481E09FEF9093B4018093B30180916A
:1002F000B3019091B4019093B2018093B101C0E039
:10030000D0E08AE991E00E94580AC817D907F8F4AA
:100310002091B3013091B401C90182509F4F8D3FAC
:10032000914030F437FF05C031952195310901C066
:100330002FEF022F10E0159507951595079540E0D2
:10034000BE018AE991E00E9492092196DACF8AE9FA
:1003500091E00E94970765E070E080E090E0DF9117
:10036000CF911F910F910C94C60CDF91CF911F91EB
:100370000F9108950F931F93CF93DF938091B30153
:100380009091B40197FF03C0919581959109909345
:10039000B4018093B3018091B1019091B20197FFB4
:1003A00003C09195819591099093B2018093B10119
:1003B0008091B3019091B40118161906BCF501970C
:1003C0009093B4018093B3018091B1019091B201F7
:1003D000181619062CF401979093B2018093B1017D
:1003E000C0E0D0E08AE991E00E94580AC817D90716
:1003F00090F40091B1011091B201159507951595F2
:1004000007952091B30140E0BE018AE991E00E9486
:1004100092092196E7CF8AE991E00E94970761E06F
:1004200070E080E090E00E94C60CC2CFDF91CF91D7
:100430001F910F91089522E530E044E060E170E003
:100440008AE991E00C9472098AE991E00C94000722
:100450000F931F93CF93DF9304E010E0D1E082EC81
:1004600091E00E945C0A892B09F49CC082EC91E027
:100470000E94760AC82F8E32B1F40E94950C6093C8
:10048000B9017093BA018093BB019093BC01809134
:100490000701909108018230910511F00497F9F657
:1004A00080E090E004C0813629F486E090E00E946C
:1004B0001903D5CF803749F4809107019091080145
:1004C000039769F685E090E0F2CF8B3641F4809196
:1004D0000701909108010397039708F6E1CF86364C
:1004E00019F484E090E0E3CF833519F4D093C1018F
:1004F000B6CF833719F41092C101B1CF893659F4C0
:1005000062E670E082EC91E00E94930082EC91E060
:100510000E94000BA4CF813219F41092060104C08E
:100520008F3351F4D0930601809107019091080117
:10053000892B09F494CFB4CF8F7D8C34C9F482EC2D
:1005400091E00E945C0A892BD1F382EC91E00E9439
:10055000760A813138F4082E000C990B9093B00183
:100560008093AF01CC3409F07ACF0E94E80077CFB6
:10057000C03309F074CF109308010093070182EC97
:1005800091E00E945C0A892BD1F382EC91E00E94F9
:10059000760A803209F063CFDF91CF911F910F91DE
:1005A0000C945401DF91CF911F910F910895DF9228
:1005B000EF92FF920F931F93CF93DF9311E0EE24FE
:1005C000E3948091070190910801049751F50E94EE
:1005D0002802F12EFE24C0E0D0E0DF2CD1948AE97D
:1005E00091E00E94580AC817D90750F400E020E0B3
:1005F0004D2DBE018AE991E00E9492092196EFCF2C
:100600008AE991E00E94970764E670E080E090E05C
:100610000E94C60C111102C01F2DD3CF0E94B80436
:10062000FBCFDF91CF911F910F91FF90EF90DF9063
:100630000895CF93DF932091070130910801281787
:10064000390709F44CC0EC010E94BA0180910701FE
:10065000909108010197B9F0C230D10549F569E0E0
:100660008AE991E00E94400960E084E00E94A20DC6
:1006700060E088E00E94A20D68EB7BE080E090E003
:100680000E94C60C03C0C230D10591F461E088E03D
:100690000E94A20D64E08AE991E00E9440098AE983
:1006A00091E00E9414078AE991E00E9497070DC02B
:1006B000C730D10551F464E670E082EC91E00E940D
:1006C000930082EC91E00E94000BD0930801C0934C
:1006D0000701249721F4DF91CF910C94D702DF9189
:1006E000CF91089583E00E94D10D209107013091B0
:1006F00008012130310529F4892BA1F482E090E032
:100700000FC02230310541F48130910559F49093A6
:100710000801809307010895019721F487E090E094
:100720000C941903089514BE0FB6F894A8958091FF
:100730006000886180936000109260000FBE26E028
:1007400040E056E960E070E082EC91E00E94220B0C
:1007500060E082E00E94660D60E083E00E94660D2A
:1007600061E082E00E94A20D61E088E00E94660DD7
:100770000E94950C6093B9017093BA018093BB01FC
:100780009093BC010C94720364E770E082EC91E0FA
:100790000E94930082EC91E00E94000B83E090E0C5
:1007A0000C941903EF92FF920F931F93CF93DF9353
:1007B000CDB7DEB760970FB6F894DEBF0FBECDBFE2
:1007C0008E010F5F1F4F80E1F80111928A95E9F7C2
:1007D00080E090E0AFEFB0E089839A83AB83BC8385
:1007E00080E098E8AFEFB0E08D839E83AF83B88759
:1007F00080E09FEFA0E0B0E089879A87AB87BC8755
:100800000E94BA017E01FDE0EF0EF11CF80161913A
:100810007191819191918F014CE30E949A000E1584
:100820001F05A1F78FEF90E09093B4018093B3017F
:100830001092B2011092B10160960FB6F894DEBF2B
:100840000FBECDBFDF91CF911F910F91FF90EF9021
:100850000C94C4030F931F938091C101882349F125
:100860008091070190910801892B19F50E94950C40
:100870000091BD011091BE012091BF013091C001D6
:10088000DC01CB01801B910BA20BB30B88399A437F
:10089000A105B10570F00E94950C6093BD017093A5
:1008A000BE018093BF019093C0011F910F910C94E2
:1008B000D2031F910F9108950F931F938091070109
:1008C00090910801009721F00597029708F04DC01C
:1008D00082E00E94D10D892B09F047C00E94950C3F
:1008E0000091B5011091B6012091B7013091B80186
:1008F000DC01CB01801B910BA20BB30B883E934014
:10090000A105B10590F10E94950C6093B50170931B
:10091000B6018093B7019093B8018091070190913F
:100920000801009721F41F910F910C94D203853098
:10093000910549F483E090E09093080180930701CA
:1009400063E670E008C0069781F4109208011092E7
:10095000070161E670E082EC91E00E94930082EC76
:1009600091E01F910F910C94000B1F910F9108952E
:100970000F931F930E94950C0091B9011091BA0139
:100980002091BB013091BC01DC01CB01801B910B9C
:10099000A20BB30B209107013091080127303105DC
:1009A00041F481319742A105B105D8F081E090E092
:1009B00014C0409106014423A1F0A90141505109FE
:1009C0004230510570F02430310559F081369A4E8D
:1009D000A105B10530F082E090E01F910F910C94D9
:1009E00019031F910F9108953F924F925F926F925A
:1009F0007F928F929F92AF92BF92CF92DF92EF92AF
:100A0000FF920F931F93CF93DF9300D000D01F92DC
:100A1000CDB7DEB720910701309108013A832983D1
:100A200010E0512C412C312CC12CD12C809107018C
:100A3000909108010597029760F020E030E0A9014D
:100A4000612F752D842D932D0E944E0F18160CF0DA
:100A5000E1C00E9428020E945C040E9472038091FF
:100A600007019091080105970297A8F520E030E072
:100A700040E85FE3612F752D842D932D0E94680E51
:100A800087FF57C0212F352D442D532D60E070E096
:100A900080E89FE30E94FB0DF62E072F8D839B833A
:100AA0002DEC3CEC4CEC5DE30E94680E87FF02C02D
:100AB0008F2D06C08DEC0CEC3CEC3D839DE39B83BD
:100AC000282F302F4D815B81612F752D842D932D23
:100AD0000E94FC0D2AC020E030E0A901612F752D95
:100AE000842D932D0E944E0F18161CF52DEC3CEC16
:100AF0004CEC5CE3612F752D842D932D0E94680EC4
:100B000087FF05C0712F652D942D832D04C07DECCA
:100B10006CEC9CEC8CE3272F362F492F582F612F3C
:100B2000752D842D932D0E94FB0D162F572E482EC8
:100B3000392E5601E12CF12C8AE991E00E94580AE5
:100B4000E816F90608F058C0F501EF73FF27EE0F1D
:100B5000FF1FE75FFE4F2081318133273C832B83CA
:100B600089819A81059739F4B901759567957595CD
:100B70006795062F01C000E0470190E1890E911CA6
:100B80008091AF019091B001881A990A8AE991E0A9
:100B90000E94580A3C01602F70E080E090E00E94C3
:100BA0009E0E212F352D442D532D0E94530F0E9450
:100BB0006D0E062F2B813C81B901330F880B990BE9
:100BC0000E949E0E212F352D442D532D0E94530F30
:100BD0000E946D0E262FC401B3010E94C00F40E099
:100BE000BC018AE991E00E9492093FEFE31AF30AFF
:100BF00088E0A80EB11CA0CF8AE991E00E94970777
:100C000065E070E080E090E00E94C60C9FEFC91A9A
:100C1000D90A0CCF0F900F900F900F900F90DF918B
:100C2000CF911F910F91FF90EF90DF90CF90BF90E9
:100C3000AF909F908F907F906F905F904F903F907C
:100C400008956F927F928F929F92AF92BF92CF92B0
:100C5000DF92EF92FF920F931F93CF93DF938091D8
:100C60000701909108018230910519F0079709F06A
:100C7000A8C00E94950C4B015C01C0E0D0E0C12CE3
:100C8000D12C66246394712C809107019091080106
:100C90008230910531F18730910521F01C161D0637
:100CA00094F06CC00E94950CDC01CB018819990965
:100CB000AA09BB0981349C49A105B10520F07092B5
:100CC000080160920701809107019091080182302C
:100CD000910539F0079729F01C161D062CF425976D
:100CE00004C0CF3FD1050CF425960E9428020E9433
:100CF000B8040E947203E12CF12C8AE991E00E9471
:100D0000580AE816F90680F58AE991E00E94580A27
:100D10008C018AE991E00E94580AFC01C7018C19F4
:100D20009D09B8010E94C00F282FCE01BF010E946B
:100D3000C00F269F402D112480910701909108013A
:100D40008730910511F00197B1F500E020E0B7017F
:100D50008AE991E00E9492098AE991E00E9497074E
:100D60008FEFE81AF80AC9CF6AE070E080E090E0FF
:100D70000E94C60C2FEFC21AD20A86CF019709F53E
:100D800069E08AE991E00E94400960E084E00E9405
:100D9000A20D60E088E0DF91CF911F910F91FF904D
:100DA000EF90DF90CF90BF90AF909F908F907F900B
:100DB0006F900C94A20D042F06950695242F40E009
:100DC000C6CFDF91CF911F910F91FF90EF90DF90F1
:100DD000CF90BF90AF909F908F907F906F9008952D
:100DE0000E942A040E945C040E9472030E94F40480
:100DF0000E9421060E9428020E94B8040C945E0101
:100E0000CF93DF93EC0188859985009711F00E94BC
:100E100094108E8187FD05C060E0DF91CF910C9426
:100E2000660DDF91CF910895CF93DF93EC018E8112
:100E300087FD07C061E00E94660D60E08E810E9420
:100E4000A20D81E08983DF91CF910895EF92FF9207
:100E50000F931F93CF93DF93EC017B0188859985D6
:100E6000009711F00E9494109D858A85981719F0BB
:100E700084E090E002C083E090E08E9D80018F9D31
:100E8000100D9E9D100D11241D830C83C8010E941E
:100E9000FC0F99878887009741F0A80160E070E017
:100EA0000E941D11FB82EA8204C01D821C821B82EB
:100EB0001A82DF91CF911F910F91FF90EF900895CB
:100EC000FC0131E095858285981330E0CB0126E066
:100ED000969587952A95E1F7282F23702587CB01D2
:100EE00044E0969587954A95E1F783708287AB0138
:100EF000569547955695479543704387962F93701F
:100F0000948791E06F3F710511F008F090E09083B5
:100F100040855185452B51F091E0281390E0391719
:100F200029F062817381CF010C9426070895CF9236
:100F3000DF92EF92FF920F931F93CF93DF93CDB782
:100F4000DEB729970FB6F894DEBF0FBECDBF8C0178
:100F5000DC0118968D919C911997892B09F481C118
:100F60000E94A10CF801C684D784E088F188DC01D6
:100F7000CB018C199D09AE09BF098C329140A105A6
:100F8000B10570F3F894D80114968D919C91159742
:100F90009A83898318960D90BC91A02D7D01EFEF67
:100FA000EE1AFE0A8C918987D8018C9152960D9089
:100FB000BC91A02D882309F41AC11D82AB32B10562
:100FC00009F059C09BB1F8018489982B98879BB18F
:100FD000809589238F838F818E83898587FF02C0C7
:100FE00088858E8358856F8149853E812D818981D1
:100FF0009A81D7015BB9262F3BB900C046FD252F4A
:101000006BB900C05BB9362F2BB900C045FD352F39
:101010006BB900C05BB9262F3BB900C044FD252F3A
:101020006BB900C05BB9362F2BB900C043FD352F1B
:101030006BB900C05BB9262F3BB900C042FD252F1C
:101040006BB900C05BB9362F2BB900C041FD352FFD
:101050006BB900C05BB9262F3BB900C040FD252FFE
:101060006BB901975BB9362F2BB94D9147FD352FE1
:101070006BB901F6B8C0A532B10509F059C095B1F8
:10108000F8018489982B988795B1809589238F835F
:101090008F818E83898587FF02C088858E835885DE
:1010A0006F8149853E812D8189819A81D70155B90A
:1010B000262F35B900C046FD252F65B900C055B9AA
:1010C000362F25B900C045FD352F65B900C055B98B
:1010D000262F35B900C044FD252F65B900C055B98C
:1010E000362F25B900C043FD352F65B900C055B96D
:1010F000262F35B900C042FD252F65B900C055B96E
:10110000362F25B900C041FD352F65B900C055B94E
:10111000262F35B900C040FD252F65B9019755B977
:10112000362F25B94D9147FD352F65B901F65BC0C6
:10113000989709F08CC098B1F8018489982B98870A
:1011400098B1809589238F838F818E83898587FFCE
:1011500002C088858E8358856F8149853E812D81A7
:1011600089819A81D70158B9262F38B900C046FD28
:10117000252F68B900C058B9362F28B900C045FDE1
:10118000352F68B900C058B9262F38B900C044FDC2
:10119000252F68B900C058B9362F28B900C043FDC3
:1011A000352F68B900C058B9262F38B900C042FDA4
:1011B000252F68B900C058B9362F28B900C041FDA5
:1011C000352F68B900C058B9262F38B900C040FD86
:1011D000252F68B9019758B9362F28B94D9147FD89
:1011E000352F68B901F649873E832D832EC09C9127
:1011F000F8018489982B98879C91809589238F8307
:101200008F818C8388E08B8358856F8149853B81F2
:101210002C8189819A81F7015C9347FD252F2C93BE
:10122000262F3A9531F0441F6C9300C000C000C0D7
:10123000F3CF6C93000038E04191019769F7F80112
:10124000B38BA28B49873B832C839A8389837894C1
:101250000E94A10CD8011E966D937D938D939C9353
:10126000519729960FB6F894DEBF0FBECDBFDF9120
:10127000CF911F910F91FF90EF90DF90CF90089545
:101280001F93CF93DF93EC01162F8981882331F0D0
:101290008E8187FD03C060E00E94660D1E838981F8
:1012A000882341F061E0812F0E94660D60E0812F6C
:1012B0000E94A20D812F90E0FC01EA56FF4FE491BD
:1012C000F0E0EE0FFF1FE954FF4F259134913B8B67
:1012D0002A8BFC01E158FF4FE491EC8BDF91CF9119
:1012E0001F910895EF92FF921F93CF93DF93EC012C
:1012F0007B01142F19821F82198618861E861F866D
:10130000188A198AB9010E946007B701CE010E94AC
:101310002607612FCE01DF91CF911F91FF90EF90B3
:101320000C9440090F931F93DC0112968D919C91B0
:1013300013976817790708F043C017968C91179791
:10134000882361F0489FA0011124452F829F9001BE
:101350001124232F809F80011124012F1D968C9131
:101360001D971A969C911A971896ED91FC911997D2
:10137000891308C0CB01880F991F680F791F6E0F62
:101380007F1F0AC0660F771F660F771F6E0F7F1FC4
:10139000FB01E80FF11D10821A968C911A97FB0140
:1013A000E80FF11D40831B968C911B97FB01E80F02
:1013B000F11D20831C968C91FB01E80FF11D008329
:1013C0001F910F9108957F928F929F92AF92BF923B
:1013D000CF92DF92EF92FF920F931F93CF93DF9301
:1013E000FC01828193816817790708F053C04A0194
:1013F000AA24BB24782CC32ED42EE52EFF24BC2D8A
:10140000A22F8781882361F0889E40011124792CC6
:101410008C9D60011124BD2D829F70011124AF2D80
:101420009585D285E084F1849D1308C0CB01880F97
:10143000991F680F791F6E0D7F1D1CC0660F771FE7
:10144000660F771F6E0D7F1D052F1127222733276B
:101450007B01E90EF11C811102C0202F09C090E030
:10146000809F6001819FD00C909FD00C11242D2D66
:10147000E701288382859B01280F311DE9017882CD
:101480008385EB01C80FD11DB8838485FB01E80F6C
:10149000F11DA083DF91CF911F910F91FF90EF90ED
:1014A000DF90CF90BF90AF909F908F907F900895E6
:1014B000FC01828193810895FC01918D228D892FF9
:1014C00090E0805C9F4F821B91098F73992708954C
:1014D000FC01918D828D981731F0828DE80FF11DFE
:1014E000858D90E008958FEF9FEF0895FC01918D19
:1014F000828D981761F0828DDF01A80FB11D5D9676
:101500008C91928D9F5F9F73928F90E008958FEFE3
:101510009FEF08958AED9BE0892B49F080E090E0F1
:10152000892B29F00E94DA0B81110C940000089598
:10153000FC01848DDF01A80FB11DA35ABF4F2C9170
:10154000848D90E001968F739927848FA689B7893F
:101550002C93A089B1898C9180648C93938D848D18
:10156000981306C00288F389E02D80818F7D8083E7
:101570000895EF92FF920F931F93CF93DF93EC01A7
:1015800081E0888F9B8D8C8D981305C0E889F9893F
:10159000808185FD24C0F62E0B8D10E00F5F1F4F5C
:1015A0000F731127E02E8C8DE8120CC00FB607FCCC
:1015B000FACFE889F989808185FFF5CFCE010E94B5
:1015C000980AF1CF8B8DFE01E80FF11DE35AFF4F12
:1015D000F0820B8FEA89FB898081806207C0EE89E7
:1015E000FF896083E889F98980818064808381E054
:1015F00090E0DF91CF911F910F91FF90EF900895B0
:10160000CF93DF93EC01888D8823C9F0EA89FB89A9
:10161000808185FD05C0A889B9898C9186FD0FC0A0
:101620000FB607FCF5CF808185FFF2CFA889B98975
:101630008C9185FFEDCFCE010E94980AE7CFDF9114
:10164000CF910895CF92DF92EF92FF921F93CF93A5
:10165000DF93EC016A017B01122F60E874E88EE1F0
:1016600090E0A70196010E94D40FDA01C901019709
:10167000A109B109B695A795979587959C01E88929
:10168000F98982E08083211580E13807A8F0E88994
:10169000F989108260E472E48FE090E0A70196017E
:1016A0000E94D40FDA01C9010197A109B109B695C9
:1016B000A795979587959C01EC85FD853083EE85F0
:1016C000FF852083188EEC89FD891083EA89FB89C8
:1016D000808180618083EA89FB8980818860808342
:1016E000EA89FB89808180688083EA89FB8980811F
:1016F0008F7D8083DF91CF911F91FF90EF90DF90DE
:10170000CF9008951F920F920FB60F9211242F932E
:101710008F939F93EF93FF93E091D201F091D301C8
:101720008081E091D801F091D90182FD12C09081B1
:101730008091DB018F5F8F732091DC01821751F064
:10174000E091DB01F0E0EE53FE4F958F8093DB01DB
:1017500001C08081FF91EF919F918F912F910F9008
:101760000FBE0F901F9018951F920F920FB60F92F9
:1017700011242F933F934F935F936F937F938F9396
:101780009F93AF93BF93EF93FF9382EC91E00E94FE
:10179000980AFF91EF91BF91AF919F918F917F91A7
:1017A0006F915F914F913F912F910F900FBE0F90CE
:1017B0001F90189582EC91E00E945C0A21E0892B31
:1017C00009F420E0822F0895E2ECF1E01382128206
:1017D00088EE93E0A0E0B0E084839583A683B7838E
:1017E0008DE891E09183808385EC90E095878487F4
:1017F00084EC90E09787868780EC90E0918B808BDB
:1018000081EC90E0938B828B82EC90E0958B848BC3
:1018100086EC90E0978B868B118E128E138E148E31
:101820000895CF92DF92EF92FF920F931F93CF9381
:10183000DF936C017A018B01C0E0D0E0CE15DF05AB
:1018400081F0D8016D918D01D601ED91FC9101904F
:10185000F081E02DC6010995892B11F02196EECF7C
:101860007E01C701DF91CF911F910F91FF90EF9003
:10187000DF90CF90089508950E94020D0E943B0CC6
:101880000E949303CAE8DAE00E94F0062097E1F391
:101890000E948A0AF9CF1F920F920FB60F9211245D
:1018A0002F933F938F939F93AF93BF938091600249
:1018B00090916102A0916202B091630230915F0247
:1018C00026E0230F2D3720F40296A11DB11D05C07F
:1018D00029E8230F0396A11DB11D20935F02809379
:1018E000600290936102A0936202B09363028091C0
:1018F000640290916502A0916602B0916702019620
:10190000A11DB11D8093640290936502A0936602AD
:10191000B0936702BF91AF919F918F913F912F91AB
:101920000F900FBE0F901F9018952FB7F8946091ED
:1019300060027091610280916202909163022FBFF8
:1019400008953FB7F8948091640290916502A09148
:101950006602B091670226B5A89B05C02F3F19F01B
:101960000196A11DB11D3FBFBA2FA92F982F88271F
:10197000820F911DA11DB11DBC01CD0143E0660F79
:10198000771F881F991F4A95D1F708958F929F92CC
:10199000AF92BF92CF92DF92EF92FF926B017C01E8
:1019A0000E94A10C4B015C01C114D104E104F104BB
:1019B00001F10E94FA0D0E94A10CDC01CB018819F3
:1019C0009909AA09BB09883E9340A105B10560F3B6
:1019D00021E0C21AD108E108F10888EE880E83E000
:1019E000981EA11CB11CC114D104E104F10419F723
:1019F000DBCFFF90EF90DF90CF90BF90AF909F90A4
:101A00008F900895789484B5826084BD84B5816098
:101A100084BD85B5826085BD85B5816085BDEEE6F6
:101A2000F0E0808181608083E1E8F0E010828081D5
:101A300082608083808181608083E0E8F0E0808143
:101A400081608083E1EBF0E0808184608083E0EB63
:101A5000F0E0808181608083EAE7F0E0808184604B
:101A6000808380818260808380818E7F808380817B
:101A7000806880831092C1000895843081F028F43A
:101A8000823099F08330A1F008958830A9F0893030
:101A9000B9F08530D1F4809180008F7D03C08091B2
:101AA00080008F7780938000089584B58F7702C07F
:101AB00084B58F7D84BD08958091B0008F7703C079
:101AC0008091B0008F7D8093B0000895CF93DF9315
:101AD00090E0FC01E158FF4F2491FC01EA56FF4FD2
:101AE0008491882361F190E0880F991FFC01EF53E6
:101AF000FF4FC591D491FC01E954FF4FA591B491DA
:101B0000611109C09FB7F89488812095822388834A
:101B1000EC912E230BC0623061F49FB7F89488815A
:101B2000322F309583238883EC912E2B2C939FBFEB
:101B300006C08FB7F894E8812E2B28838FBFDF91E2
:101B4000CF9108951F93CF93DF93282F30E0F901B1
:101B5000E859FF4F8491F901E158FF4FD491F90101
:101B6000EA56FF4FC491CC23C1F0162F81110E9479
:101B70003D0DEC2FF0E0EE0FFF1FE954FF4FA59154
:101B8000B4919FB7F894111104C08C91D095D823CB
:101B900002C0EC91DE2BDC939FBFDF91CF911F91B0
:101BA0000895CF93DF93282F30E0F901E859FF4FD4
:101BB0008491F901E158FF4FD491F901EA56FF4FA2
:101BC000C491CC2391F081110E943D0DEC2FF0E0E7
:101BD000EE0FFF1FE355FF4FA591B491EC91ED235C
:101BE00081E090E021F480E002C080E090E0DF91AD
:101BF000CF91089508955058BB27AA270E94130E2D
:101C00000C94140F0E94060F38F00E940D0F20F064
:101C100039F49F3F19F426F40C94030F0EF4E09569
:101C2000E7FB0C94FD0EE92F0E94250F58F3BA171D
:101C3000620773078407950720F079F4A6F50C94E2
:101C4000470F0EF4E0950B2EBA2FA02D0B01B90112
:101C500090010C01CA01A0011124FF27591B99F022
:101C6000593F50F4503E68F11A16F040A22F232F2E
:101C7000342F4427585FF3CF469537952795A7957E
:101C8000F0405395C9F77EF41F16BA0B620B730B25
:101C9000840BBAF09150A1F0FF0FBB1F661F771F96
:101CA000881FC2F70EC0BA0F621F731F841F48F44B
:101CB000879577956795B795F7959E3F08F0B0CFD4
:101CC0009395880F08F09927EE0F979587950895BB
:101CD0000E94D90E08F481E008950E942D0F88F02B
:101CE0009F5798F0B92F9927B751B0F0E1F0660FE0
:101CF000771F881F991F1AF0BA95C9F714C0B13021
:101D000091F00E94470FB1E008950C94470F672FA0
:101D1000782F8827B85F39F0B93FCCF3869577954F
:101D20006795B395D9F73EF4909580957095619538
:101D30007F4F8F4F9F4F0895E89409C097FB3EF463
:101D400090958095709561957F4F8F4F9F4F992308
:101D5000A9F0F92F96E9BB279395F6958795779586
:101D60006795B795F111F8CFFAF4BB0F11F460FF46
:101D70001BC06F5F7F4F8F4F9F4F16C0882311F09E
:101D800096E911C0772321F09EE8872F762F05C0B2
:101D9000662371F096E8862F70E060E02AF09A954D
:101DA000660F771F881FDAF7880F9695879597F942
:101DB0000895990F0008550FAA0BE0E8FEEF1616DC
:101DC0001706E807F907C0F012161306E407F5072F
:101DD00098F0621B730B840B950B39F40A2661F0A3
:101DE000232B242B252B21F408950A2609F4A14046
:101DF000A6958FEF811D811D089597F99F6780E853
:101E000070E060E008959FEF80EC089500240A944C
:101E10001616170618060906089500240A941216C5
:101E20001306140605060895092E0394000C11F4F8
:101E3000882352F0BB0F40F4BF2B11F460FF04C0A5
:101E40006F5F7F4F8F4F9F4F089557FD9058440FFE
:101E5000551F59F05F3F71F04795880F97FB991F09
:101E600061F09F3F79F087950895121613061406C6
:101E7000551FF2CF4695F1DF08C016161706180653
:101E8000991FF1CF86957105610508940895E8942E
:101E9000BB2766277727CB0197F908950E94D90EB3
:101EA00008F48FEF08950E94660F0C94140F0E949F
:101EB000060F38F00E940D0F20F0952311F00C94BE
:101EC000FD0E0C94030F11240C94480F0E94250F53
:101ED00070F3959FC1F3950F50E0551F629FF0017D
:101EE000729FBB27F00DB11D639FAA27F00DB11D96
:101EF000AA1F649F6627B00DA11D661F829F22271F
:101F0000B00DA11D621F739FB00DA11D621F839FA5
:101F1000A00D611D221F749F3327A00D611D231F7B
:101F2000849F600D211D822F762F6A2F11249F57C9
:101F300050409AF0F1F088234AF0EE0FFF1FBB1FCC
:101F4000661F771F881F91505040A9F79E3F51058B
:101F500080F00C94FD0E0C94480F5F3FE4F3983E24
:101F6000D4F3869577956795B795F795E7959F5F35
:101F7000C1F7FE2B880F911D9695879597F90895C7
:101F8000AA1BBB1B51E107C0AA1FBB1FA617B7079F
:101F900010F0A61BB70B881F991F5A95A9F78095BB
:101FA0009095BC01CD010895A1E21A2EAA1BBB1B7E
:101FB000FD010DC0AA1FBB1FEE1FFF1FA217B30715
:101FC000E407F50720F0A21BB30BE40BF50B661F2B
:101FD000771F881F991F1A9469F7609570958095EF
:101FE00090959B01AC01BD01CF010895EE0FFF1F3D
:101FF0000590F491E02D09940F931F93CF93DF93F5
:102000008230910510F482E090E0E0916A02F09154
:102010006B0220E030E0A0E0B0E0309719F14081A1
:1020200051810281138148175907C8F08417950719
:1020300069F4109731F012960C93129713961C9333
:1020400027C000936A0210936B0222C0211531054C
:1020500019F04217530718F49A01BD01EF01DF018F
:10206000F801DBCF21153105F9F0281B390B24309D
:10207000310580F48A819B816115710521F0FB0196
:102080009383828304C090936B0280936A02FE0163
:10209000329644C0FE01E20FF31F819391932250C8
:1020A0003109398328833AC020916802309169024E
:1020B000232B41F4209102013091030130936902F6
:1020C0002093680220910001309101012115310512
:1020D00041F42DB73EB74091040150910501241BF6
:1020E000350BE0916802F0916902E217F307A0F462
:1020F0002E1B3F0B2817390778F0AC014E5F5F4F5E
:102100002417350748F04E0F5F1F50936902409324
:1021100068028193919302C0E0E0F0E0CF01DF918B
:10212000CF911F910F910895CF93DF93009709F4FA
:1021300081C0FC01329713821282A0916A02B09191
:102140006B02109781F420813181820F931F2091BF
:102150006802309169022817390751F5F093690236
:10216000E093680267C0ED0120E030E0CE17DF07A2
:1021700040F44A815B819E0141155105F1F0EA016D
:10218000F5CFD383C28340815181840F951FC81737
:10219000D90759F488819981840F951F02969183FC
:1021A00080838A819B81938382832115310529F461
:1021B000F0936B02E0936A023DC0E901FB83EA837E
:1021C00049915991C40FD51FEC17FD0761F4808127
:1021D0009181840F951F0296E901998388838281FA
:1021E00093819B838A83E0E0F0E012968D919C912D
:1021F0001397009719F0FD01DC01F7CF8D919C91A9
:1022000011979D012E5F3F4F820F931F209168020F
:10221000309169022817390769F4309729F4109230
:102220006B0210926A0202C013821282B09369029A
:10223000A0936802DF91CF910895DC0101C06D93F6
:1022400041505040E0F7089510E0C8E6D0E004C0E7
:10225000FE010E94F60F2196C936D107C9F7F894FE
:02226000FFCFAE
:1022620000006C028000010100400046004C005258
:102272000058005D00630068006C00710074007813
:10228200007A007C007E007F007F007F007E007C61
:10229200007A007800740071006C00680063005DD1
:1022A20000580052004C0046004000390033002D17
:1022B20000270022001C00170013000E000B00076D
:1022C20000050003000100000000000000010003FF
:1022D20000050007000B000E00130017001C00226F
:1022E2000027002D003300390000000000B90A1158
:0A22F2000C5C0A760A680A000B0073
:00000001FF
