:100000000C9481040C94A9040C94A9040C94A904E4
:100010000C94A9040C94C9160C94A9040C94A9047A
:100020000C94A9040C94A9040C94A9040C94A9049C
:100030000C94A9040C94A9040C94A9040C94A9048C
:100040000C9417170C94A9040C94E2190C94141A2C
:100050000C94A9040C94A9040C94A9040C94A9046C
:100060000C94A9040C94A90405A84CCDB2D44EB9A3
:100070003836A9020C50B9918688083CA6AAAA2A4B
:10008000BE000000803F0000102120423063408409
:1000900050A560C670E781089129A14AB16BC18C57
:1000A000D1ADE1CEF1EF123102103273225252B5CE
:1000B000429472F762D693398318B37BA35AD3BDA7
:1000C000C39CF3FFE3DE246234430420140164E69E
:1000D00074C744A45485A56AB54B85289509E5EEF7
:1000E000F5CFC5ACD58D365326721611063076D7AE
:1000F00066F6569546B4B75BA77A97198738F7DF47
:10010000E7FED79DC7BC48C458E5688678A7084075
:10011000186128023823C9CCD9EDE98EF9AF894896
:100120009969A90AB92B5AF54AD47AB76A961A710D
:100130000A503A332A12DBFDCBDCFBBFEB9E9B79E6
:100140008B58BB3BAB1A6CA67C874CE45CC52C225D
:100150003C030C601C41EDAEFD8FCDECDDCDAD2A36
:10016000BD0B8D689D497E976EB65ED54EF43E13ED
:100170002E321E510E70FF9FEFBEDFDDCFFCBF1B86
:10018000AF3A9F598F78918881A9B1CAA1EBD10C60
:10019000C12DF14EE16F108000A130C220E3500468
:1001A00040257046606783B99398A3FBB3DAC33DDB
:1001B000D31CE37FF35E02B1129022F332D24235B8
:1001C000521462777256B5EAA5CB95A88589F56E6B
:1001D000E54FD52CC50D34E224C314A00481746608
:1001E000644754244405A7DBB7FA879997B8E75FBB
:1001F000F77EC71DD73C26D336F2069116B0665758
:10020000767646155634D94CC96DF90EE92F99C842
:1002100089E9B98AA9AB584448657806682718C0A7
:1002200008E1388228A3CB7DDB5CEB3FFB1E8BF91A
:100230009BD8ABBBBB9A4A755A546A377A160AF1F7
:100240001AD02AB33A92FD2EED0FDD6CCD4DBDAA2A
:10025000AD8B9DE88DC97C266C075C644C453CA247
:100260002C831CE00CC1EF1FFF3ECF5DDF7CAF9BFA
:10027000BFBA8FD99FF86E177E364E555E742E9397
:100280003EB20ED11EF00000333166625553CCC42D
:10029000FFF5AAA6999789A9BA98EFCBDCFA456D24
:1002A000765C230F103E0373304265115620CFB7A2
:1002B000FC86A9D59AE48ADAB9EBECB8DF89461E48
:1002C000752F207C134D06E635D7608453B5CA22BE
:1002D000F913AC409F718F4FBC7EE92DDA1C438B24
:1002E00070BA25E916D8059536A463F750C6C951EA
:1002F000FA60AF339C028C3CBF0DEA5ED96F40F8C8
:1003000073C9269A15AB0DCC3EFD6BAE589FC10844
:10031000F239A76A945B8465B754E207D13648A1E5
:100320007B902EC31DF20EBF3D8E68DD5BECC27B61
:10033000F14AA41997288716B427E174D2454BD205
:1003400078E32DB01E810B2A381B6D485E79C7EE0D
:10035000F4DFA18C92BD8283B1B2E4E1D7D04E47E5
:100360007D7628251B1408593B686E3B5D0AC49DA9
:10037000F7ACA2FF91CE81F0B2C1E792D4A34D3485
:100380007E052B5618671B9828A97DFA4ECBD75CA3
:10039000E46DB13E820F9231A100F453C7625EF565
:1003A0006DC438970BA618EB2BDA7E894DB8D42F85
:1003B000E71EB24D817C9142A273F720C4115D8685
:1003C0006EB73BE408D51D7E2E4F7B1C482DD1BA5D
:1003D000E28BB7D884E994D7A7E6F2B5C184581365
:1003E0006B223E710D401E0D2D3C786F4B5ED2C9C5
:1003F000E1F8B4AB879A97A4A495F1C6C2F75B6005
:1004000068513D020E331654256570364307DA9065
:10041000E9A1BCF28FC39FFDACCCF99FCAAE5339A2
:100420006008355B066A1527261673454074D9E3C4
:10043000EAD2BF818CB09C8EAFBFFAECC9DD504AC6
:10044000637B3628051910B2238376D045E1DC762C
:10045000EF47BA148925991BAA2AFF79CC4855DFA2
:1004600066EE33BD008C13C120F075A34692DF0504
:10047000EC34B9678A569A68A959FC0ACF3B56AC46
:10048000659D30CE03FF000037306E605950DCC0F0
:10049000EBF0B2A08590A9A19E91C7C1F0F1756162
:1004A00042511B012C31436374532D031A339FA314
:1004B000A893F1C3C6F3EAC2DDF284A2B392360276
:1004C000013258626F5286C6B1F6E8A6DF965A0628
:1004D0006D36346603562F67185741077637F3A7F2
:1004E000C4979DC7AAF7C5A5F295ABC59CF519653C
:1004F0002E55770540356C045B3402643554B0C426
:1005000087F4DEA4E9941DAD2A9D73CD44FDC16D31
:10051000F65DAF0D983DB40C833CDA6CED5C68CCB5
:100520005FFC06AC319C5ECE69FE30AE079E820E4B
:10053000B53EEC6EDB5EF76FC05F990FAE3F2BAF41
:100540001C9F45CF72FF9B6BAC5BF50BC23B47AB6F
:10055000709B29CB1EFB32CA05FA5CAA6B9AEE0A85
:10056000D93A806AB75AD808EF38B668815804C8B3
:1005700033F86AA85D9871A946991FC928F9AD6931
:100580009A59C309F4393B5A0C6A553A620AE79AF8
:10059000D0AA89FABECA92FBA5CBFC9BCBAB4E3B43
:1005A000790B205B176B78394F0916592169A4F92B
:1005B00093C9CA99FDA9D198E6A8BFF888C80D5873
:1005C0003A6863385408BD9C8AACD3FCE4CC615CC7
:1005D000566C0F3C380C143D230D7A5D4D6DC8FDF3
:1005E000FFCDA69D91ADFEFFC9CF909FA7AF223F43
:1005F000150F4C5F7B6F575E606E393E0E0E8B9E03
:10060000BCAEE5FED2CE26F711C748977FA7FA37D2
:10061000CD079457A3678F56B866E136D606539632
:1006200064A63DF60AC6659452A40BF43CC4B954C2
:100630008E64D734E004CC35FB05A255956510F5E2
:1006400027C57E9549A5A0319701CE51F9617CF16E
:100650004BC1129125A109903EA067F050C0D55022
:10066000E260BB308C00E352D4628D32BA023F921A
:1006700008A251F266C24AF37DC3249313A39633B2
:10068000A103F853CF63000076B4ED689BDCCAF198
:10069000BC452799512D85C3F37768AB1E1F4F3298
:1006A0003986A25AD4EE1BA76D13F6CF807BD156A4
:1006B000A7E23C3E4A8A9E64E8D0730C05B8549584
:1006C0002221B9FDCF49374E41FADA26AC92FDBF5F
:1006D0008B0B10D76663B28DC4395FE52951787CE6
:1006E0000EC89514E3A02CE95A5DC181B735E61810
:1006F00090AC0B707DC4A92ADF9E444232F663DBC6
:10070000156F8EB3F8076E9C182883F4F540A46D1E
:10071000D2D949053FB1EB5F9DEB0637708321AE1F
:10072000571ACCC6BA72753B038F9853EEE7BFCA0F
:10073000C97E52A22416F0F8864C1D906B243A090B
:100740004CBDD761A1D559D22F66B4BAC20E93233E
:10075000E5977E4B08FFDC11AAA5317947CD16E05D
:100760006054FB888D3C427534C1AF1DD9A9888483
:10077000FE3065EC1358C7B6B1022ADE5C6A0D473D
:100780007BF3E02F969BDD38AB8C305046E417C9E5
:10079000617DFAA18C1558FB2E4FB593C327920AA1
:1007A000E4BE7F6209D6C69FB02B2BF75D430C6E6B
:1007B0007ADAE10697B2435C35E8AE34D88089AD89
:1007C000FF1964C51271EA769CC2071E71AA2087C0
:1007D0005633CDEFBB5B6FB5190182DDF469A544DB
:1007E000D3F0482C3E98F1D187651CB96A0D3B20A7
:1007F0004D94D648A0FC741202A6997AEFCEBEE3BF
:10080000C857538B253FB3A4C5105ECC28787955C3
:100810000FE1943DE289366740D3DB0FADBBFC9618
:100820008A2211FE674AA803DEB7456B33DF62F206
:1008300014468F9AF92E2DC05B74C0A8B61CE73100
:1008400091850A597CED84EAF25E69821F364E1B5F
:1008500038AFA373D5C70129779DEC419AF5CBD862
:10086000BD6C26B050049F4DE9F97225049155BC2A
:100870002308B8D4CE601A8E6C3AF7E68152D07F46
:10088000A6CB3D174BA300000009000302000004A3
:100890000508000000000000000000000001020444
:1008A00008102040800102040810200102040810F2
:1008B00020408040040404040404040402020202F0
:1008C00002020303030303030202030000000023E8
:1008D000002600290000000000250028002B000051
:1008E000000000240027002A0000CE0599065F07BB
:1008F0007408440A290B9F0BEA0CE90FDD12441A15
:10090000FE1211241FBECFEFD8E0DEBFCDBF12E034
:10091000A0E0B1E0E2E8FEE302C005900D92A2394A
:10092000B107D9F724E0A2E9B2E001C01D92AA3FC5
:10093000B207E1F714E0C0E8D4E004C02197FE015B
:100940000E94DF1DC537D107C9F70E949F1A0C947A
:10095000341F0C94000008959091160381E08927BC
:1009600008954130510521F4FB012081213611F019
:100970000C94181261E40E94081281E008954F92CD
:100980005F926F927F928F929F92AF92BF92EF92FF
:10099000FF920F931F93CF93DF93EC01EF80F884C6
:1009A00009851A858B85882309F483C020E030E00F
:1009B000A901B701C8010E94741C181604F52DEC9A
:1009C0003CEC4CEC5CE3B701C8010E941C1B87FDAA
:1009D00011C07DEC6CEC9CEC8CE3272F362F492F5B
:1009E000582FB701C8010E94AF1A6F837887898793
:1009F0009A8707C07E2D6F2D902F812FEECF81E03B
:100A00008C87CE010E94C0100E94C21B20E030E003
:100A100046E953E40E94211B4B015C0160912704CD
:100A20007091280490E080E00E94C21B9B01AC0101
:100A30006BED7FE089EC90E40E94211B2B013C01CF
:100A4000F12CE12C8091270490912804E816F906F6
:100A500008F05AC0B7010F2C000C880B990B0E94AC
:100A6000C41BA30192010E94791CA50194010E945C
:100A7000B01A0E94E61C9B01AC010E94791C20E088
:100A800030E04FE753E40E94791C2F813885498577
:100A90005A850E94791C0E94931B262F00E040E09B
:100AA000B70185E294E00E949B158FEFE81AF80ADF
:100AB000C9CF20E030E040E85FE3B701C8010E9401
:100AC0001C1B87FF9ECF9701A80160E070E080E8C3
:100AD0009FE30E94AF1A4B015C012AE037ED43E22D
:100AE0005CE30E941C1B87FD08C08AE0882E87ED0E
:100AF000982E83E2A82E8CE3B82E9701A801C50199
:100B0000B4010E94B01A71CF85E294E0DF91CF91D9
:100B10001F910F91FF90EF90BF90AF909F908F909B
:100B20007F906F905F904F900C9496130F931F934C
:100B3000CF93DF93EC018C018B8581110EC082E095
:100B40000E949918892B31F481E08B8763E6CE01EE
:100B50000E9408128B85882349F08C85882331F008
:100B600061E6CE010E94081202EE12E0C801DF9198
:100B7000CF911F910F910895CF93DF93EC010E94C5
:100B8000F60F1F82188619861A861E821B861C86FF
:100B900061E4CE01DF91CF910C9408128DEE91E0CB
:100BA00090939302809392020895FC01168217821B
:100BB0001086118614861586089580E00895EF92B8
:100BC000FF920F931F93CF93DF93EC018B017A0178
:100BD0000E941812EA94EF2831F4F80190819E32B5
:100BE00011F481E08C87DF91CF911F910F91FF90DD
:100BF000EF900895CF92DF92EF92FF920F931F93A1
:100C0000CF93DF93EC018A859B852C85222309F401
:100C100047C0181619060CF040C09C01853091059C
:100C200014F024E030E0821B930B9B878A87C12C51
:100C3000D12C76010091270410912804C016D1060A
:100C4000F0F58E819F81A885B985A7019601281BA3
:100C5000390B4A0B5B0BCA01B901980150E040E027
:100C60000E949E1D262F8A859B85B8010E94761DB5
:100C7000269F202D1124022F10E01595079515951C
:100C8000079540E0B60185E294E00E949B153FEF96
:100C9000C31AD30AE30AF30ACDCF81E08D87C7CF09
:100CA0008F3F910524F62FEF30E0281B390B2530BC
:100CB000310514F024E030E0820F931FB6CF85E2B7
:100CC00094E00E9496138E819F81A885B985019634
:100CD000A11DB11D8E839F83A887B987DF91CF9116
:100CE0001F910F91FF90EF90DF90CF900895CF93D9
:100CF000DF93EC010E940210009761F48C85882339
:100D000029F08D85882311F0C2EED2E0CE01DF916B
:100D1000CF910895EC01FACF109216030E9461174B
:100D200060931703709318038093190390931A0329
:100D30000895EFE9F2E08DEF91E0918380831682D0
:100D40001782108611861386128608950895909151
:100D5000160381E0892708952B9A81E08093B502DC
:100D60000E946D176093B6027093B7028093B80229
:100D70009093B9020895CF92DF92EF92FF920F9372
:100D80001F93CF93DF938C018091B502882309F1E3
:100D90000E946D17C090B602D090B702E090B802E2
:100DA000F090B9026C197D098E099F09C09040042A
:100DB000D0904104E0904204F09043046C157D050E
:100DC0008E059F0528F360E08BE00E946B1810925F
:100DD000B502E801C8010E94C01069397A43810553
:100DE000910548F48F81811106C08E81882329F0F6
:100DF000C2EFD2E002C0C2EED2E0CE01DF91CF91CD
:100E00001F910F91FF90EF90DF90CF900895CF93B7
:100E1000DF93EC010E94F60F1F821E821092B50232
:100E20000E94A0168CEA96E09093CE018093CD01AB
:100E3000EAE4F4E082818068828342E060E882E054
:100E4000DF91CF910C94611680E696E19093CE01EC
:100E50008093CD01E7E4F4E082818F778283EAE436
:100E6000F4E082818F77828360E882E00E948516B9
:100E700060E08BE00C946B18EF92FF920F931F933E
:100E8000CF93DF93EC018B017A010E94181281113C
:100E900009C0EA94EF2831F4F80190819B3649F0BB
:100EA000903751F0DF91CF911F910F91FF90EF900C
:100EB000089581E08F83F6CF81E08E83F3CF8DE0BC
:100EC00092E09093AE028093AD0208959091160344
:100ED00081E0892708950C9418123F924F925F92F7
:100EE0006F927F928F929F92AF92BF92CF92DF923A
:100EF000EF92FF920F931F93CF93DF93EC01EE815C
:100F000084E0E89FF0011124EC0FFD1FC784D08816
:100F1000E188F288CE010E94C0108F809884A98455
:100F2000BA840E94C21B2B013C016E8170E090E0EC
:100F300080E00E94C41BA50194010E94791C9B01C2
:100F4000AC01C301B2010E94AF1AA50194010E9435
:100F5000211B4B015C01609127047091280490E0F3
:100F600080E00E94C21B2B013C01A50194010E945C
:100F7000791C9B01AC01C301B2010E94AF1A2B0185
:100F80003C01312C6091270470912804232D032CFF
:100F9000000C330B2617370718F580913D04820F9C
:100FA000932F911D0E94761D8C01632D032C000C44
:100FB000770B880B990B0E94C41BA30192010E941E
:100FC000741CA7019601181624F02B853C854D85CD
:100FD0005E85B80185E294E00E94EB153394D2CF90
:100FE00085E294E00E94961320E030E040E85FE361
:100FF000C501B4010E94741C87FD09C0CB86DC8644
:10100000ED86FE868E818F5F833098F48E83DF912C
:10101000CF911F910F91FF90EF90DF90CF90BF90F5
:10102000AF909F908F907F906F905F904F903F9088
:10103000089582E0EBCFCF93C0E06C2F0C2E000C14
:10104000770B80912704909128046817790748F45A
:1010500020E030E0A90185E294E00E94EB15CF5F2B
:10106000ECCF85E294E0CF910C9496130F931F93ED
:10107000CF93DF93EC010E94C01020913E04309189
:101080003F04890130E020E00617170728073907D9
:1010900030F464E7CE010E940812CDEAD2E0CE011E
:1010A000DF91CF911F910F910895CF93DF93EC01C2
:1010B0000E94F60F60913E0470913F0490E080E042
:1010C0000E94C21B20E030E040E450E40E94211B5B
:1010D0006F83788789879A871E821B861C861D8668
:1010E0001E86DF91CF9108958DE192E09093BB022F
:1010F0008093BA028CE0EDEDF1E0A9ECB2E0019052
:101100000D928A95E1F7089508954F925F926F923C
:101110007F928F929F92AF92BF92CF92DF92EF9287
:10112000FF920F931F93CF93DF93FC0100811181F6
:10113000DB01FD019D0123703327232BA9F041150D
:10114000510509F41EC1612F77271196E081F0E067
:10115000E027EE0FFF1FEA57FF4F05911491062776
:10116000172741505109E5CFBA01ED0160317105F2
:1011700058F5BA0124E0769567952A95E1F79B0129
:10118000E4E0220F331FEA95E1F7A20FB31FE0EF6F
:101190002E2F2603E001279FD00D11244C0F5D1F39
:1011A0004A0F5B1F4A175B0709F4EBC0612F7727D3
:1011B000ED91F0E0E027EE0FFF1FEA57FF4F05919A
:1011C000149106271727EECF605171098880998006
:1011D000AA80BB8008251925F801FF27EE0FFF1F05
:1011E000EA57F94F25913491012F1127F801EE0F9D
:1011F000FF1FEA57FB4FC590D4904A2C512C712CFD
:10120000612CEFEF5E1A6E0A7E0AF201EE0FFF1FED
:10121000EA57FF4FE590F4908B2C9924AA24BB2425
:10122000F401EE0FFF1FEA57FF4F059114918C80D8
:101230009D80AE80BF802C253D2528253925E226BE
:10124000F3260E251F25F801FF27EE0FFF1FEA5793
:10125000F94F25913491E12FFF27EE0FFF1FEA5739
:10126000FB4FC590D4904A2C512C712C612CFFEF70
:101270005F1A6F0A7F0AF201EE0FFF1FEA57FF4F56
:10128000059114918B2C9924AA24BB24F401EE0F10
:10129000FF1FEA57FF4FE590F49088849984AA8451
:1012A000BB842C253D2528253925022713270E250B
:1012B0001F25F801FF27EE0FFF1FEA57F94FE590B2
:1012C000F490E12FFF27EE0FFF1FEA57FB4F259108
:1012D00034914A2C512C712C612CEFEF5E1A6E0A5E
:1012E0007E0AF201EE0FFF1FEA57FF4F059114919E
:1012F0008B2C9924AA24BB24F401EE0FFF1FEA577C
:10130000FF4FC590D4908C849D84AE84BF84E22628
:10131000F326E824F9240E251F250C251D25F801A8
:10132000FF27EE0FFF1FEA57F94FC590D490E12F2A
:10133000FF27EE0FFF1FEA57FB4F259134914A2CF0
:10134000512C712C612CFFEF5F1A6F0A7F0AF2019A
:10135000EE0FFF1FEA57FF4F059114918B2C992434
:10136000AA24BB24F401EE0FFF1FEA57FF4FE590BC
:10137000F490C226D3260C251D250E251F25609628
:10138000F5CEFC011183008330E020E0B22FA12FC5
:10139000902F8827AA27BB27012F122F232F33270F
:1013A000802B912BDF91CF911F910F91FF90EF90A8
:1013B000DF90CF90BF90AF909F908F907F906F9075
:1013C0005F904F9008952FEF3FEFFC013183208312
:1013D0000C948508089580E00895FC01238522235C
:1013E00029F061E60E94081282EE92E00895EF92E1
:1013F000FF920F93CF93DF930E94C01026E930E055
:1014000040E050E00E949E1D790181E0E822FF2427
:10141000D0E0C0E08091270490912804C817D90734
:1014200070F400E020E04FEFE114F10409F440E033
:10143000BE0185E294E00E949B152196EBCF85E2E8
:1014400094E0DF91CF910F91FF90EF900C94961361
:10145000CF93DF93EC010E94F60F1B86DF91CF91B3
:1014600008954130510571F4FB0120812E3229F499
:1014700021E0FC01238781E00895263619F466E413
:101480000E94081280E008958DE292E09093D602C7
:101490008093D502089508959091160381E08927DD
:1014A0000895CF93DF93EC010E940210009749F456
:1014B00082E00E949918892B39F08885811104C037
:1014C000CE01DF91CF9108958AEB92E0FACFCF93CE
:1014D000DF93EC010E94F60F18861F821E82DF91B7
:1014E000CF910895DF92EF92FF920F931F93CF93C6
:1014F000DF93EC018B017A010E941812882359F0C6
:10150000DD24D3948D2DDF91CF911F910F91FF900A
:10151000EF90DF900895EA94EF28A1F7F801808119
:10152000843781F781E08887EDCFCF92DF92EF9209
:10153000FF920F931F93CF93C1E097FF08C0909540
:101540008095709561957F4F8F4F9F4FC0E06836B3
:1015500021E072078105910534F028E631E040E092
:1015600050E00E94C01D653B71058105910534F076
:10157000645B71098109910921E0C2276B3571050E
:10158000810591055CF004EB10E020E030E068019B
:101590007901C61AD70AE80AF90AB601660F771F59
:1015A0006A5F7E4FFB016081718190E080E00E9464
:1015B000C21B20E830E040E857E3C11104C020E836
:1015C00030E040E857EB0E94791CCF911F910F91BA
:1015D000FF90EF90DF90CF900895FF920F931F93AD
:1015E000CF93DF930E94C01024E09695879577955E
:1015F00067952A95D1F70E94950A9B01AC010E943C
:10160000791C20E030E04FE753E40E94791C0E94EF
:10161000931B162FF62EF694F694D0E0C0E080913E
:10162000270490912804C817D90750F40F2D212FB3
:1016300040E0BE0185E294E00E949B152196EFCF29
:1016400085E294E0DF91CF911F910F91FF900C9470
:1016500096138DE392E09093E3028093E202089563
:1016600080E00895089580E008950F931F93CF932D
:10167000DF93EC018C010E94C01021E0693B7B40AC
:101680008105910508F420E09E81822F892B8E83AD
:10169000882339F083E00E949918892B11F40FE90F
:1016A00012E0C801DF91CF911F910F910895CF9360
:1016B000DF93EC010E94F60FCE010E9479101E828A
:1016C00063E0CE010E94151069E070E085E294E0CD
:1016D0000E943C1560E084E00E946B1860E083E1AA
:1016E0000E946B1860E088E0DF91CF910C946B183A
:1016F000CF93DF93EC010E9479101092160361E002
:1017000088E00E946B1861E083E10E946B1864E03E
:1017100070E085E294E00E943C1585E294E00E942E
:10172000151385E294E00E94571685E294E00E942A
:10173000961362E0CE01DF91CF910C9415108DE4E9
:1017400092E09093EC028093EB02089508959091BB
:10175000160381E0892708954F925F926F927F92DE
:101760008F929F92AF92BF92EF92FF920F931F932F
:10177000CF93DF93EC01EF80F88409851A858B8580
:10178000811104C08D85882309F488C020E030E0F1
:10179000A901B701C8010E94741C181604F52DECAC
:1017A0003CEC4CEC5CE3B701C8010E941C1B87FDBC
:1017B00011C07DEC6CEC9CEC8CE3272F362F492F6D
:1017C000582FB701C8010E94AF1A6F8378878987A5
:1017D0009A8707C07E2D6F2D902F812FEECF81E04D
:1017E0008C87CE010E94C0100E94C21B20E030E016
:1017F00046E953E40E94211B4B015C0160912704E0
:101800007091280490E080E00E94C21B9B01AC0113
:101810006BED7FE089EC90E40E94211B2B013C01E1
:10182000F12CE12C8091270490912804E816F90608
:1018300008F05FC0B7010F2C000C880B990B0E94B9
:10184000C41BA30192010E94791CA50194010E946E
:10185000B01A0E94E61C9B01AC010E94791C20E09A
:1018600030E04FE753E40E94791C2F813885498589
:101870005A850E94791C0E94931B262F062F10E088
:10188000159507951595079540E0B70185E294E019
:101890000E949B158FEFE81AF80AC4CF20E030E0D1
:1018A00040E85FE3B701C8010E941C1B87FF99CF86
:1018B0009701A80160E070E080E89FE30E94AF1A02
:1018C0004B015C012AE037ED43E25CE30E941C1B04
:1018D00087FD08C09AE0892E97ED992E93E2A92EF4
:1018E0009CE3B92E9701A801C501B4010E94B01A6A
:1018F0006CCF85E294E0DF91CF911F910F91FF9023
:10190000EF90BF90AF909F908F907F906F905F907F
:101910004F900C949613CF93DF93EC010E9402102A
:10192000009701F58D8581110BC082E00E94991806
:10193000892B31F481E08D8763E6CE010E94081285
:10194000CE010E94C010613375478105910560F496
:101950008B85882319F08C85811106C0CE01DF911B
:10196000CF910895EC01FACFC2EED2E0F7CFCF933A
:10197000DF93EC010E94F60F1D861F8218861986E0
:101980001A861E821B861C86DF91CF910895DF92F6
:10199000EF92FF920F931F93CF93DF93EC018B0194
:1019A0007A010E941812882359F0DD24D3948D2DDA
:1019B000DF91CF911F910F91FF90EF90DF900895ED
:1019C000EA94EF28A1F7F80180818B3681F781E056
:1019D0008B87EDCF8DE592E09093F3028093F20236
:1019E0000895CF93DF93EC01809104039091050358
:1019F0008C179D07C1F0009739F0DC01ED91FC9147
:101A00000084F185E02D0995D0930503C09304036C
:101A1000209749F0E881F9810680F781E02DCE0119
:101A2000DF91CF910994DF91CF91089514BE0FB645
:101A3000F894A8958091600088618093600010926E
:101A400060000FBE61E084E10E942F1860E084E135
:101A50000E946B1860E082E00E942F1861E082E033
:101A60000E946B1860E083E00E942F1861E083E021
:101A70000E946B1860E087E00E942F1861E087E009
:101A80000E946B1861E08BE00E942F1860E08BE0F1
:101A90000E946B1861E088E00E942F1861E083E1EA
:101AA0000E942F1826E040E056E960E070E089E5EA
:101AB00094E00E94861989E594E090931E04809337
:101AC0001D048EEF9EE09093200480931F041092DB
:101AD00022041092210483E00E949918892B51F46A
:101AE0008BEE92E090930503809304038FE992E0DC
:101AF0000C94F10C8BEE92E0FBCF2F923F924F9221
:101B00005F926F927F928F929F92AF92BF92CF928D
:101B1000DF92EF92FF920F931F93CF93DF9300D04A
:101B200000D0CDB7DEB78C012DB63EB64C012EEFFE
:101B3000821A920AD4018D919C91892B09F4C1C01B
:101B4000F801F3957F0198012C5F3E4F3A8329837A
:101B500028013AEF431A3EEF530AD4018D919C912C
:101B6000DC01ED91FC910480F581E02D09951816BA
:101B700019060CF0A6C0F40180819181DC01ED9181
:101B8000FC910680F781E02D0995803209F086C02E
:101B9000E981FA810190F081E02DFC83EB83EF2B4A
:101BA00029F4D2018D919C91892B51F16DB67EB6AD
:101BB000F701608171812DB73EB7261B370B0FB639
:101BC000F8943EBF0FBE2DBF8DB79EB70196613012
:101BD0007105D1F4D8012C912033C9F4FC01208384
:101BE00041E050E02B813C812115310509F44CC0C6
:101BF000BA01F90109950FB6F8947EBE0FBE6DBE0D
:101C0000F70111821082A9CF61157105D1F150E061
:101C100040E030E020E02617370720F7D801A20F78
:101C2000B31FCC90D901AC0DB11D6A177B0718F416
:101C3000F1E0CF1226C02F5F3F4F5801A20EB31E16
:101C4000DC01A40FB51FDD24D394AD01481B590B53
:101C50009501201B310BDC1430F4F50121915F015B
:101C60002D93D394F2CFFFEFCF16A9F2621773072B
:101C700091F2DC01A40FB51FE0E2EC934F5F5F4FE0
:101C8000CACF50E040E0AECFD201ED91FC91309749
:101C900009F4B1CFBC01C8010995ADCFD7012D9191
:101CA0003C911197A9014F5F5F4F4F3F510511F0D4
:101CB00008F053CF4D935C93200F311FF9018083BF
:101CC0004CCF0FB6F8943EBE0FBE2DBE0F900F90B6
:101CD0000F900F90DF91CF911F910F91FF90EF9098
:101CE000DF90CF90BF90AF909F908F907F906F903C
:101CF0005F904F903F902F900895CF92DF92EF9298
:101D0000FF92CF93DF938091040390910503009796
:101D1000E9F40E946117C0901703D0901803E09077
:101D20001903F0901A036C197D098E099F0969390E
:101D30007A438105910598F08BEE92E0DF91CF9187
:101D4000FF90EF90DF90CF900C94F10CDC01ED91BF
:101D5000FC910284F385E02D09958111DACF809101
:101D6000040390910503009751F48BE193E0DF9118
:101D7000CF91FF90EF90DF90CF900C947D0DDC0120
:101D8000ED91FC910480F581E02D0995EC010E9414
:101D90006117C0900003D0900103E0900203F0901F
:101DA00003039B01AC012C193D094E095F09690130
:101DB0007A0132E2C316D104E104F104D8F08BE1D8
:101DC00093E00E947D0D0E94611760930003709361
:101DD0000103809302039093030380910403909185
:101DE0000503DC01ED91FC910280F381E02DB70148
:101DF000A6010995CE010E94F10CB7CF0F931F9356
:101E0000CF93DF93EC018B016130710589F48881F8
:101E1000803309F1893669F18E3251F40E946117DD
:101E200060931703709318038093190390931A0318
:101E30008091040390910503009741F1DC01ED913D
:101E4000FC910190F081E02DA801BE01DF91CF91BE
:101E50001F910F910994F8941092B0001092800095
:101E600014BC14BEE0E0FFE3DF91CF911F910F910E
:101E7000099462E689E594E00E943F1989E594E0BF
:101E8000DF91CF911F910F910C941F19DF91CF918A
:101E90001F910F91089580E008950895089581E0BD
:101EA0000895CF92DF92EF92FF920F931F93CF93FB
:101EB000DF93EC018A859B852C85222309F441C0A0
:101EC00018161906DCF59C018530910514F024E004
:101ED00030E0821B930B9B878A87C12CD12C760123
:101EE0000091270410912804C016D106C8F58E81F0
:101EF0009F81A885B985A7019601281B390B4A0B3C
:101F00005B0BCA01B901980150E040E00E949E1DA0
:101F1000462F8A859B85B8010E94761D469F402DDD
:101F2000112400E020E0B60185E294E00E949B15B8
:101F30003FEFC31AD30AE30AF30AD2CF81E08D87B9
:101F4000CCCF8F3F91054CF62FEF30E0281B390B9B
:101F50002530310514F024E030E0820F931FBBCF11
:101F600085E294E00E9496138E819F81A885B985B1
:101F70000196A11DB11D8E839F83A887B987DF912C
:101F8000CF911F910F91FF90EF90DF90CF90089528
:101F9000CF93DF93EC010E94F60FCE010E94301028
:101FA0001B861A861E821F82188619861C861D862D
:101FB00064E6CE010E9408120E9461176093170325
:101FC000709318038093190390931A03DF91CF91B4
:101FD0000895E6E0F3E08DE692E091838083168237
:101FE000178210861186138612860895CF93DF9389
:101FF000EC010E9461176A837B838C839D83DF9150
:10200000CF91089583E00E949918019759F080912B
:10201000140390911503009739F010921503109254
:102020001403089586E093E00895CF93C62FC1501E
:10203000A8F061E084E10E946B1864E670E080E043
:1020400090E00E94921760E084E10E946B1864E6C1
:1020500070E080E090E00E949217E9CFCF91089560
:10206000FF920F931F93CF93DF938091C00188233A
:1020700011F14AE050E06BE374E083E294E00E94E7
:10208000E30990934604809345040BE314E0D0E009
:10209000C0E0F801F1908F01CE010E941E1FF816DA
:1020A00021F06F2DCE010E94261F2196CC30D10544
:1020B00081F71092C001DF91CF911F910F91FF9096
:1020C0000895CF93DF93CBE3D4E0698170E085E29C
:1020D00094E00E942813E881F0E0EE0FFF1FE45423
:1020E000FE4F6081718185E294E0DF91CF910C9485
:1020F0006013EF92FF920F931F93CF93DF938C01A6
:102100008BE3E82E84E0F82ED0E0C0E0CE010E9400
:102110001E1FF70181937F012196CC30D105B1F7C5
:102120001092C0014AE050E06BE374E083E294E077
:102130000E94E3092091450430914604281739078D
:1021400049F4C801DF91CF911F910F91FF90EF905B
:102150000C9461108CE0E1ECF1E0ABE3B4E00190B1
:102160000D928A95E1F74AE050E06BE374E083E278
:1021700094E00E94E3099093460480934504E1CFE4
:102180000F931F93CF93DF93EC010E9461170A8195
:102190001B812C813D81601B710B820B930BDF91A6
:1021A000CF911F910F910895FB018081823090F4AF
:1021B0008181813278F48381948189399A4350F402
:1021C00081E04581568167817085413452446F407A
:1021D000710508F080E008951F93CF93DF93EB0122
:1021E00010E0E12F012E000CFF0B2091270430910D
:1021F0002804E217F307E0F480913D048E0F9F2F2F
:10220000911DB9010E94761DBC0121503109E217D0
:10221000F30751F420E03FEF40E050E085E294E026
:102220000E94EB151F5FDDCF20E030E0A901F6CF63
:1022300085E294E00E949613BE0190E080E00E9447
:102240009217C0E06C2F0C2E000C770B80912704A6
:10225000909128046817790748F420E030E0A9013C
:1022600085E294E00E94EB15CF5FECCF85E294E02D
:10227000DF91CF911F910C9496134F925F926F92C2
:102280007F928F929F92AF92BF92CF92DF92EF9206
:10229000FF920F931F93CF93DF93CDB7DEB7FB0170
:1022A0004A010DB71EB78E5F9E4F5C01DC012D9178
:1022B0003C912115310509F45CC0309709F459C0EF
:1022C0004115510509F455C0CA016EEF70E00E9436
:1022D000761DC4010196680F791F8DB79EB7861BC6
:1022E000970B0FB6F8949EBF0FBE8DBF6DB77EB72C
:1022F0006F5F7F4F8E0E9F1E77247394F12CE12C1D
:1023000041E050E02B014E0C5F1C8E169F06E1F061
:102310006190CA010196A0E26A1207C0D2017C92C4
:102320007A0177247394AC01EDCF6B01C40ED51EF6
:10233000D6016C927394BFEF7B12F5CFD2017C92E1
:102340007C01CA010296EDCFF2017082D901ED91B4
:10235000FC910280F381E02DC9010995F50180818E
:102360009181DC01ED91FC910190F081E02D60E222
:1023700009950FB6F8941EBF0FBE0DBF0FB6F894A7
:102380001EBF0FBE0DBFDF91CF911F910F91FF9028
:10239000EF90DF90CF90BF90AF909F908F907F9005
:1023A0006F905F904F900895CF93DF93CDB7DEB7D6
:1023B0002D970FB6F894DEBF0FBECDBF84E28983A0
:1023C0008CE0EBE3F4E0DE01129601900D928A9529
:1023D000E1F74DE050E0BE016F5F7F4F8BE193E08E
:1023E0000E943D1189E594E00E941F192D960FB6B9
:1023F000F894DEBF0FBECDBFDF91CF91089550E0BE
:102400008BE193E00E943D1189E594E00C941F1943
:10241000CF93DF931F92CDB7DEB7698341E0BE0152
:102420006F5F7F4F0E94FF110F90DF91CF91089552
:10243000EF92FF920F931F93CF93DF9341155105B6
:1024400041F1EB018C0188818C3309F48AC0D0F40E
:102450008332B1F18432B1F18132D9F44230510585
:1024600079F581E09981911180E0809316030E94B3
:102470006117609317037093180380931903909367
:102480001A031EC08F3309F468C028F48E3309F490
:102490008AC0C0E05AC0813669F08636D1F785ED32
:1024A00092E0909315038093140366E4C8010E94A0
:1024B000081206C082E992E09093150380931403FA
:1024C000C1E043C04D30510539F042E069E772E0A8
:1024D000C8010E94FF11F4CF7B018FEFE81AF80AC0
:1024E0004AE050E0B70183E294E00E94E3092B85C3
:1024F0003C8542E06CE772E08217930749F7B70129
:10250000C8010E94D410C82F811104C042E06FE7B7
:1025100072E0DECF4CE050E0B7018BE394E00E9424
:102520000A1F892B71F081E08093C0018CE0F701D4
:10253000ABE3B4E001900D928A95E1F7C8010E94E7
:1025400061106BE6C8010E9408128C2FDF91CF91B9
:102550001F910F91FF90EF900895C8010E94D41130
:10256000AFCF80913D0481111CC080913C048093C9
:102570003D044AE050E06BE374E083E294E00E94A3
:10258000E309909346048093450481E08093C00161
:10259000C8010E94D41160E971E0C8010E94EC10EA
:1025A0008FCF8150E4CF80913D0490E001966091FF
:1025B0003C0470E00E948A1DDACF2091BC0130916A
:1025C000BD0144E050E060E170E085E294E00E94EB
:1025D000791583E294E00E94840810921C04109202
:1025E0001B0410921E0410921D04109220041092DD
:1025F0001F041092220410922104089585E294E0B1
:102600000C940213CF93DF93EC0189859A850E9485
:10261000811E8E819F8197FD05C060E0DF91CF9183
:102620000C942F18DF91CF910895CF93DF93EC0195
:102630008E819F8197FD07C061E00E942F1860E0A6
:102640008E810E946B1881E08983DF91CF9108957C
:10265000EF92FF920F931F93CF93DF93EC017B01D7
:1026600089859A850E94811E9E858B85981701F128
:1026700084E090E08E9D80018F9D100D9E9D100D39
:1026800011241D830C83C8010E94E51D9A87898748
:10269000009789F0A80170E060E00E94171FFB829C
:1026A000EA82DF91CF911F910F91FF90EF900895F3
:1026B00083E090E0DFCF1D821C821B821A82F1CF63
:1026C000FC01B685A3859B0186E0369527958A9502
:1026D000E1F723702687CB0134E0969587953A95EC
:1026E000E1F783708387AB015695479556954795DB
:1026F00043704487962F9370958791E06F3F7105E3
:1027000011F008F090E0908341855285452B69F0E7
:1027100031E0BA1330E091E0281390E0391729F046
:1027200062817381CF010C9428130895CF92DF92B8
:10273000EF92FF920F931F93CF93DF93CDB7DEB746
:1027400029970FB6F894DEBF0FBECDBF8C01DC0118
:1027500019968D919C91892B09F497C00E946D1751
:10276000F801C784D088E188F2886C197D098E0948
:102770009F096C3271408105910580F3F894D8016E
:1027800014968D919C9115979A83898319960D9033
:10279000BC91A02D7D01EFEFEE1AFE0A8C91898786
:1027A000D8018C9153960D90BC91A02D882309F4EB
:1027B00034C11D82AB32B10509F076C09BB1F8017E
:1027C0008589982B98879BB1809589238F838F81EA
:1027D0008E83898587FF02C088858E8358856F81A7
:1027E00049853E812D8189819A81D7015BB9262F48
:1027F0003BB900C046FD252F6BB900C05BB9362F31
:102800002BB900C045FD352F6BB900C05BB9262F31
:102810003BB900C044FD252F6BB900C05BB9362F12
:102820002BB900C043FD352F6BB900C05BB9262F13
:102830003BB900C042FD252F6BB900C05BB9362FF4
:102840002BB900C041FD352F6BB900C05BB9262FF5
:102850003BB900C040FD252F6BB901975BB9362FFE
:102860002BB94D9147FD352F6BB901F649873E8352
:102870002D839A83898378940E946D17D8011F96BF
:102880006D937D938D939C93529729960FB6F894F0
:10289000DEBF0FBECDBFDF91CF911F910F91FF9093
:1028A000EF90DF90CF900895A532B10509F059C09F
:1028B00095B1F8018589982B988795B180958923E2
:1028C0008F838F818E83898587FF02C088858E8361
:1028D00058856F8149853E812D8189819A81D701F3
:1028E00055B9262F35B900C046FD252F65B900C062
:1028F00055B9362F25B900C045FD352F65B900C043
:1029000055B9262F35B900C044FD252F65B900C043
:1029100055B9362F25B900C043FD352F65B900C024
:1029200055B9262F35B900C042FD252F65B900C025
:1029300055B9362F25B900C041FD352F65B900C006
:1029400055B9262F35B900C040FD252F65B901972F
:1029500055B9362F25B94D9147FD352F65B901F68B
:1029600085CF989709F087CF98B1F8018589982B82
:10297000988798B1809589238F838F818E838985ED
:1029800087FF02C088858E8358856F8149853E8187
:102990002D8189819A81D70158B9262F38B900C075
:1029A00046FD252F68B900C058B9362F28B900C098
:1029B00045FD352F68B900C058B9262F38B900C079
:1029C00044FD252F68B900C058B9362F28B900C07A
:1029D00043FD352F68B900C058B9262F38B900C05B
:1029E00042FD252F68B900C058B9362F28B900C05C
:1029F00041FD352F68B900C058B9262F38B900C03D
:102A000040FD252F68B9019758B9362F28B94D9147
:102A100047FD352F68B901F629CF9C91F8018589CA
:102A2000982B98879C91809589238F838F818C83A5
:102A300088E08B8358856F8149853B812C81898112
:102A40009A81F7015C9347FD252F2C93262F3A9509
:102A500031F0441F6C9300C000C000C0F3CF6C93F2
:102A6000000038E04191019769F7F801B48BA38B1E
:102A700049873B832C83FDCE0F931F93CF93DF9326
:102A80008C01EB01DC0111968C911197882341F0A8
:102A900016968D919C9197FD03C060E00E942F18BF
:102AA000F801D783C6838181882341F061E08C2FB0
:102AB0000E942F1860E08C2F0E946B18FE01EC54CE
:102AC000F74FE491F0E0EE0FFF1FEB52F74F8591C7
:102AD0009491D80154969C938E935397FE01E3569C
:102AE000F74FE4915596EC93DF91CF911F910F91A1
:102AF0000895EF92FF920F931F93CF93DF93EC0112
:102B00007B018A01198218861A8619861F86188AFF
:102B1000198A1A8AB9010E946013B701CE010E9476
:102B20002813B801CE01DF91CF911F910F91FF9033
:102B3000EF900C943C150F931F93DC0112968D912E
:102B40009C91139768177907C0F518968C91189780
:102B5000882361F0489FA0011124452F829F900196
:102B60001124232F809F80011124012F1E968C9108
:102B70001E971996ED91FC911A971B969C911B97A5
:102B800089131EC0CB01880F991F680F791F6E0F24
:102B90007F1F1B96EC911B97E60FF72FF11D4083CB
:102BA0001C96EC911C97E60FF72FF11D20831D96C4
:102BB0008C91680F711DFB0100831F910F91089587
:102BC000660F771F660F771F6E0F7F1FFB01E80FE1
:102BD000F11D1082DECF8F929F92AF92BF92CF9263
:102BE000DF92EF92FF921F93CF93DF93FC018281DC
:102BF000938168177907A8F54A01AA24BB24C82D38
:102C0000C32ED42EE52EFF241C2DD22F80858823A1
:102C100061F0889E40011124C92D8C9D6001112412
:102C20001D2D829FD0011124DB2FA685E184F28423
:102C30009385A91322C0CB01880F991F680F791FB4
:102C40006E0D7F1DA385A60FB72FB11DCC93A48554
:102C5000A60FB72FB11D1C938585680F711DFB0151
:102C6000D083DF91CF911F91FF90EF90DF90CF90B5
:102C7000BF90AF909F908F900895660F771F660F5B
:102C8000771F6E0D7F1D252F332744275527882357
:102C900049F090E0829F7001839FF00C929FF00CAE
:102CA00011242F2DA60FB72FB11D2C93CBCFFC01D4
:102CB0004481558170E060E0818592850C94171FF6
:102CC00008958130F1F0B0F08230E9F0E82FF0E0C3
:102CD000E559FF4F9081692B60839091680021E056
:102CE00030E001C0220F8A95EAF7892F822B80936A
:102CF0006800089593B1E42FF0E0E35BFB4F90830D
:102D0000E5CF96B1F8CF99B1F6CFE82FF0E0E559CD
:102D1000FF4F9081609569236083908191110FC06E
:102D20004091680021E030E0B90102C0660F771FD2
:102D30008A95E2F7CB0180958423809368000895FB
:102D40000895E091DB01F091DC010994E091D90153
:102D5000F091DA010994E091D701F091D80109943A
:102D6000E091D501F091D6010994E091D301F09161
:102D7000D4010994E091D101F091D2010994E0913C
:102D8000CF01F091D0010994E091CD01F091CE01F5
:102D900009941F920F920FB60F9211242F933F9315
:102DA0004F935F936F937F938F939F93AF93BF9353
:102DB000CF93EF93FF9399B180914F04C091490451
:102DC000C923282F2095C22320914C048223292F28
:102DD00020958223C82B90934F04C4FD0E94B51602
:102DE000C5FD0E94BA16C6FD0E94BF16C7FD0E940F
:102DF000C416C0FD0E94A116C1FD0E94A616C2FD08
:102E00000E94AB16C3FD0E94B016FF91EF91CF91C7
:102E1000BF91AF919F918F917F916F915F914F91F2
:102E20003F912F910F900FBE0F901F9018951F92FA
:102E30000F920FB60F9211242F933F938F939F936E
:102E4000AF93BF938091510490915204A091530489
:102E5000B09154043091500426E0230F2D3758F5DB
:102E60000296A11DB11D20935004809351049093AC
:102E70005204A0935304B09354048091550490914C
:102E80005604A0915704B09158040196A11DB11D9C
:102E90008093550490935604A0935704B09358041C
:102EA000BF91AF919F918F913F912F910F900FBE46
:102EB0000F901F90189529E8230F0396A11DB11DAF
:102EC000D2CF2FB7F8946091510470915204809141
:102ED0005304909154042FBF08953FB7F894809104
:102EE000550490915604A0915704B091580426B50A
:102EF000A89B05C02F3F19F00196A11DB11D3FBF32
:102F0000BA2FA92F982F8827BC01CD01620F711D00
:102F1000811D911D43E0660F771F881F991F4A95F9
:102F2000D1F708958F929F92AF92BF92CF92DF9286
:102F3000EF92FF926B017C010E946D174B015C01C7
:102F4000C114D104E104F104E9F00E94AE1A0E9418
:102F50006D17681979098A099B09683E73408105D4
:102F6000910570F321E0C21AD108E108F10888EE5A
:102F7000880E83E0981EA11CB11CC114D104E10489
:102F8000F10429F7FF90EF90DF90CF90BF90AF90C2
:102F90009F908F900895789484B5826084BD84B5A5
:102FA000816084BD85B5826085BD85B5816085BD44
:102FB000EEE6F0E0808181608083E1E8F0E010825D
:102FC000808182608083808181608083E0E8F0E09E
:102FD000808181608083E1EBF0E080818460808388
:102FE000E0EBF0E0808181608083EAE7F0E08081BF
:102FF0008460808380818260808380818E7F8083F3
:103000008081806880831092C1000895843081F0AF
:1030100028F4823099F08330A9F008958830A9F01F
:103020008930C9F08530B1F4809180008F7D03C074
:10303000809180008F7780938000089584B58F778A
:1030400084BD089584B58F7DFBCF8091B0008F77CC
:103050008093B00008958091B0008F7DF9CFCF9319
:10306000DF9390E0FC01E356F74F24918C54974F87
:10307000FC0184918823C9F090E0880F991FFC011E
:10308000E152F74FA591B491FC01EB52F74FC59176
:10309000D49161110DC09FB7F8948C912095822333
:1030A0008C938881282328839FBFDF91CF91089537
:1030B000623051F49FB7F8943C91822F809583231E
:1030C0008C93E8812E2BEFCF8FB7F894EC912E2BB9
:1030D0002C938FBFEACF1F93CF93DF93282F30E03D
:1030E000F901EA57F74F8491F901E356F74FD4916C
:1030F000F901EC54F74FC491CC23A9F0162F81119C
:103100000E940618EC2FF0E0EE0FFF1FEB52F74F76
:10311000A591B4918FB7F894EC91111108C0D09596
:10312000DE23DC938FBFDF91CF911F910895DE2BBB
:10313000F8CFCF93DF93282F30E0F901EA57F74F0C
:103140008491F901E356F74FD491F901EC54F74F0C
:10315000C491CC23A1F081110E940618EC2FF0E05D
:10316000EE0FFF1FE553F74FA591B491EC91ED23BE
:1031700081E090E009F480E0DF91CF91089580E054
:1031800090E0FACFFC01918D228D892F90E0805C38
:103190009F4F821B91098F7399270895FC01918D90
:1031A000828D981731F0828DE80FF11D858D90E0AA
:1031B00008958FEF9FEF0895FC01918D828D9817F0
:1031C00061F0A28DAE0FBF2FB11D5D968C91928DD7
:1031D0009F5F9F73928F90E008958FEF9FEF089508
:1031E0008AE39AE1892B49F080E090E0892B29F06D
:1031F0000E943A1A81110C9400000895FC01A48DDC
:10320000A80FB92FB11DA35ABF4F2C91848D90E008
:1032100001968F739927848FA689B7892C93A089EB
:10322000B1898C9180648C93938D848D981306C0A2
:103230000288F389E02D80818F7D80830895CF936C
:10324000DF93EC01888D8823B9F0AA89BB89E889CE
:10325000F9898C9185FD03C0808186FD0DC00FB674
:1032600007FCF7CF8C9185FFF2CF808185FFEDCFF2
:10327000CE010E94FE18E9CFDF91CF910895EF9221
:10328000FF920F931F93CF93DF93EC0181E0888F20
:103290009B8D8C8D981316C0E889F989808185FFF4
:1032A00011C0EE89FF896083E889F9898081806493
:1032B000808381E090E0DF91CF911F910F91FF908B
:1032C000EF900895F62E0B8D10E00F5F1F4F0F73D8
:1032D0001127E02E8C8D8E110CC00FB607FCFACF93
:1032E000E889F989808185FFF5CFCE010E94FE181B
:1032F000F1CFEB8DEC0FFD2FF11DE35AFF4FF08264
:103300000B8FEA89FB8980818062D2CFCF92DF92D6
:10331000EF92FF921F93CF93DF93EC016A017B0141
:10332000122F60E874E88EE190E0A70196010E94F8
:103330009E1D2150310941095109569547953795F0
:103340002795E889F98982E08083211580E1380793
:1033500098F0E889F989108260E472E48FE090E0E7
:10336000A70196010E949E1D215031094109510972
:103370005695479537952795EC85FD853083EE85E5
:10338000FF852083188EEC89FD891083EA89FB89EB
:10339000808180618083EA89FB8980818860808365
:1033A000EA89FB89808180688083EA89FB89808142
:1033B0008F7D8083DF91CF911F91FF90EF90DF9001
:1033C000CF9008951F920F920FB60F9211242F9352
:1033D0008F939F93EF93FF93E0916904F0916A04B8
:1033E0008081E0916F04F091700482FD1BC0908198
:1033F000809172048F5F8F7320917304821741F064
:10340000E0917204F0E0E75AFB4F958F80937204CD
:10341000FF91EF919F918F912F910F900FBE0F9081
:103420001F9018958081F4CF1F920F920FB60F92C4
:1034300011242F933F934F935F936F937F938F93B9
:103440009F93AF93BF93EF93FF9389E594E00E941E
:10345000FE18FF91EF91BF91AF919F918F917F9156
:103460006F915F914F913F912F910F900FBE0F90F1
:103470001F90189589E594E00E94C21821E0892BDD
:1034800009F420E0822F0895E9E5F4E01382128226
:1034900088EE93E0A0E0B0E084839583A683B783B1
:1034A00086E892E09183808385EC90E0958784871D
:1034B00084EC90E09787868780EC90E0918B808BFE
:1034C00081EC90E0938B828B82EC90E0958B848BE7
:1034D00086EC90E0978B868B118E128E138E148E55
:1034E0000895AF92BF92CF92DF92EF92FF920F9327
:1034F0001F93CF93DF936C017B018B01040F151F8A
:10350000EB015E01AE18BF08C017D10759F06991F1
:10351000D601ED91FC910190F081E02DC601099555
:10352000892B79F7C501DF91CF911F910F91FF9002
:10353000EF90DF90CF90BF90AF90089508950E94D4
:10354000CB170E949E1A0E94160DC0EFD8E10E9470
:103550007D0E2097E1F30E94F018F9CF089550589E
:10356000BB27AA270E94C71A0C943A1C0E942C1C45
:1035700038F00E94331C20F039F49F3F19F426F4F0
:103580000C94291C0EF4E095E7FB0C94231CE92F06
:103590000E944B1C58F3BA176207730784079507FC
:1035A00020F079F4A6F50C946D1C0EF4E0950B2E2A
:1035B000BA2FA02D0B01B90190010C01CA01A00185
:1035C0001124FF27591B99F0593F50F4503E68F1E0
:1035D0001A16F040A22F232F342F4427585FF3CF21
:1035E000469537952795A795F0405395C9F77EF4F2
:1035F0001F16BA0B620B730B840BBAF09150A1F03B
:10360000FF0FBB1F661F771F881FC2F70EC0BA0FC0
:10361000621F731F841F48F4879577956795B79548
:10362000F7959E3F08F0B0CF9395880F08F0992743
:10363000EE0F9795879508950E94FF1B08F481E08F
:1036400008950E94351B0C943A1C0E94331C58F0BC
:103650000E942C1C40F029F45F3F29F00C94231C9D
:1036600051110C946E1C0C94291C0E944B1C68F385
:103670009923B1F3552391F3951B550BBB27AA272B
:1036800062177307840738F09F5F5F4F220F331F65
:10369000441FAA1FA9F335D00E2E3AF0E0E832D02D
:1036A00091505040E695001CCAF72BD0FE2F29D030
:1036B000660F771F881FBB1F261737074807AB0702
:1036C000B0E809F0BB0B802DBF01FF2793585F4F77
:1036D0003AF09E3F510578F00C94231C0C946E1C1C
:1036E0005F3FE4F3983ED4F3869577956795B79559
:1036F000F7959F5FC9F7880F911D9695879597F964
:103700000895E1E0660F771F881FBB1F62177307DC
:103710008407BA0720F0621B730B840BBA0BEE1FF1
:1037200088F7E09508950E94531C88F09F5798F001
:10373000B92F9927B751B0F0E1F0660F771F881FB6
:10374000991F1AF0BA95C9F714C0B13091F00E94D0
:103750006D1CB1E008950C946D1C672F782F88279D
:10376000B85F39F0B93FCCF3869577956795B395F7
:10377000D9F73EF490958095709561957F4F8F4F66
:103780009F4F0895E89409C097FB3EF4909580956B
:10379000709561957F4F8F4F9F4F9923A9F0F92F17
:1037A00096E9BB279395F695879577956795B79595
:1037B000F111F8CFFAF4BB0F11F460FF1BC06F5F7B
:1037C0007F4F8F4F9F4F16C0882311F096E911C08D
:1037D000772321F09EE8872F762F05C0662371F0AE
:1037E00096E8862F70E060E02AF09A95660F771FC2
:1037F000881FDAF7880F9695879597F90895990F9E
:103800000008550FAA0BE0E8FEEF16161706E807AA
:10381000F907C0F012161306E407F50798F0621BCB
:10382000730B840B950B39F40A2661F0232B242BA0
:10383000252B21F408950A2609F4A140A6958FEFBF
:10384000811D811D089597F99F6780E870E060E011
:1038500008959FEF80EC089500240A941616170629
:1038600018060906089500240A9412161306140671
:1038700005060895092E0394000C11F4882352F0D4
:10388000BB0F40F4BF2B11F460FF04C06F5F7F4F8C
:103890008F4F9F4F089557FD9058440F551F59F073
:1038A0005F3F71F04795880F97FB991F61F09F3F2D
:1038B00079F087950895121613061406551FF2CF56
:1038C0004695F1DF08C0161617061806991FF1CFA6
:1038D00086957105610508940895E894BB276627CD
:1038E0007727CB0197F908950E94FF1B08F48FEF0B
:1038F00008950E948C1C0C943A1C0E942C1C38F0D9
:103900000E94331C20F0952311F00C94231C0C947E
:10391000291C11240C946E1C0E944B1C70F3959F63
:10392000C1F3950F50E0551F629FF001729FBB27B6
:10393000F00DB11D639FAA27F00DB11DAA1F649F52
:103940006627B00DA11D661F829F2227B00DA11D05
:10395000621F739FB00DA11D621F839FA00D611D8B
:10396000221F749F3327A00D611D231F849F600DAC
:10397000211D822F762F6A2F11249F5750409AF0D5
:10398000F1F088234AF0EE0FFF1FBB1F661F771F61
:10399000881F91505040A9F79E3F510580F00C942C
:1039A000231C0C946E1C5F3FE4F3983ED4F3869581
:1039B00077956795B795F795E7959F5FC1F7FE2BCC
:1039C000880F911D9695879597F908959F930E946A
:1039D000F01C0F9007FCEE5F0C94191D0C94291C31
:1039E0000E94531CD8F3E894E0E0BB279F57F0F007
:1039F0002AED3FE049EC06C0EE0FBB0F661F771FB4
:103A0000881F28F0B23A62077307840728F0B25A79
:103A1000620B730B840BE3959A9572F7803830F440
:103A20009A95BB0F661F771F881FD2F790480C949A
:103A30002F1DEF93E0FF07C0A2EA2AED3FE049EC1B
:103A40005FEB0E94C71A0E943A1C0F90039401FC7E
:103A50009058E8E6F0E00C943B1D9F3F31F0915008
:103A600020F4879577956795B795880F911D969562
:103A7000879597F908959F938F937F936F93FF9303
:103A8000EF939B01AC010E94791CEF91FF910E9482
:103A90004F1D2F913F914F915F910C94791CDF93B3
:103AA000CF931F930F93FF92EF92DF927B018C01D4
:103AB000689406C0DA2EEF010E948C1CFE01E89487
:103AC000A5912591359145915591A6F3EF010E945D
:103AD000C71AFE019701A801DA9469F7DF90EF9009
:103AE000FF900F911F91CF91DF910895AA1BBB1BEF
:103AF00051E107C0AA1FBB1FA617B70710F0A61BEE
:103B0000B70B881F991F5A95A9F780959095BC010E
:103B1000CD01089597FB072E16F4009407D077FD8A
:103B200009D00E94761D07FC05D03EF49095819542
:103B30009F4F0895709561957F4F0895A1E21A2EC9
:103B4000AA1BBB1BFD010DC0AA1FBB1FEE1FFF1F41
:103B5000A217B307E407F50720F0A21BB30BE40B91
:103B6000F50B661F771F881F991F1A9469F76095D8
:103B70007095809590959B01AC01BD01CF01089592
:103B8000052E97FB1EF400940E94D71D57FD07D009
:103B90000E949E1D07FC03D04EF40C94D71D509537
:103BA0004095309521953F4F4F4F5F4F0895909529
:103BB0008095709561957F4F8F4F9F4F0895EE0FC1
:103BC000FF1F0590F491E02D09940F931F93CF935D
:103BD000DF938230910510F482E090E0E091F804E8
:103BE000F091F90430E020E0B0E0A0E0309799F4E3
:103BF0002115310509F44AC0281B390B2430310541
:103C0000D8F58A819B816115710589F1FB01938348
:103C10008283FE0111C040815181028113814817C6
:103C20005907E0F04817590799F4109761F0129678
:103C30000C93129713961C933296CF01DF91CF917C
:103C40001F910F9108950093F8041093F904F4CF95
:103C50002115310551F04217530738F0A901DB0156
:103C60009A01BD01DF01F801C1CFEF01F9CF9093B7
:103C7000F9048093F804CDCFFE01E20FF31F819386
:103C800091932250310939832883D7CF2091F604AC
:103C90003091F704232B41F420910201309103016C
:103CA0003093F7042093F604209100013091010134
:103CB0002115310541F42DB73EB7409104015091D3
:103CC0000501241B350BE091F604F091F704E2178F
:103CD000F307A0F42E1B3F0B2817390778F0AC012F
:103CE0004E5F5F4F2417350748F04E0F5F1F50930C
:103CF000F7044093F604819391939FCFF0E0E0E0C6
:103D00009CCFCF93DF930097E9F0FC0132971382A9
:103D10001282A091F804B091F904ED0130E020E0A6
:103D20001097A1F420813181820F931F2091F60416
:103D30003091F7042817390709F061C0F093F704B0
:103D4000E093F604DF91CF910895EA01CE17DF07E3
:103D5000E8F54A815B819E0141155105B1F7E90102
:103D6000FB83EA8349915991C40FD51FEC17FD07D6
:103D700061F4808191810296840F951FE9019983F6
:103D80008883828193819B838A83F0E0E0E01296AE
:103D90008D919C9113970097B9F52D913C911197B6
:103DA000CD010296820F931F2091F6043091F70403
:103DB0002817390739F6309751F51092F904109207
:103DC000F804B093F704A093F604BCCFD383C28366
:103DD00040815181840F951FC817D90761F44E5F48
:103DE0005F4F88819981480F591F518340838A8191
:103DF0009B81938382832115310509F0B0CFF09325
:103E0000F904E093F8049ECFFD01DC01C0CF1382DA
:103E10001282D7CFFB01DC0104C08D910190801983
:103E200021F441505040C8F7881B990B0895DC01DC
:103E300001C06D9341505040E0F70895F999FECFCD
:103E400092BD81BDF89A992780B50895262FF999DA
:103E5000FECF1FBA92BD81BD20BD0FB6F894FA9A6D
:103E6000F99A0FBE0196089514E0C0E8D4E004C0AA
:103E7000FE010E94DF1D2196C138D107C9F7F894D1
:023E8000FFCF72
:103E82000000FA04800000007804EF08660DDB11E0
:103E92005016C21A331FA1230C28742CD93039357D
:103EA2009639EE3D42429046D94A1B4F58538E579F
:103EB200BE5BE65F07641F68306C397038742F7818
:103EC2001C7C0080D983A8876D8B278FD592799629
:103ED200109A9B9D1BA18DA4F3A74BAB97AED4B1B7
:103EE20004B526B839BB3EBE34C11BC4F2C6BAC93A
:103EF20073CC1BCFB3D13BD4B2D619D96EDBB3DDB1
:103F0200E6DF08E218E416E603E8DDE9A5EB5BED7F
:103F1200FEEE8FF00DF277F3CFF414F646F764F865
:103F22006FF967FA4BFB1BFCD8FC81FD17FE98FE6C
:103F320006FF5FFFA5FFD7FFF5FFFFFF5200D2008C
:103F420001001000B80B102700000000006016608E
:103F5200166016601660166016601660160000FF86
:103F6200000088FF0000FF000000000000B104BF55
:103F7200049605BC05AB04AC0400000000DF05FAA2
:103F8200057706D5058C06DD05000000003C07A676
:103F920006BB0607072407A706000000006B076D93
:103FA20007360855081B08660700000000310AF7AB
:103FB20009ED09280AEA09EB0900000000720AED7E
:103FC2000A510A670A4B0A4C0A00000000300B3201
:103FD2000B350B570B780B330B00000000C70CACF2
:103FE2000B8B0CB70CA60BA70B000000004B0F515C
:103FF2000F4D0FC80F4E0F4F0F4531004532004590
:104002003300000000003F19711AC218DC18CE18E4
:024012001F1974
:00000001FF
