:100000000C9481040C94A9040C94A9040C94A904E4
:100010000C94A9040C943E170C94A9040C94A90404
:100020000C94A9040C94A9040C94A9040C94A9049C
:100030000C94A9040C94A9040C94A9040C94A9048C
:100040000C9478190C94A9040C94AF180C94E11832
:100050000C94A9040C94A9040C94A9040C94A9046C
:100060000C94A9040C94A90405A84CCDB2D44EB9A3
:100070003836A9020C50B9918688083CA6AAAA2A4B
:10008000BE000000803F0000102120423063408409
:1000900050A560C670E781089129A14AB16BC18C57
:1000A000D1ADE1CEF1EF123102103273225252B5CE
:1000B000429472F762D693398318B37BA35AD3BDA7
:1000C000C39CF3FFE3DE246234430420140164E69E
:1000D00074C744A45485A56AB54B85289509E5EEF7
:1000E000F5CFC5ACD58D365326721611063076D7AE
:1000F00066F6569546B4B75BA77A97198738F7DF47
:10010000E7FED79DC7BC48C458E5688678A7084075
:10011000186128023823C9CCD9EDE98EF9AF894896
:100120009969A90AB92B5AF54AD47AB76A961A710D
:100130000A503A332A12DBFDCBDCFBBFEB9E9B79E6
:100140008B58BB3BAB1A6CA67C874CE45CC52C225D
:100150003C030C601C41EDAEFD8FCDECDDCDAD2A36
:10016000BD0B8D689D497E976EB65ED54EF43E13ED
:100170002E321E510E70FF9FEFBEDFDDCFFCBF1B86
:10018000AF3A9F598F78918881A9B1CAA1EBD10C60
:10019000C12DF14EE16F108000A130C220E3500468
:1001A00040257046606783B99398A3FBB3DAC33DDB
:1001B000D31CE37FF35E02B1129022F332D24235B8
:1001C000521462777256B5EAA5CB95A88589F56E6B
:1001D000E54FD52CC50D34E224C314A00481746608
:1001E000644754244405A7DBB7FA879997B8E75FBB
:1001F000F77EC71DD73C26D336F2069116B0665758
:10020000767646155634D94CC96DF90EE92F99C842
:1002100089E9B98AA9AB584448657806682718C0A7
:1002200008E1388228A3CB7DDB5CEB3FFB1E8BF91A
:100230009BD8ABBBBB9A4A755A546A377A160AF1F7
:100240001AD02AB33A92FD2EED0FDD6CCD4DBDAA2A
:10025000AD8B9DE88DC97C266C075C644C453CA247
:100260002C831CE00CC1EF1FFF3ECF5DDF7CAF9BFA
:10027000BFBA8FD99FF86E177E364E555E742E9397
:100280003EB20ED11EF00000333166625553CCC42D
:10029000FFF5AAA6999789A9BA98EFCBDCFA456D24
:1002A000765C230F103E0373304265115620CFB7A2
:1002B000FC86A9D59AE48ADAB9EBECB8DF89461E48
:1002C000752F207C134D06E635D7608453B5CA22BE
:1002D000F913AC409F718F4FBC7EE92DDA1C438B24
:1002E00070BA25E916D8059536A463F750C6C951EA
:1002F000FA60AF339C028C3CBF0DEA5ED96F40F8C8
:1003000073C9269A15AB0DCC3EFD6BAE589FC10844
:10031000F239A76A945B8465B754E207D13648A1E5
:100320007B902EC31DF20EBF3D8E68DD5BECC27B61
:10033000F14AA41997288716B427E174D2454BD205
:1003400078E32DB01E810B2A381B6D485E79C7EE0D
:10035000F4DFA18C92BD8283B1B2E4E1D7D04E47E5
:100360007D7628251B1408593B686E3B5D0AC49DA9
:10037000F7ACA2FF91CE81F0B2C1E792D4A34D3485
:100380007E052B5618671B9828A97DFA4ECBD75CA3
:10039000E46DB13E820F9231A100F453C7625EF565
:1003A0006DC438970BA618EB2BDA7E894DB8D42F85
:1003B000E71EB24D817C9142A273F720C4115D8685
:1003C0006EB73BE408D51D7E2E4F7B1C482DD1BA5D
:1003D000E28BB7D884E994D7A7E6F2B5C184581365
:1003E0006B223E710D401E0D2D3C786F4B5ED2C9C5
:1003F000E1F8B4AB879A97A4A495F1C6C2F75B6005
:1004000068513D020E331654256570364307DA9065
:10041000E9A1BCF28FC39FFDACCCF99FCAAE5339A2
:100420006008355B066A1527261673454074D9E3C4
:10043000EAD2BF818CB09C8EAFBFFAECC9DD504AC6
:10044000637B3628051910B2238376D045E1DC762C
:10045000EF47BA148925991BAA2AFF79CC4855DFA2
:1004600066EE33BD008C13C120F075A34692DF0504
:10047000EC34B9678A569A68A959FC0ACF3B56AC46
:10048000659D30CE03FF000037306E605950DCC0F0
:10049000EBF0B2A08590A9A19E91C7C1F0F1756162
:1004A00042511B012C31436374532D031A339FA314
:1004B000A893F1C3C6F3EAC2DDF284A2B392360276
:1004C000013258626F5286C6B1F6E8A6DF965A0628
:1004D0006D36346603562F67185741077637F3A7F2
:1004E000C4979DC7AAF7C5A5F295ABC59CF519653C
:1004F0002E55770540356C045B3402643554B0C426
:1005000087F4DEA4E9941DAD2A9D73CD44FDC16D31
:10051000F65DAF0D983DB40C833CDA6CED5C68CCB5
:100520005FFC06AC319C5ECE69FE30AE079E820E4B
:10053000B53EEC6EDB5EF76FC05F990FAE3F2BAF41
:100540001C9F45CF72FF9B6BAC5BF50BC23B47AB6F
:10055000709B29CB1EFB32CA05FA5CAA6B9AEE0A85
:10056000D93A806AB75AD808EF38B668815804C8B3
:1005700033F86AA85D9871A946991FC928F9AD6931
:100580009A59C309F4393B5A0C6A553A620AE79AF8
:10059000D0AA89FABECA92FBA5CBFC9BCBAB4E3B43
:1005A000790B205B176B78394F0916592169A4F92B
:1005B00093C9CA99FDA9D198E6A8BFF888C80D5873
:1005C0003A6863385408BD9C8AACD3FCE4CC615CC7
:1005D000566C0F3C380C143D230D7A5D4D6DC8FDF3
:1005E000FFCDA69D91ADFEFFC9CF909FA7AF223F43
:1005F000150F4C5F7B6F575E606E393E0E0E8B9E03
:10060000BCAEE5FED2CE26F711C748977FA7FA37D2
:10061000CD079457A3678F56B866E136D606539632
:1006200064A63DF60AC6659452A40BF43CC4B954C2
:100630008E64D734E004CC35FB05A255956510F5E2
:1006400027C57E9549A5A0319701CE51F9617CF16E
:100650004BC1129125A109903EA067F050C0D55022
:10066000E260BB308C00E352D4628D32BA023F921A
:1006700008A251F266C24AF37DC3249313A39633B2
:10068000A103F853CF63000076B4ED689BDCCAF198
:10069000BC452799512D85C3F37768AB1E1F4F3298
:1006A0003986A25AD4EE1BA76D13F6CF807BD156A4
:1006B000A7E23C3E4A8A9E64E8D0730C05B8549584
:1006C0002221B9FDCF49374E41FADA26AC92FDBF5F
:1006D0008B0B10D76663B28DC4395FE52951787CE6
:1006E0000EC89514E3A02CE95A5DC181B735E61810
:1006F00090AC0B707DC4A92ADF9E444232F663DBC6
:10070000156F8EB3F8076E9C182883F4F540A46D1E
:10071000D2D949053FB1EB5F9DEB0637708321AE1F
:10072000571ACCC6BA72753B038F9853EEE7BFCA0F
:10073000C97E52A22416F0F8864C1D906B243A090B
:100740004CBDD761A1D559D22F66B4BAC20E93233E
:10075000E5977E4B08FFDC11AAA5317947CD16E05D
:100760006054FB888D3C427534C1AF1DD9A9888483
:10077000FE3065EC1358C7B6B1022ADE5C6A0D473D
:100780007BF3E02F969BDD38AB8C305046E417C9E5
:10079000617DFAA18C1558FB2E4FB593C327920AA1
:1007A000E4BE7F6209D6C69FB02B2BF75D430C6E6B
:1007B0007ADAE10697B2435C35E8AE34D88089AD89
:1007C000FF1964C51271EA769CC2071E71AA2087C0
:1007D0005633CDEFBB5B6FB5190182DDF469A544DB
:1007E000D3F0482C3E98F1D187651CB96A0D3B20A7
:1007F0004D94D648A0FC741202A6997AEFCEBEE3BF
:10080000C857538B253FB3A4C5105ECC28787955C3
:100810000FE1943DE289366740D3DB0FADBBFC9618
:100820008A2211FE674AA803DEB7456B33DF62F206
:1008300014468F9AF92E2DC05B74C0A8B61CE73100
:1008400091850A597CED84EAF25E69821F364E1B5F
:1008500038AFA373D5C70129779DEC419AF5CBD862
:10086000BD6C26B050049F4DE9F97225049155BC2A
:100870002308B8D4CE601A8E6C3AF7E68152D07F46
:10088000A6CB3D174BA300000009000302000004A3
:100890000508000000000000000000000001020444
:1008A00008102040800102040810200102040810F2
:1008B00020408040040404040404040402020202F0
:1008C00002020303030303030202030000000023E8
:1008D000002600290000000000250028002B000051
:1008E000000000240027002A0000D1059B066207B3
:1008F000A908780A7C0BE90B380D3910411311193E
:10090000621311241FBECFEFD8E0DEBFCDBF12E0CF
:10091000A0E0B1E0ECE6FFE302C005900D92A4393F
:10092000B107D9F724E0A4E9B2E001C01D92AD3FC0
:10093000B207E1F714E0C0E8D4E004C02197FE015B
:100940000E94581EC537D107C9F70E9469190C9437
:10095000A91F0C94000008959091180381E0892745
:1009600008954130510521F4FB012081213611F019
:100970000C94751261E40E94651281E008954F9213
:100980005F926F927F928F929F92AF92BF92CF921F
:10099000DF92EF92FF920F931F93CF93DF93EC01BF
:1009A0008B85EF80F88409851A85882341F120E042
:1009B00030E0A901B701C8010E94ED1C1816E4F44B
:1009C0002DEC3CEC4CEC5CE3B701C8010E94951B9C
:1009D00087FF05C07E2D6F2D902F812F04C07DECE9
:1009E0006CEC9CEC8CE3272F362F492F582FB70146
:1009F000C8010E94281B30C081E08C8731C020E0F4
:100A000030E040E85FE3B701C8010E94951B87FF13
:100A100027C09701A80160E070E080E89FE30E9492
:100A2000281B5B016C012AE037ED43E25CE30E9486
:100A3000951B87FF05C0BA2DAB2DFC2DED2D04C0F5
:100A4000BAE0A7EDF3E2ECE39701A8016B2F7A2F50
:100A50008F2F9E2F0E94291B6F83788789879A8703
:100A6000CE010E9410110E943B1C20E030E046E9BC
:100A700053E40E949A1B4B015C0160912904709120
:100A80002A0480E090E00E943B1C9B01AC016BEDCE
:100A90007FE089EC90E40E949A1B2B013C01E12C41
:100AA000F12C8091290490912A04E816F90678F532
:100AB000B7010F2C000C880B990B0E943D1CA30161
:100AC00092010E94F21CA50194010E94291B0E9420
:100AD0005F1D9B01AC010E94F21C20E030E04FE75B
:100AE00053E40E94F21C2F81388549855A850E9463
:100AF000F21C0E940C1C262F00E040E0B70187E2A8
:100B000094E00E9404168FEFE81AF80ACACF87E231
:100B100094E0DF91CF911F910F91FF90EF90DF90C4
:100B2000CF90BF90AF909F908F907F906F905F908D
:100B30004F900C94FB13CF93DF93EC018B858823AC
:100B400051F08C85882379F061E6CE010E94651210
:100B500084EE92E011C082E00E94FE1A892B29F0F7
:100B60008B858111EECFCE0107C081E08B8763E6D4
:100B7000CE010E946512F4CFDF91CF910895CF93FB
:100B8000DF93EC010E9459101F82188619861A867D
:100B90001E821B861C8661E4CE01DF91CF910C94EE
:100BA00065128EEE91E090939502809394020895E1
:100BB000FC01168217821086118614861586089508
:100BC00080E00895EF92FF920F931F93CF93DF93EE
:100BD000EC018B017A010E947512EA94EF2831F43E
:100BE000F80190819E3211F481E08C87DF91CF91E2
:100BF0001F910F91FF90EF900895CF92DF92EF92A7
:100C0000FF920F931F93CF93DF93EC012C858A857E
:100C10009B85222391F0181619064CF49C0185300F
:100C2000910514F024E030E0821B930B14C081E0A6
:100C30008D87C12CD12C760111C08F3F9105CCF747
:100C40002FEF30E0281B390B2530310514F024E05C
:100C500030E0820F931F9B878A87EBCF0091290496
:100C600010912A04C016D10660F58E819F81A88557
:100C7000B985A7019601281B390B4A0B5B0BCA01EA
:100C8000B901980140E050E00E94171E262F8A8586
:100C90009B85B8010E94EF1D269F202D1124022F55
:100CA00010E0159507951595079540E0B60187E288
:100CB00094E00E9404163FEFC31AD30AE30AF30A32
:100CC000CDCF87E294E00E94FB138E819F81A8859F
:100CD000B9850196A11DB11D8E839F83A887B98711
:100CE000DF91CF911F910F91FF90EF90DF90CF9008
:100CF0000895CF93DF93EC010E944610009749F4CA
:100D00008C85882339F08D85882321F0C4EED2E0CC
:100D100001C0EC01CE01DF91CF910895109218032C
:100D20000E94C2196093190370931A0380931B03E6
:100D300090931C030895E1EAF2E08EEF91E0918335
:100D40008083168217821086118613861286089574
:100D500008959091180381E0892708952B9A81E0E6
:100D60008093B7020E94CE196093B8027093B902C3
:100D70008093BA029093BB020895CF92DF92EF92D4
:100D8000FF920F931F93CF93DF938C018091B70253
:100D9000882319F10E94CE19C090B802D090B902F0
:100DA000E090BA02F090BB02DC01CB018C199D09E6
:100DB000AE09BF09C0904204D0904304E0904404BF
:100DC000F09045048C159D05AE05BF0518F360E055
:100DD0008BE00E94CF1A1092B702E801C8010E946E
:100DE000101169397A438105910518F48F818823A0
:100DF00019F0C4EED2E005C08E81882311F0C4EF53
:100E0000D2E0CE01DF91CF911F910F91FF90EF9033
:100E1000DF90CF900895CF93DF93EC010E9459109B
:100E20001F821E821092B7020E9415178EEA96E06A
:100E30009093CF018093CE01EDE4F4E0828180684D
:100E4000828342E060E882E0DF91CF910C94D41677
:100E500083ED96E19093CF018093CE01EAE4F4E034
:100E600082818F778283EDE4F4E082818F778283C1
:100E700060E882E00E94FA1660E08BE00C94CF1AE2
:100E8000EF92FF920F931F93CF93DF93EC018B01AF
:100E90007A010E94751281110EC0EA94EF2859F46C
:100EA000F80190819B3629F0903729F481E08E83F8
:100EB00002C081E08F83DF91CF911F910F91FF904E
:100EC000EF9008958EE092E09093B0028093AF028D
:100ED00008959091180381E0892708950C94751264
:100EE0002F923F924F925F926F927F928F929F923A
:100EF000AF92BF92CF92DF92EF92FF920F931F9328
:100F0000CF93DF93CDB7DEB727970FB6F894DEBF48
:100F10000FBECDBF9F838E83FC01868124E0829F1C
:100F2000E00DF11D112447845088618872888E81FC
:100F30009F810E941011EE81FF81C780D084E184DF
:100F4000F2840E943B1C4B015C01EE81FF816681B3
:100F500070E080E090E00E943D1CA70196010E9495
:100F6000F21C9B01AC01C501B4010E94281BA70122
:100F700096010E949A1B6B017C016091290470917B
:100F80002A0480E090E00E943B1C4B015C019B0125
:100F9000AC01C701B6010E94F21C9B01AC01C50166
:100FA000B4010E94281B4B015C01198200912904A5
:100FB00010912A04F9812F2E0F2E000C33082016D1
:100FC0003106C8F56F2FFF0F770B880B990B0E9426
:100FD0003D1C9B01AC01C501B4010E94951B909181
:100FE0003F0487FF0AC09101290F311DC901B801D3
:100FF0000E94EF1DA301920115C0EE81FF812385A0
:101000003485458556852A833B834C835D839101D6
:10101000290F311DC901B8010E94EF1D2A813B81B2
:101020004C815D81BC0187E294E00E9455163981B4
:101030003F5F3983BBCF87E294E00E94FB1320E03F
:1010400030E040E85FE3C701B6010E94ED1C87FD78
:101050000EC0EE81FF814386548665867686868142
:101060008F5F833018F082E0EE81FF8186832796C0
:101070000FB6F894DEBF0FBECDBFDF91CF911F91A9
:101080000F91FF90EF90DF90CF90BF90AF909F9027
:101090008F907F906F905F904F903F902F9008952A
:1010A000CF93C0E06C2F0C2E000C770B809129049D
:1010B00090912A046817790748F420E030E0A901EC
:1010C00087E294E00E945516CF5FECCF87E294E070
:1010D000CF910C94FB130F931F93CF93DF93EC01ED
:1010E0000E9410112091400430914104890120E0B8
:1010F00030E0061717072807390730F464E7CE01F8
:101100000E946512CFEAD2E0CE01DF91CF911F910C
:101110000F910895CF93DF93EC010E9459106091D5
:1011200040047091410480E090E00E943B1C20E06C
:1011300030E040E450E40E949A1B6F8378878987EF
:101140009A871E821B861C861D861E86DF91CF9184
:1011500008958EE192E09093BD028093BC028CE0F2
:10116000EEEDF1E0ABECB2E001900D928A95E1F783
:1011700008954F925F926F927F928F929F92AF925B
:10118000BF92CF92DF92EF92FF920F931F93CF9374
:10119000DF93FC0120813181DB01FD01BD01637022
:1011A0007727672B19F48A01ED0115C04115510508
:1011B00009F416C1C32FDD271196E081F0E0E22784
:1011C000EE0FFF1FEA57FF4F259134912C273D2743
:1011D00041505109E2CF0031110508F4DDC0005142
:1011E000110988809980AA80BB8028253925F901BA
:1011F000FF27EE0FFF1FEA57F94FC590D490232F1A
:101200003327F901EE0FFF1FEA57FB4F65917491E9
:101210004A2C512C612C712CFFEF5F1A6F0A7F0A48
:10122000F201EE0FFF1FEA57FF4F259134918B2CEF
:101230009924AA24BB24F401EE0FFF1FEA57FF4FA5
:10124000E590F4908C809D80AE80BF806C257D25DC
:101250006825792526273727E226F326F701FF2779
:10126000EE0FFF1FEA57F94F65907490EF2DFF279F
:10127000EE0FFF1FEA57FB4F65917491CA2CD12CDA
:10128000E12CF12C2FEFD21AE20AF20AF601EE0F4E
:10129000FF1FEA57FF4F259134918B2C9924AA24E4
:1012A000BB24F401EE0FFF1FEA57FF4FE590F490C7
:1012B00088849984AA84BB84662577256825792546
:1012C00026273727E226F326F701FF27EE0FFF1F19
:1012D000EA57F94FC590D490EF2DFF27EE0FFF1F6F
:1012E000EA57FB4F659174914A2C512C612C712C5B
:1012F000EFEF5E1A6E0A7E0AF201EE0FFF1FEA5749
:10130000FF4F259134918B2C9924AA24BB24F401FE
:10131000EE0FFF1FEA57FF4FE590F4908C849D84F9
:10132000AE84BF846C257D2568257925262737273F
:10133000E226F326F701FF27EE0FFF1FEA57F94FCA
:1013400065907490EF2DFF27EE0FFF1FEA57FB4FBC
:1013500065917491CA2CD12CE12CF12CFFEFDF1A8E
:10136000EF0AFF0AF601EE0FFF1FEA57FF4F259124
:1013700034918B2C9924AA24BB24F401EE0FFF1F77
:10138000EA57FF4FE590F490662577252627372703
:101390002E253F2560961FCFBA01E4E0769567952C
:1013A000EA95E1F7FB01C4E0EE0FFF1FCA95E1F7F4
:1013B000AE0FBF1F4E1B5F0BED01C40FD51FCA1729
:1013C000DB0771F0032F1127ED91F0E0E227EE0F1C
:1013D000FF1FEA57FF4F2591349120273127EFCF88
:1013E000FC0131832083A90160E070E0B62FA52FB6
:1013F000942F8827AA27BB27452F562F672F77279B
:10140000842B952BA62BB72BDF91CF911F910F919A
:10141000FF90EF90DF90CF90BF90AF909F908F9014
:101420007F906F905F904F9008952FEF3FEFFC01FA
:10143000318320830C94B9080895089580E00895BD
:10144000FC012385222329F061E60E94651284EEC7
:1014500092E00895EF92FF920F93CF93DF930E9453
:10146000101126E930E040E050E00E94171E79019B
:1014700081E0E822FF24C0E0D0E08091290490912F
:101480002A04C817D90778F400E020E0E114F10439
:1014900011F04FEF01C040E0BE0187E294E00E94EE
:1014A00004162196EACF87E294E0DF91CF910F9165
:1014B000FF90EF900C94FB13CF93DF93EC010E940D
:1014C00059101B86DF91CF9108954130510571F479
:1014D000FB0120812E3229F421E0FC01238781E0E9
:1014E0000895263619F466E40E94651280E0089596
:1014F0008EE292E09093D8028093D70208950895E7
:101500009091180381E089270895CF93DF93EC0130
:101510000E944610009749F482E00E94FE1A892B2F
:1015200031F08885811103C004C0EC0102C0CCEB0E
:10153000D2E0CE01DF91CF910895CF93DF93EC01FC
:101540000E94591018861F821E82DF91CF91089544
:10155000EF92FF920F931F93CF93DF93EC018B01D8
:101560007A010E947512882311F081E00AC0EA9482
:10157000EF2831F4F8018081843711F481E0888705
:1015800080E0DF91CF911F910F91FF90EF90089530
:10159000CF92DF92EF92FF920F931F93CF9397FF1B
:1015A00009C090958095709561957F4F8F4F9F4FA3
:1015B000C0E001C0C1E0683621E0720781059105F5
:1015C00034F028E631E040E050E00E94391E653BEF
:1015D00071058105910534F0645B710981099109F8
:1015E00021E0C2276B3571058105910564F004EB9C
:1015F00010E020E030E068017901C61AD70AE80A55
:10160000F90AC701B601660F771FFB01EA5FFE4FBB
:101610006081718180E090E0CC2339F00E943B1C16
:1016200020E830E040E857E306C00E943B1C20E879
:1016300030E040E857EB0E94F21CCF911F910F91D0
:10164000FF90EF90DF90CF9008958F929F92AF928E
:10165000BF92CF92DF92EF92FF920F931F93CF939F
:10166000DF930E94101124E09695879577956795F2
:101670002A95D1F70E94C80A6B017C01609147044A
:1016800070E080E090E00E943B1C4B015C01A701F0
:101690009601C701B6010E94F21C9B01AC01C50175
:1016A000B4010E94F21C0E940C1C162FF62EF69418
:1016B000F694C0E0D0E08091290490912A04C817E4
:1016C000D90750F40F2D212F40E0BE0187E294E0AE
:1016D0000E9404162196EFCF87E294E0DF91CF912C
:1016E0001F910F91FF90EF90DF90CF90BF90AF9040
:1016F0009F908F900C94FB138EE392E09093E50201
:101700008093E402089580E00895089580E00895AC
:101710000F931F93CF93DF93EC018C010E94101164
:1017200021E0693B7B408105910508F420E08E8132
:10173000822B8E83882339F083E00E94FE1A892B46
:1017400011F401EA12E0C801DF91CF911F910F91CE
:101750000895CF93DF93EC010E945910CE010E94AF
:10176000CA101E8263E0CE010E94651069E070E03D
:1017700087E294E00E94A41560E084E00E94CF1A02
:1017800060E088E0DF91CF910C94CF1ACF93DF9384
:10179000EC010E94CA101092180361E088E00E94D8
:1017A000CF1A64E070E087E294E00E94A41587E21B
:1017B00094E00E94791387E294E00E94CA1687E2BF
:1017C00094E00E94FB1362E0CE01DF91CF910C9474
:1017D00065108EE492E09093EE028093ED020895FE
:1017E00008959091180381E0892708954F925F92A0
:1017F0006F927F928F929F92AF92BF92CF92DF9221
:10180000EF92FF920F931F93CF93DF93EC018B85A1
:10181000EF80F88409851A85811103C08D8588239E
:1018200041F120E030E0A901B701C8010E94ED1CA0
:101830001816E4F42DEC3CEC4CEC5CE3B701C80169
:101840000E94951B87FF05C07E2D6F2D902F812F45
:1018500004C07DEC6CEC9CEC8CE3272F362F492FD9
:10186000582FB701C8010E94281B30C081E08C8727
:1018700031C020E030E040E85FE3B701C8010E94DA
:10188000951B87FF27C09701A80160E070E080E802
:101890009FE30E94281B5B016C012AE037ED43E2C5
:1018A0005CE30E94951B87FF05C0BA2DAB2DFC2D74
:1018B000ED2D04C0BAE0A7EDF3E2ECE39701A80137
:1018C0006B2F7A2F8F2F9E2F0E94291B6F83788773
:1018D00089879A87CE010E9410110E943B1C20E04C
:1018E00030E046E953E40E949A1B4B015C01609191
:1018F000290470912A0480E090E00E943B1C9B0127
:10190000AC016BED7FE089EC90E40E949A1B2B0107
:101910003C01E12CF12C8091290490912A04E816D5
:10192000F906A0F5B7010F2C000C880B990B0E944B
:101930003D1CA30192010E94F21CA50194010E948A
:10194000291B0E945F1D9B01AC010E94F21C20E03C
:1019500030E04FE753E40E94F21C2F81388549851F
:101960005A850E94F21C0E940C1C262F062F10E0A4
:10197000159507951595079540E0B70187E294E026
:101980000E9404168FEFE81AF80AC5CF87E294E0A8
:10199000DF91CF911F910F91FF90EF90DF90CF904B
:1019A000BF90AF909F908F907F906F905F904F907F
:1019B0000C94FB13CF93DF93EC010E944610009729
:1019C000B9F48D85811105C082E00E94FE1A892B31
:1019D000A1F0CE010E941011613375478105910578
:1019E00048F48B85882381F08C85882369F002C0B8
:1019F000EC010AC0C4EED2E007C081E08D8763E647
:101A0000CE010E946512E5CFCE01DF91CF910895FE
:101A1000CF93DF93EC010E9459101D861F82188618
:101A200019861A861E821B861C86DF91CF91089527
:101A3000EF92FF920F931F93CF93DF93EC018B01F3
:101A40007A010E947512882311F081E00AC0EA949D
:101A5000EF2831F4F80180818B3611F481E08B8717
:101A600080E0DF91CF911F910F91FF90EF9008954B
:101A70008EE592E09093F5028093F4020895CF935F
:101A8000DF93EC0180910603909107038C179D076B
:101A9000C1F0009739F0DC01ED91FC910084F185F3
:101AA000E02D0995D0930703C0930603209749F0D2
:101AB000E881F9810680F781E02DCE01DF91CF9199
:101AC0000994DF91CF91089514BE0FB6F894A895AC
:101AD00080916000886180936000109260000FBE6A
:101AE00061E084E10E94931A60E084E10E94CF1AD1
:101AF00060E082E00E94931A61E082E00E94CF1AC7
:101B000060E083E00E94931A61E083E00E94CF1AB4
:101B100060E087E00E94931A61E087E00E94CF1A9C
:101B200061E08BE00E94931A60E08BE00E94CF1A84
:101B300061E088E00E94931A26E040E056E960E008
:101B400070E083E594E00E944F1883E594E0909361
:101B5000200480931F048DE49FE0909322048093DF
:101B60002104109224041092230483E00E94FE1AA0
:101B7000892B49F48DEE92E090930703809306033E
:101B800081EA92E002C08DEE92E00C943F0D2F921C
:101B90003F924F925F926F927F928F929F92AF92FD
:101BA000BF92CF92DF92EF92FF920F931F93CF934A
:101BB000DF9300D000D000D0CDB7DEB78C018DB759
:101BC0009EB79A83898348019EEF891A990AD401A6
:101BD0008D919C91892B09F4BCC0F801F3957F018C
:101BE000C8018C5F9E4F9C838B8328019AEF491A12
:101BF0009EEF590A80E2D82ED4018D919C91DC0190
:101C0000ED91FC910480F581E02D099518161906D7
:101C10000CF09FC0F40180819181DC01ED91FC9179
:101C20000680F781E02D0995803209F07FC0AB81F5
:101C3000BC81ED91FC91309731F4D2018D919C9152
:101C4000892B09F46FC06DB67EB6D7016D917C917A
:101C50008DB79EB7861B970B0FB6F8949EBF0FBE2D
:101C60008DBF01966130710549F4D8012C91203364
:101C700041F4DC012C9341E050E042C06115710554
:101C8000E9F140E050E020E030E026173707C0F5EA
:101C9000D801A20FB31FCC90D901AC0DB11D6A17AA
:101CA0007B0718F4B1E0CB1229C02F5F3F4F5801DA
:101CB000A20EB31EDC01A40FB51FBE83AD83332477
:101CC00033943C1470F44F5F5F4F2F5F3F4FD5014B
:101CD0002D905D01AD81BE812D92BE83AD83339485
:101CE000F0CFBFEFCB1689F26217730771F2DC01F8
:101CF000A40FB51FDC924F5F5F4FC7CF40E050E0AD
:101D0000309719F0BA01099508C0D201ED91FC9104
:101D1000309719F0BC01C80109950FB6F8947EBE42
:101D20000FBE6DBEF7011182108266CFD7012D91D3
:101D30003C911197A9014F5F5F4F4F3F510511F043
:101D400008F05ACF4D935C93F801E20FF31F8083A4
:101D500053CFE981FA810FB6F894FEBF0FBEEDBFF5
:101D600026960FB6F894DEBF0FBECDBFDF91CF91A0
:101D70001F910F91FF90EF90DF90CF90BF90AF90A9
:101D80009F908F907F906F905F904F903F902F909B
:101D90000895CF92DF92EF92FF92CF93DF938091DD
:101DA000060390910703009709F457C0DC01ED91F9
:101DB000FC910284F385E02D099581114EC080913C
:101DC0000603909107030097F1F1DC01ED91FC917E
:101DD0000480F581E02D0995EC010E94C219C090A4
:101DE0000203D0900303E0900403F09005039B01ED
:101DF000AC012C193D094E095F0969017A0132E2F3
:101E0000C316D104E104F104D8F08DE193E00E94FF
:101E1000C70D0E94C219609302037093030380935D
:101E20000403909305038091060390910703DC015E
:101E3000ED91FC910280F381E02DB701A601099597
:101E4000CE010E943F0D8DE193E0DF91CF91FF9095
:101E5000EF90DF90CF900C94C70D0E94C219C090F4
:101E60001903D0901A03E0901B03F0901C03DC01CF
:101E7000CB018C199D09AE09BF0989399A43A10587
:101E8000B10508F49CCF8DEE92E0DF91CF91FF90E9
:101E9000EF90DF90CF900C943F0D0F931F93CF9353
:101EA000DF93EC018B016130710569F58881803326
:101EB00079F08936D9F08E3231F50E94C2196093DB
:101EC000190370931A0380931B0390931C031BC088
:101ED000F8941092B0001092800014BC14BEE0E0A0
:101EE000FFE3DF91CF911F910F91099462E683E5A3
:101EF00094E00E94E61783E594E0DF91CF911F9173
:101F00000F910C942D188091060390910703009770
:101F100069F0DC01ED91FC910190F081E02DA801C8
:101F2000BE01DF91CF911F910F910994DF91CF9165
:101F30001F910F91089580E008950895089581E01C
:101F40000895CF92DF92EF92FF920F931F93CF935A
:101F5000DF93EC012C858A859B85222391F018164E
:101F600019064CF49C018530910514F024E030E012
:101F7000821B930B14C081E08D87C12CD12C76017C
:101F800011C08F3F9105CCF72FEF30E0281B390BA4
:101F90002530310514F024E030E0820F931F9B8739
:101FA0008A87EBCF0091290410912A04C016D1062C
:101FB00038F58E819F81A885B985A7019601281BD8
:101FC000390B4A0B5B0BCA01B901980140E050E0A4
:101FD0000E94171E262F8A859B85B8010E94EF1D3F
:101FE000269F402D112400E020E0B60187E294E016
:101FF0000E9404163FEFC31AD30AE30AF30AD2CFB2
:1020000087E294E00E94FB138E819F81A885B985A9
:102010000196A11DB11D8E839F83A887B987DF918B
:10202000CF911F910F91FF90EF90DF90CF90089587
:10203000CF93DF93EC010E945910CE010E948110D2
:102040001B861A861E821F82188619861C861D868C
:1020500064E6CE010E9465120E94C21960931903C2
:1020600070931A0380931B0390931C03DF91CF910D
:102070000895E8E0F3E08EE692E091838083168293
:1020800017821086118613861286089583E00E94B7
:10209000FE1A019759F0809116039091170300974B
:1020A00039F01092170310921603089588E093E018
:1020B0000895CF93DF93EC010E94C2196A837B835A
:1020C0008C839D83DF91CF910895CF93C62FCC232E
:1020D000B1F061E084E10E94CF1A64E670E080E034
:1020E00090E00E94F31960E084E10E94CF1A64E658
:1020F00070E080E090E00E94F319C150E8CFCF91EA
:102100000895FF920F931F93CF93DF938091C001A7
:10211000882311F14BE050E06DE374E085E294E038
:102120000E94150A90934904809348040DE314E03B
:10213000C0E0D0E0F801F1908F01CE010E94931F22
:10214000F81621F06F2DCE010E949B1F2196CD30F5
:10215000D10581F71092C001DF91CF911F910F91AE
:10216000FF900895CF93DF93CDE3D4E0698170E0D1
:1021700087E294E00E948C13E881F0E0EE0FFF1FED
:10218000E454FE4F6081718187E294E0DF91CF914A
:102190000C94C413EF92FF920F931F93CF93DF938E
:1021A0008C018DE3E82E84E0F82EC0E0D0E0CE0173
:1021B0000E94931FF70181937F012196CD30D105B5
:1021C000B1F71092C0014BE050E06DE374E085E29E
:1021D00094E00E94150A2091480430914904821726
:1021E0009307A9F08DE0E1ECF1E0ADE3B4E00190FC
:1021F0000D928A95E1F74BE050E06DE374E085E2E3
:1022000094E00E94150A9093490480934804C80101
:10221000DF91CF911F910F91FF90EF900C94B2102E
:102220000F931F93CF93DF93EC010E94C2190A8191
:102230001B812C813D81601B710B820B930BDF9105
:10224000CF911F910F910895FB018081823090F40E
:102250008181813278F48381948189399A4350F461
:1022600081E04581568167817085413452446F40D9
:10227000710508F080E008951F93CF93DF93EB0181
:1022800010E0812F012E000C990B609129047091B0
:102290002A0486179707F8F440913F049B012150C8
:1022A00031098217930749F4840F911D0E94EF1D95
:1022B00020E03FEF40E050E007C0840F911D0E94F6
:1022C000EF1D20E030E0A901BC0187E294E00E940C
:1022D00055161F5FD6CF87E294E00E94FB13BE0124
:1022E00080E090E00E94F319C0E06C2F0C2E000CEF
:1022F000770B8091290490912A046817790748F494
:1023000020E030E0A90187E294E00E945516CF5FFB
:10231000ECCF87E294E0DF91CF911F910C94FB13F7
:102320004F925F926F927F928F929F92AF92BF92E5
:10233000CF92DF92EF92FF920F931F93CF93DF9391
:10234000CDB7DEB75B01FA010DB71EB78E5F9E4FAA
:102350003C01DC01ED90FC90E114F10409F466C04D
:10236000672B09F463C0309709F460C0CA016EEFAF
:1023700070E00E94EF1DCF010196680F791F8DB7A5
:102380009EB7861B970B0FB6F8949EBF0FBE8DBFEE
:102390006DB77EB76F5F7F4F412C512C21E030E04D
:1023A0009924939480E090E0D5018D905D01BFEF7A
:1023B0004B1A5B0AA9014F5F5F4FA0E28A1206C069
:1023C000860F971FDC019C92C90116C06B01C20EDB
:1023D000D31ED6018C929394BFEF9B1629F0E4157F
:1023E000F50569F09A01E0CF860F971FDC019C92FA
:1023F000CA01A9014E5F5F4F99249394F0CFFB016E
:10240000E80FF91F9082D701ED91FC910280F381D2
:10241000E02DC7010995F30180819181DC01ED91E7
:10242000FC910190F081E02D60E209950FB6F894DF
:102430001EBF0FBE0DBF0FB6F8941EBF0FBE0DBF5F
:10244000DF91CF911F910F91FF90EF90DF90CF9090
:10245000BF90AF909F908F907F906F905F904F90C4
:102460000895CF93DF93CDB7DEB72E970FB6F894CC
:10247000DEBF0FBECDBF84E289838DE0EDE3F4E0E3
:10248000DE01129601900D928A95E1F74EE050E040
:10249000BE016F5F7F4F8DE193E00E94901183E555
:1024A00094E00E942D182E960FB6F894DEBF0FBE52
:1024B000CDBFDF91CF91089550E08DE193E00E9470
:1024C000901183E594E00C942D18CF93DF931F9225
:1024D000CDB7DEB7698341E0BE016F5F7F4F0E94D9
:1024E0005C120F90DF91CF910895EF92FF920F93BE
:1024F0001F93CF93DF934115510509F4B7C0EB014A
:102500008C0188818C3309F48FC048F4833209F43C
:10251000AFC0843261F1813209F0A8C06DC08F3341
:1025200009F47EC068F48E3309F0A0C080913F04A6
:1025300090E0019660913E0470E00E94031E7CC012
:10254000813671F0863609F091C087ED92E0909364
:1025500017038093160366E4C8010E94651288C0C1
:1025600084E992E0909317038093160381C04E3064
:10257000510521F042E06AE772E013C07B018FEF62
:10258000E81AF80A4BE050E0B70185E294E00E94B7
:10259000150A2C853D858217930739F042E06DE7D7
:1025A00072E0C8010E945C1263C0B701C8010E94BA
:1025B0002411C82F811104C042E060E872E0F1CF1D
:1025C0004DE050E0B7018DE394E00E947F1F892B1E
:1025D00071F081E08093C0018DE0F701ADE3B4E0DC
:1025E00001900D928A95E1F7C8010E94B2106BE646
:1025F000C8010E9465123DC042305105C9F581E015
:102600009981911180E0809318030E94C219609310
:10261000190370931A0380931B0390931C0328C023
:10262000C8010E94311224C080913F04811103C06F
:1026300080913E0401C0815080933F044BE050E004
:102640006DE374E085E294E00E94150A90934904DA
:102650008093480481E08093C001C8010E94311238
:1026600060E971E0C8010E943C1102C0C0E001C0F5
:10267000C1E08C2FDF91CF911F910F91FF90EF90D0
:1026800008952091BC013091BD0144E050E060E12B
:1026900070E087E294E00E94E21585E294E00E94F7
:1026A0001C0A10921E0410921D0410922004109215
:1026B0001F041092220410922104109224041092FC
:1026C0002304089587E294E00C946613CF93DF937C
:1026D000EC0189859A850E94F61E8E819F8197FD67
:1026E00005C060E0DF91CF910C94931ADF91CF91F8
:1026F0000895CF93DF93EC018E819F8197FD07C0F2
:1027000061E00E94931A60E08E810E94CF1A81E0FE
:102710008983DF91CF910895EF92FF920F931F93DA
:10272000CF93DF93EC017B0189859A850E94F61E89
:102730009E858B85981719F084E090E002C083E0B5
:1027400090E08E9D80018F9D100D9E9D100D112497
:102750001D830C83C8010E945E1E9A87898700979B
:1027600041F0A80160E070E00E948C1FFB82EA82C9
:1027700004C01D821C821B821A82DF91CF911F919F
:102780000F91FF90EF900895FC0131E096858385CD
:10279000981330E0CB0126E0969587952A95E1F7CE
:1027A000282F23702687CB0144E0969587954A957C
:1027B000E1F783708387AB0156954795569547950A
:1027C00043704487962F9370958791E06F3F710512
:1027D00011F008F090E0908341855285452B51F02F
:1027E00091E0281390E0391729F062817381CF01BD
:1027F0000C948C130895CF92DF92EF92FF920F9377
:102800001F93CF93DF93CDB7DEB729970FB6F89418
:10281000DEBF0FBECDBF8C01DC0119968D919C915E
:102820001A97892B09F481C10E94CE19F801C78437
:10283000D088E188F288DC01CB018C199D09AE09B2
:10284000BF098C329140A105B10570F3F894D8010D
:1028500014968D919C9115979A83898319960D9062
:10286000BC91A02D7D01EFEFEE1AFE0A8C918987B5
:10287000D8018C9153960D90BC91A02D882309F41A
:102880001AC11D82AB32B10509F059C09BB1F801E4
:102890008589982B98879BB1809589238F838F8119
:1028A0008E83898587FF02C088858E8358856F81D6
:1028B00049853E812D8189819A81D7015BB9262F77
:1028C0003BB900C046FD252F6BB900C05BB9362F60
:1028D0002BB900C045FD352F6BB900C05BB9262F61
:1028E0003BB900C044FD252F6BB900C05BB9362F42
:1028F0002BB900C043FD352F6BB900C05BB9262F43
:102900003BB900C042FD252F6BB900C05BB9362F23
:102910002BB900C041FD352F6BB900C05BB9262F24
:102920003BB900C040FD252F6BB901975BB9362F2D
:102930002BB94D9147FD352F6BB901F6B8C0A532C3
:10294000B10509F059C095B1F8018589982B988790
:1029500095B1809589238F838F818E83898587FFA9
:1029600002C088858E8358856F8149853E812D817F
:1029700089819A81D70155B9262F35B900C046FD06
:10298000252F65B900C055B9362F25B900C045FDC2
:10299000352F65B900C055B9262F35B900C044FDA3
:1029A000252F65B900C055B9362F25B900C043FDA4
:1029B000352F65B900C055B9262F35B900C042FD85
:1029C000252F65B900C055B9362F25B900C041FD86
:1029D000352F65B900C055B9262F35B900C040FD67
:1029E000252F65B9019755B9362F25B94D9147FD6A
:1029F000352F65B901F65BC0989709F08CC098B186
:102A0000F8018589982B988798B1809589238F83C1
:102A10008F818E83898587FF02C088858E83588544
:102A20006F8149853E812D8189819A81D70158B96D
:102A3000262F38B900C046FD252F68B900C058B907
:102A4000362F28B900C045FD352F68B900C058B9E8
:102A5000262F38B900C044FD252F68B900C058B9E9
:102A6000362F28B900C043FD352F68B900C058B9CA
:102A7000262F38B900C042FD252F68B900C058B9CB
:102A8000362F28B900C041FD352F68B900C058B9AC
:102A9000262F38B900C040FD252F68B9019758B9D5
:102AA000362F28B94D9147FD352F68B901F6498772
:102AB0003E832D832EC09C91F8018589982B9887A1
:102AC0009C91809589238F838F818C8388E08B8371
:102AD00058856F8149853B812C8189819A81F701D5
:102AE0005C9347FD252F2C93262F3A9531F0441FF8
:102AF0006C9300C000C000C0F3CF6C93000038E0BE
:102B00004191019769F7F801B48BA38B49873B8307
:102B10002C839A83898378940E94CE19D8011F96BA
:102B20006D937D938D939C93529729960FB6F8944D
:102B3000DEBF0FBECDBFDF91CF911F910F91FF90F0
:102B4000EF90DF90CF9008950F931F93CF93DF9373
:102B50008C01EB01DC0111968C911197882349F0CF
:102B600016968D919C91179797FD03C060E00E9487
:102B7000931AF801D783C6838181882341F061E0ED
:102B80008C2F0E94931A60E08C2F0E94CF1AFE01B6
:102B9000EC54F74FE491F0E0EE0FFF1FEB52F74FCC
:102BA00085919491D80154969C938E935397FE01EE
:102BB000E356F74FE4915596EC93DF91CF911F9137
:102BC0000F910895EF92FF920F931F93CF93DF938E
:102BD000EC017B018A01198218861A8619861F86E4
:102BE000188A198A1A8AB9010E94C413B701CE0142
:102BF0000E948C13B801CE01DF91CF911F910F91EC
:102C0000FF90EF900C94A4150F931F93DC01129684
:102C10008D919C9113976817790708F043C0189617
:102C20008C911897882361F0489FA0011124452FAB
:102C3000829F90011124232F809F80011124012F56
:102C40001E968C911E971B969C911B971996ED9141
:102C5000FC911A97891308C0CB01880F991F680F40
:102C6000791F6E0F7F1F0AC0660F771F660F771FD1
:102C70006E0F7F1FFB01E80FF11D10821B968C91D8
:102C80001B97FB01E80FF11D40831C968C911C974C
:102C9000FB01E80FF11D20831D968C91FB01E80FCD
:102CA000F11D00831F910F9108957F928F929F9243
:102CB000AF92BF92CF92DF92EF92FF920F931F934A
:102CC000CF93DF93FC01828193816817790708F025
:102CD00053C04A01AA24BB24782CC32ED42EE52E3F
:102CE000FF24BC2DA22F8085882361F0889E40019F
:102CF0001124792C8C9D60011124BD2D829F7001BF
:102D00001124AF2D9685D385E184F2849D1308C0EC
:102D1000CB01880F991F680F791F6E0D7F1D1CC096
:102D2000660F771F660F771F6E0D7F1D052F11270A
:102D3000222733277B01E90EF11C811102C0202FCD
:102D400009C090E0809F6001819FD00C909FD00CC3
:102D500011242D2DE701288383859B01280F311D28
:102D6000E90178828485EB01C80FD11DB883858580
:102D7000FB01E80FF11DA083DF91CF911F910F910F
:102D8000FF90EF90DF90CF90BF90AF909F908F908B
:102D90007F900895FC014481558160E070E0818559
:102DA00092850C948C1F0895982F813039F020F073
:102DB000823051F489B103C083B101C086B1E42FE0
:102DC000F0E0E05BFB4F8083E92FF0E0E559FF4F37
:102DD0008081682B60834091680021E030E0B90178
:102DE00002C0660F771F9A95E2F7CB01842B809380
:102DF00068000895E82FF0E0E559FF4F9081609555
:102E000069236083908191110FC04091680021E097
:102E100030E0B90102C0660F771F8A95E2F7CB0157
:102E2000809584238093680008950895E091DC01E3
:102E3000F091DD010994E091DA01F091DB01099450
:102E4000E091D801F091D9010994E091D601F09177
:102E5000D7010994E091D401F091D5010994E09152
:102E6000D201F091D3010994E091D001F091D10108
:102E70000994E091CE01F091CF0109941F920F9235
:102E80000FB60F9211242F933F934F935F936F933D
:102E90007F938F939F93AF93BF93CF93EF93FF93C2
:102EA00029B1C0915204822F8C2790914C04922317
:102EB00030914F04C323C92BC82320935204C4FD6F
:102EC0000E942A17C5FD0E942F17C6FD0E943417C5
:102ED000C7FD0E943917C0FD0E941617C1FD0E9450
:102EE0001B17C2FD0E942017C3FD0E942517FF91EA
:102EF000EF91CF91BF91AF919F918F917F916F9102
:102F00005F914F913F912F910F900FBE0F901F90A7
:102F10001895FC01918D228D892F90E0805C9F4F48
:102F2000821B91098F7399270895FC01918D828DE1
:102F3000981731F0828DE80FF11D858D90E008958E
:102F40008FEF9FEF0895FC01918D828D981761F0AE
:102F5000828DDF01A80FB11D5D968C91928D9F5FD0
:102F60009F73928F90E008958FEF9FEF089587E011
:102F700099E1892B49F080E090E0892B29F00E94AB
:102F8000071981110C9400000895FC01848DDF0164
:102F9000A80FB11DA35ABF4F2C91848D90E00196CC
:102FA0008F739927848FA689B7892C93A089B189BB
:102FB0008C9180648C93938D848D981306C00288C5
:102FC000F389E02D80818F7D80830895EF92FF92B9
:102FD0000F931F93CF93DF93EC0181E0888F9B8D3C
:102FE0008C8D981305C0E889F989808185FD24C0FE
:102FF000F62E0B8D10E00F5F1F4F0F731127E02E81
:103000008C8DE8120CC00FB607FCFACFE889F9895D
:10301000808185FFF5CFCE010E94C517F1CF8B8D42
:10302000FE01E80FF11DE35AFF4FF0820B8FEA8992
:10303000FB898081806207C0EE89FF896083E8890F
:10304000F98980818064808381E090E0DF91CF9175
:103050001F910F91FF90EF900895CF93DF93EC01B4
:10306000888D8823C9F0EA89FB89808185FD05C0A8
:10307000A889B9898C9186FD0FC00FB607FCF5CFE2
:10308000808185FFF2CFA889B9898C9185FFEDCF2A
:10309000CE010E94C517E7CFDF91CF910895CF925F
:1030A000DF92EF92FF921F93CF93DF93EC016A01BF
:1030B0007B01122F60E874E88EE190E0A701960191
:1030C0000E94171EDA01C9010197A109B109B6953D
:1030D000A795979587959C01E889F98982E0808377
:1030E000211580E13807A8F0E889F989108260E4A9
:1030F00072E48FE090E0A70196010E94171EDA01AA
:10310000C9010197A109B109B695A795979587952A
:103110009C01EC85FD853083EE85FF852083188E2C
:10312000EC89FD891083EA89FB8980818061808335
:10313000EA89FB89808188608083EA89FB898081B4
:1031400080688083EA89FB8980818F7D8083DF911D
:10315000CF911F91FF90EF90DF90CF9008951F9235
:103160000F920FB60F9211242F938F939F93EF938B
:10317000FF93E0916304F09164048081E09169041D
:10318000F0916A0482FD12C0908180916C048F5F7F
:103190008F7320916D04821751F0E0916C04F0E080
:1031A000ED5AFB4F958F80936C0401C08081FF9195
:1031B000EF919F918F912F910F900FBE0F901F90C5
:1031C00018951F920F920FB60F9211242F933F93D1
:1031D0004F935F936F937F938F939F93AF93BF931F
:1031E000EF93FF9383E594E00E94C517FF91EF9161
:1031F000BF91AF919F918F917F916F915F914F910F
:103200003F912F910F900FBE0F901F90189583E55F
:1032100094E00E94891721E0892B09F420E0822F95
:103220000895E3E5F4E01382128288EE93E0A0E0D3
:10323000B0E084839583A683B78387E892E0918387
:10324000808385EC90E09587848784EC90E0978775
:10325000868780EC90E0918B808B81EC90E0938B63
:10326000828B82EC90E0958B848B86EC90E0978B40
:10327000868B118E128E138E148E0895CF92DF924C
:10328000EF92FF920F931F93CF93DF936C017A011C
:103290008B01C0E0D0E0CE15DF0581F0D8016D9143
:1032A0008D01D601ED91FC910190F081E02DC601D8
:1032B0000995892B11F02196EECF7E01C701DF9190
:1032C000CF911F910F91FF90EF90DF90CF900895D5
:1032D00008950E942F1A0E9468190E94640DC7EB7E
:1032E000D7E10E94C90E2097E1F30E94B717F9CFEA
:1032F0001F920F920FB60F9211242F933F938F932B
:103300009F93AF93BF938091F1049091F204A091A9
:10331000F304B091F4043091F00426E0230F2D372C
:1033200020F40296A11DB11D05C029E8230F0396C4
:10333000A11DB11D2093F0048093F1049093F20439
:10334000A093F304B093F4048091F5049091F604F3
:10335000A091F704B091F8040196A11DB11D8093CE
:10336000F5049093F604A093F704B093F804BF918A
:10337000AF919F918F913F912F910F900FBE0F9022
:103380001F9018952FB7F8946091F1047091F20492
:103390008091F3049091F4042FBF08953FB7F894FF
:1033A0008091F5049091F604A091F704B091F8048F
:1033B00026B5A89B05C02F3F19F00196A11DB11D90
:1033C0003FBFBA2FA92F982F8827820F911DA11DCB
:1033D000B11DBC01CD0143E0660F771F881F991F07
:1033E0004A95D1F708958F929F92AF92BF92CF9254
:1033F000DF92EF92FF926B017C010E94CE194B018C
:103400005C01C114D104E104F10401F10E94271B05
:103410000E94CE19DC01CB0188199909AA09BB09C0
:10342000883E9340A105B10560F321E0C21AD1089E
:10343000E108F10888EE880E83E0981EA11CB11CFB
:10344000C114D104E104F10419F7DBCFFF90EF9030
:10345000DF90CF90BF90AF909F908F900895789419
:1034600084B5826084BD84B5816084BD85B5826089
:1034700085BD85B5816085BDEEE6F0E08081816027
:103480008083E1E8F0E01082808182608083808127
:1034900081608083E0E8F0E0808181608083E1EBFF
:1034A000F0E0808184608083E0EBF0E080818160E7
:1034B0008083EAE7F0E0808184608083808182609D
:1034C000808380818E7F808380818068808310925A
:1034D000C1000895843081F028F4823099F083305F
:1034E000A1F008958830A9F08930B9F08530D1F481
:1034F000809180008F7D03C0809180008F778093C2
:103500008000089584B58F7702C084B58F7D84BD17
:1035100008958091B0008F7703C08091B0008F7DB7
:103520008093B0000895CF93DF9390E0FC01E356C1
:10353000F74F2491FC01EC54F74F8491882361F1FB
:1035400090E0880F991FFC01E152F74FC591D4918B
:10355000FC01EB52F74FA591B491611109C09FB7DF
:10356000F8948881209582238883EC912E230BC0C8
:10357000623061F49FB7F8948881322F30958323AD
:103580008883EC912E2B2C939FBF06C08FB7F894A5
:10359000E8812E2B28838FBFDF91CF9108951F9351
:1035A000CF93DF93282F30E0F901EA57F74F84914A
:1035B000F901E356F74FD491F901EC54F74FC49158
:1035C000CC23C1F0162F81110E946A1AEC2FF0E073
:1035D000EE0FFF1FEB52F74FA591B4919FB7F894F0
:1035E000111104C08C91D095D82302C0EC91DE2B30
:1035F000DC939FBFDF91CF911F910895CF93DF930D
:10360000282F30E0F901EA57F74F8491F901E3568A
:10361000F74FD491F901EC54F74FC491CC2391F0BA
:1036200081110E946A1AEC2FF0E0EE0FFF1FE553A4
:10363000F74FA591B491EC91ED2381E090E021F456
:1036400080E002C080E090E0DF91CF91089508957E
:103650005058BB27AA270E94401B0C94B31C0E9401
:10366000A51C38F00E94AC1C20F039F49F3F19F4DF
:1036700026F40C94A21C0EF4E095E7FB0C949C1C21
:10368000E92F0E94C41C58F3BA1762077307840716
:10369000950720F079F4A6F50C94E61C0EF4E0955D
:1036A0000B2EBA2FA02D0B01B90190010C01CA01FC
:1036B000A0011124FF27591B99F0593F50F4503EA7
:1036C00068F11A16F040A22F232F342F4427585F99
:1036D000F3CF469537952795A795F0405395C9F7B1
:1036E0007EF41F16BA0B620B730B840BBAF0915069
:1036F000A1F0FF0FBB1F661F771F881FC2F70EC008
:10370000BA0F621F731F841F48F4879577956795DA
:10371000B795F7959E3F08F0B0CF9395880F08F0C6
:103720009927EE0F9795879508950E94781C08F4C5
:1037300081E008950E94AE1B0C94B31C0E94AC1C47
:1037400058F00E94A51C40F029F45F3F29F00C942A
:103750009C1C51110C94E71C0C94A21C0E94C41CCC
:1037600068F39923B1F3552391F3951B550BBB27B0
:10377000AA2762177307840738F09F5F5F4F220FF5
:10378000331F441FAA1FA9F335D00E2E3AF0E0E8EC
:1037900032D091505040E695001CCAF72BD0FE2F36
:1037A00029D0660F771F881FBB1F261737074807CA
:1037B000AB07B0E809F0BB0B802DBF01FF27935882
:1037C0005F4F3AF09E3F510578F00C949C1C0C948E
:1037D000E71C5F3FE4F3983ED4F3869577956795B1
:1037E000B795F7959F5FC9F7880F911D96958795B7
:1037F00097F90895E1E0660F771F881FBB1F6217D6
:1038000073078407BA0720F0621B730B840BBA0B93
:10381000EE1F88F7E09508950E94CC1C88F09F5712
:1038200098F0B92F9927B751B0F0E1F0660F771FE4
:10383000881F991F1AF0BA95C9F714C0B13091F0DA
:103840000E94E61CB1E008950C94E61C672F782FC7
:103850008827B85F39F0B93FCCF38695779567959F
:10386000B395D9F73EF490958095709561957F4F0B
:103870008F4F9F4F0895E89409C097FB3EF49095B1
:103880008095709561957F4F8F4F9F4F9923A9F039
:10389000F92F96E9BB279395F695879577956795C8
:1038A000B795F111F8CFFAF4BB0F11F460FF1BC00C
:1038B0006F5F7F4F8F4F9F4F16C0882311F096E99F
:1038C00011C0772321F09EE8872F762F05C066234D
:1038D00071F096E8862F70E060E02AF09A95660F06
:1038E000771F881FDAF7880F9695879597F90895BF
:1038F000990F0008550FAA0BE0E8FEEF1616170601
:10390000E807F907C0F012161306E407F50798F068
:10391000621B730B840B950B39F40A2661F0232B81
:10392000242B252B21F408950A2609F4A140A695FD
:103930008FEF811D811D089597F99F6780E870E0E2
:1039400060E008959FEF80EC089500240A94161615
:10395000170618060906089500240A94121613067D
:10396000140605060895092E0394000C11F488230B
:1039700052F0BB0F40F4BF2B11F460FF04C06F5F27
:103980007F4F8F4F9F4F089557FD9058440F551FFD
:1039900059F05F3F71F04795880F97FB991F61F0D1
:1039A0009F3F79F087950895121613061406551F48
:1039B000F2CF4695F1DF08C0161617061806991FB4
:1039C000F1CF86957105610508940895E894BB27A9
:1039D00066277727CB0197F908950E94781C08F491
:1039E0008FEF08950E94051D0C94B31C0E94A51C26
:1039F00038F00E94AC1C20F0952311F00C949C1C14
:103A00000C94A21C11240C94E71C0E94C41C70F39B
:103A1000959FC1F3950F50E0551F629FF001729F73
:103A2000BB27F00DB11D639FAA27F00DB11DAA1F82
:103A3000649F6627B00DA11D661F829F2227B00DCF
:103A4000A11D621F739FB00DA11D621F839FA00D5A
:103A5000611D221F749F3327A00D611D231F849FAA
:103A6000600D211D822F762F6A2F11249F57504001
:103A70009AF0F1F088234AF0EE0FFF1FBB1F661F7C
:103A8000771F881F91505040A9F79E3F510580F045
:103A90000C949C1C0C94E71C5F3FE4F3983ED4F319
:103AA000869577956795B795F795E7959F5FC1F7E9
:103AB000FE2B880F911D9695879597F908959F93F2
:103AC0000E94691D0F9007FCEE5F0C94921D0C94F0
:103AD000A21C0E94CC1CD8F3E894E0E0BB279F57BF
:103AE000F0F02AED3FE049EC06C0EE0FBB0F661F79
:103AF000771F881F28F0B23A62077307840728F0FF
:103B0000B25A620B730B840BE3959A9572F7803867
:103B100030F49A95BB0F661F771F881FD2F7904825
:103B20000C94A81DEF93E0FF07C0A2EA2AED3FE046
:103B300049EC5FEB0E94401B0E94B31C0F90039462
:103B400001FC9058E8E6F0E00C94B41D9F3F31F082
:103B5000915020F4879577956795B795880F911DBB
:103B60009695879597F908959F938F937F936F9379
:103B7000FF93EF939B01AC010E94F21CEF91FF9128
:103B80000E94C81D2F913F914F915F910C94F21CA0
:103B9000DF93CF931F930F93FF92EF92DF927B01FE
:103BA0008C01689406C0DA2EEF010E94051DFE010B
:103BB000E894A5912591359145915591A6F3EF0192
:103BC0000E94401BFE019701A801DA9469F7DF907B
:103BD000EF90FF900F911F91CF91DF910895AA1B55
:103BE000BB1B51E107C0AA1FBB1FA617B70710F0E8
:103BF000A61BB70B881F991F5A95A9F7809590951A
:103C0000BC01CD01089597FB072E16F4009407D050
:103C100077FD09D00E94EF1D07FC05D03EF490957A
:103C200081959F4F0895709561957F4F0895A1E20A
:103C30001A2EAA1BBB1BFD010DC0AA1FBB1FEE1F26
:103C4000FF1FA217B307E407F50720F0A21BB30B71
:103C5000E40BF50B661F771F881F991F1A9469F7ED
:103C600060957095809590959B01AC01BD01CF0149
:103C70000895052E97FB1EF400940E94501E57FDD8
:103C800007D00E94171E07FC03D04EF40C94501E60
:103C900050954095309521953F4F4F4F5F4F089578
:103CA00090958095709561957F4F8F4F9F4F0895A8
:103CB000EE0FFF1F0590F491E02D09940F931F93D1
:103CC000CF93DF938230910510F482E090E0E09191
:103CD000FB04F091FC0420E030E0A0E0B0E030977D
:103CE00019F1408151810281138148175907C8F0A9
:103CF0008417950769F4109731F012960C93129778
:103D000013961C9327C00093FB041093FC0422C05D
:103D10002115310519F04217530718F49A01BD0116
:103D2000EF01DF01F801DBCF21153105F9F0281B88
:103D3000390B2430310580F48A819B81611571052E
:103D400021F0FB019383828304C09093FC04809351
:103D5000FB04FE01329644C0FE01E20FF31F819383
:103D6000919322503109398328833AC02091F90474
:103D70003091FA04232B41F4209102013091030188
:103D80003093FA042093F90420910001309101014D
:103D90002115310541F42DB73EB7409104015091F2
:103DA0000501241B350BE091F904F091FA04E217A8
:103DB000F307A0F42E1B3F0B2817390778F0AC014E
:103DC0004E5F5F4F2417350748F04E0F5F1F50932B
:103DD000FA044093F9048193919302C0E0E0F0E08B
:103DE000CF01DF91CF911F910F910895CF93DF9372
:103DF000009709F481C0FC01329713821282A091CE
:103E0000FB04B091FC04109781F420813181820F72
:103E1000931F2091F9043091FA042817390751F5BE
:103E2000F093FA04E093F90467C0ED0120E030E07C
:103E3000CE17DF0740F44A815B819E014115510591
:103E4000F1F0EA01F5CFD383C28340815181840F21
:103E5000951FC817D90759F488819981840F951F38
:103E60000296918380838A819B819383828321152B
:103E7000310529F4F093FC04E093FB043DC0E90113
:103E8000FB83EA8349915991C40FD51FEC17FD07B5
:103E900061F480819181840F951F0296E9019983D5
:103EA0008883828193819B838A83E0E0F0E012968D
:103EB0008D919C911397009719F0FD01DC01F7CFCC
:103EC0008D919C9111979D012E5F3F4F820F931F03
:103ED0002091F9043091FA042817390769F43097D2
:103EE00029F41092FC041092FB0402C01382128287
:103EF000B093FA04A093F904DF91CF910895FB01E8
:103F0000DC0104C08D910190801921F44150504092
:103F1000C8F7881B990B0895DC0101C06D934150CF
:103F20005040E0F70895F999FECF92BD81BDF89A0F
:103F3000992780B50895262FF999FECF1FBA92BD13
:103F400081BD20BD0FB6F894FA9AF99A0FBE01967A
:103F5000089514E0C0E8D4E004C0FE010E94581E99
:0C3F60002196C138D107C9F7F894FFCFB3
:103F6C000000FD04800000007804EF08660DDB11F2
:103F7C005016C21A331FA1230C28742CD930393592
:103F8C009639EE3D42429046D94A1B4F58538E57B4
:103F9C00BE5BE65F07641F68306C397038742F782D
:103FAC001C7C0080D983A8876D8B278FD59279963E
:103FBC00109A9B9D1BA18DA4F3A74BAB97AED4B1CC
:103FCC0004B526B839BB3EBE34C11BC4F2C6BAC94F
:103FDC0073CC1BCFB3D13BD4B2D619D96EDBB3DDC6
:103FEC00E6DF08E218E416E603E8DDE9A5EB5BED95
:103FFC00FEEE8FF00DF277F3CFF414F646F764F87B
:10400C006FF967FA4BFB1BFCD8FC81FD17FE98FE81
:10401C0006FF5FFFA5FFD7FFF5FFFFFF5200D200A1
:10402C0001001000B80B1027000000FF0000D31691
:10403C00D316D316D316D316D316D316D316000015
:10404C00FF000088FF0000FF000000000000B1042A
:10405C00BF049B05BF05AB04AC0400000000E205E7
:10406C00FD057906D8058E06E00500000000400726
:10407C00A806BD060B072807A906000000006E075E
:10408C0070076B088A085008690700000000650A71
:10409C002A0A200A5C0A1D0A1E0A00000000A80A4F
:1040AC00250B850A9D0A7F0A800A00000000830BFD
:1040BC00850B880BA90BC60B860B00000000180D96
:1040CC00F60BDA0C080DF00BF10B000000009B0F47
:1040DC00A10F9D0F18109E0F9F0F45310045320008
:1040EC0045330000000000E6173E198917A3179509
:0440FC00172D180064
:00000001FF
